{
  "address": "0x1BfcC8a7d2D5AeBf31e6A993CAbE8c3b5768916E",
  "abi": [
    {
      "inputs": [
        {
          "internalType": "address",
          "name": "_owner",
          "type": "address"
        },
        {
          "internalType": "address",
          "name": "rewardMaster",
          "type": "address"
        },
        {
          "internalType": "address",
          "name": "pantherPool",
          "type": "address"
        },
        {
          "internalType": "address",
          "name": "zkpToken",
          "type": "address"
        },
        {
          "internalType": "address",
          "name": "nftToken",
          "type": "address"
        },
        {
          "internalType": "uint32",
          "name": "rewardingStart",
          "type": "uint32"
        },
        {
          "internalType": "uint32",
          "name": "rewardedPeriod",
          "type": "uint32"
        }
      ],
      "stateMutability": "nonpayable",
      "type": "constructor"
    },
    {
      "anonymous": false,
      "inputs": [
        {
          "indexed": true,
          "internalType": "address",
          "name": "staker",
          "type": "address"
        },
        {
          "indexed": false,
          "internalType": "uint256",
          "name": "firstLeafId",
          "type": "uint256"
        },
        {
          "indexed": false,
          "internalType": "uint256",
          "name": "zkp",
          "type": "uint256"
        },
        {
          "indexed": false,
          "internalType": "uint256",
          "name": "prp",
          "type": "uint256"
        },
        {
          "indexed": false,
          "internalType": "uint256",
          "name": "nft",
          "type": "uint256"
        }
      ],
      "name": "RewardGenerated",
      "type": "event"
    },
    {
      "anonymous": false,
      "inputs": [
        {
          "indexed": false,
          "internalType": "uint256",
          "name": "newLimit",
          "type": "uint256"
        }
      ],
      "name": "ZkpRewardLimitUpdate",
      "type": "event"
    },
    {
      "inputs": [],
      "name": "OWNER",
      "outputs": [
        {
          "internalType": "address",
          "name": "",
          "type": "address"
        }
      ],
      "stateMutability": "view",
      "type": "function"
    },
    {
      "inputs": [],
      "name": "PANTHER_POOL",
      "outputs": [
        {
          "internalType": "address",
          "name": "",
          "type": "address"
        }
      ],
      "stateMutability": "view",
      "type": "function"
    },
    {
      "inputs": [],
      "name": "REWARDING_END",
      "outputs": [
        {
          "internalType": "uint256",
          "name": "",
          "type": "uint256"
        }
      ],
      "stateMutability": "view",
      "type": "function"
    },
    {
      "inputs": [],
      "name": "REWARDING_START",
      "outputs": [
        {
          "internalType": "uint256",
          "name": "",
          "type": "uint256"
        }
      ],
      "stateMutability": "view",
      "type": "function"
    },
    {
      "inputs": [],
      "name": "REWARD_MASTER",
      "outputs": [
        {
          "internalType": "address",
          "name": "",
          "type": "address"
        }
      ],
      "stateMutability": "view",
      "type": "function"
    },
    {
      "inputs": [],
      "name": "START_BLOCK",
      "outputs": [
        {
          "internalType": "uint256",
          "name": "",
          "type": "uint256"
        }
      ],
      "stateMutability": "view",
      "type": "function"
    },
    {
      "inputs": [
        {
          "internalType": "bytes4",
          "name": "action",
          "type": "bytes4"
        },
        {
          "internalType": "bytes",
          "name": "message",
          "type": "bytes"
        }
      ],
      "name": "getRewardAdvice",
      "outputs": [
        {
          "components": [
            {
              "internalType": "address",
              "name": "createSharesFor",
              "type": "address"
            },
            {
              "internalType": "uint96",
              "name": "sharesToCreate",
              "type": "uint96"
            },
            {
              "internalType": "address",
              "name": "redeemSharesFrom",
              "type": "address"
            },
            {
              "internalType": "uint96",
              "name": "sharesToRedeem",
              "type": "uint96"
            },
            {
              "internalType": "address",
              "name": "sendRewardTo",
              "type": "address"
            }
          ],
          "internalType": "struct IRewardAdviser.Advice",
          "name": "",
          "type": "tuple"
        }
      ],
      "stateMutability": "nonpayable",
      "type": "function"
    },
    {
      "inputs": [
        {
          "internalType": "uint256",
          "name": "time",
          "type": "uint256"
        }
      ],
      "name": "getZkpApyAt",
      "outputs": [
        {
          "internalType": "uint256",
          "name": "",
          "type": "uint256"
        }
      ],
      "stateMutability": "view",
      "type": "function"
    },
    {
      "inputs": [
        {
          "internalType": "address",
          "name": "",
          "type": "address"
        },
        {
          "internalType": "address",
          "name": "",
          "type": "address"
        },
        {
          "internalType": "uint256",
          "name": "",
          "type": "uint256"
        },
        {
          "internalType": "bytes",
          "name": "",
          "type": "bytes"
        }
      ],
      "name": "onERC721Received",
      "outputs": [
        {
          "internalType": "bytes4",
          "name": "",
          "type": "bytes4"
        }
      ],
      "stateMutability": "view",
      "type": "function"
    },
    {
      "inputs": [
        {
          "internalType": "address",
          "name": "token",
          "type": "address"
        },
        {
          "internalType": "address",
          "name": "to",
          "type": "address"
        },
        {
          "internalType": "uint256",
          "name": "amount",
          "type": "uint256"
        }
      ],
      "name": "rescueErc20",
      "outputs": [],
      "stateMutability": "nonpayable",
      "type": "function"
    },
    {
      "inputs": [],
      "name": "setZkpRewardsLimit",
      "outputs": [],
      "stateMutability": "nonpayable",
      "type": "function"
    },
    {
      "inputs": [],
      "name": "totals",
      "outputs": [
        {
          "internalType": "uint96",
          "name": "zkpRewards",
          "type": "uint96"
        },
        {
          "internalType": "uint96",
          "name": "prpRewards",
          "type": "uint96"
        },
        {
          "internalType": "uint24",
          "name": "nftRewards",
          "type": "uint24"
        },
        {
          "internalType": "uint40",
          "name": "scZkpStaked",
          "type": "uint40"
        }
      ],
      "stateMutability": "view",
      "type": "function"
    },
    {
      "inputs": [],
      "name": "zkpRewardsLimit",
      "outputs": [
        {
          "internalType": "uint256",
          "name": "",
          "type": "uint256"
        }
      ],
      "stateMutability": "view",
      "type": "function"
    }
  ],
  "transactionHash": "0xccfed581c97fb4d640e438f24294612541fc20516741f6f0ea1cf2d076cf9d2d",
  "args": [
    "0x5FFfdD1dE35fFC2f66bFD78E064C280FeD9E68de",
    "0xc56C33E68989287D321b8DEA3d055B4e1605DB5c",
    "0xD7C67c0ddd5d178C0980bD737041db8500D2938d",
    "0x3F73371cFA58F338C479928AC7B4327478Cb859f",
    "0x0000000000000000000000000000000000000000",
    1656432287,
    "7200"
  ],
  "numDeployments": 1,
  "solcInputHash": "72d77807f92fef4a2eb65550d5047151",
  "bytecode": "0x6101c06040523480156200001257600080fd5b50604051620022e5380380620022e583398101604081905262000035916200022f565b866001600160a01b038116620000925760405162461bcd60e51b815260206004820152601a60248201527f496d6d4f776e3a207a65726f206f776e6572206164647265737300000000000060448201526064015b60405180910390fd5b60601b6001600160601b0319166080526001600160a01b03861615801590620000c357506001600160a01b03851615155b8015620000d857506001600160a01b03841615155b6200010f5760405162461bcd60e51b81526020600482015260066024820152654152433a453160d01b604482015260640162000089565b6001600160601b0319606087811b821660a05286811b821660c05285811b821660e05284901b1661010052620001424290565b6200015763ffffffff808416908516620002c3565b116200018f5760405162461bcd60e51b8152602060048201526006602482015265105490ce914d60d21b604482015260640162000089565b63ffffffff808316610120819052908216610140819052620001b191620002c3565b6101605263ffffffff8116620001ca6028604662000321565b620001da90633b9aca00620002ff565b620001e69190620002de565b610180525050436101a05250620003519350505050565b80516001600160a01b03811681146200021557600080fd5b919050565b805163ffffffff811681146200021557600080fd5b600080600080600080600060e0888a0312156200024a578283fd5b6200025588620001fd565b96506200026560208901620001fd565b95506200027560408901620001fd565b94506200028560608901620001fd565b93506200029560808901620001fd565b9250620002a560a089016200021a565b9150620002b560c089016200021a565b905092959891949750929550565b60008219821115620002d957620002d96200033b565b500190565b600082620002fa57634e487b7160e01b81526012600452602481fd5b500490565b60008160001904831182151516156200031c576200031c6200033b565b500290565b6000828210156200033657620003366200033b565b500390565b634e487b7160e01b600052601160045260246000fd5b60805160601c60a05160601c60c05160601c60e05160601c6101005160601c610120516101405161016051610180516101a051611e8c6200045960003960006101a301526000610af801526000818161012d015281816114f201528181611524015261155101526000610ac30152600081816101f1015281816104b901528181610a7001528181610aa00152610ce801526000818161035601528181610faf01528181610ff101526111b30152600081816104760152818161058e015281816107570152611170015260008181610218015281816106c101528181610f09015261121f0152600081816101ca015261094601526000818160e901526103fe0152611e8c6000f3fe608060405234801561001057600080fd5b50600436106100df5760003560e01c806374b71e0c1161008c578063dddb87d011610066578063dddb87d0146102b2578063e29dd0e8146102ba578063e9cb0324146102c3578063f3d17c691461033657600080fd5b806374b71e0c146101ec5780638f3e52de14610213578063c038a38e1461023a57600080fd5b8063243feb99116100bd578063243feb991461018957806339b3e8261461019e578063576eadd2146101c557600080fd5b8063117803e3146100e45780631350f06a14610128578063150b7a021461015d575b600080fd5b61010b7f000000000000000000000000000000000000000000000000000000000000000081565b6040516001600160a01b0390911681526020015b60405180910390f35b61014f7f000000000000000000000000000000000000000000000000000000000000000081565b60405190815260200161011f565b61017061016b366004611b01565b610349565b6040516001600160e01b0319909116815260200161011f565b61019c610197366004611ac1565b610394565b005b61014f7f000000000000000000000000000000000000000000000000000000000000000081565b61010b7f000000000000000000000000000000000000000000000000000000000000000081565b61014f7f000000000000000000000000000000000000000000000000000000000000000081565b61010b7f000000000000000000000000000000000000000000000000000000000000000081565b600254610276906001600160601b0380821691600160601b810490911690600160c01b810462ffffff1690600160d81b900464ffffffffff1684565b604080516001600160601b03958616815294909316602085015262ffffff9091169183019190915264ffffffffff16606082015260800161011f565b61019c61054a565b61014f60015481565b6102d66102d1366004611b8b565b610910565b60405161011f9190600060a0820190506001600160a01b0380845116835260208401516001600160601b03808216602086015282604087015116604086015280606087015116606086015250508060808501511660808401525092915050565b61014f610344366004611be5565b610a6c565b6000336001600160a01b037f0000000000000000000000000000000000000000000000000000000000000000161461038257600061038b565b630a85bd0160e11b5b95945050505050565b60035460ff16600114156103ef5760405162461bcd60e51b815260206004820152601860248201527f4152433a2063616e27742062652072652d656e7465726564000000000000000060448201526064015b60405180910390fd5b6003805460ff191660011790557f00000000000000000000000000000000000000000000000000000000000000006001600160a01b031633146104745760405162461bcd60e51b815260206004820152601160248201527f4152433a20756e617574686f72697a656400000000000000000000000000000060448201526064016103e6565b7f00000000000000000000000000000000000000000000000000000000000000006001600160a01b0316836001600160a01b03161415806104e157506104dd6276a7007f0000000000000000000000000000000000000000000000000000000000000000611d72565b4210155b61052d5760405162461bcd60e51b815260206004820152601960248201527f4152433a20746f6f206561726c79207769746864726177616c0000000000000060448201526064016103e6565b610538838383610b24565b50506003805460ff1916600217905550565b604080513060248083019190915282518083039091018152604490910182526020810180516001600160e01b03166370a0823160e01b1790529051600091829182917f00000000000000000000000000000000000000000000000000000000000000006001600160a01b0316916105c19190611c66565b6000604051808303816000865af19150503d80600081146105fe576040519150601f19603f3d011682016040523d82523d6000602084013e610603565b606091505b50915091508180156106155750805115155b6106615760405162461bcd60e51b815260206004820152600660248201527f4152433a4535000000000000000000000000000000000000000000000000000060448201526064016103e6565b808060200190518101906106759190611bfd565b60015460025491945092506001600160601b0316905060006106978284611ddf565b90508084111561090a5760006106ad8286611ddf565b905060006106bb8286611d72565b905060007f00000000000000000000000000000000000000000000000000000000000000006001600160a01b031663411557d16040518163ffffffff1660e01b815260040160206040518083038186803b15801561071857600080fd5b505afa15801561072c573d6000803e3d6000fd5b505050506040513d601f19601f820116820180604052508101906107509190611aa5565b90506000807f00000000000000000000000000000000000000000000000000000000000000006001600160a01b031663095ea7b384866040516024016107ab9291906001600160a01b03929092168252602082015260400190565b6040516020818303038152906040529060e01b6020820180516001600160e01b0383818316178352505050506040516107e49190611c66565b6000604051808303816000865af19150503d8060008114610821576040519150601f19603f3d011682016040523d82523d6000602084013e610826565b606091505b50915091508180156108505750805115806108505750808060200190518101906108509190611b6b565b6108c25760405162461bcd60e51b815260206004820152602b60248201527f5472616e7366657248656c7065723a3a73616665417070726f76653a2061707060448201527f726f7665206661696c656400000000000000000000000000000000000000000060648201526084016103e6565b6108cc8589611d72565b60018190556040519081527fa72045fa6ef5b69550d4eb374b18eb4e41e60daa0e09e01828db6e7e465e067a9060200160405180910390a150505050505b50505050565b6040805160a081018252600080825260208201819052918101829052606081018290526080810191909152336001600160a01b037f000000000000000000000000000000000000000000000000000000000000000016146109b35760405162461bcd60e51b815260206004820152601160248201527f4152433a20756e617574686f72697a656400000000000000000000000000000060448201526064016103e6565b6001600160e01b031983166319932b9d60e31b14156109da576109d582610c6f565b610a3a565b6001600160e01b0319831663b8372e5560e01b14610a3a5760405162461bcd60e51b815260206004820152601760248201527f4152433a20756e737570706f7274656420616374696f6e00000000000000000060448201526064016103e6565b506040805160a08101825260008082526020820181905291810182905260608101829052608081019190915292915050565b60007f0000000000000000000000000000000000000000000000000000000000000000821015610a9e57506000919050565b7f000000000000000000000000000000000000000000000000000000000000000082037f00000000000000000000000000000000000000000000000000000000000000008110610af15750602892915050565b633b9aca007f00000000000000000000000000000000000000000000000000000000000000008202046046039392505050565b604080518082018252601981527f7472616e7366657228616464726573732c75696e74323536290000000000000060209182015281516001600160a01b0385811660248301526044808301869052845180840390910181526064909201845291810180516001600160e01b031663a9059cbb60e01b17905291516000928392871691610bb09190611c66565b6000604051808303816000865af19150503d8060008114610bed576040519150601f19603f3d011682016040523d82523d6000602084013e610bf2565b606091505b5091509150818015610c1c575080511580610c1c575080806020019051810190610c1c9190611b6b565b610c685760405162461bcd60e51b815260206004820152601b60248201527f636c61696d45726332303a205452414e534645525f4641494c4544000000000060448201526064016103e6565b5050505050565b6000806000806000610c8086611337565b965050955095505094509450836001600160601b031660001415610ce65760405162461bcd60e51b815260206004820181905260248201527f4152433a20756e6578706563746564207a65726f207374616b65416d6f756e7460448201526064016103e6565b7f00000000000000000000000000000000000000000000000000000000000000008363ffffffff161015610d5c5760405162461bcd60e51b815260206004820152601860248201527f4152433a20756e6578706563746564207374616b65644174000000000000000060448201526064016103e6565b8263ffffffff168263ffffffff1611610db75760405162461bcd60e51b815260206004820152601a60248201527f4152433a20756e6578706563746564206c6f636b656454696c6c00000000000060448201526064016103e6565b604080516080810182526002546001600160601b038082168352600160601b820481166020840152600160c01b820462ffffff1693830193909352600160d81b900464ffffffffff16606082015260009182918291829190610e25908a1663ffffffff898116908b166114ee565b945060008582600001516001600160601b0316610e429190611d72565b9050806001541015610e965760405162461bcd60e51b815260206004820152601f60248201527f4152433a20746f6f206c657373207265776172647320617661696c61626c650060448201526064016103e6565b610e9f816115bf565b6001600160601b039081168352600090610ec39066038d7ea4c68000908d16611dac565b836060015164ffffffffff16610ed99190611d72565b64ffffffffff166060840152505060405163095ddc0360e01b8152306004820152630c68603560e21b60248201527f00000000000000000000000000000000000000000000000000000000000000006001600160a01b03169063095ddc0390604401602060405180830381600087803b158015610f5557600080fd5b505af1158015610f69573d6000803e3d6000fd5b505050506040513d601f19601f82011682018060405250810190610f8d9190611bfd565b93508381602001818151610fa19190611d8a565b6001600160601b03169052507f00000000000000000000000000000000000000000000000000000000000000006001600160a01b0316156110975760405163d17c93bf60e01b81523060048201527f00000000000000000000000000000000000000000000000000000000000000006001600160a01b03169063d17c93bf90602401602060405180830381600087803b15801561103d57600080fd5b505af1158015611051573d6000803e3d6000fd5b505050506040513d601f19601f820116820180604052508101906110759190611bfd565b91506001925060018160400181815161108e9190611d4b565b62ffffff169052505b8051600280546020840151604085015160609095015164ffffffffff16600160d81b027affffffffffffffffffffffffffffffffffffffffffffffffffffff62ffffff909616600160c01b029590951677ffffffffffffffffffffffffffffffffffffffffffffffff6001600160601b03928316600160601b027fffffffffffffffff000000000000000000000000000000000000000000000000909416929095169190911791909117929092169190911791909117905560008061115b87611618565b60408051606080820183526001600160a01b037f000000000000000000000000000000000000000000000000000000000000000081168352731afa2212970b809ae15d51af00c502d5c8eb3baf6020808501919091527f0000000000000000000000000000000000000000000000000000000000000000909116838501528351808301855260008082528183018190528186018b9052855193840186528d84529183018c90529382018a905294965092945092909190611219611915565b905060007f00000000000000000000000000000000000000000000000000000000000000006001600160a01b03166302e9b8eb8686868b8b886040518763ffffffff1660e01b815260040161127396959493929190611c9f565b602060405180830381600087803b15801561128d57600080fd5b505af11580156112a1573d6000803e3d6000fd5b505050506040513d601f19601f820116820180604052508101906112c59190611bfd565b90508f6001600160a01b03167fddec0656213960e0ac0e474ef653acbb176c235a6490a17417050ff0ae105372828d8d8d60405161131c949392919093845260208401929092526040830152606082015260800190565b60405180910390a25050505050505050505050505050505050565b60008060008060008060606030885110156113945760405162461bcd60e51b815260206004820152601a60248201527f534d503a20756e6578706563746564206d7367206c656e67746800000000000060448201526064016103e6565b602088015160408901518951606083901c99506001600160601b038316985060e082901c975063ffffffff60c083901c8116975060a083901c81169650608083901c1694506000906113e890603090611ddf565b90508067ffffffffffffffff81111561141157634e487b7160e01b600052604160045260246000fd5b6040519080825280601f01601f19166020018201604052801561143b576020820181803683370190505b50935060005b818110156114df578b611455826030611d72565b8151811061147357634e487b7160e01b600052603260045260246000fd5b602001015160f81c60f81b85828151811061149e57634e487b7160e01b600052603260045260246000fd5b60200101907effffffffffffffffffffffffffffffffffffffffffffffffffffffffffffff1916908160001a905350806114d781611df6565b915050611441565b50505050919395979092949650565b60007f0000000000000000000000000000000000000000000000000000000000000000821115611520575060006115b8565b60007f0000000000000000000000000000000000000000000000000000000000000000841161154f5783611571565b7f00000000000000000000000000000000000000000000000000000000000000005b9050600061157f8483611ddf565b9050600061158c85610a6c565b905063bbf81e008261159e838a611dc0565b6115a89190611dc0565b6115b29190611dac565b93505050505b9392505050565b6000600160601b82106116145760405162461bcd60e51b815260206004820152600860248201527f554e53414645393600000000000000000000000000000000000000000000000060448201526064016103e6565b5090565b61162061197b565b6116286119b4565b61163460036002611d72565b61164060016002611d72565b61164a9190611dc0565b611655906020611dc0565b8351146116a45760405162461bcd60e51b815260206004820152601a60248201527f534d503a20756e6578706563746564206d7367206c656e67746800000000000060448201526064016103e6565b6116ac6119e1565b60015b60206116bd60036002611d72565b6116c960016002611d72565b6116d39190611dc0565b6116de906020611dc0565b6116e89190611e11565b60011660206116f960036002611d72565b61170560016002611d72565b61170f9190611dc0565b61171a906020611dc0565b6117249190611dac565b61172e9190611d72565b81116117505760208102858101519083015261174981611df6565b90506116af565b5060005b61176060016002611d72565b81101561190e5781611773600283611dc0565b61177e906001611d72565b6010811061179c57634e487b7160e01b600052603260045260246000fd5b60200201518482600381106117c157634e487b7160e01b600052603260045260246000fd5b602002015152816117d3600283611dc0565b6117de906002611d72565b601081106117fc57634e487b7160e01b600052603260045260246000fd5b602002015184826003811061182157634e487b7160e01b600052603260045260246000fd5b6020020151602001818152505060005b60038110156118fb578281611847846003611dc0565b61185360016002611d72565b61185e906002611dc0565b6118689190611d72565b6118729190611d72565b61187d906001611d72565b6010811061189b57634e487b7160e01b600052603260045260246000fd5b60200201518483600381106118c057634e487b7160e01b600052603260045260246000fd5b602002015182600381106118e457634e487b7160e01b600052603260045260246000fd5b6020020152806118f381611df6565b915050611831565b508061190681611df6565b915050611754565b5050915091565b600061192042611925565b905090565b600064010000000082106116145760405162461bcd60e51b815260206004820152600860248201527f554e53414645333200000000000000000000000000000000000000000000000060448201526064016103e6565b60405180606001604052806003905b604080518082019091526000808252602082015281526020019060019003908161198a5790505090565b60405180606001604052806003905b6119cb611a00565b8152602001906001900390816119c35790505090565b6040518061020001604052806010906020820280368337509192915050565b60405180606001604052806003906020820280368337509192915050565b600082601f830112611a2e578081fd5b813567ffffffffffffffff80821115611a4957611a49611e51565b604051601f8301601f19908116603f01168101908282118183101715611a7157611a71611e51565b81604052838152866020858801011115611a89578485fd5b8360208701602083013792830160200193909352509392505050565b600060208284031215611ab6578081fd5b81516115b881611e67565b600080600060608486031215611ad5578182fd5b8335611ae081611e67565b92506020840135611af081611e67565b929592945050506040919091013590565b60008060008060808587031215611b16578081fd5b8435611b2181611e67565b93506020850135611b3181611e67565b925060408501359150606085013567ffffffffffffffff811115611b53578182fd5b611b5f87828801611a1e565b91505092959194509250565b600060208284031215611b7c578081fd5b815180151581146115b8578182fd5b60008060408385031215611b9d578182fd5b82356001600160e01b031981168114611bb4578283fd5b9150602083013567ffffffffffffffff811115611bcf578182fd5b611bdb85828601611a1e565b9150509250929050565b600060208284031215611bf6578081fd5b5035919050565b600060208284031215611c0e578081fd5b5051919050565b8060005b600381101561090a57611c2d848351611c43565b6060939093019260209190910190600101611c19565b8060005b600381101561090a578151845260209384019390910190600101611c47565b60008251815b81811015611c865760208186018101518583015201611c6c565b81811115611c945782828501525b509190910192915050565b6103208101818860005b6003811015611cd15781516001600160a01b0316835260209283019290910190600101611ca9565b505050611ce16060830188611c43565b611cee60c0830187611c43565b61012082018560005b6003811015611d22578151805184526020908101518185015260409093019290910190600101611cf7565b505050611d336101e0830185611c15565b63ffffffff8316610300830152979650505050505050565b600062ffffff808316818516808303821115611d6957611d69611e25565b01949350505050565b60008219821115611d8557611d85611e25565b500190565b60006001600160601b03808316818516808303821115611d6957611d69611e25565b600082611dbb57611dbb611e3b565b500490565b6000816000190483118215151615611dda57611dda611e25565b500290565b600082821015611df157611df1611e25565b500390565b6000600019821415611e0a57611e0a611e25565b5060010190565b600082611e2057611e20611e3b565b500690565b634e487b7160e01b600052601160045260246000fd5b634e487b7160e01b600052601260045260246000fd5b634e487b7160e01b600052604160045260246000fd5b6001600160a01b0381168114611e7c57600080fd5b5056fea164736f6c6343000804000a",
  "devdoc": {
    "details": "This contract is supposed to run on the Polygon. Unless otherwise mentioned, other smart contracts are supposed to run on the Polygon also. As the \"Reward Adviser\" on the \"advanced\" stakes, every time a new stake is being created, it receives the `getRewardAdvice` call from the `RewardMaster` contract with the `STAKE` action type and the stake data (the `message`) being the call parameters. On the `getRewardAdvice` call received, this contract: - computes the amount of the $ZKP reward to the staker - calls `grant` on the `PantherPoolV0` with the `FOR_ADVANCED_STAKE_GRANT` as the \"grant type\",  and the staker as the \"grantee\", getting the amount of PRPs granted from the response - if the `NFT_TOKEN` is non-zero address, it calls `grantOneToken` on the NFT_TOKEN, and gets the `tokenId` of the minted NFT token - calls `generateDeposits` of the PantherPoolV0, providing amounts/parameters of $ZKP, PRP, and   optional NFT as \"deposits\", as well as \"spending pubKeys\" and \"secrets\" (explained below) - returns the \"zero reward advice\" (with zero `sharesToCreate`) to the RewardMaster. On the \"zero\" advice, the RewardMaster skips creating \"treasure shares\" for the staker. This way rewarding gets orchestrated by this contract rather than the RewardMaster. Being called `generateDeposits`, the PantherPoolV0: - requests the `Vault` to take (`transferFrom`) the $ZKP and NFT tokens from this contract - \"burns\" the PRP grant - generates \"UTXOs\" with the \"spending pubKeys\" and \"secrets\" provided (see bellow). Creating a new stake (i.e. calling the `stake`), the staker generates and provides the \"pubKeys\" and \"secrets\" to the Staking. Both the Staking on the mainnet and the Staking on the Polygon encodes them into the STAKE message and passes to the RewardMaster, which passes the message to this contract with the `getRewardAdvice` call. So this contracts get pubKeys and secrets needed for the `generateDeposits`. For stakes on the Polygon, when all contracts (i.e. Staking, RewardMaster and this contract) run on the same network, the RewardMaster on the Polygon calls this contract directly. For stakes made on the mainnet, where the Staking and the RewardMaster run, but this contract is on the Polygon, the RewardMaster on the mainnet sends the STAKE message to the RewardMaster on the Polygon via the PoS bridge and mediator contracts. The RewardMaster on the Polygon handles a bridged STAKE message (calling the `getRewardAdvice`) as if the message had been sent by the Staking on the Polygon. As a prerequisite: - this contract shall be authorized as: -- \"RewardAdviser\" with the RewardMaster on Polygon for advanced stakes -- \"Curator\" of the FOR_ADVANCED_STAKE_GRANT with the PantherPoolV0 -- \"Minter\" (or \"grantor\") with the NFT_TOKEN contract - this contract shall hold enough $ZKP balance to reward stakers - the Vault contract shall be approved to transfer $ZKPs and the NFT tokens from this contract - the $ZKP and the NFT tokens shall be registered as zAssets on the PantherPoolV0.",
    "events": {
      "RewardGenerated(address,uint256,uint256,uint256,uint256)": {
        "details": "Emitted when the reward for a stake is generated"
      },
      "ZkpRewardLimitUpdate(uint256)": {
        "details": "Emitted when new $ZKPs are allocated to reward stakers"
      }
    },
    "kind": "dev",
    "methods": {
      "getRewardAdvice(bytes4,bytes)": {
        "details": "To be called by the {RewardMaster} contract on \"advanced\" `STAKE` and `UNSTAKE` actions. The caller is trusted to never call w/ the STAKE acton: - twice for the same stake - after the rewarded period has ended"
      },
      "rescueErc20(address,address,uint256)": {
        "details": "May be only called by the {OWNER}"
      },
      "setZkpRewardsLimit()": {
        "details": "Anyone may call it"
      }
    },
    "stateVariables": {
      "zkpRewardsLimit": {
        "details": "Unlike $ZKPs, PRPs and NFTs are unlimited (not allocated in advance)"
      }
    },
    "title": "AdvancedStakeRewardController",
    "version": 1
  },
  "userdoc": {
    "kind": "user",
    "methods": {
      "OWNER()": {
        "notice": "The owner who has privileged rights"
      },
      "PANTHER_POOL()": {
        "notice": "PantherPoolV0 contract instance"
      },
      "REWARDING_END()": {
        "notice": "(UNIX) Time when staking rewards accruals end"
      },
      "REWARDING_START()": {
        "notice": "(UNIX) Time when staking rewards start to accrue"
      },
      "REWARD_MASTER()": {
        "notice": "RewardMaster contract instance"
      },
      "START_BLOCK()": {
        "notice": "Block when this contract is deployed"
      },
      "getZkpApyAt(uint256)": {
        "notice": "Return the APY for the $ZKP reward at a given time"
      },
      "rescueErc20(address,address,uint256)": {
        "notice": "Withdraws unclaimed rewards or accidentally sent token from this contract"
      },
      "setZkpRewardsLimit()": {
        "notice": "Allocate the $ZKP amount, which this contract holds, for rewards"
      },
      "totals()": {
        "notice": "Total amounts of $ZKP, PRP and NFT rewarded so far"
      },
      "zkpRewardsLimit()": {
        "notice": "Amount of $ZKPs allocated for rewards"
      }
    },
    "notice": "It generates UTXOs in the MASP as rewards to stakers for the \"Advanced Staking\"",
    "version": 1
  },
  "storageLayout": {
    "storage": [
      {
        "astId": 8624,
        "contract": "contracts/AdvancedStakeRewardController.sol:AdvancedStakeRewardController",
        "label": "_reentrancyStatus",
        "offset": 0,
        "slot": "0",
        "type": "t_uint256"
      },
      {
        "astId": 339,
        "contract": "contracts/AdvancedStakeRewardController.sol:AdvancedStakeRewardController",
        "label": "zkpRewardsLimit",
        "offset": 0,
        "slot": "1",
        "type": "t_uint256"
      },
      {
        "astId": 343,
        "contract": "contracts/AdvancedStakeRewardController.sol:AdvancedStakeRewardController",
        "label": "totals",
        "offset": 0,
        "slot": "2",
        "type": "t_struct(Totals)304_storage"
      },
      {
        "astId": 345,
        "contract": "contracts/AdvancedStakeRewardController.sol:AdvancedStakeRewardController",
        "label": "_reentrancyStatus",
        "offset": 0,
        "slot": "3",
        "type": "t_uint8"
      }
    ],
    "types": {
      "t_struct(Totals)304_storage": {
        "encoding": "inplace",
        "label": "struct AdvancedStakeRewardController.Totals",
        "members": [
          {
            "astId": 297,
            "contract": "contracts/AdvancedStakeRewardController.sol:AdvancedStakeRewardController",
            "label": "zkpRewards",
            "offset": 0,
            "slot": "0",
            "type": "t_uint96"
          },
          {
            "astId": 299,
            "contract": "contracts/AdvancedStakeRewardController.sol:AdvancedStakeRewardController",
            "label": "prpRewards",
            "offset": 12,
            "slot": "0",
            "type": "t_uint96"
          },
          {
            "astId": 301,
            "contract": "contracts/AdvancedStakeRewardController.sol:AdvancedStakeRewardController",
            "label": "nftRewards",
            "offset": 24,
            "slot": "0",
            "type": "t_uint24"
          },
          {
            "astId": 303,
            "contract": "contracts/AdvancedStakeRewardController.sol:AdvancedStakeRewardController",
            "label": "scZkpStaked",
            "offset": 27,
            "slot": "0",
            "type": "t_uint40"
          }
        ],
        "numberOfBytes": "32"
      },
      "t_uint24": {
        "encoding": "inplace",
        "label": "uint24",
        "numberOfBytes": "3"
      },
      "t_uint256": {
        "encoding": "inplace",
        "label": "uint256",
        "numberOfBytes": "32"
      },
      "t_uint40": {
        "encoding": "inplace",
        "label": "uint40",
        "numberOfBytes": "5"
      },
      "t_uint8": {
        "encoding": "inplace",
        "label": "uint8",
        "numberOfBytes": "1"
      },
      "t_uint96": {
        "encoding": "inplace",
        "label": "uint96",
        "numberOfBytes": "12"
      }
    }
  }
}