{
  "address": "0xfc4Ee073419aA1198DA9531057EdD6ed4e96c7Cf",
  "abi": [
    {
      "inputs": [
        {
          "internalType": "address",
          "name": "implementationAddress",
          "type": "address"
        },
        {
          "internalType": "address",
          "name": "ownerAddress",
          "type": "address"
        },
        {
          "internalType": "bytes",
          "name": "data",
          "type": "bytes"
        }
      ],
      "stateMutability": "payable",
      "type": "constructor"
    },
    {
      "anonymous": false,
      "inputs": [
        {
          "indexed": true,
          "internalType": "address",
          "name": "previousOwner",
          "type": "address"
        },
        {
          "indexed": true,
          "internalType": "address",
          "name": "newOwner",
          "type": "address"
        }
      ],
      "name": "OwnershipTransferred",
      "type": "event"
    },
    {
      "anonymous": false,
      "inputs": [
        {
          "indexed": true,
          "internalType": "address",
          "name": "previousImplementation",
          "type": "address"
        },
        {
          "indexed": true,
          "internalType": "address",
          "name": "newImplementation",
          "type": "address"
        }
      ],
      "name": "ProxyImplementationUpdated",
      "type": "event"
    },
    {
      "stateMutability": "payable",
      "type": "fallback"
    },
    {
      "inputs": [],
      "name": "owner",
      "outputs": [
        {
          "internalType": "address",
          "name": "",
          "type": "address"
        }
      ],
      "stateMutability": "view",
      "type": "function"
    },
    {
      "inputs": [
        {
          "internalType": "bytes4",
          "name": "id",
          "type": "bytes4"
        }
      ],
      "name": "supportsInterface",
      "outputs": [
        {
          "internalType": "bool",
          "name": "",
          "type": "bool"
        }
      ],
      "stateMutability": "view",
      "type": "function"
    },
    {
      "inputs": [
        {
          "internalType": "address",
          "name": "newOwner",
          "type": "address"
        }
      ],
      "name": "transferOwnership",
      "outputs": [],
      "stateMutability": "nonpayable",
      "type": "function"
    },
    {
      "inputs": [
        {
          "internalType": "address",
          "name": "newImplementation",
          "type": "address"
        }
      ],
      "name": "upgradeTo",
      "outputs": [],
      "stateMutability": "nonpayable",
      "type": "function"
    },
    {
      "inputs": [
        {
          "internalType": "address",
          "name": "newImplementation",
          "type": "address"
        },
        {
          "internalType": "bytes",
          "name": "data",
          "type": "bytes"
        }
      ],
      "name": "upgradeToAndCall",
      "outputs": [],
      "stateMutability": "payable",
      "type": "function"
    },
    {
      "stateMutability": "payable",
      "type": "receive"
    }
  ],
  "transactionHash": "0x812544b1d207abd77391ed11f9c96b3812984216cdbc956ba4efce34edb6f29a",
  "args": [
    "0x0000000000000000000000000000000000000000",
    "0x5FFfdD1dE35fFC2f66bFD78E064C280FeD9E68de",
    []
  ],
  "numDeployments": 1,
  "solcInputHash": "892f5f5d5e88599ca8c6d6932594f62f",
  "bytecode": "0x608060405260405162000a8338038062000a838339810160408190526200002691620001b7565b62000032838262000046565b6200003d8262000128565b505050620002f6565b7f360894a13ba1a3210667c828492db98dca3e2076cc3735a920a3ca505d382bbc8054908390556040516001600160a01b0380851691908316907f5570d70a002632a7b0b3c9304cc89efb62d8da9eca0dbd7752c83b737906829690600090a381511562000123576000836001600160a01b031683604051620000ca919062000293565b600060405180830381855af49150503d806000811462000107576040519150601f19603f3d011682016040523d82523d6000602084013e6200010c565b606091505b505090508062000121573d806000803e806000fd5b505b505050565b60006200014260008051602062000a638339815191525490565b90508160008051602062000a6383398151915255816001600160a01b0316816001600160a01b03167f8be0079c531659141344cd1fd0a4f28419497f9722a3daafe3b4186f6b6457e060405160405180910390a35050565b80516001600160a01b0381168114620001b257600080fd5b919050565b600080600060608486031215620001cc578283fd5b620001d7846200019a565b9250620001e7602085016200019a565b60408501519092506001600160401b038082111562000204578283fd5b818601915086601f83011262000218578283fd5b8151818111156200022d576200022d620002e0565b604051601f8201601f19908116603f01168101908382118183101715620002585762000258620002e0565b8160405282815289602084870101111562000271578586fd5b62000284836020830160208801620002b1565b80955050505050509250925092565b60008251620002a7818460208701620002b1565b9190910192915050565b60005b83811015620002ce578181015183820152602001620002b4565b83811115620001215750506000910152565b634e487b7160e01b600052604160045260246000fd5b61075d80620003066000396000f3fe60806040526004361061005e5760003560e01c80634f1ef286116100435780634f1ef2861461010f5780638da5cb5b14610122578063f2fde38b1461014f576100b0565b806301ffc9a7146100ba5780633659cfe6146100ef576100b0565b366100b05760405162461bcd60e51b815260206004820152600e60248201527f45544845525f52454a454354454400000000000000000000000000000000000060448201526064015b60405180910390fd5b6100b861016f565b005b3480156100c657600080fd5b506100da6100d53660046106ef565b6101ba565b60405190151581526020015b60405180910390f35b3480156100fb57600080fd5b506100b861010a366004610637565b6102c1565b6100b861011d366004610651565b610350565b34801561012e57600080fd5b50610137610408565b6040516001600160a01b0390911681526020016100e6565b34801561015b57600080fd5b506100b861016a366004610637565b610437565b7f360894a13ba1a3210667c828492db98dca3e2076cc3735a920a3ca505d382bbc5460003681823780813683855af491503d8082833e8280156101b0578183f35b8183fd5b50505050565b60006301ffc9a760e01b6001600160e01b0319831614806101eb57506307f5828d60e41b6001600160e01b03198316145b156101f857506001919050565b6001600160e01b0319808316141561021257506000919050565b7f360894a13ba1a3210667c828492db98dca3e2076cc3735a920a3ca505d382bbc546040516301ffc9a760e01b81526001600160e01b0319841660048201526001600160a01b038216906301ffc9a79060240160206040518083038186803b15801561027d57600080fd5b505afa9250505080156102ad575060408051601f3d908101601f191682019092526102aa918101906106cf565b60015b6102ba5750600092915050565b9392505050565b7fb53127684a568b3173ae13b9f8a6016e243e63b6e8ee1178d6a717850b5d6103546001600160a01b0316336001600160a01b0316146103345760405162461bcd60e51b815260206004820152600e60248201526d1393d517d055551213d49256915160921b60448201526064016100a7565b61034d81604051806020016040528060008152506104b3565b50565b7fb53127684a568b3173ae13b9f8a6016e243e63b6e8ee1178d6a717850b5d6103546001600160a01b0316336001600160a01b0316146103c35760405162461bcd60e51b815260206004820152600e60248201526d1393d517d055551213d49256915160921b60448201526064016100a7565b6104038383838080601f0160208091040260200160405190810160405280939291908181526020018383808284376000920191909152506104b392505050565b505050565b60006104327fb53127684a568b3173ae13b9f8a6016e243e63b6e8ee1178d6a717850b5d61035490565b905090565b7fb53127684a568b3173ae13b9f8a6016e243e63b6e8ee1178d6a717850b5d6103546001600160a01b0316336001600160a01b0316146104aa5760405162461bcd60e51b815260206004820152600e60248201526d1393d517d055551213d49256915160921b60448201526064016100a7565b61034d81610588565b7f360894a13ba1a3210667c828492db98dca3e2076cc3735a920a3ca505d382bbc8054908390556040516001600160a01b0380851691908316907f5570d70a002632a7b0b3c9304cc89efb62d8da9eca0dbd7752c83b737906829690600090a3815115610403576000836001600160a01b0316836040516105349190610717565b600060405180830381855af49150503d806000811461056f576040519150601f19603f3d011682016040523d82523d6000602084013e610574565b606091505b50509050806101b4573d806000803e806000fd5b60006105b27fb53127684a568b3173ae13b9f8a6016e243e63b6e8ee1178d6a717850b5d61035490565b9050817fb53127684a568b3173ae13b9f8a6016e243e63b6e8ee1178d6a717850b5d610355816001600160a01b0316816001600160a01b03167f8be0079c531659141344cd1fd0a4f28419497f9722a3daafe3b4186f6b6457e060405160405180910390a35050565b80356001600160a01b038116811461063257600080fd5b919050565b600060208284031215610648578081fd5b6102ba8261061b565b600080600060408486031215610665578182fd5b61066e8461061b565b9250602084013567ffffffffffffffff8082111561068a578384fd5b818601915086601f83011261069d578384fd5b8135818111156106ab578485fd5b8760208285010111156106bc578485fd5b6020830194508093505050509250925092565b6000602082840312156106e0578081fd5b815180151581146102ba578182fd5b600060208284031215610700578081fd5b81356001600160e01b0319811681146102ba578182fd5b60008251815b81811015610737576020818601810151858301520161071d565b818111156107455782828501525b50919091019291505056fea164736f6c6343000804000ab53127684a568b3173ae13b9f8a6016e243e63b6e8ee1178d6a717850b5d6103",
  "devdoc": {
    "kind": "dev",
    "methods": {},
    "version": 1
  },
  "userdoc": {
    "kind": "user",
    "methods": {},
    "notice": "Proxy implementing EIP173 for ownership management",
    "version": 1
  },
  "storageLayout": {
    "storage": [],
    "types": null
  }
}