{
  "address": "0xA19595C06d03C26D17F5f9A4400Ebd576520b2e9",
  "abi": [
    {
      "inputs": [
        {
          "internalType": "address",
          "name": "_rewardMaster",
          "type": "address"
        },
        {
          "internalType": "address",
          "name": "_stakeMsgSender",
          "type": "address"
        },
        {
          "internalType": "address",
          "name": "_fxChild",
          "type": "address"
        }
      ],
      "stateMutability": "nonpayable",
      "type": "constructor"
    },
    {
      "anonymous": false,
      "inputs": [
        {
          "indexed": false,
          "internalType": "uint256",
          "name": "_nonce",
          "type": "uint256"
        },
        {
          "indexed": false,
          "internalType": "bytes",
          "name": "data",
          "type": "bytes"
        }
      ],
      "name": "StakeMsgRelayed",
      "type": "event"
    },
    {
      "inputs": [],
      "name": "FX_CHILD",
      "outputs": [
        {
          "internalType": "address",
          "name": "",
          "type": "address"
        }
      ],
      "stateMutability": "view",
      "type": "function"
    },
    {
      "inputs": [],
      "name": "REWARD_MASTER",
      "outputs": [
        {
          "internalType": "address",
          "name": "",
          "type": "address"
        }
      ],
      "stateMutability": "view",
      "type": "function"
    },
    {
      "inputs": [],
      "name": "STAKE_MSG_SENDER",
      "outputs": [
        {
          "internalType": "address",
          "name": "",
          "type": "address"
        }
      ],
      "stateMutability": "view",
      "type": "function"
    },
    {
      "inputs": [],
      "name": "nonce",
      "outputs": [
        {
          "internalType": "uint256",
          "name": "",
          "type": "uint256"
        }
      ],
      "stateMutability": "view",
      "type": "function"
    },
    {
      "inputs": [
        {
          "internalType": "uint256",
          "name": "",
          "type": "uint256"
        },
        {
          "internalType": "address",
          "name": "rootMessageSender",
          "type": "address"
        },
        {
          "internalType": "bytes",
          "name": "content",
          "type": "bytes"
        }
      ],
      "name": "processMessageFromRoot",
      "outputs": [],
      "stateMutability": "nonpayable",
      "type": "function"
    }
  ],
  "transactionHash": "0x34a284c639604ccc3ba8da8676f8a7dceca258eb20d1bdf2c05700c8e40d1949",
  "args": [
    "0x2E310145C9443BAdbB37245554D3B24902822671",
    "0x106DDc97Ebe4E58A2221CF703E382B2E343306Dd",
    "0xCf73231F28B7331BBe3124B907840A94851f9f11"
  ],
  "numDeployments": 1,
  "solcInputHash": "b8646c57e41aaeee81758989c8b63d63",
  "bytecode": "0x60e060405234801561001057600080fd5b5060405161098f38038061098f83398101604081905261002f916100de565b6001600160a01b0381161580159061004f57506001600160a01b03821615155b801561006357506001600160a01b03831615155b61009d5760405162461bcd60e51b8152602060048201526007602482015266414d523a45303160c81b604482015260640160405180910390fd5b6001600160601b0319606091821b811660805292811b831660a0521b1660c052610120565b80516001600160a01b03811681146100d957600080fd5b919050565b6000806000606084860312156100f2578283fd5b6100fb846100c2565b9250610109602085016100c2565b9150610117604085016100c2565b90509250925092565b60805160601c60a05160601c60c05160601c61082561016a6000396000818160b501526101a9015260008181607101526102ed01526000818160dc015261013501526108256000f3fe608060405234801561001057600080fd5b50600436106100675760003560e01c806382f9deb51161005057806382f9deb5146100d75780639a7c4b71146100fe578063affed0e01461011357600080fd5b8063576eadd21461006c5780636d552916146100b0575b600080fd5b6100937f000000000000000000000000000000000000000000000000000000000000000081565b6040516001600160a01b0390911681526020015b60405180910390f35b6100937f000000000000000000000000000000000000000000000000000000000000000081565b6100937f000000000000000000000000000000000000000000000000000000000000000081565b61011161010c3660046106a7565b61012a565b005b61011c60005481565b6040519081526020016100a7565b336001600160a01b037f000000000000000000000000000000000000000000000000000000000000000016146101a75760405162461bcd60e51b815260206004820152601260248201527f414d523a494e56414c49445f43414c4c4552000000000000000000000000000060448201526064015b60405180910390fd5b7f00000000000000000000000000000000000000000000000000000000000000006001600160a01b0316836001600160a01b0316146102285760405162461bcd60e51b815260206004820152601260248201527f414d523a494e56414c49445f53454e4445520000000000000000000000000000604482015260640161019e565b600080600061026c85858080601f01602080910402602001604051908101604052809392919081815260200183838082843760009201919091525061039a92505050565b92509250925082600080815480929190610285906107e7565b91905055146102d65760405162461bcd60e51b815260206004820152601160248201527f414d523a494e56414c49445f4e4f4e4345000000000000000000000000000000604482015260640161019e565b604051630dc3282360e11b81526001600160a01b037f00000000000000000000000000000000000000000000000000000000000000001690631b865046906103249085908590600401610736565b600060405180830381600087803b15801561033e57600080fd5b505af1158015610352573d6000803e3d6000fd5b505050507f1275898ec013c1c96f35dd542dc0fef5ae5fbb5e3c07d7d518cd87972537f67c8386866040516103899392919061079a565b60405180910390a150505050505050565b60008060606007845110156103f15760405162461bcd60e51b815260206004820152601060248201527f4142443a57524f4e475f4c454e47544800000000000000000000000000000000604482015260640161019e565b8360028151811061041257634e487b7160e01b600052603260045260246000fd5b602001015160f81c60f81b60f81c60ff1660088560018151811061044657634e487b7160e01b600052603260045260246000fd5b602001015160f81c60f81b60f81c60ff16901b60108660008151811061047c57634e487b7160e01b600052603260045260246000fd5b602001015160f81c60f81b60f81c60ff16901b17179250836006815181106104b457634e487b7160e01b600052603260045260246000fd5b602001015160f81c60f81b60f81c60ff166008856005815181106104e857634e487b7160e01b600052603260045260246000fd5b602001015160f81c60f81b60f81c60ff16901b60108660048151811061051e57634e487b7160e01b600052603260045260246000fd5b602001015160f81c60f81b60f81c60ff16901b60188760038151811061055457634e487b7160e01b600052603260045260246000fd5b602001015160f81c60f81b60f81c60ff16901b17171760e01b9150600060079050600081865161058491906107d0565b90508067ffffffffffffffff8111156105ad57634e487b7160e01b600052604160045260246000fd5b6040519080825280601f01601f1916602001820160405280156105d7576020820181803683370190505b509250801561069e5760005b8181101561069c5786836105f6816107e7565b94508151811061061657634e487b7160e01b600052603260045260246000fd5b01602001517fff00000000000000000000000000000000000000000000000000000000000000168482610648816107e7565b93508151811061066857634e487b7160e01b600052603260045260246000fd5b60200101907effffffffffffffffffffffffffffffffffffffffffffffffffffffffffffff1916908160001a9053506105e3565b505b50509193909250565b600080600080606085870312156106bc578384fd5b8435935060208501356001600160a01b03811681146106d9578384fd5b9250604085013567ffffffffffffffff808211156106f5578384fd5b818701915087601f830112610708578384fd5b813581811115610716578485fd5b886020828501011115610727578485fd5b95989497505060200194505050565b63ffffffff60e01b83168152600060206040818401528351806040850152825b8181101561077257858101830151858201606001528201610756565b818111156107835783606083870101525b50601f01601f191692909201606001949350505050565b83815260406020820152816040820152818360608301376000818301606090810191909152601f909201601f1916010192915050565b6000828210156107e2576107e2610802565b500390565b60006000198214156107fb576107fb610802565b5060010190565b634e487b7160e01b600052601160045260246000fdfea164736f6c6343000804000a",
  "devdoc": {
    "kind": "dev",
    "methods": {
      "constructor": {
        "params": {
          "_fxChild": "Address of the `FxChild` (Bridge) contract on Polygon/Mumbai",
          "_rewardMaster": "Address of the RewardMaster contract on the Polygon/Mumbai",
          "_stakeMsgSender": "Address of the AdvancedStakeRewardAdviserAndMsgSender on the mainnet/Goerli"
        }
      },
      "processMessageFromRoot(uint256,address,bytes)": {
        "details": "Sanitizes, decodes and relay to the RewardMaster the STAKE action message. PoS bridge validators call this method via the `FxChild` contract each time a new message is posted to the bridge on the mainnet/Goerli",
        "params": {
          "content": "Message data",
          "rootMessageSender": "Address on the mainnet/Goerli that sent the message"
        }
      }
    },
    "stateVariables": {
      "FX_CHILD": {
        "details": "`FxChild` is the contract of the \"Fx-Portal\" on the Polygon/Mumbai"
      },
      "STAKE_MSG_SENDER": {
        "details": "It sends messages over the PoS bridge to this contract"
      }
    },
    "version": 1
  },
  "userdoc": {
    "kind": "user",
    "methods": {
      "FX_CHILD()": {
        "notice": "Address of the `FxChild` contract on the Polygon/Mumbai network"
      },
      "REWARD_MASTER()": {
        "notice": "Address of the RewardMaster contract on the Polygon/Mumbai"
      },
      "STAKE_MSG_SENDER()": {
        "notice": "Address of the AdvancedStakeRewardAdviserAndMsgSender on the mainnet/Goerli"
      },
      "nonce()": {
        "notice": "Message nonce (i.e. sequential number of the next message)"
      }
    },
    "version": 1
  },
  "storageLayout": {
    "storage": [
      {
        "astId": 26,
        "contract": "contracts/AdvancedStakeActionMsgRelayer.sol:AdvancedStakeActionMsgRelayer",
        "label": "nonce",
        "offset": 0,
        "slot": "0",
        "type": "t_uint256"
      }
    ],
    "types": {
      "t_uint256": {
        "encoding": "inplace",
        "label": "uint256",
        "numberOfBytes": "32"
      }
    }
  }
}