{
  "address": "0xc36599D03803b4587eE6b7344B193223614377aC",
  "abi": [
    {
      "inputs": [
        {
          "internalType": "address",
          "name": "_owner",
          "type": "address"
        },
        {
          "internalType": "address",
          "name": "rewardMaster",
          "type": "address"
        },
        {
          "internalType": "address",
          "name": "pantherPool",
          "type": "address"
        },
        {
          "internalType": "address",
          "name": "prpGrantor",
          "type": "address"
        },
        {
          "internalType": "address",
          "name": "zkpToken",
          "type": "address"
        },
        {
          "internalType": "address",
          "name": "nftToken",
          "type": "address"
        }
      ],
      "stateMutability": "nonpayable",
      "type": "constructor"
    },
    {
      "anonymous": false,
      "inputs": [
        {
          "indexed": true,
          "internalType": "address",
          "name": "staker",
          "type": "address"
        },
        {
          "indexed": false,
          "internalType": "uint256",
          "name": "firstLeafId",
          "type": "uint256"
        },
        {
          "indexed": false,
          "internalType": "uint256",
          "name": "zkp",
          "type": "uint256"
        },
        {
          "indexed": false,
          "internalType": "uint256",
          "name": "prp",
          "type": "uint256"
        },
        {
          "indexed": false,
          "internalType": "uint256",
          "name": "nft",
          "type": "uint256"
        }
      ],
      "name": "RewardGenerated",
      "type": "event"
    },
    {
      "anonymous": false,
      "inputs": [
        {
          "components": [
            {
              "internalType": "uint96",
              "name": "zkpRewards",
              "type": "uint96"
            },
            {
              "internalType": "uint96",
              "name": "prpRewards",
              "type": "uint96"
            },
            {
              "internalType": "uint24",
              "name": "nftRewards",
              "type": "uint24"
            }
          ],
          "indexed": false,
          "internalType": "struct AdvancedStakeRewardController.Limits",
          "name": "newLimits",
          "type": "tuple"
        }
      ],
      "name": "RewardLimitUpdated",
      "type": "event"
    },
    {
      "anonymous": false,
      "inputs": [
        {
          "components": [
            {
              "internalType": "uint32",
              "name": "startTime",
              "type": "uint32"
            },
            {
              "internalType": "uint32",
              "name": "endTime",
              "type": "uint32"
            },
            {
              "internalType": "uint8",
              "name": "startZkpApy",
              "type": "uint8"
            },
            {
              "internalType": "uint8",
              "name": "endZkpApy",
              "type": "uint8"
            },
            {
              "internalType": "uint32",
              "name": "prpPerStake",
              "type": "uint32"
            }
          ],
          "indexed": false,
          "internalType": "struct AdvancedStakeRewardController.RewardParams",
          "name": "newRewardParams",
          "type": "tuple"
        }
      ],
      "name": "RewardParamsUpdated",
      "type": "event"
    },
    {
      "inputs": [],
      "name": "OWNER",
      "outputs": [
        {
          "internalType": "address",
          "name": "",
          "type": "address"
        }
      ],
      "stateMutability": "view",
      "type": "function"
    },
    {
      "inputs": [],
      "name": "PANTHER_POOL",
      "outputs": [
        {
          "internalType": "address",
          "name": "",
          "type": "address"
        }
      ],
      "stateMutability": "view",
      "type": "function"
    },
    {
      "inputs": [],
      "name": "REWARD_MASTER",
      "outputs": [
        {
          "internalType": "address",
          "name": "",
          "type": "address"
        }
      ],
      "stateMutability": "view",
      "type": "function"
    },
    {
      "inputs": [],
      "name": "START_BLOCK",
      "outputs": [
        {
          "internalType": "uint256",
          "name": "",
          "type": "uint256"
        }
      ],
      "stateMutability": "view",
      "type": "function"
    },
    {
      "inputs": [
        {
          "internalType": "bytes4",
          "name": "action",
          "type": "bytes4"
        },
        {
          "internalType": "bytes",
          "name": "message",
          "type": "bytes"
        }
      ],
      "name": "getRewardAdvice",
      "outputs": [
        {
          "components": [
            {
              "internalType": "address",
              "name": "createSharesFor",
              "type": "address"
            },
            {
              "internalType": "uint96",
              "name": "sharesToCreate",
              "type": "uint96"
            },
            {
              "internalType": "address",
              "name": "redeemSharesFrom",
              "type": "address"
            },
            {
              "internalType": "uint96",
              "name": "sharesToRedeem",
              "type": "uint96"
            },
            {
              "internalType": "address",
              "name": "sendRewardTo",
              "type": "address"
            }
          ],
          "internalType": "struct IRewardAdviser.Advice",
          "name": "",
          "type": "tuple"
        }
      ],
      "stateMutability": "nonpayable",
      "type": "function"
    },
    {
      "inputs": [
        {
          "internalType": "uint256",
          "name": "time",
          "type": "uint256"
        }
      ],
      "name": "getZkpApyAt",
      "outputs": [
        {
          "internalType": "uint256",
          "name": "",
          "type": "uint256"
        }
      ],
      "stateMutability": "view",
      "type": "function"
    },
    {
      "inputs": [],
      "name": "limits",
      "outputs": [
        {
          "internalType": "uint96",
          "name": "zkpRewards",
          "type": "uint96"
        },
        {
          "internalType": "uint96",
          "name": "prpRewards",
          "type": "uint96"
        },
        {
          "internalType": "uint24",
          "name": "nftRewards",
          "type": "uint24"
        }
      ],
      "stateMutability": "view",
      "type": "function"
    },
    {
      "inputs": [
        {
          "internalType": "address",
          "name": "",
          "type": "address"
        },
        {
          "internalType": "address",
          "name": "",
          "type": "address"
        },
        {
          "internalType": "uint256",
          "name": "",
          "type": "uint256"
        },
        {
          "internalType": "bytes",
          "name": "",
          "type": "bytes"
        }
      ],
      "name": "onERC721Received",
      "outputs": [
        {
          "internalType": "bytes4",
          "name": "",
          "type": "bytes4"
        }
      ],
      "stateMutability": "view",
      "type": "function"
    },
    {
      "inputs": [
        {
          "internalType": "address",
          "name": "token",
          "type": "address"
        },
        {
          "internalType": "address",
          "name": "to",
          "type": "address"
        },
        {
          "internalType": "uint256",
          "name": "amount",
          "type": "uint256"
        }
      ],
      "name": "rescueErc20",
      "outputs": [],
      "stateMutability": "nonpayable",
      "type": "function"
    },
    {
      "inputs": [],
      "name": "rewardParams",
      "outputs": [
        {
          "internalType": "uint32",
          "name": "startTime",
          "type": "uint32"
        },
        {
          "internalType": "uint32",
          "name": "endTime",
          "type": "uint32"
        },
        {
          "internalType": "uint8",
          "name": "startZkpApy",
          "type": "uint8"
        },
        {
          "internalType": "uint8",
          "name": "endZkpApy",
          "type": "uint8"
        },
        {
          "internalType": "uint32",
          "name": "prpPerStake",
          "type": "uint32"
        }
      ],
      "stateMutability": "view",
      "type": "function"
    },
    {
      "inputs": [
        {
          "internalType": "uint256",
          "name": "_desiredNftRewardsLimit",
          "type": "uint256"
        }
      ],
      "name": "setNftRewardLimit",
      "outputs": [],
      "stateMutability": "nonpayable",
      "type": "function"
    },
    {
      "inputs": [],
      "name": "totals",
      "outputs": [
        {
          "internalType": "uint96",
          "name": "zkpRewards",
          "type": "uint96"
        },
        {
          "internalType": "uint96",
          "name": "prpRewards",
          "type": "uint96"
        },
        {
          "internalType": "uint24",
          "name": "nftRewards",
          "type": "uint24"
        },
        {
          "internalType": "uint40",
          "name": "scZkpStaked",
          "type": "uint40"
        }
      ],
      "stateMutability": "view",
      "type": "function"
    },
    {
      "inputs": [
        {
          "components": [
            {
              "internalType": "uint32",
              "name": "startTime",
              "type": "uint32"
            },
            {
              "internalType": "uint32",
              "name": "endTime",
              "type": "uint32"
            },
            {
              "internalType": "uint8",
              "name": "startZkpApy",
              "type": "uint8"
            },
            {
              "internalType": "uint8",
              "name": "endZkpApy",
              "type": "uint8"
            },
            {
              "internalType": "uint32",
              "name": "prpPerStake",
              "type": "uint32"
            }
          ],
          "internalType": "struct AdvancedStakeRewardController.RewardParams",
          "name": "_newParams",
          "type": "tuple"
        }
      ],
      "name": "updateRewardParams",
      "outputs": [],
      "stateMutability": "nonpayable",
      "type": "function"
    },
    {
      "inputs": [],
      "name": "updateZkpAndPrpRewardsLimit",
      "outputs": [],
      "stateMutability": "nonpayable",
      "type": "function"
    }
  ],
  "transactionHash": "0x8af2bce89b62612d4b3c59612922d0dd28906701d0b491ff82f57ddc3afdc75b",
  "args": [
    "0x5FFfdD1dE35fFC2f66bFD78E064C280FeD9E68de",
    "0x2E310145C9443BAdbB37245554D3B24902822671",
    "0x00cb5293882E754A23E6fF20DB6639F3302cA720",
    "0x209c092f1aCB2F1a46121e352441D779f410f078",
    "0x3F73371cFA58F338C479928AC7B4327478Cb859f",
    "0x45c7650cbE485d3c85B739799A4D2eEF9FB46d60"
  ],
  "numDeployments": 1,
  "solcInputHash": "b2f0e3dc481a3e44a4548875cb367210",
  "bytecode": "0x6101606040523480156200001257600080fd5b5060405162002ba338038062002ba3833981016040819052620000359162000180565b856001600160a01b038116620000925760405162461bcd60e51b815260206004820152601a60248201527f496d6d4f776e3a207a65726f206f776e6572206164647265737300000000000060448201526064015b60405180910390fd5b60601b6001600160601b0319166080526001600160a01b03851615801590620000c357506001600160a01b03841615155b8015620000d857506001600160a01b03831615155b8015620000ed57506001600160a01b03821615155b620001245760405162461bcd60e51b81526020600482015260066024820152654152433a453160d01b604482015260640162000089565b6001600160601b0319606095861b811660a05293851b841660c05291841b831660e052831b82166101005290911b166101205250436101405262000200565b80516001600160a01b03811681146200017b57600080fd5b919050565b60008060008060008060c0878903121562000199578182fd5b620001a48762000163565b9550620001b46020880162000163565b9450620001c46040880162000163565b9350620001d46060880162000163565b9250620001e46080880162000163565b9150620001f460a0880162000163565b90509295509295509295565b60805160601c60a05160601c60c05160601c60e05160601c6101005160601c6101205160601c610140516128d5620002ce60003960006101790152600081816103fc0152818161090301528181611255015281816115a3015261178201526000818161057201528181610e9601528181610ef9015261171401526000610f4c0152600081816102bc015281816106be01528181610a0d01526117fa0152600081816101b60152610b8e01526000818160f40152818161050301528181610807015261088b01526128d56000f3fe608060405234801561001057600080fd5b50600436106100ea5760003560e01c8063763469141161008c578063b4f708f711610066578063b4f708f7146102de578063c038a38e146102f1578063e9cb032414610369578063f3d17c69146103dc57600080fd5b806376346914146101eb578063860aefcf1461025f5780638f3e52de146102b757600080fd5b806339b3e826116100c857806339b3e82614610174578063548cc3e1146101a9578063576eadd2146101b15780635e6b9358146101d857600080fd5b8063117803e3146100ef578063150b7a0214610133578063243feb991461015f575b600080fd5b6101167f000000000000000000000000000000000000000000000000000000000000000081565b6040516001600160a01b0390911681526020015b60405180910390f35b6101466101413660046124c0565b6103ef565b6040516001600160e01b0319909116815260200161012a565b61017261016d366004612480565b61043c565b005b61019b7f000000000000000000000000000000000000000000000000000000000000000081565b60405190815260200161012a565b610172610624565b6101167f000000000000000000000000000000000000000000000000000000000000000081565b6101726101e63660046125a4565b610805565b6004546102299063ffffffff80821691640100000000810482169160ff600160401b8304811692600160481b810490911691600160501b9091041685565b6040805163ffffffff9687168152948616602086015260ff9384169085015291166060830152909116608082015260a00161012a565b60025461028c906001600160601b0380821691600160601b810490911690600160c01b900462ffffff1683565b604080516001600160601b03948516815293909216602084015262ffffff169082015260600161012a565b6101167f000000000000000000000000000000000000000000000000000000000000000081565b6101726102ec366004612631565b610889565b60035461032d906001600160601b0380821691600160601b810490911690600160c01b810462ffffff1690600160d81b900464ffffffffff1684565b604080516001600160601b03958616815294909316602085015262ffffff9091169183019190915264ffffffffff16606082015260800161012a565b61037c61037736600461254a565b610b58565b60405161012a9190600060a0820190506001600160a01b0380845116835260208401516001600160601b03808216602086015282604087015116604086015280606087015116606086015250508060808501511660808401525092915050565b61019b6103ea366004612631565b610cb4565b6000336001600160a01b037f00000000000000000000000000000000000000000000000000000000000000001614610428576000610431565b630a85bd0160e11b5b90505b949350505050565b6001805460ff1614156104965760405162461bcd60e51b815260206004820152601860248201527f4152433a2063616e27742062652072652d656e7465726564000000000000000060448201526064015b60405180910390fd5b6001805460ff1916811790556040805160a08101825260045463ffffffff808216835264010000000082048116602084015260ff600160401b8304811694840194909452600160481b82049093166060830152600160501b90049091166080820152336001600160a01b037f000000000000000000000000000000000000000000000000000000000000000016146105705760405162461bcd60e51b815260206004820152601160248201527f4152433a20756e617574686f72697a6564000000000000000000000000000000604482015260640161048d565b7f00000000000000000000000000000000000000000000000000000000000000006001600160a01b0316846001600160a01b03161415806105ba5750806020015163ffffffff1642115b6106065760405162461bcd60e51b815260206004820152601960248201527f4152433a20746f6f206561726c79207769746864726177616c00000000000000604482015260640161048d565b610611848484610d42565b50506001805460ff191660021790555050565b60408051606080820183526002546001600160601b038082168452600160601b808304821660208087019190915262ffffff600160c01b9485900481168789015287516080810189526003548086168252938404909416848301529382049093168287015264ffffffffff600160d81b9091041692810192909252835163411557d160e01b81529351929391926000926001600160a01b037f0000000000000000000000000000000000000000000000000000000000000000169263411557d192600480840193829003018186803b1580156106ff57600080fd5b505afa158015610713573d6000803e3d6000fd5b505050506040513d601f19601f820116820180604052508101906107379190612464565b90506000610746848484610e86565b90506107528484610f2a565b8061075a5750805b905080156107ff57835160028054602080880180516040808b01805162ffffff908116600160c01b0262ffffff60c01b196001600160601b03958616600160601b026001600160c01b03199099169a86169a8b1798909817979097169690961790965580519687529151169185019190915291511682820152517f636de12201a46911e0f61f41e1edd370264516bd75fd47147404798201327c699181900360600190a15b50505050565b7f00000000000000000000000000000000000000000000000000000000000000006001600160a01b0316331461087d5760405162461bcd60e51b815260206004820152601460248201527f496d6d4f776e3a20756e617574686f72697a6564000000000000000000000000604482015260640161048d565b61088681611000565b50565b7f00000000000000000000000000000000000000000000000000000000000000006001600160a01b031633146109015760405162461bcd60e51b815260206004820152601460248201527f496d6d4f776e3a20756e617574686f72697a6564000000000000000000000000604482015260640161048d565b7f00000000000000000000000000000000000000000000000000000000000000006001600160a01b03166109325750565b604080516080810182526003546001600160601b038082168352600160601b8083048216602080860191909152600160c01b80850462ffffff908116878901908152600160d81b90960464ffffffffff1660608089019190915288519081018952600254808716825294850490951692850192909252909104811694820194909452905191929091168311610a095760405162461bcd60e51b815260206004820152601a60248201527f4152433a206c6f77206e66742072657761726473206c696d6974000000000000604482015260640161048d565b60007f00000000000000000000000000000000000000000000000000000000000000006001600160a01b031663411557d16040518163ffffffff1660e01b815260040160206040518083038186803b158015610a6457600080fd5b505afa158015610a78573d6000803e3d6000fd5b505050506040513d601f19601f82011682018060405250810190610a9c9190612464565b90506000610aac85848685611205565b90508015610b5157825160028054602080870180516040808a01805162ffffff908116600160c01b0262ffffff60c01b196001600160601b03958616600160601b026001600160c01b03199099169a86169a8b1798909817979097169690961790965580519687529151169185019190915291511682820152517f636de12201a46911e0f61f41e1edd370264516bd75fd47147404798201327c699181900360600190a15b5050505050565b6040805160a081018252600080825260208201819052918101829052606081018290526080810191909152336001600160a01b037f00000000000000000000000000000000000000000000000000000000000000001614610bfb5760405162461bcd60e51b815260206004820152601160248201527f4152433a20756e617574686f72697a6564000000000000000000000000000000604482015260640161048d565b6001600160e01b031983166319932b9d60e31b1415610c2257610c1d82611288565b610c82565b6001600160e01b0319831663b8372e5560e01b14610c825760405162461bcd60e51b815260206004820152601760248201527f4152433a20756e737570706f7274656420616374696f6e000000000000000000604482015260640161048d565b506040805160a08101825260008082526020820181905291810182905260608101829052608081019190915292915050565b6040805160a08101825260045463ffffffff80821680845264010000000083048216602085015260ff600160401b8404811695850195909552600160481b83049094166060840152600160501b909104166080820152600091831080610d235750806020015163ffffffff1683115b15610d315750600092915050565b610d3b8184611912565b9392505050565b604080518082018252601981527f7472616e7366657228616464726573732c75696e74323536290000000000000060209182015281516001600160a01b0385811660248301526044808301869052845180840390910181526064909201845291810180516001600160e01b031663a9059cbb60e01b17905291516000928392871691610dce91906126b2565b6000604051808303816000865af19150503d8060008114610e0b576040519150601f19603f3d011682016040523d82523d6000602084013e610e10565b606091505b5091509150818015610e3a575080511580610e3a575080806020019051810190610e3a919061252a565b610b515760405162461bcd60e51b815260206004820152601b60248201527f636c61696d45726332303a205452414e534645525f4641494c45440000000000604482015260640161048d565b600080610ebc6001600160a01b037f00000000000000000000000000000000000000000000000000000000000000001630611973565b90506000610ed38287600001518760000151611ac3565b90935090508215610f21576001600160601b038116808752610f21906001600160a01b037f000000000000000000000000000000000000000000000000000000000000000016908690611b60565b50509392505050565b604051638e698e9360e01b815230600482015260009081906001600160a01b037f00000000000000000000000000000000000000000000000000000000000000001690638e698e939060240160206040518083038186803b158015610f8e57600080fd5b505afa158015610fa2573d6000803e3d6000fd5b505050506040513d601f19601f82011682018060405250810190610fc69190612649565b90506000610fdd8286602001518660200151611ac3565b90935090508215610ff8576001600160601b03811660208601525b505092915050565b805163ffffffff16158015906110295750806000015163ffffffff16816020015163ffffffff16115b801561103e575042816020015163ffffffff16115b61108a5760405162461bcd60e51b815260206004820152601160248201527f4152433a20696e76616c69642074696d65000000000000000000000000000000604482015260640161048d565b806060015160ff16816040015160ff1610156110e85760405162461bcd60e51b815260206004820152601060248201527f4152433a20696e76616c69642041505900000000000000000000000000000000604482015260640161048d565b80516004805460208401516040808601516060870151608088015163ffffffff908116600160501b026dffffffff000000000000000000001960ff938416600160481b0269ff0000000000000000001994909516600160401b029390931669ffff0000000000000000199683166401000000000267ffffffffffffffff1990981692909916919091179590951793909316959095179490941716179055517fef84ced41c36b2d63ba09cedde0cecaa7c1404ae3dce874c94452cb6dde27391906111fa908390600060a08201905063ffffffff80845116835280602085015116602084015260ff604085015116604084015260ff60608501511660608401528060808501511660808401525092915050565b60405180910390a150565b60008061122586866040015162ffffff16866040015162ffffff16611ac3565b9092509050811561127f5760408501805162ffffff8381169092521615801561127d5761127d6001600160a01b037f000000000000000000000000000000000000000000000000000000000000000016856001611ca3565b505b50949350505050565b600080600080600061129986611cd4565b965050955095505094509450836001600160601b0316600014156112ff5760405162461bcd60e51b815260206004820181905260248201527f4152433a20756e6578706563746564207a65726f207374616b65416d6f756e74604482015260640161048d565b8263ffffffff168263ffffffff161161135a5760405162461bcd60e51b815260206004820152601a60248201527f4152433a20756e6578706563746564206c6f636b656454696c6c000000000000604482015260640161048d565b60408051608080820183526003546001600160601b038082168452600160601b808304821660208087019190915262ffffff600160c01b8086048216888a015264ffffffffff600160d81b9096049590951660608089019190915288518082018a526002548087168252948504861681850152959093041684880152865160a08101885260045463ffffffff8082168352640100000000820481169383019390935260ff600160401b8204811699830199909952600160481b810490981692810192909252600160501b90960486169381019390935260009485948594859491939192909161145391908d16908b8116908d1684611e8b565b9650861561151c5782516000906114749089906001600160601b03166127be565b90508083600001516001600160601b031610156114d35760405162461bcd60e51b815260206004820152601f60248201527f4152433a20746f6f206c657373207265776172647320617661696c61626c6500604482015260640161048d565b6001600160601b0380821685526000906114f79066038d7ea4c68000908f166127f8565b856060015164ffffffffff1661150d91906127be565b64ffffffffff16606086015250505b6000816080015163ffffffff16846020015161153891906127d6565b905082602001516001600160601b0316816001600160601b0316116115745760808201516001600160601b038216602086015263ffffffff1696505b826040015162ffffff16846040015162ffffff1610156116495760405163d17c93bf60e01b81523060048201527f00000000000000000000000000000000000000000000000000000000000000006001600160a01b03169063d17c93bf90602401602060405180830381600087803b1580156115ef57600080fd5b505af1158015611603573d6000803e3d6000fd5b505050506040513d601f19601f820116820180604052508101906116279190612649565b9450600195506001846040018181516116409190612797565b62ffffff169052505b50508151600380546020850151604086015160609096015164ffffffffff16600160d81b027affffffffffffffffffffffffffffffffffffffffffffffffffffff62ffffff909716600160c01b029690961677ffffffffffffffffffffffffffffffffffffffffffffffff6001600160601b03928316600160601b026001600160c01b0319909416929095169190911791909117929092169190911792909217909155506000806116f987611f54565b915091506000604051806060016040528088600014611738577f000000000000000000000000000000000000000000000000000000000000000061173b565b60005b6001600160a01b03168152602001871561176957731afa2212970b809ae15d51af00c502d5c8eb3baf61176c565b60005b6001600160a01b0316815260200186156117a6577f00000000000000000000000000000000000000000000000000000000000000006117a9565b60005b6001600160a01b031690526040805160608082018352600080835260208084018290528385018a9052845192830185528c835282018b905292810189905292935091906117f4612251565b905060007f00000000000000000000000000000000000000000000000000000000000000006001600160a01b03166302e9b8eb8686868b8b886040518763ffffffff1660e01b815260040161184e969594939291906126eb565b602060405180830381600087803b15801561186857600080fd5b505af115801561187c573d6000803e3d6000fd5b505050506040513d601f19601f820116820180604052508101906118a09190612649565b90508f6001600160a01b03167fddec0656213960e0ac0e474ef653acbb176c235a6490a17417050ff0ae105372828d8d8d6040516118f7949392919093845260208401929092526040830152606082015260800190565b60405180910390a25050505050505050505050505050505050565b6060820151604083015160ff8082169290910316801561196c578351602085015163ffffffff808316860392909103166000818484028161196357634e487b7160e01b600052601260045260246000fd5b04909403935050505b5092915050565b6000806000846001600160a01b03166370a08231856040516024016119a791906001600160a01b0391909116815260200190565b6040516020818303038152906040529060e01b6020820180516001600160e01b0383818316178352505050506040516119e091906126b2565b6000604051808303816000865af19150503d8060008114611a1d576040519150601f19603f3d011682016040523d82523d6000602084013e611a22565b606091505b5091509150818015611a345750805115155b611aa65760405162461bcd60e51b815260206004820152603160248201527f5472616e7366657248656c7065723a3a7361666542616c616e63654f663a206760448201527f65742062616c616e6365206661696c6564000000000000000000000000000000606482015260840161048d565b80806020019051810190611aba9190612649565b95945050505050565b60008080611add6001600160601b0380861690871661282b565b905080861415611af4576000859250925050611b58565b6001925080861115611b1f57808603611b176001600160601b0387168201612261565b925050611b56565b6000611b2c878303612261565b9050806001600160601b0316866001600160601b031611611b4e576000611b52565b8086035b9250505b505b935093915050565b6040516001600160a01b03838116602483015260448201839052600091829186169063095ea7b3906064015b6040516020818303038152906040529060e01b6020820180516001600160e01b038381831617835250505050604051611bc591906126b2565b6000604051808303816000865af19150503d8060008114611c02576040519150601f19603f3d011682016040523d82523d6000602084013e611c07565b606091505b5091509150818015611c31575080511580611c31575080806020019051810190611c31919061252a565b610b515760405162461bcd60e51b815260206004820152602b60248201527f5472616e7366657248656c7065723a3a73616665417070726f76653a2061707060448201527f726f7665206661696c6564000000000000000000000000000000000000000000606482015260840161048d565b6040516001600160a01b0383811660248301528215156044830152600091829186169063a22cb46590606401611b8c565b6000806000806000806060603088511015611d315760405162461bcd60e51b815260206004820152601a60248201527f534d503a20756e6578706563746564206d7367206c656e677468000000000000604482015260640161048d565b602088015160408901518951606083901c99506001600160601b038316985060e082901c975063ffffffff60c083901c8116975060a083901c81169650608083901c169450600090611d859060309061282b565b90508067ffffffffffffffff811115611dae57634e487b7160e01b600052604160045260246000fd5b6040519080825280601f01601f191660200182016040528015611dd8576020820181803683370190505b50935060005b81811015611e7c578b611df28260306127be565b81518110611e1057634e487b7160e01b600052603260045260246000fd5b602001015160f81c60f81b858281518110611e3b57634e487b7160e01b600052603260045260246000fd5b60200101907effffffffffffffffffffffffffffffffffffffffffffffffffffffffffffff1916908160001a90535080611e7481612842565b915050611dde565b50505050919395979092949650565b6000816020015163ffffffff168310611ea657506000610434565b815163ffffffff168411611ebc57506000610434565b600083836000015163ffffffff1611611ed55783611ede565b825163ffffffff165b90506000836020015163ffffffff168611611ef95785611f05565b836020015163ffffffff165b90506000611f13838361282b565b90506000611f218685611912565b905063bbf81e0082611f33838c61280c565b611f3d919061280c565b611f4791906127f8565b9998505050505050505050565b611f5c612310565b611f64612349565b611f70600360026127be565b611f7c600160026127be565b611f86919061280c565b611f9190602061280c565b835114611fe05760405162461bcd60e51b815260206004820152601a60248201527f534d503a20756e6578706563746564206d7367206c656e677468000000000000604482015260640161048d565b611fe8612376565b60015b6020611ff9600360026127be565b612005600160026127be565b61200f919061280c565b61201a90602061280c565b612024919061285d565b6001166020612035600360026127be565b612041600160026127be565b61204b919061280c565b61205690602061280c565b61206091906127f8565b61206a91906127be565b811161208c5760208102858101519083015261208581612842565b9050611feb565b5060005b61209c600160026127be565b81101561224a57816120af60028361280c565b6120ba9060016127be565b601081106120d857634e487b7160e01b600052603260045260246000fd5b60200201518482600381106120fd57634e487b7160e01b600052603260045260246000fd5b6020020151528161210f60028361280c565b61211a9060026127be565b6010811061213857634e487b7160e01b600052603260045260246000fd5b602002015184826003811061215d57634e487b7160e01b600052603260045260246000fd5b6020020151602001818152505060005b600381101561223757828161218384600361280c565b61218f600160026127be565b61219a90600261280c565b6121a491906127be565b6121ae91906127be565b6121b99060016127be565b601081106121d757634e487b7160e01b600052603260045260246000fd5b60200201518483600381106121fc57634e487b7160e01b600052603260045260246000fd5b6020020151826003811061222057634e487b7160e01b600052603260045260246000fd5b60200201528061222f81612842565b91505061216d565b508061224281612842565b915050612090565b5050915091565b600061225c426122ba565b905090565b6000600160601b82106122b65760405162461bcd60e51b815260206004820152600860248201527f554e534146453936000000000000000000000000000000000000000000000000604482015260640161048d565b5090565b600064010000000082106122b65760405162461bcd60e51b815260206004820152600860248201527f554e534146453332000000000000000000000000000000000000000000000000604482015260640161048d565b60405180606001604052806003905b604080518082019091526000808252602082015281526020019060019003908161231f5790505090565b60405180606001604052806003905b612360612395565b8152602001906001900390816123585790505090565b6040518061020001604052806010906020820280368337509192915050565b60405180606001604052806003906020820280368337509192915050565b600082601f8301126123c3578081fd5b813567ffffffffffffffff808211156123de576123de61289d565b604051601f8301601f19908116603f011681019082821181831017156124065761240661289d565b8160405283815286602085880101111561241e578485fd5b8360208701602083013792830160200193909352509392505050565b803563ffffffff8116811461244e57600080fd5b919050565b803560ff8116811461244e57600080fd5b600060208284031215612475578081fd5b8151610d3b816128b3565b600080600060608486031215612494578182fd5b833561249f816128b3565b925060208401356124af816128b3565b929592945050506040919091013590565b600080600080608085870312156124d5578081fd5b84356124e0816128b3565b935060208501356124f0816128b3565b925060408501359150606085013567ffffffffffffffff811115612512578182fd5b61251e878288016123b3565b91505092959194509250565b60006020828403121561253b578081fd5b81518015158114610d3b578182fd5b6000806040838503121561255c578182fd5b82356001600160e01b031981168114612573578283fd5b9150602083013567ffffffffffffffff81111561258e578182fd5b61259a858286016123b3565b9150509250929050565b600060a082840312156125b5578081fd5b60405160a0810181811067ffffffffffffffff821117156125d8576125d861289d565b6040526125e48361243a565b81526125f26020840161243a565b602082015261260360408401612453565b604082015261261460608401612453565b60608201526126256080840161243a565b60808201529392505050565b600060208284031215612642578081fd5b5035919050565b60006020828403121561265a578081fd5b5051919050565b8060005b60038110156107ff5761267984835161268f565b6060939093019260209190910190600101612665565b8060005b60038110156107ff578151845260209384019390910190600101612693565b60008251815b818110156126d257602081860181015185830152016126b8565b818111156126e05782828501525b509190910192915050565b6103208101818860005b600381101561271d5781516001600160a01b03168352602092830192909101906001016126f5565b50505061272d606083018861268f565b61273a60c083018761268f565b61012082018560005b600381101561276e578151805184526020908101518185015260409093019290910190600101612743565b50505061277f6101e0830185612661565b63ffffffff8316610300830152979650505050505050565b600062ffffff8083168185168083038211156127b5576127b5612871565b01949350505050565b600082198211156127d1576127d1612871565b500190565b60006001600160601b038083168185168083038211156127b5576127b5612871565b60008261280757612807612887565b500490565b600081600019048311821515161561282657612826612871565b500290565b60008282101561283d5761283d612871565b500390565b600060001982141561285657612856612871565b5060010190565b60008261286c5761286c612887565b500690565b634e487b7160e01b600052601160045260246000fd5b634e487b7160e01b600052601260045260246000fd5b634e487b7160e01b600052604160045260246000fd5b6001600160a01b038116811461088657600080fdfea164736f6c6343000804000a",
  "devdoc": {
    "details": "This contract is supposed to run on the Polygon. Unless otherwise mentioned, other smart contracts are supposed to run on the Polygon also. As the \"Reward Adviser\" on the \"advanced\" stakes, every time a new stake is being created, it receives the `getRewardAdvice` call from the `RewardMaster` contract with the `STAKE` action type and the stake data (the `message`) being the call parameters. On the `getRewardAdvice` call received, this contract: - computes the amounts of the $ZKP reward, the PRP reward, and the optional NFT reward - if the `NFT_TOKEN` is non-zero address, it calls `grantOneToken` on the NFT_TOKEN, and gets the `tokenId` of the minted NFT token - calls `generateDeposits` of the PantherPoolV0, providing amounts/parameters of $ZKP, PRP, and   optional NFT as \"deposits\", as well as \"spending pubKeys\" and \"secrets\" (explained below) - returns the \"zero reward advice\" (with zero `sharesToCreate`) to the RewardMaster. On the \"zero\" advice, the RewardMaster skips creating \"treasure shares\" for the staker. This way rewarding gets orchestrated by this contract rather than the RewardMaster. Being called `generateDeposits`, the PantherPoolV0: - requests the `Vault` to take (`transferFrom`) the $ZKP and NFT tokens from this contract - \"burns\" the PRP grant - generates \"UTXOs\" with the \"spending pubKeys\" and \"secrets\" provided (see bellow). Creating a new stake (i.e. calling the `stake`), the staker generates and provides the \"pubKeys\" and \"secrets\" to the Staking. Both the Staking on the mainnet and the Staking on the Polygon encodes them into the STAKE message and passes to the RewardMaster, which passes the message to this contract with the `getRewardAdvice` call. So this contracts get pubKeys and secrets needed for the `generateDeposits`. For stakes on the Polygon, when all contracts (i.e. Staking, RewardMaster and this contract) run on the same network, the RewardMaster on the Polygon calls this contract directly. For stakes made on the mainnet, where the Staking and the RewardMaster run, but this contract is on the Polygon, the RewardMaster on the mainnet sends the STAKE message to the RewardMaster on the Polygon via the PoS bridge and mediator contracts. The RewardMaster on the Polygon handles a bridged STAKE message (calling the `getRewardAdvice`) as if the message had been sent by the Staking on the Polygon. As a prerequisite: - this contract shall: -- be authorized as the \"RewardAdviser\" with the RewardMaster on the Polygon for advanced stakes -- be authorized as \"Minter\" (aka \"grantor\") with the NFT_TOKEN contract -- hold enough $ZKP to reward stakers -- be given a PRP grant of the size enough to reward stakers - the Vault contract shall be approved to transfer $ZKPs and the NFT tokens from this contract - the $ZKP and the NFT tokens shall be registered as zAssets on the PantherPoolV0.",
    "events": {
      "RewardGenerated(address,uint256,uint256,uint256,uint256)": {
        "details": "Emitted when the reward for a stake is generated"
      },
      "RewardLimitUpdated((uint96,uint96,uint24))": {
        "details": "Emitted when new amounts are allocated to reward stakers"
      },
      "RewardParamsUpdated((uint32,uint32,uint8,uint8,uint32))": {
        "details": "Emitted when rewarding params updated"
      }
    },
    "kind": "dev",
    "methods": {
      "getRewardAdvice(bytes4,bytes)": {
        "details": "To be called by the {RewardMaster} contract on \"advanced\" `STAKE` and `UNSTAKE` actions. The caller is trusted to never call w/ the STAKE acton: - twice for the same stake - after the rewarded period has ended"
      },
      "rescueErc20(address,address,uint256)": {
        "details": "May be only called by the {OWNER}"
      },
      "setNftRewardLimit(uint256)": {
        "details": "Only owner may call it."
      },
      "updateZkpAndPrpRewardsLimit()": {
        "details": "Anyone may call it."
      }
    },
    "title": "AdvancedStakeRewardController",
    "version": 1
  },
  "userdoc": {
    "kind": "user",
    "methods": {
      "OWNER()": {
        "notice": "The owner who has privileged rights"
      },
      "PANTHER_POOL()": {
        "notice": "PantherPoolV0 contract instance"
      },
      "REWARD_MASTER()": {
        "notice": "RewardMaster contract instance"
      },
      "START_BLOCK()": {
        "notice": "Block when this contract is deployed"
      },
      "getZkpApyAt(uint256)": {
        "notice": "Return the APY for the $ZKP reward at a given time"
      },
      "limits()": {
        "notice": "Amounts of $ZKP, PRP and NFT allocated for rewards"
      },
      "rescueErc20(address,address,uint256)": {
        "notice": "Withdraws unclaimed rewards or accidentally sent token from this contract"
      },
      "rewardParams()": {
        "notice": "Reward parameters (start and end point for time and APY)"
      },
      "setNftRewardLimit(uint256)": {
        "notice": "Allocate NFT rewards and approve the Vault to transfer them"
      },
      "totals()": {
        "notice": "Total amounts of $ZKP, PRP and NFT rewarded so far"
      },
      "updateZkpAndPrpRewardsLimit()": {
        "notice": "Allocate for rewards the entire $ZKP balance and the PRP grant amount this contract has and approve the Vault to transfer $ZKP from this contract."
      }
    },
    "notice": "It generates UTXOs in the MASP as rewards to stakers for the \"Advanced Staking\"",
    "version": 1
  },
  "storageLayout": {
    "storage": [
      {
        "astId": 9402,
        "contract": "contracts/AdvancedStakeRewardController.sol:AdvancedStakeRewardController",
        "label": "_reentrancyStatus",
        "offset": 0,
        "slot": "0",
        "type": "t_uint256"
      },
      {
        "astId": 350,
        "contract": "contracts/AdvancedStakeRewardController.sol:AdvancedStakeRewardController",
        "label": "_reentrancyStatus",
        "offset": 0,
        "slot": "1",
        "type": "t_uint8"
      },
      {
        "astId": 354,
        "contract": "contracts/AdvancedStakeRewardController.sol:AdvancedStakeRewardController",
        "label": "limits",
        "offset": 0,
        "slot": "2",
        "type": "t_struct(Limits)316_storage"
      },
      {
        "astId": 358,
        "contract": "contracts/AdvancedStakeRewardController.sol:AdvancedStakeRewardController",
        "label": "totals",
        "offset": 0,
        "slot": "3",
        "type": "t_struct(Totals)309_storage"
      },
      {
        "astId": 362,
        "contract": "contracts/AdvancedStakeRewardController.sol:AdvancedStakeRewardController",
        "label": "rewardParams",
        "offset": 0,
        "slot": "4",
        "type": "t_struct(RewardParams)332_storage"
      }
    ],
    "types": {
      "t_struct(Limits)316_storage": {
        "encoding": "inplace",
        "label": "struct AdvancedStakeRewardController.Limits",
        "members": [
          {
            "astId": 311,
            "contract": "contracts/AdvancedStakeRewardController.sol:AdvancedStakeRewardController",
            "label": "zkpRewards",
            "offset": 0,
            "slot": "0",
            "type": "t_uint96"
          },
          {
            "astId": 313,
            "contract": "contracts/AdvancedStakeRewardController.sol:AdvancedStakeRewardController",
            "label": "prpRewards",
            "offset": 12,
            "slot": "0",
            "type": "t_uint96"
          },
          {
            "astId": 315,
            "contract": "contracts/AdvancedStakeRewardController.sol:AdvancedStakeRewardController",
            "label": "nftRewards",
            "offset": 24,
            "slot": "0",
            "type": "t_uint24"
          }
        ],
        "numberOfBytes": "32"
      },
      "t_struct(RewardParams)332_storage": {
        "encoding": "inplace",
        "label": "struct AdvancedStakeRewardController.RewardParams",
        "members": [
          {
            "astId": 319,
            "contract": "contracts/AdvancedStakeRewardController.sol:AdvancedStakeRewardController",
            "label": "startTime",
            "offset": 0,
            "slot": "0",
            "type": "t_uint32"
          },
          {
            "astId": 322,
            "contract": "contracts/AdvancedStakeRewardController.sol:AdvancedStakeRewardController",
            "label": "endTime",
            "offset": 4,
            "slot": "0",
            "type": "t_uint32"
          },
          {
            "astId": 325,
            "contract": "contracts/AdvancedStakeRewardController.sol:AdvancedStakeRewardController",
            "label": "startZkpApy",
            "offset": 8,
            "slot": "0",
            "type": "t_uint8"
          },
          {
            "astId": 328,
            "contract": "contracts/AdvancedStakeRewardController.sol:AdvancedStakeRewardController",
            "label": "endZkpApy",
            "offset": 9,
            "slot": "0",
            "type": "t_uint8"
          },
          {
            "astId": 331,
            "contract": "contracts/AdvancedStakeRewardController.sol:AdvancedStakeRewardController",
            "label": "prpPerStake",
            "offset": 10,
            "slot": "0",
            "type": "t_uint32"
          }
        ],
        "numberOfBytes": "32"
      },
      "t_struct(Totals)309_storage": {
        "encoding": "inplace",
        "label": "struct AdvancedStakeRewardController.Totals",
        "members": [
          {
            "astId": 302,
            "contract": "contracts/AdvancedStakeRewardController.sol:AdvancedStakeRewardController",
            "label": "zkpRewards",
            "offset": 0,
            "slot": "0",
            "type": "t_uint96"
          },
          {
            "astId": 304,
            "contract": "contracts/AdvancedStakeRewardController.sol:AdvancedStakeRewardController",
            "label": "prpRewards",
            "offset": 12,
            "slot": "0",
            "type": "t_uint96"
          },
          {
            "astId": 306,
            "contract": "contracts/AdvancedStakeRewardController.sol:AdvancedStakeRewardController",
            "label": "nftRewards",
            "offset": 24,
            "slot": "0",
            "type": "t_uint24"
          },
          {
            "astId": 308,
            "contract": "contracts/AdvancedStakeRewardController.sol:AdvancedStakeRewardController",
            "label": "scZkpStaked",
            "offset": 27,
            "slot": "0",
            "type": "t_uint40"
          }
        ],
        "numberOfBytes": "32"
      },
      "t_uint24": {
        "encoding": "inplace",
        "label": "uint24",
        "numberOfBytes": "3"
      },
      "t_uint256": {
        "encoding": "inplace",
        "label": "uint256",
        "numberOfBytes": "32"
      },
      "t_uint32": {
        "encoding": "inplace",
        "label": "uint32",
        "numberOfBytes": "4"
      },
      "t_uint40": {
        "encoding": "inplace",
        "label": "uint40",
        "numberOfBytes": "5"
      },
      "t_uint8": {
        "encoding": "inplace",
        "label": "uint8",
        "numberOfBytes": "1"
      },
      "t_uint96": {
        "encoding": "inplace",
        "label": "uint96",
        "numberOfBytes": "12"
      }
    }
  }
}