{
  "address": "0x4A185F3f01473DCF61AE9012CdB8684212DEa31B",
  "abi": [
    {
      "inputs": [
        {
          "internalType": "address",
          "name": "_token",
          "type": "address"
        },
        {
          "internalType": "address",
          "name": "_owner",
          "type": "address"
        }
      ],
      "stateMutability": "nonpayable",
      "type": "constructor"
    },
    {
      "anonymous": false,
      "inputs": [
        {
          "indexed": false,
          "internalType": "uint256",
          "name": "_poolId",
          "type": "uint256"
        },
        {
          "indexed": false,
          "internalType": "address",
          "name": "_recipient",
          "type": "address"
        },
        {
          "indexed": false,
          "internalType": "uint256",
          "name": "_endTime",
          "type": "uint256"
        }
      ],
      "name": "Initialized",
      "type": "event"
    },
    {
      "anonymous": false,
      "inputs": [
        {
          "indexed": false,
          "internalType": "uint256",
          "name": "amount",
          "type": "uint256"
        }
      ],
      "name": "Vested",
      "type": "event"
    },
    {
      "inputs": [],
      "name": "OWNER",
      "outputs": [
        {
          "internalType": "address",
          "name": "",
          "type": "address"
        }
      ],
      "stateMutability": "view",
      "type": "function"
    },
    {
      "inputs": [
        {
          "internalType": "address",
          "name": "claimedToken",
          "type": "address"
        },
        {
          "internalType": "address",
          "name": "to",
          "type": "address"
        },
        {
          "internalType": "uint256",
          "name": "amount",
          "type": "uint256"
        }
      ],
      "name": "claimErc20",
      "outputs": [],
      "stateMutability": "nonpayable",
      "type": "function"
    },
    {
      "inputs": [],
      "name": "endTime",
      "outputs": [
        {
          "internalType": "uint32",
          "name": "",
          "type": "uint32"
        }
      ],
      "stateMutability": "view",
      "type": "function"
    },
    {
      "inputs": [
        {
          "internalType": "address",
          "name": "_recipient",
          "type": "address"
        },
        {
          "internalType": "uint32",
          "name": "_startTime",
          "type": "uint32"
        },
        {
          "internalType": "uint32",
          "name": "_endTime",
          "type": "uint32"
        }
      ],
      "name": "initialize",
      "outputs": [],
      "stateMutability": "nonpayable",
      "type": "function"
    },
    {
      "inputs": [],
      "name": "recipient",
      "outputs": [
        {
          "internalType": "address",
          "name": "",
          "type": "address"
        }
      ],
      "stateMutability": "view",
      "type": "function"
    },
    {
      "inputs": [],
      "name": "releasableAmount",
      "outputs": [
        {
          "internalType": "uint256",
          "name": "",
          "type": "uint256"
        }
      ],
      "stateMutability": "view",
      "type": "function"
    },
    {
      "inputs": [],
      "name": "startTime",
      "outputs": [
        {
          "internalType": "uint32",
          "name": "",
          "type": "uint32"
        }
      ],
      "stateMutability": "view",
      "type": "function"
    },
    {
      "inputs": [],
      "name": "token",
      "outputs": [
        {
          "internalType": "contract IErc20Min",
          "name": "",
          "type": "address"
        }
      ],
      "stateMutability": "view",
      "type": "function"
    },
    {
      "inputs": [],
      "name": "vestRewards",
      "outputs": [
        {
          "internalType": "uint256",
          "name": "amount",
          "type": "uint256"
        }
      ],
      "stateMutability": "nonpayable",
      "type": "function"
    }
  ],
  "transactionHash": "0x9c3c022db4aeb5b02ece93b9acbdca2089d22155774c3e9487e7ec4daba305fa",
  "args": [
    "0xf0BA5B1ee6Aff5dcd99aa6C922C9F0739F23C4D4",
    "0x5FFfdD1dE35fFC2f66bFD78E064C280FeD9E68de"
  ],
  "numDeployments": 1,
  "solcInputHash": "496176f3b3122619b8c2f798da67ee81",
  "bytecode": "0x60c060405234801561001057600080fd5b50604051610d3f380380610d3f83398101604081905261002f91610118565b806001600160a01b03811661008b5760405162461bcd60e51b815260206004820152601a60248201527f496d6d4f776e3a207a65726f206f776e6572206164647265737300000000000060448201526064015b60405180910390fd5b60601b6001600160601b031916608052816001600160a01b0381166100e55760405162461bcd60e51b815260206004820152601060248201526f52503a207a65726f206164647265737360801b6044820152606401610082565b505060601b6001600160601b03191660a05261014a565b80516001600160a01b038116811461011357600080fd5b919050565b6000806040838503121561012a578182fd5b610133836100fc565b9150610141602084016100fc565b90509250929050565b60805160601c60a05160601c610ba86101976000396000818161018d0152818161024a015281816103fb015261077d01526000818160ad0152818161032801526104a80152610ba86000f3fe608060405234801561001057600080fd5b50600436106100a35760003560e01c806366d003ac1161007657806392a70fb01161005b57806392a70fb014610160578063f1a9a9b414610175578063fc0c546a1461018857600080fd5b806366d003ac1461013657806378e979251461014957600080fd5b8063117803e3146100a85780633197cbb6146100ec5780633c43059d146101185780635b9400811461012e575b600080fd5b6100cf7f000000000000000000000000000000000000000000000000000000000000000081565b6040516001600160a01b0390911681526020015b60405180910390f35b60015461010390600160c01b900463ffffffff1681565b60405163ffffffff90911681526020016100e3565b6101206101af565b6040519081526020016100e3565b610120610300565b6001546100cf906001600160a01b031681565b60015461010390600160a01b900463ffffffff1681565b61017361016e366004610a15565b610326565b005b610173610183366004610a50565b6104a6565b6100cf7f000000000000000000000000000000000000000000000000000000000000000081565b6001546000906001600160a01b031633146102115760405162461bcd60e51b815260206004820152601060248201527f52503a20756e617574686f72697a65640000000000000000000000000000000060448201526064015b60405180910390fd5b610219610741565b905080156102fd5760015460405163a9059cbb60e01b81526001600160a01b039182166004820152602481018390527f00000000000000000000000000000000000000000000000000000000000000009091169063a9059cbb90604401602060405180830381600087803b15801561029057600080fd5b505af11580156102a4573d6000803e3d6000fd5b505050506040513d601f19601f820116820180604052508101906102c89190610a92565b506040518181527f612773fe32ce5ff928e8196b31fe6ebfdbc51c93547d7e8a28cff137bfd317919060200160405180910390a15b90565b6001546000906001600160a01b03166103195750600090565b610321610741565b905090565b7f00000000000000000000000000000000000000000000000000000000000000006001600160a01b0316331461039e5760405162461bcd60e51b815260206004820152601460248201527f496d6d4f776e3a20756e617574686f72697a65640000000000000000000000006044820152606401610208565b600260005414156103f15760405162461bcd60e51b815260206004820152601a60248201527f636c61696d45726332303a207265656e7472616e742063616c6c0000000000006044820152606401610208565b60026000819055507f00000000000000000000000000000000000000000000000000000000000000006001600160a01b0316836001600160a01b0316141561049157600154600160c01b900463ffffffff1642116104915760405162461bcd60e51b815260206004820152600e60248201527f52503a2070726f686962697465640000000000000000000000000000000000006044820152606401610208565b61049c838383610885565b5050600160005550565b7f00000000000000000000000000000000000000000000000000000000000000006001600160a01b0316331461051e5760405162461bcd60e51b815260206004820152601460248201527f496d6d4f776e3a20756e617574686f72697a65640000000000000000000000006044820152606401610208565b826001600160a01b0381166105755760405162461bcd60e51b815260206004820152601060248201527f52503a207a65726f2061646472657373000000000000000000000000000000006044820152606401610208565b6001546001600160a01b0316156105ce5760405162461bcd60e51b815260206004820152600f60248201527f52503a20696e697469616c697a656400000000000000000000000000000000006044820152606401610208565b428263ffffffff16116106235760405162461bcd60e51b815260206004820152600660248201527f52503a20493200000000000000000000000000000000000000000000000000006044820152606401610208565b8263ffffffff168263ffffffff161161067e5760405162461bcd60e51b815260206004820152600660248201527f52503a20493300000000000000000000000000000000000000000000000000006044820152606401610208565b600180546001600160a01b0386167fffffffffffffffff0000000000000000000000000000000000000000000000009091168117600160a01b63ffffffff87811691909102919091177fffffffff00000000ffffffffffffffffffffffffffffffffffffffffffffffff16600160c01b91861691820217909255604080516000815260208101929092528101919091527f0a704da44b3f5e15006ba5f8755eff30ba4f855f7a647776ed3584627af820529060600160405180910390a150505050565b6001546000904290600160a01b900463ffffffff1681101561076557600091505090565b6040516370a0823160e01b81523060048201526000907f00000000000000000000000000000000000000000000000000000000000000006001600160a01b0316906370a082319060240160206040518083038186803b1580156107c757600080fd5b505afa1580156107db573d6000803e3d6000fd5b505050506040513d601f19601f820116820180604052508101906107ff9190610ab9565b600154909150600160c01b900463ffffffff1682111561081f5792915050565b60015460009061083d908490600160c01b900463ffffffff16610b49565b6001549091506108639063ffffffff600160a01b8204811691600160c01b900416610b60565b63ffffffff166108738284610b2a565b61087d9190610b0a565b935050505090565b604080518082018252601981527f7472616e7366657228616464726573732c75696e74323536290000000000000060209182015281516001600160a01b0385811660248301526044808301869052845180840390910181526064909201845291810180517bffffffffffffffffffffffffffffffffffffffffffffffffffffffff1663a9059cbb60e01b179052915160009283928716916109269190610ad1565b6000604051808303816000865af19150503d8060008114610963576040519150601f19603f3d011682016040523d82523d6000602084013e610968565b606091505b50915091508180156109925750805115806109925750808060200190518101906109929190610a92565b6109de5760405162461bcd60e51b815260206004820152601b60248201527f636c61696d45726332303a205452414e534645525f4641494c454400000000006044820152606401610208565b5050505050565b80356001600160a01b03811681146109fc57600080fd5b919050565b803563ffffffff811681146109fc57600080fd5b600080600060608486031215610a29578283fd5b610a32846109e5565b9250610a40602085016109e5565b9150604084013590509250925092565b600080600060608486031215610a64578283fd5b610a6d846109e5565b9250610a7b60208501610a01565b9150610a8960408501610a01565b90509250925092565b600060208284031215610aa3578081fd5b81518015158114610ab2578182fd5b9392505050565b600060208284031215610aca578081fd5b5051919050565b60008251815b81811015610af15760208186018101518583015201610ad7565b81811115610aff5782828501525b509190910192915050565b600082610b2557634e487b7160e01b81526012600452602481fd5b500490565b6000816000190483118215151615610b4457610b44610b85565b500290565b600082821015610b5b57610b5b610b85565b500390565b600063ffffffff83811690831681811015610b7d57610b7d610b85565b039392505050565b634e487b7160e01b600052601160045260246000fdfea164736f6c6343000804000a",
  "devdoc": {
    "details": "This contract is supposed to release $ZKP to the `RewardMaster` on Matic. Tokens to vest will be bridged from the mainnet to Matic (maybe, a few times).",
    "kind": "dev",
    "methods": {
      "claimErc20(address,address,uint256)": {
        "details": "May be only called by the {OWNER}"
      },
      "initialize(address,uint32,uint32)": {
        "details": "Owner only may call, once only"
      },
      "vestRewards()": {
        "details": "{recipient} only may call"
      }
    },
    "title": "MaticRewardPool",
    "version": 1
  },
  "userdoc": {
    "events": {
      "Initialized(uint256,address,uint256)": {
        "notice": "Emitted on parameters initialized."
      },
      "Vested(uint256)": {
        "notice": "Emitted on vesting to the {recipient}"
      }
    },
    "kind": "user",
    "methods": {
      "OWNER()": {
        "notice": "The owner who has privileged rights"
      },
      "claimErc20(address,address,uint256)": {
        "notice": "Withdraws accidentally sent token from this contract"
      },
      "endTime()": {
        "notice": "(UNIX) Timestamp when vesting ends"
      },
      "initialize(address,uint32,uint32)": {
        "notice": "Sets the {recipient}, {startTime} and {endTime} to given values"
      },
      "recipient()": {
        "notice": "Address to vest tokens to"
      },
      "releasableAmount()": {
        "notice": "Returns token amount that may be released (vested) now"
      },
      "startTime()": {
        "notice": "(UNIX) Timestamp when vesting starts"
      },
      "token()": {
        "notice": "Address of the token vested ($ZKP)"
      },
      "vestRewards()": {
        "notice": "Vests releasable token amount to the {recipient}"
      }
    },
    "notice": "It vests $ZKP token from its balance gradually over time.",
    "version": 1
  },
  "storageLayout": {
    "storage": [
      {
        "astId": 4200,
        "contract": "contracts/MaticRewardPool.sol:MaticRewardPool",
        "label": "_reentrancyStatus",
        "offset": 0,
        "slot": "0",
        "type": "t_uint256"
      },
      {
        "astId": 25,
        "contract": "contracts/MaticRewardPool.sol:MaticRewardPool",
        "label": "recipient",
        "offset": 0,
        "slot": "1",
        "type": "t_address"
      },
      {
        "astId": 28,
        "contract": "contracts/MaticRewardPool.sol:MaticRewardPool",
        "label": "startTime",
        "offset": 20,
        "slot": "1",
        "type": "t_uint32"
      },
      {
        "astId": 31,
        "contract": "contracts/MaticRewardPool.sol:MaticRewardPool",
        "label": "endTime",
        "offset": 24,
        "slot": "1",
        "type": "t_uint32"
      }
    ],
    "types": {
      "t_address": {
        "encoding": "inplace",
        "label": "address",
        "numberOfBytes": "20"
      },
      "t_uint256": {
        "encoding": "inplace",
        "label": "uint256",
        "numberOfBytes": "32"
      },
      "t_uint32": {
        "encoding": "inplace",
        "label": "uint32",
        "numberOfBytes": "4"
      }
    }
  }
}