{
  "address": "0x0255d2dEE3ab04cd0c611a850022d0738D34164D",
  "abi": [
    {
      "inputs": [
        {
          "internalType": "address",
          "name": "_owner",
          "type": "address"
        },
        {
          "internalType": "address",
          "name": "assetRegistry",
          "type": "address"
        },
        {
          "internalType": "address",
          "name": "vault",
          "type": "address"
        },
        {
          "internalType": "address",
          "name": "prpGrantor",
          "type": "address"
        }
      ],
      "stateMutability": "nonpayable",
      "type": "constructor"
    },
    {
      "anonymous": false,
      "inputs": [
        {
          "indexed": true,
          "internalType": "uint256",
          "name": "treeId",
          "type": "uint256"
        },
        {
          "indexed": false,
          "internalType": "bytes32",
          "name": "root",
          "type": "bytes32"
        }
      ],
      "name": "AnchoredRoot",
      "type": "event"
    },
    {
      "anonymous": false,
      "inputs": [
        {
          "indexed": true,
          "internalType": "uint256",
          "name": "treeId",
          "type": "uint256"
        },
        {
          "indexed": false,
          "internalType": "bytes32",
          "name": "root",
          "type": "bytes32"
        }
      ],
      "name": "CachedRoot",
      "type": "event"
    },
    {
      "anonymous": false,
      "inputs": [
        {
          "indexed": true,
          "internalType": "address",
          "name": "token",
          "type": "address"
        },
        {
          "indexed": false,
          "internalType": "uint256",
          "name": "change",
          "type": "uint256"
        }
      ],
      "name": "Change",
      "type": "event"
    },
    {
      "anonymous": false,
      "inputs": [
        {
          "indexed": false,
          "internalType": "uint256",
          "name": "timestamp",
          "type": "uint256"
        }
      ],
      "name": "ExitCommitment",
      "type": "event"
    },
    {
      "anonymous": false,
      "inputs": [
        {
          "indexed": false,
          "internalType": "uint256",
          "name": "newExitTime",
          "type": "uint256"
        },
        {
          "indexed": false,
          "internalType": "uint256",
          "name": "newExitDelay",
          "type": "uint256"
        }
      ],
      "name": "ExitTimesUpdated",
      "type": "event"
    },
    {
      "anonymous": false,
      "inputs": [
        {
          "indexed": true,
          "internalType": "uint256",
          "name": "leftLeafId",
          "type": "uint256"
        },
        {
          "indexed": false,
          "internalType": "uint256",
          "name": "creationTime",
          "type": "uint256"
        },
        {
          "indexed": false,
          "internalType": "bytes32[3]",
          "name": "commitments",
          "type": "bytes32[3]"
        },
        {
          "indexed": false,
          "internalType": "bytes",
          "name": "utxoData",
          "type": "bytes"
        }
      ],
      "name": "NewCommitments",
      "type": "event"
    },
    {
      "anonymous": false,
      "inputs": [
        {
          "indexed": false,
          "internalType": "bytes32",
          "name": "nullifier",
          "type": "bytes32"
        }
      ],
      "name": "Nullifier",
      "type": "event"
    },
    {
      "inputs": [],
      "name": "ASSET_REGISTRY",
      "outputs": [
        {
          "internalType": "address",
          "name": "",
          "type": "address"
        }
      ],
      "stateMutability": "view",
      "type": "function"
    },
    {
      "inputs": [],
      "name": "OWNER",
      "outputs": [
        {
          "internalType": "address",
          "name": "",
          "type": "address"
        }
      ],
      "stateMutability": "view",
      "type": "function"
    },
    {
      "inputs": [],
      "name": "PRP_GRANTOR",
      "outputs": [
        {
          "internalType": "address",
          "name": "",
          "type": "address"
        }
      ],
      "stateMutability": "view",
      "type": "function"
    },
    {
      "inputs": [],
      "name": "VAULT",
      "outputs": [
        {
          "internalType": "address",
          "name": "",
          "type": "address"
        }
      ],
      "stateMutability": "view",
      "type": "function"
    },
    {
      "inputs": [
        {
          "internalType": "address",
          "name": "token",
          "type": "address"
        },
        {
          "internalType": "address",
          "name": "to",
          "type": "address"
        },
        {
          "internalType": "uint256",
          "name": "amount",
          "type": "uint256"
        }
      ],
      "name": "claimEthOrErc20",
      "outputs": [],
      "stateMutability": "nonpayable",
      "type": "function"
    },
    {
      "inputs": [
        {
          "internalType": "bytes32",
          "name": "exitCommitment",
          "type": "bytes32"
        }
      ],
      "name": "commitToExit",
      "outputs": [],
      "stateMutability": "nonpayable",
      "type": "function"
    },
    {
      "inputs": [],
      "name": "curRoot",
      "outputs": [
        {
          "internalType": "bytes32",
          "name": "root",
          "type": "bytes32"
        },
        {
          "internalType": "uint256",
          "name": "cacheIndex",
          "type": "uint256"
        }
      ],
      "stateMutability": "view",
      "type": "function"
    },
    {
      "inputs": [],
      "name": "curTree",
      "outputs": [
        {
          "internalType": "uint256",
          "name": "",
          "type": "uint256"
        }
      ],
      "stateMutability": "view",
      "type": "function"
    },
    {
      "inputs": [
        {
          "internalType": "address",
          "name": "token",
          "type": "address"
        },
        {
          "internalType": "uint256",
          "name": "subId",
          "type": "uint256"
        },
        {
          "internalType": "uint64",
          "name": "scaledAmount",
          "type": "uint64"
        },
        {
          "internalType": "uint32",
          "name": "creationTime",
          "type": "uint32"
        },
        {
          "internalType": "uint256",
          "name": "privSpendingKey",
          "type": "uint256"
        },
        {
          "internalType": "uint256",
          "name": "leafId",
          "type": "uint256"
        },
        {
          "internalType": "bytes32[16]",
          "name": "pathElements",
          "type": "bytes32[16]"
        },
        {
          "internalType": "bytes32",
          "name": "merkleRoot",
          "type": "bytes32"
        },
        {
          "internalType": "uint256",
          "name": "cacheIndexHint",
          "type": "uint256"
        }
      ],
      "name": "exit",
      "outputs": [],
      "stateMutability": "nonpayable",
      "type": "function"
    },
    {
      "inputs": [
        {
          "internalType": "bytes32",
          "name": "",
          "type": "bytes32"
        }
      ],
      "name": "exitCommitments",
      "outputs": [
        {
          "internalType": "uint32",
          "name": "",
          "type": "uint32"
        }
      ],
      "stateMutability": "view",
      "type": "function"
    },
    {
      "inputs": [],
      "name": "exitDelay",
      "outputs": [
        {
          "internalType": "uint24",
          "name": "",
          "type": "uint24"
        }
      ],
      "stateMutability": "view",
      "type": "function"
    },
    {
      "inputs": [],
      "name": "exitTime",
      "outputs": [
        {
          "internalType": "uint32",
          "name": "",
          "type": "uint32"
        }
      ],
      "stateMutability": "view",
      "type": "function"
    },
    {
      "inputs": [
        {
          "internalType": "uint256",
          "name": "",
          "type": "uint256"
        }
      ],
      "name": "finalRoots",
      "outputs": [
        {
          "internalType": "bytes32",
          "name": "",
          "type": "bytes32"
        }
      ],
      "stateMutability": "view",
      "type": "function"
    },
    {
      "inputs": [
        {
          "internalType": "address[3]",
          "name": "tokens",
          "type": "address[3]"
        },
        {
          "internalType": "uint256[3]",
          "name": "tokenIds",
          "type": "uint256[3]"
        },
        {
          "internalType": "uint256[3]",
          "name": "amounts",
          "type": "uint256[3]"
        },
        {
          "components": [
            {
              "internalType": "uint256",
              "name": "x",
              "type": "uint256"
            },
            {
              "internalType": "uint256",
              "name": "y",
              "type": "uint256"
            }
          ],
          "internalType": "struct G1Point[3]",
          "name": "pubSpendingKeys",
          "type": "tuple[3]"
        },
        {
          "internalType": "uint256[3][3]",
          "name": "secrets",
          "type": "uint256[3][3]"
        },
        {
          "internalType": "uint32",
          "name": "createdAt",
          "type": "uint32"
        }
      ],
      "name": "generateDeposits",
      "outputs": [
        {
          "internalType": "uint256",
          "name": "leftLeafId",
          "type": "uint256"
        }
      ],
      "stateMutability": "nonpayable",
      "type": "function"
    },
    {
      "inputs": [
        {
          "internalType": "uint256",
          "name": "leafId",
          "type": "uint256"
        }
      ],
      "name": "getLeafIndex",
      "outputs": [
        {
          "internalType": "uint256",
          "name": "",
          "type": "uint256"
        }
      ],
      "stateMutability": "pure",
      "type": "function"
    },
    {
      "inputs": [
        {
          "internalType": "uint256",
          "name": "leafId",
          "type": "uint256"
        }
      ],
      "name": "getTreeId",
      "outputs": [
        {
          "internalType": "uint256",
          "name": "",
          "type": "uint256"
        }
      ],
      "stateMutability": "pure",
      "type": "function"
    },
    {
      "inputs": [
        {
          "internalType": "uint256",
          "name": "treeId",
          "type": "uint256"
        },
        {
          "internalType": "bytes32",
          "name": "root",
          "type": "bytes32"
        },
        {
          "internalType": "uint256",
          "name": "cacheIndexHint",
          "type": "uint256"
        }
      ],
      "name": "isKnownRoot",
      "outputs": [
        {
          "internalType": "bool",
          "name": "",
          "type": "bool"
        }
      ],
      "stateMutability": "view",
      "type": "function"
    },
    {
      "inputs": [
        {
          "internalType": "bytes32",
          "name": "",
          "type": "bytes32"
        }
      ],
      "name": "isSpent",
      "outputs": [
        {
          "internalType": "bool",
          "name": "",
          "type": "bool"
        }
      ],
      "stateMutability": "view",
      "type": "function"
    },
    {
      "inputs": [],
      "name": "leavesNum",
      "outputs": [
        {
          "internalType": "uint256",
          "name": "",
          "type": "uint256"
        }
      ],
      "stateMutability": "view",
      "type": "function"
    },
    {
      "inputs": [
        {
          "internalType": "uint32",
          "name": "newExitTime",
          "type": "uint32"
        },
        {
          "internalType": "uint24",
          "name": "newExitDelay",
          "type": "uint24"
        }
      ],
      "name": "updateExitTimes",
      "outputs": [],
      "stateMutability": "nonpayable",
      "type": "function"
    },
    {
      "inputs": [
        {
          "internalType": "bytes32",
          "name": "merkleRoot",
          "type": "bytes32"
        },
        {
          "internalType": "uint256",
          "name": "triadIndex",
          "type": "uint256"
        },
        {
          "internalType": "uint256",
          "name": "triadNodeIndex",
          "type": "uint256"
        },
        {
          "internalType": "bytes32",
          "name": "leaf",
          "type": "bytes32"
        },
        {
          "internalType": "bytes32[16]",
          "name": "pathElements",
          "type": "bytes32[16]"
        }
      ],
      "name": "verifyMerkleProof",
      "outputs": [],
      "stateMutability": "pure",
      "type": "function"
    }
  ],
  "transactionHash": "0x876215df59cc8653880f589b0d0a4f1661dff735d1fd977320876157dd2ff7b4",
  "args": [
    "0x5FFfdD1dE35fFC2f66bFD78E064C280FeD9E68de",
    "0x1f58EFcE1d59Bd533B2a403e68B68d2075883015",
    "0xa0C98dCC8cC82Cf8f04857187994b98712D19afd",
    "0x91Ffa5F1aCF9D2b78Fc5B2367b0F34f60927A022"
  ],
  "numDeployments": 1,
  "solcInputHash": "fcf227c34e662724301bcc844e2ed469",
  "bytecode": "0x6101006040523480156200001257600080fd5b50604051620038da380380620038da8339810160408190526200003591620001a8565b836001600160a01b038116620000925760405162461bcd60e51b815260206004820152601a60248201527f496d6d4f776e3a207a65726f206f776e6572206164647265737300000000000060448201526064015b60405180910390fd5b60601b6001600160601b031916608052620000b06001600262000204565b600314620000e65760405162461bcd60e51b8152602060048201526002602482015261045360f41b604482015260640162000089565b620000f18362000130565b620000fc8262000130565b620001078162000130565b6001600160601b0319606093841b811660a05291831b821660c05290911b1660e0525062000229565b6001600160a01b038116620001885760405162461bcd60e51b815260206004820152601760248201527f554e45585045435445445f5a45524f5f41444452455353000000000000000000604482015260640162000089565b50565b80516001600160a01b0381168114620001a357600080fd5b919050565b60008060008060808587031215620001be578384fd5b620001c9856200018b565b9350620001d9602086016200018b565b9250620001e9604086016200018b565b9150620001f9606086016200018b565b905092959194509250565b600082198211156200022457634e487b7160e01b81526011600452602481fd5b500190565b60805160601c60a05160601c60c05160601c60e05160601c61363a620002a0600039600081816102ef015261180c01526000818161026b01528181610c030152611a9c0152600081816102c801528181610adc01526118e70152600081816101bc01528181610ec801526114f4015261363a6000f3fe608060405234801561001057600080fd5b50600436106101775760003560e01c8063514ef8dd116100d857806399db86d81161008c578063bbc2af2011610066578063bbc2af2014610395578063c5399266146103bb578063e5285dcc146103ce57600080fd5b806399db86d8146103555780639e2916f71461037a578063adb49c111461038257600080fd5b80637dd0a338116100bd5780637dd0a3381461031157806383e24c8814610324578063867a9abd1461034257600080fd5b8063514ef8dd146102c357806359752d2d146102ea57600080fd5b8063283886301161012f578063411557d111610114578063411557d1146102665780634e7f4fad1461028d57806350dc0f5c146102b057600080fd5b8063283886301461021b578063407860f81461024657600080fd5b8063117803e311610160578063117803e3146101b75780631e6569fc146101f65780631f9eae6d1461021357600080fd5b806302e9b8eb1461017c57806307447f8e146101a2575b600080fd5b61018f61018a366004613032565b6103f1565b6040519081526020015b60405180910390f35b6101b56101b0366004612fa8565b61087a565b005b6101de7f000000000000000000000000000000000000000000000000000000000000000081565b6040516001600160a01b039091168152602001610199565b6101fe610d34565b60408051928352602083019190915201610199565b61018f610da7565b609b5461023290640100000000900462ffffff1681565b60405162ffffff9091168152602001610199565b61018f6102543660046130d8565b60036020526000908152604090205481565b6101de7f000000000000000000000000000000000000000000000000000000000000000081565b6102a061029b366004613241565b610db9565b6040519015158152602001610199565b6101b56102be36600461326c565b610ec6565b6101de7f000000000000000000000000000000000000000000000000000000000000000081565b6101de7f000000000000000000000000000000000000000000000000000000000000000081565b6101b561031f366004613108565b611016565b61018f6103323660046130d8565b61ffff166001810160021c900390565b6101b5610350366004612f68565b6114f2565b609b546103659063ffffffff1681565b60405163ffffffff9091168152602001610199565b61018f6115d7565b6101b56103903660046130d8565b6115ef565b6103656103a33660046130d8565b609d6020526000908152604090205463ffffffff1681565b61018f6103c93660046130d8565b6116bd565b6102a06103dc3660046130d8565b609c6020526000908152604090205460ff1681565b60006002600054141561044b5760405162461bcd60e51b815260206004820152601a60248201527f636c61696d45726332303a207265656e7472616e742063616c6c00000000000060448201526064015b60405180910390fd5b6002600055609b5460408051808201909152600681527f50503a453331000000000000000000000000000000000000000000000000000060208201529063ffffffff166104ab5760405162461bcd60e51b815260040161044291906133c0565b5060006104b66116e0565b905063ffffffff83161561052d578063ffffffff168363ffffffff1611156040518060400160405280600581526020017f50503a4539000000000000000000000000000000000000000000000000000000815250906105285760405162461bcd60e51b815260040161044291906133c0565b508290505b610535612e67565b61053d612e85565b60005b61054c60016002613415565b811015610855576000806105db8d846003811061057957634e487b7160e01b600052603260045260246000fd5b60200201602081019061058c9190612f4c565b8d85600381106105ac57634e487b7160e01b600052603260045260246000fd5b60200201358d86600381106105d157634e487b7160e01b600052603260045260246000fd5b60200201356116eb565b915091508067ffffffffffffffff16600014156106de5760408051808201909152600681527f50503a45323100000000000000000000000000000000000000000000000000006020820152836106445760405162461bcd60e51b815260040161044291906133c0565b507f0667764c376602b72ef22218e1673c2cc8546201f9a77807570b3e5de137680d85846003811061068657634e487b7160e01b600052603260045260246000fd5b60209081029190910191909152604051600560fd1b918101919091526021016040516020818303038152906040528484600381106106d457634e487b7160e01b600052603260045260246000fd5b6020020152610840565b6107368a846003811061070157634e487b7160e01b600052603260045260246000fd5b60400201358b856003811061072657634e487b7160e01b600052603260045260246000fd5b604002016020013583858a611b06565b85846003811061075657634e487b7160e01b600052603260045260246000fd5b6020020152600067ffffffffffffffff821660608f866003811061078a57634e487b7160e01b600052603260045260246000fd5b60200201602081019061079d9190612f4c565b6001600160a01b0316901b17905060ab8a85600381106107cd57634e487b7160e01b600052603260045260246000fd5b60600201828f87600381106107f257634e487b7160e01b600052603260045260246000fd5b602002013560405160200161080a9493929190613320565b60405160208183030381529060405285856003811061083957634e487b7160e01b600052603260045260246000fd5b6020020152505b5050808061084d9061358e565b915050610540565b5061086782828563ffffffff16611c7f565b60016000559a9950505050505050505050565b600260005414156108cd5760405162461bcd60e51b815260206004820152601a60248201527f636c61696d45726332303a207265656e7472616e742063616c6c0000000000006044820152606401610442565b6002600055609b5463ffffffff166108e36116e0565b63ffffffff1610156040518060400160405280600681526020017f50503a45333000000000000000000000000000000000000000000000000000008152509061093f5760405162461bcd60e51b815260040161044291906133c0565b5061094a8533611ddd565b60006109568686611f1f565b6000818152609c6020908152604091829020548251808401909352600583527f50503a4538000000000000000000000000000000000000000000000000000000918301919091529192509060ff16156109c25760405162461bcd60e51b815260040161044291906133c0565b506000818152609c602052604090819020805460ff19166001179055517fc474ce3f98e456e64643fb51ee2ed4453604400905cfe41e828c72d2e7f5296590610a0e9083815260200190565b60405180910390a150610a2a610a23856116bd565b8383610db9565b6040518060400160405280600681526020017f50503a453136000000000000000000000000000000000000000000000000000081525090610a7e5760405162461bcd60e51b815260040161044291906133c0565b506040805160c081018252600080825260208201819052818301819052606082018190526080820181905260a0820181905291516331293c6360e01b81526001600160a01b038c81166004830152602482018c9052919291829182917f000000000000000000000000000000000000000000000000000000000000000016906331293c63906044016101206040518083038186803b158015610b1f57600080fd5b505afa158015610b33573d6000803e3d6000fd5b505050506040513d601f19601f82011682018060405250810190610b579190613152565b6040808201518151808301909252600682526550503a45313960d01b6020830152919850929650929350909160ff166001149050610ba85760405162461bcd60e51b815260040161044291906133c0565b506000610bb48a61206b565b9050610bcb816000015182602001518e858f611b06565b92505050610bee85610bdc89612128565b600161ffff8b160160021c848a611016565b506000610bff8a8460800151612150565b90507f00000000000000000000000000000000000000000000000000000000000000006001600160a01b0316635bd3e6c06040518060a00160405280866060015160ff1681526020018f6001600160a01b03168152602001858152602001336001600160a01b03168152602001846bffffffffffffffffffffffff168152506040518263ffffffff1660e01b8152600401610cef9190600060a08201905060ff835116825260208301516001600160a01b0380821660208501526040850151604085015280606086015116606085015250506bffffffffffffffffffffffff608084015116608083015292915050565b600060405180830381600087803b158015610d0957600080fd5b505af1158015610d1d573d6000803e3d6000fd5b505060016000555050505050505050505050505050565b6001546000908190610d458161219d565b15610d7557507f20fc043586a9fcb416cdf2a3bc8a995f8f815d43f1046a20d1c588cf20482a5592600092509050565b6000610d80826116bd565b9050610d8b826121d6565b6000818152600460205260409020549190911894909350915050565b6000610db46001546116bd565b905090565b60408051808201909152600581527f54543a4531000000000000000000000000000000000000000000000000000000602082015260009083610e0e5760405162461bcd60e51b815260040161044291906133c0565b508115610e2e575060008181526004602052604090205483831814610ebf565b600084815260036020526040902054831415610e4c57506001610ebf565b6001546101005b60048210158015610e6357508015155b15610eb8576000190161ffff8216610e7a57610e53565b6000610e85836121d6565b6000818152600460205260409020549091508688181415610eac5760019350505050610ebf565b60048303925050610e53565b5060009150505b9392505050565b7f00000000000000000000000000000000000000000000000000000000000000006001600160a01b03163314610f3e5760405162461bcd60e51b815260206004820152601460248201527f496d6d4f776e3a20756e617574686f72697a65640000000000000000000000006044820152606401610442565b609b5463ffffffff90811690831610801590610f6457506401000000008263ffffffff16105b8015610f74575062ffffff811615155b610fa55760405162461bcd60e51b8152602060048201526002602482015261453160f01b6044820152606401610442565b609b805462ffffff8316640100000000810266ffffffffffffff1990921663ffffffff8616908117929092179092556040517f2369247a5a2affa0d5b33a70c8ff61d5660e1132fe764715b971fdd1fc68d10e9261100a928252602082015260400190565b60405180910390a15050565b60408051808201909152600581527f4d503a453300000000000000000000000000000000000000000000000000000060208201526003851061106b5760405162461bcd60e51b815260040161044291906133c0565b5060008461116557730f16C6b4Cf5B8FB090C2F89D5d7aD85d057eB760635a53025d6040518060600160405280868152602001856000601081106110bf57634e487b7160e01b600052603260045260246000fd5b60200201358152602001856001601081106110ea57634e487b7160e01b600052603260045260246000fd5b60200201358152506040518263ffffffff1660e01b815260040161110e9190613398565b60206040518083038186803b15801561112657600080fd5b505af415801561113a573d6000803e3d6000fd5b505050506040513d601f19601f8201168201806040525081019061115e91906130f0565b90506112dc565b60018514156111e557730f16C6b4Cf5B8FB090C2F89D5d7aD85d057eB760635a53025d6040518060600160405280856000601081106111b457634e487b7160e01b600052603260045260246000fd5b60200201358152602001868152602001856001601081106110ea57634e487b7160e01b600052603260045260246000fd5b60028514156112dc57730f16C6b4Cf5B8FB090C2F89D5d7aD85d057eB760635a53025d60405180606001604052808560006010811061123457634e487b7160e01b600052603260045260246000fd5b602002013581526020018560016010811061125f57634e487b7160e01b600052603260045260246000fd5b60200201358152602001868152506040518263ffffffff1660e01b81526004016112899190613398565b60206040518083038186803b1580156112a157600080fd5b505af41580156112b5573d6000803e3d6000fd5b505050506040513d601f19601f820116820180604052508101906112d991906130f0565b90505b60025b601081101561149457600160011982011b85161580156113bf57735b79557e91aEA6a51d9757bA42E27ebf8973328563299e5660604051806040016040528086815260200187866010811061134457634e487b7160e01b600052603260045260246000fd5b60200201358152506040518263ffffffff1660e01b81526004016113689190613367565b60206040518083038186803b15801561138057600080fd5b505af4158015611394573d6000803e3d6000fd5b505050506040513d601f19601f820116820180604052508101906113b891906130f0565b9250611481565b735b79557e91aEA6a51d9757bA42E27ebf8973328563299e5660604051806040016040528087866010811061140457634e487b7160e01b600052603260045260246000fd5b60200201358152602001868152506040518263ffffffff1660e01b815260040161142e9190613367565b60206040518083038186803b15801561144657600080fd5b505af415801561145a573d6000803e3d6000fd5b505050506040513d601f19601f8201168201806040525081019061147e91906130f0565b92505b508061148c8161358e565b9150506112df565b5060408051808201909152600581527f4d503a453100000000000000000000000000000000000000000000000000000060208201528682146114e95760405162461bcd60e51b815260040161044291906133c0565b50505050505050565b7f00000000000000000000000000000000000000000000000000000000000000006001600160a01b0316331461156a5760405162461bcd60e51b815260206004820152601460248201527f496d6d4f776e3a20756e617574686f72697a65640000000000000000000000006044820152606401610442565b600260005414156115bd5760405162461bcd60e51b815260206004820152601a60248201527f636c61696d45726332303a207265656e7472616e742063616c6c0000000000006044820152606401610442565b60026000556115cd8383836121fd565b5050600160005550565b6000610db4600154600281901c600390810291160190565b6000818152609d6020908152604091829020548251808401909352600683527f50503a45333200000000000000000000000000000000000000000000000000009183019190915263ffffffff161561165a5760405162461bcd60e51b815260040161044291906133c0565b5060006116656116e0565b6000838152609d6020908152604091829020805463ffffffff191663ffffffff851690811790915591519182529192507f41685940dd65dd5fc11832115bda1957c2ed7b4e2982cfac6c3ba41bd1566a3c910161100a565b600060026116cd6001600f613547565b6116d79190613415565b9190911c919050565b6000610db442612225565b60008082611769576001600160a01b038516158015611708575083155b6040518060400160405280600681526020017f50503a45323900000000000000000000000000000000000000000000000000008152509061175c5760405162461bcd60e51b815260040161044291906133c0565b5060008091509150611afe565b6001600160a01b038516731afa2212970b809ae15d51af00c502d5c8eb3baf14156118905760408051808201909152600681527f50503a4532350000000000000000000000000000000000000000000000000000602082015284156117e15760405162461bcd60e51b815260040161044291906133c0565b5060006117ed8461227f565b604051631dc6ea1f60e11b8152336004820152602481018690529091507f00000000000000000000000000000000000000000000000000000000000000006001600160a01b031690633b8dd43e90604401600060405180830381600087803b15801561185857600080fd5b505af115801561186c573d6000803e3d6000fd5b50505050730a1ebe17885f8603834b4c02054ce84cedf8756e819250925050611afe565b6040805160c081018252600080825260208201819052918101829052606081018290526080810182905260a081018290526040516331293c6360e01b81526001600160a01b038881166004830152602482018890527f000000000000000000000000000000000000000000000000000000000000000016906331293c63906044016101206040518083038186803b15801561192a57600080fd5b505afa15801561193e573d6000803e3d6000fd5b505050506040513d601f19601f820116820180604052508101906119629190613152565b6040808201518151808301909252600682526550503a45313960d01b60208301529498509295509350909160ff1660011490506119b25760405162461bcd60e51b815260040161044291906133c0565b5060006119c38683608001516122e8565b90945090508015611a1257876001600160a01b03167f05b5d46649ab2015d3a08705cbaa391e094d9594c393ce89d3afffe960744da182604051611a0991815260200190565b60405180910390a25b6040805160a0808201835260608581015160ff9081168452918601516001600160a01b0390811660208501908152848601898152339386019384526bffffffffffffffffffffffff8d8116608088019081529751631d106e8960e21b81529651909516600487015290518216602486015251604485015290518116606484015292511660848201527f000000000000000000000000000000000000000000000000000000000000000090911690637441ba249060a401600060405180830381600087803b158015611ae257600080fd5b505af1158015611af6573d6000803e3d6000fd5b505050505050505b935093915050565b600060008051602061360e8339815191528611158015611b34575060008051602061360e8339815191528511155b6040518060400160405280600581526020017f43473a453100000000000000000000000000000000000000000000000000000081525090611b885760405162461bcd60e51b815260040161044291906133c0565b5060408051606081018252878152602080820188905263ffffffff85169086901b77ffffffffffffffffffffffffffffffffffffffff000000001660c088901b7fffffffffffffffff000000000000000000000000000000000000000000000000161717818301529051635a53025d60e01b8152730f16C6b4Cf5B8FB090C2F89D5d7aD85d057eB76091635a53025d91611c259190600401613398565b60206040518083038186803b158015611c3d57600080fd5b505af4158015611c51573d6000803e3d6000fd5b505050506040513d601f19601f82011682018060405250810190611c7591906130f0565b9695505050505050565b6040805160208101909152600080825290815b611c9e60016002613415565b811015611d8d5760008051602061360e833981519152868260038110611cd457634e487b7160e01b600052603260045260246000fd5b602002015160001c106040518060400160405280600581526020017f43543a453100000000000000000000000000000000000000000000000000000081525090611d315760405162461bcd60e51b815260040161044291906133c0565b5081858260038110611d5357634e487b7160e01b600052603260045260246000fd5b6020020151604051602001611d699291906132f1565b60405160208183030381529060405291508080611d859061358e565b915050611c92565b50611d9785612347565b9150817f724bdd8d0d4293d630d4223512262f7f1bd9e7bb88cadfef6de67ff0b0f1d8b4848784604051611dcd939291906133d3565b60405180910390a2509392505050565b60008282604051602001611e049291909182526001600160a01b0316602082015260400190565b60408051601f1981840301815282825280516020918201206000818152609d835283902054848401909352600684527f50503a453334000000000000000000000000000000000000000000000000000091840191909152925063ffffffff169081611e825760405162461bcd60e51b815260040161044291906133c0565b50609b54600090611ea690640100000000900462ffffff1663ffffffff8416613415565b90508042116040518060400160405280600681526020017f50503a453333000000000000000000000000000000000000000000000000000081525090611eff5760405162461bcd60e51b815260040161044291906133c0565b5050506000908152609d60205260409020805463ffffffff191690555050565b600060008051602061360e8339815191528310604051806040016040528060068152602001650a0a0748a64760d31b81525090611f6f5760405162461bcd60e51b815260040161044291906133c0565b5060408051808201909152600681527f50503a4532370000000000000000000000000000000000000000000000000000602082015260008051602061360e8339815191528310611fd25760405162461bcd60e51b815260040161044291906133c0565b5060408051808201825284815260208101849052905163014cf2b360e51b8152735b79557e91aEA6a51d9757bA42E27ebf897332859163299e56609161201b9190600401613367565b60206040518083038186803b15801561203357600080fd5b505af4158015612047573d6000803e3d6000fd5b505050506040513d601f19601f82011682018060405250810190610ebf91906130f0565b60408051808201909152600080825260208201526040805180820190915260068152650a0a0748a64760d31b602082015260008051602061360e83398151915283106120ca5760405162461bcd60e51b815260040161044291906133c0565b50604080518082019091527f0bb77a6ad63e739b4eacb2e09d6277c12ab8d8010534e0b62893f3f6bb95705181527f25797203f7a0b24925572e1cd16bf9edfce0051fb9e133774b3c257a872d7d8b6020820152610ebf8184612775565b600060036121408361ffff166001810160021c900390565b61214a91906135a9565b92915050565b60008060ff83161561217e576121658361280c565b6121799067ffffffffffffffff8616613528565b61218a565b8367ffffffffffffffff165b905061219581612819565b949350505050565b6000600160046121ae82600f613547565b6121b9906002613470565b6121c39190613528565b6121cd9190613547565b90911615919050565b600060016121e76004610100613528565b6121f19190613547565b82166001179050919050565b6001600160a01b03831661221a57612215828261287f565b505050565b612215838383612962565b6000640100000000821061227b5760405162461bcd60e51b815260206004820152600860248201527f554e5341464533320000000000000000000000000000000000000000000000006044820152606401610442565b5090565b60006801000000000000000082106040518060400160405280600681526020017f50503a4532360000000000000000000000000000000000000000000000000000815250906122e15760405162461bcd60e51b815260040161044291906133c0565b5090919050565b6000808060ff84166122ff57506000905083612334565b600061230a8561280c565b905080868161232957634e487b7160e01b600052601260045260246000fd5b049081028603925090505b61233d8161227f565b9250509250929050565b600154612352612eac565b7f0667764c376602b72ef22218e1673c2cc8546201f9a77807570b3e5de137680d81527f1be18cd72ac1586de27dd60eba90654bd54383004991951bccb0f6bad02c67f660208201527f07677e6102f0acf343edde864f79ef7652faa5a66d575b8b60bb826a4aa517e660408201527f28a85866ab97bd65cc94b0d1f5c5986481f8a0d65bdd5c1e562659eebb13cf6360608201527f087321a66ea3af7780128ea1995d7fc6ec44a96a1b2d85d3021208cede68c15c60808201527f233b4e488f0aaf5faef4fc8ea4fefeadb6934eb882bc33b9df782fd1d83b41a060a08201527f1a0cefcf0c592da6426717d3718408c61af1d0a9492887f3faecefcba1a0a30960c08201527f2cdf963150b321923dd07b2b52659aceb529516a537dfebe24106881dd97429360e08201527f093a186bf9ec2cc874ceab26409d581579e1a431ecb6987d428777ceedfa15c46101008201527f0cbfc07131ef4197a4b4e60153d43381520ec9ab4c9c3ed34d88883a881a4e076101208201527f17b31de43ba4c687cf950ad00dfbe33df40047e79245b50bd1d9f87e622bf2af6101408201527f2f3328354bceaf5882a8cc88053e0dd0ae594009a4e84e9e75a4fefe8604a6026101608201527f2b2e8defd4dad2404c6874918925fc1192123f45df0ee3e04b6c16ff22ca1cfd6101808201527f1cbdc4065aa4137da01d64a090706267d65f425ea5e815673516d29d9aa14d386101a08201527f13ca69f9fde4ece39e395bb55dd41ed7dd9dfaa26671e26bd9fd6f4f635fc8726101c0820152825160208401516040850151600092839283926125ae929190612ab8565b91506002600160046125c182600f613547565b6125cc906002613470565b6125d69190613528565b6125e09190613547565b8616901c9250600080600192505b600f831015612685576126026002866135a9565b61264d578391508583600f811061262957634e487b7160e01b600052603260045260246000fd5b60200201519050836002600085815260200190815260200160002081905550612660565b5050600081815260026020526040902054825b61266a8282612b62565b60019590951c9493508261267d8161358e565b9350506125ee565b6000612692600489613415565b6001819055905060006126a4896116bd565b9050600461ffff8a1662010000031161270957600081815260036020526040908190208790555181907f7cd9c9cf009b511548bb15f2d648fc3ee3e6e880d24f043861b274dca5a55435906126fc9089815260200190565b60405180910390a2612768565b6000612714836121d6565b6000818152600460205260409081902089851890555190915082907f46b4356c55762628b29b60a689ae18c610a9cd9774ca704e7a567aa41bb7cebf9061275e908a815260200190565b60405180910390a2505b5050505050505050919050565b60408051808201909152600081526001602082015281835b81156127c45781600116600114156127ac576127a98382612bfd565b92505b6127b68182612bfd565b9050600182901c915061278d565b82516127df9060008051602061360e833981519152906135a9565b835260208301516127ff9060008051602061360e833981519152906135a9565b6020840152505092915050565b600061214a82600a61347c565b60006c0100000000000000000000000082106040518060400160405280600681526020017f50503a4531300000000000000000000000000000000000000000000000000000815250906122e15760405162461bcd60e51b815260040161044291906133c0565b604080516000808252602082019092526001600160a01b0384169083906040516128a991906132d5565b60006040518083038185875af1925050503d80600081146128e6576040519150601f19603f3d011682016040523d82523d6000602084013e6128eb565b606091505b50509050806122155760405162461bcd60e51b815260206004820152603460248201527f5472616e7366657248656c7065723a3a736166655472616e736665724554483a60448201527f20455448207472616e73666572206661696c65640000000000000000000000006064820152608401610442565b604080516001600160a01b038481166024830152604480830185905283518084039091018152606490920183526020820180517bffffffffffffffffffffffffffffffffffffffffffffffffffffffff1663a9059cbb60e01b17905291516000928392908716916129d391906132d5565b6000604051808303816000865af19150503d8060008114612a10576040519150601f19603f3d011682016040523d82523d6000602084013e612a15565b606091505b5091509150818015612a3f575080511580612a3f575080806020019051810190612a3f91906130b8565b612ab15760405162461bcd60e51b815260206004820152602d60248201527f5472616e7366657248656c7065723a3a736166655472616e736665723a20747260448201527f616e73666572206661696c6564000000000000000000000000000000000000006064820152608401610442565b5050505050565b6000612ac2612e67565b84815260208101849052604080820184905251635a53025d60e01b8152730f16C6b4Cf5B8FB090C2F89D5d7aD85d057eB76090635a53025d90612b09908490600401613398565b60206040518083038186803b158015612b2157600080fd5b505af4158015612b35573d6000803e3d6000fd5b505050506040513d601f19601f82011682018060405250810190612b5991906130f0565b95945050505050565b6000612b6c612ecb565b8381526020810183905260405163014cf2b360e51b8152735b79557e91aEA6a51d9757bA42E27ebf897332859063299e566090612bad908490600401613367565b60206040518083038186803b158015612bc557600080fd5b505af4158015612bd9573d6000803e3d6000fd5b505050506040513d601f19601f8201168201806040525081019061219591906130f0565b604080518082019091526000808252602082015282516000908190158015612c2757506020850151155b15612c4557604080518082019091529182526020820152905061214a565b8351158015612c5657506020850151155b15612c7457604080518082019091529182526020820152905061214a565b600060008051602061360e83398151915285518751099050600060008051602061360e83398151915286602001518860200151099050600060008051602061360e83398151915280838509620292f8099050600060008051602061360e83398151915280895160208c01510960008051602061360e83398151915260208b01518c51090890506000612d298460008051602061360e83398151915287620292fc0960008051602061360e833981519152612dac565b905060008051602061360e833981519152612d5560008051602061360e83398151915285600108612df5565b8309965060008051602061360e833981519152612d8a612d8560018660008051602061360e833981519152612dac565b612df5565b8209604080518082019091529788526020880152509498975050505050505050565b600083838111612dc357612dc08382613415565b90505b8280612ddf57634e487b7160e01b600052601260045260246000fd5b6000612deb8684613547565b0895945050505050565b600061214a82612e14600260008051602061360e833981519152613547565b60008051602061360e833981519152600060405160208152602080820152602060408201528460608201528360808201528260a082015260208160c08360055afa80801561017757505051949350505050565b60405180606001604052806003906020820280368337509192915050565b60405180606001604052806003905b6060815260200190600190039081612e945790505090565b604051806101e00160405280600f906020820280368337509192915050565b60405180604001604052806002906020820280368337509192915050565b8051612ef4816135df565b919050565b806060810183101561214a57600080fd5b80610200810183101561214a57600080fd5b803563ffffffff81168114612ef457600080fd5b8051612ef4816135f7565b805160ff81168114612ef457600080fd5b600060208284031215612f5d578081fd5b8135610ebf816135df565b600080600060608486031215612f7c578182fd5b8335612f87816135df565b92506020840135612f97816135df565b929592945050506040919091013590565b60008060008060008060008060006103008a8c031215612fc6578485fd5b8935612fd1816135df565b985060208a0135975060408a0135612fe8816135f7565b9650612ff660608b01612f1c565b955060808a0135945060a08a013593506130138b60c08c01612f0a565b92506102c08a013591506102e08a013590509295985092959850929598565b600080600080600080610320878903121561304b578182fd5b6130558888612ef9565b95506130648860608901612ef9565b94506130738860c08901612ef9565b93506101e0870188811115613086578283fd5b6101208801935061030088018981111561309e578384fd5b8193506130aa81612f1c565b925050509295509295509295565b6000602082840312156130c9578081fd5b81518015158114610ebf578182fd5b6000602082840312156130e9578081fd5b5035919050565b600060208284031215613101578081fd5b5051919050565b60008060008060006102808688031215613120578283fd5b853594506020860135935060408601359250606086013591506131468760808801612f0a565b90509295509295909350565b600080600080848603610120811215613169578283fd5b8551613174816135df565b60208701516040880151919650945061318c816135df565b925060c0605f198201121561319f578182fd5b5060405160c0810181811067ffffffffffffffff821117156131cf57634e487b7160e01b83526041600452602483fd5b6040526131de60608701612f30565b81526131ec60808701612f3b565b60208201526131fd60a08701612f3b565b604082015261320e60c08701612f3b565b606082015261321f60e08701612f3b565b60808201526132316101008701612ee9565b60a0820152939692955090935050565b600080600060608486031215613255578081fd5b505081359360208301359350604090920135919050565b6000806040838503121561327e578182fd5b61328783612f1c565b9150602083013562ffffff8116811461329e578182fd5b809150509250929050565b600081518084526132c181602086016020860161355e565b601f01601f19169290920160200192915050565b600082516132e781846020870161355e565b9190910192915050565b6000835161330381846020880161355e565b83519083019061331781836020880161355e565b01949350505050565b60f885901b7fff0000000000000000000000000000000000000000000000000000000000000016815260608460018301376061810192909252608182015260a10192915050565b60408101818360005b600281101561338f578151835260209283019290910190600101613370565b50505092915050565b60608101818360005b600381101561338f5781518352602092830192909101906001016133a1565b602081526000610ebf60208301846132a9565b8381526000602080830185835b60038110156133fd578151835291830191908301906001016133e0565b5050505060a06080830152612b5960a08301846132a9565b60008219821115613428576134286135c9565b500190565b600181815b8085111561346857816000190482111561344e5761344e6135c9565b8085161561345b57918102915b93841c9390800290613432565b509250929050565b6000610ebf8383613487565b6000610ebf60ff8416835b6000826134965750600161214a565b816134a35750600061214a565b81600181146134b957600281146134c3576134df565b600191505061214a565b60ff8411156134d4576134d46135c9565b50506001821b61214a565b5060208310610133831016604e8410600b8410161715613502575081810a61214a565b61350c838361342d565b8060001904821115613520576135206135c9565b029392505050565b6000816000190483118215151615613542576135426135c9565b500290565b600082821015613559576135596135c9565b500390565b60005b83811015613579578181015183820152602001613561565b83811115613588576000848401525b50505050565b60006000198214156135a2576135a26135c9565b5060010190565b6000826135c457634e487b7160e01b81526012600452602481fd5b500690565b634e487b7160e01b600052601160045260246000fd5b6001600160a01b03811681146135f457600080fd5b50565b67ffffffffffffffff811681146135f457600080fdfe30644e72e131a029b85045b68181585d2833e84879b9709143e1f593f0000001a164736f6c6343000804000a",
  "deployedBytecode": "0x608060405234801561001057600080fd5b50600436106101775760003560e01c8063514ef8dd116100d857806399db86d81161008c578063bbc2af2011610066578063bbc2af2014610395578063c5399266146103bb578063e5285dcc146103ce57600080fd5b806399db86d8146103555780639e2916f71461037a578063adb49c111461038257600080fd5b80637dd0a338116100bd5780637dd0a3381461031157806383e24c8814610324578063867a9abd1461034257600080fd5b8063514ef8dd146102c357806359752d2d146102ea57600080fd5b8063283886301161012f578063411557d111610114578063411557d1146102665780634e7f4fad1461028d57806350dc0f5c146102b057600080fd5b8063283886301461021b578063407860f81461024657600080fd5b8063117803e311610160578063117803e3146101b75780631e6569fc146101f65780631f9eae6d1461021357600080fd5b806302e9b8eb1461017c57806307447f8e146101a2575b600080fd5b61018f61018a366004613032565b6103f1565b6040519081526020015b60405180910390f35b6101b56101b0366004612fa8565b61087a565b005b6101de7f000000000000000000000000000000000000000000000000000000000000000081565b6040516001600160a01b039091168152602001610199565b6101fe610d34565b60408051928352602083019190915201610199565b61018f610da7565b609b5461023290640100000000900462ffffff1681565b60405162ffffff9091168152602001610199565b61018f6102543660046130d8565b60036020526000908152604090205481565b6101de7f000000000000000000000000000000000000000000000000000000000000000081565b6102a061029b366004613241565b610db9565b6040519015158152602001610199565b6101b56102be36600461326c565b610ec6565b6101de7f000000000000000000000000000000000000000000000000000000000000000081565b6101de7f000000000000000000000000000000000000000000000000000000000000000081565b6101b561031f366004613108565b611016565b61018f6103323660046130d8565b61ffff166001810160021c900390565b6101b5610350366004612f68565b6114f2565b609b546103659063ffffffff1681565b60405163ffffffff9091168152602001610199565b61018f6115d7565b6101b56103903660046130d8565b6115ef565b6103656103a33660046130d8565b609d6020526000908152604090205463ffffffff1681565b61018f6103c93660046130d8565b6116bd565b6102a06103dc3660046130d8565b609c6020526000908152604090205460ff1681565b60006002600054141561044b5760405162461bcd60e51b815260206004820152601a60248201527f636c61696d45726332303a207265656e7472616e742063616c6c00000000000060448201526064015b60405180910390fd5b6002600055609b5460408051808201909152600681527f50503a453331000000000000000000000000000000000000000000000000000060208201529063ffffffff166104ab5760405162461bcd60e51b815260040161044291906133c0565b5060006104b66116e0565b905063ffffffff83161561052d578063ffffffff168363ffffffff1611156040518060400160405280600581526020017f50503a4539000000000000000000000000000000000000000000000000000000815250906105285760405162461bcd60e51b815260040161044291906133c0565b508290505b610535612e67565b61053d612e85565b60005b61054c60016002613415565b811015610855576000806105db8d846003811061057957634e487b7160e01b600052603260045260246000fd5b60200201602081019061058c9190612f4c565b8d85600381106105ac57634e487b7160e01b600052603260045260246000fd5b60200201358d86600381106105d157634e487b7160e01b600052603260045260246000fd5b60200201356116eb565b915091508067ffffffffffffffff16600014156106de5760408051808201909152600681527f50503a45323100000000000000000000000000000000000000000000000000006020820152836106445760405162461bcd60e51b815260040161044291906133c0565b507f0667764c376602b72ef22218e1673c2cc8546201f9a77807570b3e5de137680d85846003811061068657634e487b7160e01b600052603260045260246000fd5b60209081029190910191909152604051600560fd1b918101919091526021016040516020818303038152906040528484600381106106d457634e487b7160e01b600052603260045260246000fd5b6020020152610840565b6107368a846003811061070157634e487b7160e01b600052603260045260246000fd5b60400201358b856003811061072657634e487b7160e01b600052603260045260246000fd5b604002016020013583858a611b06565b85846003811061075657634e487b7160e01b600052603260045260246000fd5b6020020152600067ffffffffffffffff821660608f866003811061078a57634e487b7160e01b600052603260045260246000fd5b60200201602081019061079d9190612f4c565b6001600160a01b0316901b17905060ab8a85600381106107cd57634e487b7160e01b600052603260045260246000fd5b60600201828f87600381106107f257634e487b7160e01b600052603260045260246000fd5b602002013560405160200161080a9493929190613320565b60405160208183030381529060405285856003811061083957634e487b7160e01b600052603260045260246000fd5b6020020152505b5050808061084d9061358e565b915050610540565b5061086782828563ffffffff16611c7f565b60016000559a9950505050505050505050565b600260005414156108cd5760405162461bcd60e51b815260206004820152601a60248201527f636c61696d45726332303a207265656e7472616e742063616c6c0000000000006044820152606401610442565b6002600055609b5463ffffffff166108e36116e0565b63ffffffff1610156040518060400160405280600681526020017f50503a45333000000000000000000000000000000000000000000000000000008152509061093f5760405162461bcd60e51b815260040161044291906133c0565b5061094a8533611ddd565b60006109568686611f1f565b6000818152609c6020908152604091829020548251808401909352600583527f50503a4538000000000000000000000000000000000000000000000000000000918301919091529192509060ff16156109c25760405162461bcd60e51b815260040161044291906133c0565b506000818152609c602052604090819020805460ff19166001179055517fc474ce3f98e456e64643fb51ee2ed4453604400905cfe41e828c72d2e7f5296590610a0e9083815260200190565b60405180910390a150610a2a610a23856116bd565b8383610db9565b6040518060400160405280600681526020017f50503a453136000000000000000000000000000000000000000000000000000081525090610a7e5760405162461bcd60e51b815260040161044291906133c0565b506040805160c081018252600080825260208201819052818301819052606082018190526080820181905260a0820181905291516331293c6360e01b81526001600160a01b038c81166004830152602482018c9052919291829182917f000000000000000000000000000000000000000000000000000000000000000016906331293c63906044016101206040518083038186803b158015610b1f57600080fd5b505afa158015610b33573d6000803e3d6000fd5b505050506040513d601f19601f82011682018060405250810190610b579190613152565b6040808201518151808301909252600682526550503a45313960d01b6020830152919850929650929350909160ff166001149050610ba85760405162461bcd60e51b815260040161044291906133c0565b506000610bb48a61206b565b9050610bcb816000015182602001518e858f611b06565b92505050610bee85610bdc89612128565b600161ffff8b160160021c848a611016565b506000610bff8a8460800151612150565b90507f00000000000000000000000000000000000000000000000000000000000000006001600160a01b0316635bd3e6c06040518060a00160405280866060015160ff1681526020018f6001600160a01b03168152602001858152602001336001600160a01b03168152602001846bffffffffffffffffffffffff168152506040518263ffffffff1660e01b8152600401610cef9190600060a08201905060ff835116825260208301516001600160a01b0380821660208501526040850151604085015280606086015116606085015250506bffffffffffffffffffffffff608084015116608083015292915050565b600060405180830381600087803b158015610d0957600080fd5b505af1158015610d1d573d6000803e3d6000fd5b505060016000555050505050505050505050505050565b6001546000908190610d458161219d565b15610d7557507f20fc043586a9fcb416cdf2a3bc8a995f8f815d43f1046a20d1c588cf20482a5592600092509050565b6000610d80826116bd565b9050610d8b826121d6565b6000818152600460205260409020549190911894909350915050565b6000610db46001546116bd565b905090565b60408051808201909152600581527f54543a4531000000000000000000000000000000000000000000000000000000602082015260009083610e0e5760405162461bcd60e51b815260040161044291906133c0565b508115610e2e575060008181526004602052604090205483831814610ebf565b600084815260036020526040902054831415610e4c57506001610ebf565b6001546101005b60048210158015610e6357508015155b15610eb8576000190161ffff8216610e7a57610e53565b6000610e85836121d6565b6000818152600460205260409020549091508688181415610eac5760019350505050610ebf565b60048303925050610e53565b5060009150505b9392505050565b7f00000000000000000000000000000000000000000000000000000000000000006001600160a01b03163314610f3e5760405162461bcd60e51b815260206004820152601460248201527f496d6d4f776e3a20756e617574686f72697a65640000000000000000000000006044820152606401610442565b609b5463ffffffff90811690831610801590610f6457506401000000008263ffffffff16105b8015610f74575062ffffff811615155b610fa55760405162461bcd60e51b8152602060048201526002602482015261453160f01b6044820152606401610442565b609b805462ffffff8316640100000000810266ffffffffffffff1990921663ffffffff8616908117929092179092556040517f2369247a5a2affa0d5b33a70c8ff61d5660e1132fe764715b971fdd1fc68d10e9261100a928252602082015260400190565b60405180910390a15050565b60408051808201909152600581527f4d503a453300000000000000000000000000000000000000000000000000000060208201526003851061106b5760405162461bcd60e51b815260040161044291906133c0565b506000846111655773__$a786a838ef97de7d2113fa91ed3c799076$__635a53025d6040518060600160405280868152602001856000601081106110bf57634e487b7160e01b600052603260045260246000fd5b60200201358152602001856001601081106110ea57634e487b7160e01b600052603260045260246000fd5b60200201358152506040518263ffffffff1660e01b815260040161110e9190613398565b60206040518083038186803b15801561112657600080fd5b505af415801561113a573d6000803e3d6000fd5b505050506040513d601f19601f8201168201806040525081019061115e91906130f0565b90506112dc565b60018514156111e55773__$a786a838ef97de7d2113fa91ed3c799076$__635a53025d6040518060600160405280856000601081106111b457634e487b7160e01b600052603260045260246000fd5b60200201358152602001868152602001856001601081106110ea57634e487b7160e01b600052603260045260246000fd5b60028514156112dc5773__$a786a838ef97de7d2113fa91ed3c799076$__635a53025d60405180606001604052808560006010811061123457634e487b7160e01b600052603260045260246000fd5b602002013581526020018560016010811061125f57634e487b7160e01b600052603260045260246000fd5b60200201358152602001868152506040518263ffffffff1660e01b81526004016112899190613398565b60206040518083038186803b1580156112a157600080fd5b505af41580156112b5573d6000803e3d6000fd5b505050506040513d601f19601f820116820180604052508101906112d991906130f0565b90505b60025b601081101561149457600160011982011b85161580156113bf5773__$3d381aec2d571db697c779e211a438fb21$__63299e5660604051806040016040528086815260200187866010811061134457634e487b7160e01b600052603260045260246000fd5b60200201358152506040518263ffffffff1660e01b81526004016113689190613367565b60206040518083038186803b15801561138057600080fd5b505af4158015611394573d6000803e3d6000fd5b505050506040513d601f19601f820116820180604052508101906113b891906130f0565b9250611481565b73__$3d381aec2d571db697c779e211a438fb21$__63299e5660604051806040016040528087866010811061140457634e487b7160e01b600052603260045260246000fd5b60200201358152602001868152506040518263ffffffff1660e01b815260040161142e9190613367565b60206040518083038186803b15801561144657600080fd5b505af415801561145a573d6000803e3d6000fd5b505050506040513d601f19601f8201168201806040525081019061147e91906130f0565b92505b508061148c8161358e565b9150506112df565b5060408051808201909152600581527f4d503a453100000000000000000000000000000000000000000000000000000060208201528682146114e95760405162461bcd60e51b815260040161044291906133c0565b50505050505050565b7f00000000000000000000000000000000000000000000000000000000000000006001600160a01b0316331461156a5760405162461bcd60e51b815260206004820152601460248201527f496d6d4f776e3a20756e617574686f72697a65640000000000000000000000006044820152606401610442565b600260005414156115bd5760405162461bcd60e51b815260206004820152601a60248201527f636c61696d45726332303a207265656e7472616e742063616c6c0000000000006044820152606401610442565b60026000556115cd8383836121fd565b5050600160005550565b6000610db4600154600281901c600390810291160190565b6000818152609d6020908152604091829020548251808401909352600683527f50503a45333200000000000000000000000000000000000000000000000000009183019190915263ffffffff161561165a5760405162461bcd60e51b815260040161044291906133c0565b5060006116656116e0565b6000838152609d6020908152604091829020805463ffffffff191663ffffffff851690811790915591519182529192507f41685940dd65dd5fc11832115bda1957c2ed7b4e2982cfac6c3ba41bd1566a3c910161100a565b600060026116cd6001600f613547565b6116d79190613415565b9190911c919050565b6000610db442612225565b60008082611769576001600160a01b038516158015611708575083155b6040518060400160405280600681526020017f50503a45323900000000000000000000000000000000000000000000000000008152509061175c5760405162461bcd60e51b815260040161044291906133c0565b5060008091509150611afe565b6001600160a01b038516731afa2212970b809ae15d51af00c502d5c8eb3baf14156118905760408051808201909152600681527f50503a4532350000000000000000000000000000000000000000000000000000602082015284156117e15760405162461bcd60e51b815260040161044291906133c0565b5060006117ed8461227f565b604051631dc6ea1f60e11b8152336004820152602481018690529091507f00000000000000000000000000000000000000000000000000000000000000006001600160a01b031690633b8dd43e90604401600060405180830381600087803b15801561185857600080fd5b505af115801561186c573d6000803e3d6000fd5b50505050730a1ebe17885f8603834b4c02054ce84cedf8756e819250925050611afe565b6040805160c081018252600080825260208201819052918101829052606081018290526080810182905260a081018290526040516331293c6360e01b81526001600160a01b038881166004830152602482018890527f000000000000000000000000000000000000000000000000000000000000000016906331293c63906044016101206040518083038186803b15801561192a57600080fd5b505afa15801561193e573d6000803e3d6000fd5b505050506040513d601f19601f820116820180604052508101906119629190613152565b6040808201518151808301909252600682526550503a45313960d01b60208301529498509295509350909160ff1660011490506119b25760405162461bcd60e51b815260040161044291906133c0565b5060006119c38683608001516122e8565b90945090508015611a1257876001600160a01b03167f05b5d46649ab2015d3a08705cbaa391e094d9594c393ce89d3afffe960744da182604051611a0991815260200190565b60405180910390a25b6040805160a0808201835260608581015160ff9081168452918601516001600160a01b0390811660208501908152848601898152339386019384526bffffffffffffffffffffffff8d8116608088019081529751631d106e8960e21b81529651909516600487015290518216602486015251604485015290518116606484015292511660848201527f000000000000000000000000000000000000000000000000000000000000000090911690637441ba249060a401600060405180830381600087803b158015611ae257600080fd5b505af1158015611af6573d6000803e3d6000fd5b505050505050505b935093915050565b600060008051602061360e8339815191528611158015611b34575060008051602061360e8339815191528511155b6040518060400160405280600581526020017f43473a453100000000000000000000000000000000000000000000000000000081525090611b885760405162461bcd60e51b815260040161044291906133c0565b5060408051606081018252878152602080820188905263ffffffff85169086901b77ffffffffffffffffffffffffffffffffffffffff000000001660c088901b7fffffffffffffffff000000000000000000000000000000000000000000000000161717818301529051635a53025d60e01b815273__$a786a838ef97de7d2113fa91ed3c799076$__91635a53025d91611c259190600401613398565b60206040518083038186803b158015611c3d57600080fd5b505af4158015611c51573d6000803e3d6000fd5b505050506040513d601f19601f82011682018060405250810190611c7591906130f0565b9695505050505050565b6040805160208101909152600080825290815b611c9e60016002613415565b811015611d8d5760008051602061360e833981519152868260038110611cd457634e487b7160e01b600052603260045260246000fd5b602002015160001c106040518060400160405280600581526020017f43543a453100000000000000000000000000000000000000000000000000000081525090611d315760405162461bcd60e51b815260040161044291906133c0565b5081858260038110611d5357634e487b7160e01b600052603260045260246000fd5b6020020151604051602001611d699291906132f1565b60405160208183030381529060405291508080611d859061358e565b915050611c92565b50611d9785612347565b9150817f724bdd8d0d4293d630d4223512262f7f1bd9e7bb88cadfef6de67ff0b0f1d8b4848784604051611dcd939291906133d3565b60405180910390a2509392505050565b60008282604051602001611e049291909182526001600160a01b0316602082015260400190565b60408051601f1981840301815282825280516020918201206000818152609d835283902054848401909352600684527f50503a453334000000000000000000000000000000000000000000000000000091840191909152925063ffffffff169081611e825760405162461bcd60e51b815260040161044291906133c0565b50609b54600090611ea690640100000000900462ffffff1663ffffffff8416613415565b90508042116040518060400160405280600681526020017f50503a453333000000000000000000000000000000000000000000000000000081525090611eff5760405162461bcd60e51b815260040161044291906133c0565b5050506000908152609d60205260409020805463ffffffff191690555050565b600060008051602061360e8339815191528310604051806040016040528060068152602001650a0a0748a64760d31b81525090611f6f5760405162461bcd60e51b815260040161044291906133c0565b5060408051808201909152600681527f50503a4532370000000000000000000000000000000000000000000000000000602082015260008051602061360e8339815191528310611fd25760405162461bcd60e51b815260040161044291906133c0565b5060408051808201825284815260208101849052905163014cf2b360e51b815273__$3d381aec2d571db697c779e211a438fb21$__9163299e56609161201b9190600401613367565b60206040518083038186803b15801561203357600080fd5b505af4158015612047573d6000803e3d6000fd5b505050506040513d601f19601f82011682018060405250810190610ebf91906130f0565b60408051808201909152600080825260208201526040805180820190915260068152650a0a0748a64760d31b602082015260008051602061360e83398151915283106120ca5760405162461bcd60e51b815260040161044291906133c0565b50604080518082019091527f0bb77a6ad63e739b4eacb2e09d6277c12ab8d8010534e0b62893f3f6bb95705181527f25797203f7a0b24925572e1cd16bf9edfce0051fb9e133774b3c257a872d7d8b6020820152610ebf8184612775565b600060036121408361ffff166001810160021c900390565b61214a91906135a9565b92915050565b60008060ff83161561217e576121658361280c565b6121799067ffffffffffffffff8616613528565b61218a565b8367ffffffffffffffff165b905061219581612819565b949350505050565b6000600160046121ae82600f613547565b6121b9906002613470565b6121c39190613528565b6121cd9190613547565b90911615919050565b600060016121e76004610100613528565b6121f19190613547565b82166001179050919050565b6001600160a01b03831661221a57612215828261287f565b505050565b612215838383612962565b6000640100000000821061227b5760405162461bcd60e51b815260206004820152600860248201527f554e5341464533320000000000000000000000000000000000000000000000006044820152606401610442565b5090565b60006801000000000000000082106040518060400160405280600681526020017f50503a4532360000000000000000000000000000000000000000000000000000815250906122e15760405162461bcd60e51b815260040161044291906133c0565b5090919050565b6000808060ff84166122ff57506000905083612334565b600061230a8561280c565b905080868161232957634e487b7160e01b600052601260045260246000fd5b049081028603925090505b61233d8161227f565b9250509250929050565b600154612352612eac565b7f0667764c376602b72ef22218e1673c2cc8546201f9a77807570b3e5de137680d81527f1be18cd72ac1586de27dd60eba90654bd54383004991951bccb0f6bad02c67f660208201527f07677e6102f0acf343edde864f79ef7652faa5a66d575b8b60bb826a4aa517e660408201527f28a85866ab97bd65cc94b0d1f5c5986481f8a0d65bdd5c1e562659eebb13cf6360608201527f087321a66ea3af7780128ea1995d7fc6ec44a96a1b2d85d3021208cede68c15c60808201527f233b4e488f0aaf5faef4fc8ea4fefeadb6934eb882bc33b9df782fd1d83b41a060a08201527f1a0cefcf0c592da6426717d3718408c61af1d0a9492887f3faecefcba1a0a30960c08201527f2cdf963150b321923dd07b2b52659aceb529516a537dfebe24106881dd97429360e08201527f093a186bf9ec2cc874ceab26409d581579e1a431ecb6987d428777ceedfa15c46101008201527f0cbfc07131ef4197a4b4e60153d43381520ec9ab4c9c3ed34d88883a881a4e076101208201527f17b31de43ba4c687cf950ad00dfbe33df40047e79245b50bd1d9f87e622bf2af6101408201527f2f3328354bceaf5882a8cc88053e0dd0ae594009a4e84e9e75a4fefe8604a6026101608201527f2b2e8defd4dad2404c6874918925fc1192123f45df0ee3e04b6c16ff22ca1cfd6101808201527f1cbdc4065aa4137da01d64a090706267d65f425ea5e815673516d29d9aa14d386101a08201527f13ca69f9fde4ece39e395bb55dd41ed7dd9dfaa26671e26bd9fd6f4f635fc8726101c0820152825160208401516040850151600092839283926125ae929190612ab8565b91506002600160046125c182600f613547565b6125cc906002613470565b6125d69190613528565b6125e09190613547565b8616901c9250600080600192505b600f831015612685576126026002866135a9565b61264d578391508583600f811061262957634e487b7160e01b600052603260045260246000fd5b60200201519050836002600085815260200190815260200160002081905550612660565b5050600081815260026020526040902054825b61266a8282612b62565b60019590951c9493508261267d8161358e565b9350506125ee565b6000612692600489613415565b6001819055905060006126a4896116bd565b9050600461ffff8a1662010000031161270957600081815260036020526040908190208790555181907f7cd9c9cf009b511548bb15f2d648fc3ee3e6e880d24f043861b274dca5a55435906126fc9089815260200190565b60405180910390a2612768565b6000612714836121d6565b6000818152600460205260409081902089851890555190915082907f46b4356c55762628b29b60a689ae18c610a9cd9774ca704e7a567aa41bb7cebf9061275e908a815260200190565b60405180910390a2505b5050505050505050919050565b60408051808201909152600081526001602082015281835b81156127c45781600116600114156127ac576127a98382612bfd565b92505b6127b68182612bfd565b9050600182901c915061278d565b82516127df9060008051602061360e833981519152906135a9565b835260208301516127ff9060008051602061360e833981519152906135a9565b6020840152505092915050565b600061214a82600a61347c565b60006c0100000000000000000000000082106040518060400160405280600681526020017f50503a4531300000000000000000000000000000000000000000000000000000815250906122e15760405162461bcd60e51b815260040161044291906133c0565b604080516000808252602082019092526001600160a01b0384169083906040516128a991906132d5565b60006040518083038185875af1925050503d80600081146128e6576040519150601f19603f3d011682016040523d82523d6000602084013e6128eb565b606091505b50509050806122155760405162461bcd60e51b815260206004820152603460248201527f5472616e7366657248656c7065723a3a736166655472616e736665724554483a60448201527f20455448207472616e73666572206661696c65640000000000000000000000006064820152608401610442565b604080516001600160a01b038481166024830152604480830185905283518084039091018152606490920183526020820180517bffffffffffffffffffffffffffffffffffffffffffffffffffffffff1663a9059cbb60e01b17905291516000928392908716916129d391906132d5565b6000604051808303816000865af19150503d8060008114612a10576040519150601f19603f3d011682016040523d82523d6000602084013e612a15565b606091505b5091509150818015612a3f575080511580612a3f575080806020019051810190612a3f91906130b8565b612ab15760405162461bcd60e51b815260206004820152602d60248201527f5472616e7366657248656c7065723a3a736166655472616e736665723a20747260448201527f616e73666572206661696c6564000000000000000000000000000000000000006064820152608401610442565b5050505050565b6000612ac2612e67565b84815260208101849052604080820184905251635a53025d60e01b815273__$a786a838ef97de7d2113fa91ed3c799076$__90635a53025d90612b09908490600401613398565b60206040518083038186803b158015612b2157600080fd5b505af4158015612b35573d6000803e3d6000fd5b505050506040513d601f19601f82011682018060405250810190612b5991906130f0565b95945050505050565b6000612b6c612ecb565b8381526020810183905260405163014cf2b360e51b815273__$3d381aec2d571db697c779e211a438fb21$__9063299e566090612bad908490600401613367565b60206040518083038186803b158015612bc557600080fd5b505af4158015612bd9573d6000803e3d6000fd5b505050506040513d601f19601f8201168201806040525081019061219591906130f0565b604080518082019091526000808252602082015282516000908190158015612c2757506020850151155b15612c4557604080518082019091529182526020820152905061214a565b8351158015612c5657506020850151155b15612c7457604080518082019091529182526020820152905061214a565b600060008051602061360e83398151915285518751099050600060008051602061360e83398151915286602001518860200151099050600060008051602061360e83398151915280838509620292f8099050600060008051602061360e83398151915280895160208c01510960008051602061360e83398151915260208b01518c51090890506000612d298460008051602061360e83398151915287620292fc0960008051602061360e833981519152612dac565b905060008051602061360e833981519152612d5560008051602061360e83398151915285600108612df5565b8309965060008051602061360e833981519152612d8a612d8560018660008051602061360e833981519152612dac565b612df5565b8209604080518082019091529788526020880152509498975050505050505050565b600083838111612dc357612dc08382613415565b90505b8280612ddf57634e487b7160e01b600052601260045260246000fd5b6000612deb8684613547565b0895945050505050565b600061214a82612e14600260008051602061360e833981519152613547565b60008051602061360e833981519152600060405160208152602080820152602060408201528460608201528360808201528260a082015260208160c08360055afa80801561017757505051949350505050565b60405180606001604052806003906020820280368337509192915050565b60405180606001604052806003905b6060815260200190600190039081612e945790505090565b604051806101e00160405280600f906020820280368337509192915050565b60405180604001604052806002906020820280368337509192915050565b8051612ef4816135df565b919050565b806060810183101561214a57600080fd5b80610200810183101561214a57600080fd5b803563ffffffff81168114612ef457600080fd5b8051612ef4816135f7565b805160ff81168114612ef457600080fd5b600060208284031215612f5d578081fd5b8135610ebf816135df565b600080600060608486031215612f7c578182fd5b8335612f87816135df565b92506020840135612f97816135df565b929592945050506040919091013590565b60008060008060008060008060006103008a8c031215612fc6578485fd5b8935612fd1816135df565b985060208a0135975060408a0135612fe8816135f7565b9650612ff660608b01612f1c565b955060808a0135945060a08a013593506130138b60c08c01612f0a565b92506102c08a013591506102e08a013590509295985092959850929598565b600080600080600080610320878903121561304b578182fd5b6130558888612ef9565b95506130648860608901612ef9565b94506130738860c08901612ef9565b93506101e0870188811115613086578283fd5b6101208801935061030088018981111561309e578384fd5b8193506130aa81612f1c565b925050509295509295509295565b6000602082840312156130c9578081fd5b81518015158114610ebf578182fd5b6000602082840312156130e9578081fd5b5035919050565b600060208284031215613101578081fd5b5051919050565b60008060008060006102808688031215613120578283fd5b853594506020860135935060408601359250606086013591506131468760808801612f0a565b90509295509295909350565b600080600080848603610120811215613169578283fd5b8551613174816135df565b60208701516040880151919650945061318c816135df565b925060c0605f198201121561319f578182fd5b5060405160c0810181811067ffffffffffffffff821117156131cf57634e487b7160e01b83526041600452602483fd5b6040526131de60608701612f30565b81526131ec60808701612f3b565b60208201526131fd60a08701612f3b565b604082015261320e60c08701612f3b565b606082015261321f60e08701612f3b565b60808201526132316101008701612ee9565b60a0820152939692955090935050565b600080600060608486031215613255578081fd5b505081359360208301359350604090920135919050565b6000806040838503121561327e578182fd5b61328783612f1c565b9150602083013562ffffff8116811461329e578182fd5b809150509250929050565b600081518084526132c181602086016020860161355e565b601f01601f19169290920160200192915050565b600082516132e781846020870161355e565b9190910192915050565b6000835161330381846020880161355e565b83519083019061331781836020880161355e565b01949350505050565b60f885901b7fff0000000000000000000000000000000000000000000000000000000000000016815260608460018301376061810192909252608182015260a10192915050565b60408101818360005b600281101561338f578151835260209283019290910190600101613370565b50505092915050565b60608101818360005b600381101561338f5781518352602092830192909101906001016133a1565b602081526000610ebf60208301846132a9565b8381526000602080830185835b60038110156133fd578151835291830191908301906001016133e0565b5050505060a06080830152612b5960a08301846132a9565b60008219821115613428576134286135c9565b500190565b600181815b8085111561346857816000190482111561344e5761344e6135c9565b8085161561345b57918102915b93841c9390800290613432565b509250929050565b6000610ebf8383613487565b6000610ebf60ff8416835b6000826134965750600161214a565b816134a35750600061214a565b81600181146134b957600281146134c3576134df565b600191505061214a565b60ff8411156134d4576134d46135c9565b50506001821b61214a565b5060208310610133831016604e8410600b8410161715613502575081810a61214a565b61350c838361342d565b8060001904821115613520576135206135c9565b029392505050565b6000816000190483118215151615613542576135426135c9565b500290565b600082821015613559576135596135c9565b500390565b60005b83811015613579578181015183820152602001613561565b83811115613588576000848401525b50505050565b60006000198214156135a2576135a26135c9565b5060010190565b6000826135c457634e487b7160e01b81526012600452602481fd5b500690565b634e487b7160e01b600052601160045260246000fd5b6001600160a01b03811681146135f457600080fd5b50565b67ffffffffffffffff811681146135f457600080fdfe30644e72e131a029b85045b68181585d2833e84879b9709143e1f593f0000001a164736f6c6343000804000a",
  "libraries": {
    "PoseidonT3": "0x5b79557e91aEA6a51d9757bA42E27ebf89733285",
    "PoseidonT4": "0x0f16C6b4Cf5B8FB090C2F89D5d7aD85d057eB760",
    "PoseidonT6": "0x811de6962F21EbBf3142f3a8c0db0e825a752A48"
  },
  "devdoc": {
    "author": "Pantherprotocol Contributors",
    "details": "It is the \"version 0\" of the Panther Protocol Multi-Asset Shielded Pool (\"MASP\"). It locks assets (ERC-20, ERC-721 or ERC-1155 tokens) of a user with the `Vault` smart contract and generates UTXO's in the MASP for the user (i.e. builds merkle trees of UTXO's commitments). It can also generate UTX0's with \"Panther Reward Points\" (aka \"PRP\", a special unit). To get a PRP UTXO, a user must be given a \"grant\" booked in the `PrpGrantor` contract. The present contract is assumed to have the \"grant processor\" role with the latest. This contract does not implement the functionality for spending UTXO's (other than the `exit` described further) and is supposed to be upgraded with the new one. The new contract, the \"v.1\" of the MASP, is planned to implement spending of UTXO's using zero-knowledge proves. To be upgradable, this contract is assumed to run as an \"implementation\" for a proxy that DELEGATECALL's the implementation. To protect holders against lost of assets in case this contract is not upgraded, it exposes the `exit` function, through which users may withdraw their locked assets via revealing preimages of commitments.",
    "events": {
      "Change(address,uint256)": {
        "details": "A tiny disowned token amount gets locked in the Vault (as a result of imprecise scaling of deposited amounts)"
      },
      "ExitCommitment(uint256)": {
        "details": "New exit commitment registered"
      },
      "ExitTimesUpdated(uint256,uint256)": {
        "details": "Emitted when exit time and/or exit delay updated"
      },
      "Nullifier(bytes32)": {
        "details": "New nullifier has been seen"
      }
    },
    "kind": "dev",
    "methods": {
      "claimEthOrErc20(address,address,uint256)": {
        "details": "The \"owner\" may call only"
      },
      "commitToExit(bytes32)": {
        "params": {
          "exitCommitment": "Commitment to the UTXO spending key and the recipient address. MUST be equal to keccak256(abi.encode(uint256(privSpendingKey), address(recipient))."
        }
      },
      "constructor": {
        "params": {
          "_owner": "Address of the `OWNER` who may call `onlyOwner` methods",
          "assetRegistry": "Address of the ZAssetRegistry contract",
          "prpGrantor": "Address of the PrpGrantor contract",
          "vault": "Address of the Vault contract"
        }
      },
      "exit(address,uint256,uint64,uint32,uint256,uint256,bytes32[16],bytes32,uint256)": {
        "details": "`cacheIndexHint` needed for the \"current\" (partially populated) tree only",
        "params": {
          "cacheIndexHint": "Index of the `merkleRoot` in the cache of roots, 0 by default",
          "leafId": "Id of the leaf with the UTXO commitments in the Merkle Trees",
          "merkleRoot": "The root of the Merkle Tree the leaf is a part of",
          "pathElements": "Elements of the Merkle proof of inclusion",
          "privSpendingKey": "UTXO's Private Spending Key",
          "scaledAmount": "Token scaled amount"
        }
      },
      "generateDeposits(address[3],uint256[3],uint256[3],(uint256,uint256)[3],uint256[3][3],uint32)": {
        "details": "For PRP granted the address ot this contract (proxy) is supposed to be usedcreatedAt must be less (or equal) the network time",
        "params": {
          "amounts": "Token amounts (unscaled) to be deposited",
          "createdAt": "Optional, if 0 the network time used",
          "pubSpendingKeys": "Public Spending Key for every UTXO",
          "secrets": "Encrypted opening values for every UTXO",
          "tokenIds": "For ERC-721 and ERC-1155 - token ID or subId of the token, 0 for ERC-20",
          "tokens": "Address of the token contract for every UTXO"
        },
        "returns": {
          "leftLeafId": "The `leafId` of the first UTXO (leaf) in the batch"
        }
      },
      "isKnownRoot(uint256,bytes32,uint256)": {
        "params": {
          "cacheIndexHint": "Index of the root in the cache, ignored if 0"
        }
      },
      "updateExitTimes(uint32,uint24)": {
        "details": "Owner only may calls"
      },
      "verifyMerkleProof(bytes32,uint256,uint256,bytes32,bytes32[16])": {
        "details": "Returns true if a `leaf` can be proved to be a part of a Merkle treedefined by `root`. For this, a `proof` must be provided, containingsibling hashes on the branch from the leaf to the root of the tree.",
        "params": {
          "leaf": "- commitment leaf value",
          "merkleRoot": "- verify checked to this hash",
          "pathElements": "- TREE_DEPTH + 1 elements - c1,c2 & path-elements",
          "triadIndex": "- index inside triad = { 0, 1, 2 }",
          "triadNodeIndex": "- index of triad hash ( c0,c1,c2 ) in the tree - Triad contract insures its is in range"
        }
      }
    },
    "title": "PantherPool",
    "version": 1
  },
  "userdoc": {
    "kind": "user",
    "methods": {
      "ASSET_REGISTRY()": {
        "notice": "Address of the ZAssetRegistry contract"
      },
      "OWNER()": {
        "notice": "The owner who has privileged rights"
      },
      "PRP_GRANTOR()": {
        "notice": "Address of the PrpGrantor contract"
      },
      "VAULT()": {
        "notice": "Address of the Vault contract"
      },
      "claimEthOrErc20(address,address,uint256)": {
        "notice": "Withdraw accidentally sent tokens or ETH from this contract"
      },
      "commitToExit(bytes32)": {
        "notice": "Register future `exit` to protect against front-run and DoS. The `exit` is possible only after `exitDelay` since this function call."
      },
      "curRoot()": {
        "notice": "Returns the root of the current tree and its index in cache"
      },
      "curTree()": {
        "notice": "Returns `treeId` of the current tree"
      },
      "exitCommitments(bytes32)": {
        "notice": "Unused registered commitments to exit"
      },
      "exitDelay()": {
        "notice": "Period (seconds) since `commitToExit` when `exit` opens"
      },
      "exitTime()": {
        "notice": "(UNIX) Time since when the `exit` calls get enabled"
      },
      "finalRoots(uint256)": {
        "notice": "Roots of fully populated trees"
      },
      "generateDeposits(address[3],uint256[3],uint256[3],(uint256,uint256)[3],uint256[3][3],uint32)": {
        "notice": "Transfer assets from the msg.sender to the VAULT and generate UTXOs in the MASP"
      },
      "getLeafIndex(uint256)": {
        "notice": "Returns `leafIndex` (index in the tree) of the given leaf"
      },
      "getTreeId(uint256)": {
        "notice": "Returns `treeId` of the given leaf's tree"
      },
      "isKnownRoot(uint256,bytes32,uint256)": {
        "notice": "Returns `true` if the given root of the given tree is known"
      },
      "leavesNum()": {
        "notice": "Returns the number of leaves inserted in all trees so far"
      },
      "updateExitTimes(uint32,uint24)": {
        "notice": "Update the exit time and the exit delay"
      }
    },
    "notice": "Multi-Asset Shielded Pool main contract v0",
    "version": 1
  },
  "storageLayout": {
    "storage": [
      {
        "astId": 5675,
        "contract": "contracts/protocol/PantherPoolV0.sol:PantherPoolV0",
        "label": "_reentrancyStatus",
        "offset": 0,
        "slot": "0",
        "type": "t_uint256"
      },
      {
        "astId": 9032,
        "contract": "contracts/protocol/PantherPoolV0.sol:PantherPoolV0",
        "label": "_nextLeafId",
        "offset": 0,
        "slot": "1",
        "type": "t_uint256"
      },
      {
        "astId": 9036,
        "contract": "contracts/protocol/PantherPoolV0.sol:PantherPoolV0",
        "label": "_filledSubtrees",
        "offset": 0,
        "slot": "2",
        "type": "t_mapping(t_uint256,t_bytes32)"
      },
      {
        "astId": 9041,
        "contract": "contracts/protocol/PantherPoolV0.sol:PantherPoolV0",
        "label": "finalRoots",
        "offset": 0,
        "slot": "3",
        "type": "t_mapping(t_uint256,t_bytes32)"
      },
      {
        "astId": 9045,
        "contract": "contracts/protocol/PantherPoolV0.sol:PantherPoolV0",
        "label": "_cachedRoots",
        "offset": 0,
        "slot": "4",
        "type": "t_mapping(t_uint256,t_uint256)"
      },
      {
        "astId": 9621,
        "contract": "contracts/protocol/PantherPoolV0.sol:PantherPoolV0",
        "label": "__gap",
        "offset": 0,
        "slot": "5",
        "type": "t_array(t_uint256)50_storage"
      },
      {
        "astId": 8664,
        "contract": "contracts/protocol/PantherPoolV0.sol:PantherPoolV0",
        "label": "__gap",
        "offset": 0,
        "slot": "55",
        "type": "t_array(t_uint256)50_storage"
      },
      {
        "astId": 3562,
        "contract": "contracts/protocol/PantherPoolV0.sol:PantherPoolV0",
        "label": "__gap",
        "offset": 0,
        "slot": "105",
        "type": "t_array(t_uint256)50_storage"
      },
      {
        "astId": 3574,
        "contract": "contracts/protocol/PantherPoolV0.sol:PantherPoolV0",
        "label": "exitTime",
        "offset": 0,
        "slot": "155",
        "type": "t_uint32"
      },
      {
        "astId": 3577,
        "contract": "contracts/protocol/PantherPoolV0.sol:PantherPoolV0",
        "label": "exitDelay",
        "offset": 4,
        "slot": "155",
        "type": "t_uint24"
      },
      {
        "astId": 3579,
        "contract": "contracts/protocol/PantherPoolV0.sol:PantherPoolV0",
        "label": "_reserved",
        "offset": 7,
        "slot": "155",
        "type": "t_uint200"
      },
      {
        "astId": 3583,
        "contract": "contracts/protocol/PantherPoolV0.sol:PantherPoolV0",
        "label": "isSpent",
        "offset": 0,
        "slot": "156",
        "type": "t_mapping(t_bytes32,t_bool)"
      },
      {
        "astId": 3588,
        "contract": "contracts/protocol/PantherPoolV0.sol:PantherPoolV0",
        "label": "exitCommitments",
        "offset": 0,
        "slot": "157",
        "type": "t_mapping(t_bytes32,t_uint32)"
      }
    ],
    "types": {
      "t_array(t_uint256)50_storage": {
        "base": "t_uint256",
        "encoding": "inplace",
        "label": "uint256[50]",
        "numberOfBytes": "1600"
      },
      "t_bool": {
        "encoding": "inplace",
        "label": "bool",
        "numberOfBytes": "1"
      },
      "t_bytes32": {
        "encoding": "inplace",
        "label": "bytes32",
        "numberOfBytes": "32"
      },
      "t_mapping(t_bytes32,t_bool)": {
        "encoding": "mapping",
        "key": "t_bytes32",
        "label": "mapping(bytes32 => bool)",
        "numberOfBytes": "32",
        "value": "t_bool"
      },
      "t_mapping(t_bytes32,t_uint32)": {
        "encoding": "mapping",
        "key": "t_bytes32",
        "label": "mapping(bytes32 => uint32)",
        "numberOfBytes": "32",
        "value": "t_uint32"
      },
      "t_mapping(t_uint256,t_bytes32)": {
        "encoding": "mapping",
        "key": "t_uint256",
        "label": "mapping(uint256 => bytes32)",
        "numberOfBytes": "32",
        "value": "t_bytes32"
      },
      "t_mapping(t_uint256,t_uint256)": {
        "encoding": "mapping",
        "key": "t_uint256",
        "label": "mapping(uint256 => uint256)",
        "numberOfBytes": "32",
        "value": "t_uint256"
      },
      "t_uint200": {
        "encoding": "inplace",
        "label": "uint200",
        "numberOfBytes": "25"
      },
      "t_uint24": {
        "encoding": "inplace",
        "label": "uint24",
        "numberOfBytes": "3"
      },
      "t_uint256": {
        "encoding": "inplace",
        "label": "uint256",
        "numberOfBytes": "32"
      },
      "t_uint32": {
        "encoding": "inplace",
        "label": "uint32",
        "numberOfBytes": "4"
      }
    }
  }
}