{
  "address": "0xf7D3CfCc550E087B5db12fb8C2B45F181a94fB73",
  "abi": [
    {
      "inputs": [
        {
          "internalType": "bytes4",
          "name": "stakeType",
          "type": "bytes4"
        },
        {
          "internalType": "uint256",
          "name": "stakeAmountToSharesScaledFactor",
          "type": "uint256"
        }
      ],
      "stateMutability": "nonpayable",
      "type": "constructor"
    },
    {
      "inputs": [],
      "name": "FACTOR",
      "outputs": [
        {
          "internalType": "uint256",
          "name": "",
          "type": "uint256"
        }
      ],
      "stateMutability": "view",
      "type": "function"
    },
    {
      "inputs": [
        {
          "internalType": "bytes4",
          "name": "action",
          "type": "bytes4"
        },
        {
          "internalType": "bytes",
          "name": "message",
          "type": "bytes"
        }
      ],
      "name": "getRewardAdvice",
      "outputs": [
        {
          "components": [
            {
              "internalType": "address",
              "name": "createSharesFor",
              "type": "address"
            },
            {
              "internalType": "uint96",
              "name": "sharesToCreate",
              "type": "uint96"
            },
            {
              "internalType": "address",
              "name": "redeemSharesFrom",
              "type": "address"
            },
            {
              "internalType": "uint96",
              "name": "sharesToRedeem",
              "type": "uint96"
            },
            {
              "internalType": "address",
              "name": "sendRewardTo",
              "type": "address"
            }
          ],
          "internalType": "struct IRewardAdviser.Advice",
          "name": "",
          "type": "tuple"
        }
      ],
      "stateMutability": "view",
      "type": "function"
    }
  ],
  "transactionHash": "0xbe78d165df8e8ab4f9b1c074a67a6e9796381e409c43d94f9e515f01e7338438",
  "args": [
    "0x4ab0941a",
    1000000000
  ],
  "numDeployments": 1,
  "solcInputHash": "496176f3b3122619b8c2f798da67ee81",
  "bytecode": "0x60e060405234801561001057600080fd5b5060405161092638038061092683398101604081905261002f91610124565b6001600160e01b031982161580159061004757508015155b6100805760405162461bcd60e51b81526020600482015260066024820152655053413a453160d01b604482015260640160405180910390fd5b610089826100b5565b6001600160e01b03191660805261009f826100f9565b6001600160e01b03191660a05260c0525061015d565b60405163c3a0479560e01b60208201526001600160e01b0319821660248201526000906028015b604051602081830303815290604052805190602001209050919050565b604051637a3e3dfd60e01b60208201526001600160e01b0319821660248201526000906028016100dc565b60008060408385031215610136578182fd5b82516001600160e01b03198116811461014d578283fd5b6020939093015192949293505050565b60805160e01c60e01b60a05160e01c60e01b60c05161078861019e60003960008181604001526101fa015260006102cb0152600061023b01526107886000f3fe608060405234801561001057600080fd5b50600436106100365760003560e01c806335815b951461003b578063e9cb032414610075575b600080fd5b6100627f000000000000000000000000000000000000000000000000000000000000000081565b6040519081526020015b60405180910390f35b6100886100833660046105e3565b6100ed565b60405161006c9190600060a0820190506001600160a01b0380845116835260208401516bffffffffffffffffffffffff808216602086015282604087015116604086015280606087015116606086015250508060808501511660808401525092915050565b6040805160a08101825260008082526020820181905291810182905260608101829052608081018290529080610122846103c5565b50505050509150915060006001600160a01b0316826001600160a01b031614156101935760405162461bcd60e51b815260206004820152601b60248201527f5053413a20756e6578706563746564207a65726f207374616b6572000000000060448201526064015b60405180910390fd5b6bffffffffffffffffffffffff81166101ee5760405162461bcd60e51b815260206004820152601b60248201527f5053413a20756e6578706563746564207a65726f20616d6f756e740000000000604482015260640161018a565b6000633b9aca0061022d7f00000000000000000000000000000000000000000000000000000000000000006bffffffffffffffffffffffff85166106fe565b61023791906106de565b90507f00000000000000000000000000000000000000000000000000000000000000006001600160e01b031916866001600160e01b03191614156102c9576040518060a00160405280846001600160a01b0316815260200161029883610581565b6bffffffffffffffffffffffff1681526000602082018190526040820181905260609091015293506103bf92505050565b7f00000000000000000000000000000000000000000000000000000000000000006001600160e01b031916866001600160e01b0319161415610377576040518060a0016040528060006001600160a01b0316815260200160006bffffffffffffffffffffffff168152602001846001600160a01b0316815260200161034d83610581565b6bffffffffffffffffffffffff168152602001846001600160a01b031681525093505050506103bf565b60405162461bcd60e51b815260206004820152601760248201527f5053413a20756e737570706f7274656420616374696f6e000000000000000000604482015260640161018a565b92915050565b60008060008060008060606030885110156104225760405162461bcd60e51b815260206004820152601a60248201527f534d503a20756e6578706563746564206d7367206c656e677468000000000000604482015260640161018a565b602088015160408901518951606083901c99506bffffffffffffffffffffffff8316985060e082901c975063ffffffff60c083901c8116975060a083901c81169650608083901c16945060009061047b9060309061071d565b90508067ffffffffffffffff8111156104a457634e487b7160e01b600052604160045260246000fd5b6040519080825280601f01601f1916602001820160405280156104ce576020820181803683370190505b50935060005b81811015610572578b6104e88260306106c6565b8151811061050657634e487b7160e01b600052603260045260246000fd5b602001015160f81c60f81b85828151811061053157634e487b7160e01b600052603260045260246000fd5b60200101907effffffffffffffffffffffffffffffffffffffffffffffffffffffffffffff1916908160001a9053508061056a81610734565b9150506104d4565b50505050919395979092949650565b60006c0100000000000000000000000082106105df5760405162461bcd60e51b815260206004820152600860248201527f554e534146453936000000000000000000000000000000000000000000000000604482015260640161018a565b5090565b600080604083850312156105f5578182fd5b82357fffffffff0000000000000000000000000000000000000000000000000000000081168114610624578283fd5b9150602083013567ffffffffffffffff80821115610640578283fd5b818501915085601f830112610653578283fd5b81358181111561066557610665610765565b604051601f8201601f19908116603f0116810190838211818310171561068d5761068d610765565b816040528281528860208487010111156106a5578586fd5b82602086016020830137856020848301015280955050505050509250929050565b600082198211156106d9576106d961074f565b500190565b6000826106f957634e487b7160e01b81526012600452602481fd5b500490565b60008160001904831182151516156107185761071861074f565b500290565b60008282101561072f5761072f61074f565b500390565b60006000198214156107485761074861074f565b5060010190565b634e487b7160e01b600052601160045260246000fd5b634e487b7160e01b600052604160045260246000fdfea164736f6c6343000804000a",
  "devdoc": {
    "details": "It acts as the \"RewardAdviser\" for the \"RewardMaster\": the latter calls this contract to process messages from the \"Staking\" contract.",
    "kind": "dev",
    "methods": {},
    "title": "StakeRewardAdviser",
    "version": 1
  },
  "userdoc": {
    "kind": "user",
    "methods": {},
    "notice": "It \"advises\" the \"RewardMaster\" on staking rewards (\"shares\").",
    "version": 1
  },
  "storageLayout": {
    "storage": [],
    "types": null
  }
}