{
  "_format": "hh-sol-artifact-1",
  "contractName": "ZKPToken",
  "sourceName": "contracts/ZKPToken.sol",
  "abi": [
    {
      "inputs": [
        {
          "internalType": "address",
          "name": "_minter",
          "type": "address"
        }
      ],
      "stateMutability": "nonpayable",
      "type": "constructor"
    },
    {
      "anonymous": false,
      "inputs": [
        {
          "indexed": true,
          "internalType": "address",
          "name": "owner",
          "type": "address"
        },
        {
          "indexed": true,
          "internalType": "address",
          "name": "spender",
          "type": "address"
        },
        {
          "indexed": false,
          "internalType": "uint256",
          "name": "value",
          "type": "uint256"
        }
      ],
      "name": "Approval",
      "type": "event"
    },
    {
      "anonymous": false,
      "inputs": [
        {
          "indexed": true,
          "internalType": "address",
          "name": "from",
          "type": "address"
        },
        {
          "indexed": true,
          "internalType": "address",
          "name": "to",
          "type": "address"
        },
        {
          "indexed": false,
          "internalType": "uint256",
          "name": "value",
          "type": "uint256"
        }
      ],
      "name": "Transfer",
      "type": "event"
    },
    {
      "inputs": [],
      "name": "DOMAIN_SEPARATOR",
      "outputs": [
        {
          "internalType": "bytes32",
          "name": "",
          "type": "bytes32"
        }
      ],
      "stateMutability": "view",
      "type": "function"
    },
    {
      "inputs": [
        {
          "internalType": "address",
          "name": "owner",
          "type": "address"
        },
        {
          "internalType": "address",
          "name": "spender",
          "type": "address"
        }
      ],
      "name": "allowance",
      "outputs": [
        {
          "internalType": "uint256",
          "name": "",
          "type": "uint256"
        }
      ],
      "stateMutability": "view",
      "type": "function"
    },
    {
      "inputs": [
        {
          "internalType": "address",
          "name": "spender",
          "type": "address"
        },
        {
          "internalType": "uint256",
          "name": "amount",
          "type": "uint256"
        }
      ],
      "name": "approve",
      "outputs": [
        {
          "internalType": "bool",
          "name": "",
          "type": "bool"
        }
      ],
      "stateMutability": "nonpayable",
      "type": "function"
    },
    {
      "inputs": [
        {
          "internalType": "address",
          "name": "account",
          "type": "address"
        }
      ],
      "name": "balanceOf",
      "outputs": [
        {
          "internalType": "uint256",
          "name": "",
          "type": "uint256"
        }
      ],
      "stateMutability": "view",
      "type": "function"
    },
    {
      "inputs": [
        {
          "internalType": "address[]",
          "name": "_spenders",
          "type": "address[]"
        },
        {
          "internalType": "uint256[]",
          "name": "_subtractedValues",
          "type": "uint256[]"
        }
      ],
      "name": "batchDecreaseAllowance",
      "outputs": [
        {
          "internalType": "bool",
          "name": "",
          "type": "bool"
        }
      ],
      "stateMutability": "nonpayable",
      "type": "function"
    },
    {
      "inputs": [
        {
          "internalType": "address[]",
          "name": "_spenders",
          "type": "address[]"
        },
        {
          "internalType": "uint256[]",
          "name": "_addedValues",
          "type": "uint256[]"
        }
      ],
      "name": "batchIncreaseAllowance",
      "outputs": [
        {
          "internalType": "bool",
          "name": "",
          "type": "bool"
        }
      ],
      "stateMutability": "nonpayable",
      "type": "function"
    },
    {
      "inputs": [
        {
          "internalType": "address[]",
          "name": "_recipients",
          "type": "address[]"
        },
        {
          "internalType": "uint256[]",
          "name": "_values",
          "type": "uint256[]"
        }
      ],
      "name": "batchTransfer",
      "outputs": [
        {
          "internalType": "bool",
          "name": "",
          "type": "bool"
        }
      ],
      "stateMutability": "nonpayable",
      "type": "function"
    },
    {
      "inputs": [
        {
          "internalType": "address",
          "name": "_from",
          "type": "address"
        },
        {
          "internalType": "address[]",
          "name": "_recipients",
          "type": "address[]"
        },
        {
          "internalType": "uint256[]",
          "name": "_values",
          "type": "uint256[]"
        }
      ],
      "name": "batchTransferFrom",
      "outputs": [
        {
          "internalType": "bool",
          "name": "",
          "type": "bool"
        }
      ],
      "stateMutability": "nonpayable",
      "type": "function"
    },
    {
      "inputs": [],
      "name": "decimals",
      "outputs": [
        {
          "internalType": "uint8",
          "name": "",
          "type": "uint8"
        }
      ],
      "stateMutability": "view",
      "type": "function"
    },
    {
      "inputs": [
        {
          "internalType": "address",
          "name": "spender",
          "type": "address"
        },
        {
          "internalType": "uint256",
          "name": "subtractedValue",
          "type": "uint256"
        }
      ],
      "name": "decreaseAllowance",
      "outputs": [
        {
          "internalType": "bool",
          "name": "",
          "type": "bool"
        }
      ],
      "stateMutability": "nonpayable",
      "type": "function"
    },
    {
      "inputs": [
        {
          "internalType": "address",
          "name": "spender",
          "type": "address"
        },
        {
          "internalType": "uint256",
          "name": "addedValue",
          "type": "uint256"
        }
      ],
      "name": "increaseAllowance",
      "outputs": [
        {
          "internalType": "bool",
          "name": "",
          "type": "bool"
        }
      ],
      "stateMutability": "nonpayable",
      "type": "function"
    },
    {
      "inputs": [
        {
          "internalType": "address",
          "name": "_account",
          "type": "address"
        },
        {
          "internalType": "uint256",
          "name": "_amount",
          "type": "uint256"
        }
      ],
      "name": "mint",
      "outputs": [
        {
          "internalType": "bool",
          "name": "",
          "type": "bool"
        }
      ],
      "stateMutability": "nonpayable",
      "type": "function"
    },
    {
      "inputs": [],
      "name": "minter",
      "outputs": [
        {
          "internalType": "address",
          "name": "",
          "type": "address"
        }
      ],
      "stateMutability": "view",
      "type": "function"
    },
    {
      "inputs": [],
      "name": "name",
      "outputs": [
        {
          "internalType": "string",
          "name": "",
          "type": "string"
        }
      ],
      "stateMutability": "view",
      "type": "function"
    },
    {
      "inputs": [
        {
          "internalType": "address",
          "name": "owner",
          "type": "address"
        }
      ],
      "name": "nonces",
      "outputs": [
        {
          "internalType": "uint256",
          "name": "",
          "type": "uint256"
        }
      ],
      "stateMutability": "view",
      "type": "function"
    },
    {
      "inputs": [
        {
          "internalType": "address",
          "name": "owner",
          "type": "address"
        },
        {
          "internalType": "address",
          "name": "spender",
          "type": "address"
        },
        {
          "internalType": "uint256",
          "name": "value",
          "type": "uint256"
        },
        {
          "internalType": "uint256",
          "name": "deadline",
          "type": "uint256"
        },
        {
          "internalType": "uint8",
          "name": "v",
          "type": "uint8"
        },
        {
          "internalType": "bytes32",
          "name": "r",
          "type": "bytes32"
        },
        {
          "internalType": "bytes32",
          "name": "s",
          "type": "bytes32"
        }
      ],
      "name": "permit",
      "outputs": [],
      "stateMutability": "nonpayable",
      "type": "function"
    },
    {
      "inputs": [
        {
          "internalType": "address",
          "name": "_minter",
          "type": "address"
        }
      ],
      "name": "setMinter",
      "outputs": [],
      "stateMutability": "nonpayable",
      "type": "function"
    },
    {
      "inputs": [],
      "name": "symbol",
      "outputs": [
        {
          "internalType": "string",
          "name": "",
          "type": "string"
        }
      ],
      "stateMutability": "view",
      "type": "function"
    },
    {
      "inputs": [],
      "name": "totalSupply",
      "outputs": [
        {
          "internalType": "uint256",
          "name": "",
          "type": "uint256"
        }
      ],
      "stateMutability": "view",
      "type": "function"
    },
    {
      "inputs": [
        {
          "internalType": "address",
          "name": "recipient",
          "type": "address"
        },
        {
          "internalType": "uint256",
          "name": "amount",
          "type": "uint256"
        }
      ],
      "name": "transfer",
      "outputs": [
        {
          "internalType": "bool",
          "name": "",
          "type": "bool"
        }
      ],
      "stateMutability": "nonpayable",
      "type": "function"
    },
    {
      "inputs": [
        {
          "internalType": "address",
          "name": "sender",
          "type": "address"
        },
        {
          "internalType": "address",
          "name": "recipient",
          "type": "address"
        },
        {
          "internalType": "uint256",
          "name": "amount",
          "type": "uint256"
        }
      ],
      "name": "transferFrom",
      "outputs": [
        {
          "internalType": "bool",
          "name": "",
          "type": "bool"
        }
      ],
      "stateMutability": "nonpayable",
      "type": "function"
    }
  ],
  "bytecode": "0x6101406040527f6e71edae12b1b97f4d1f60370fef10105fa2faae0126114a169c64845d6126c9610120523480156200003757600080fd5b5060405162001c8638038062001c868339810160408190526200005a91620002c9565b6040518060400160405280600a815260200169122d25a8102a37b5b2b760b11b81525080604051806040016040528060018152602001603160f81b8152506040518060400160405280600a815260200169122d25a8102a37b5b2b760b11b815250604051806040016040528060048152602001630245a4b560e41b8152508160039080519060200190620000f092919062000223565b5080516200010690600490602084019062000223565b5050825160209384012082519284019290922060c083815260e08290524660a0818152604080517f8b73c3c69bb8fe3d512ecc4cf759cc79239f7b179b0ffacaa9a75d522b39400f818a0181905281830198909852606081019590955260808086019390935230858301528051808603909201825293909201909252805194019390932090925261010052506200019f905081620001a6565b5062000336565b6001600160a01b038116620002015760405162461bcd60e51b815260206004820152601860248201527f5a4b503a207a65726f206d696e74657220616464726573730000000000000000604482015260640160405180910390fd5b600680546001600160a01b0319166001600160a01b0392909216919091179055565b8280546200023190620002f9565b90600052602060002090601f016020900481019282620002555760008555620002a0565b82601f106200027057805160ff1916838001178555620002a0565b82800160010185558215620002a0579182015b82811115620002a057825182559160200191906001019062000283565b50620002ae929150620002b2565b5090565b5b80821115620002ae5760008155600101620002b3565b600060208284031215620002db578081fd5b81516001600160a01b0381168114620002f2578182fd5b9392505050565b600181811c908216806200030e57607f821691505b602082108114156200033057634e487b7160e01b600052602260045260246000fd5b50919050565b60805160a05160c05160e051610100516101205161190062000386600039600061096501526000610f3701526000610f8601526000610f6101526000610ee501526000610f0e01526119006000f3fe608060405234801561001057600080fd5b50600436106101775760003560e01c806364d7cabc116100d8578063a457c2d71161008c578063d8bc226311610066578063d8bc226314610302578063dd62ed3e14610315578063fca3b5aa1461034e57600080fd5b8063a457c2d7146102c7578063a9059cbb146102da578063d505accf146102ed57600080fd5b80637ecebe00116100bd5780637ecebe001461029957806388d695b2146102ac57806395d89b41146102bf57600080fd5b806364d7cabc1461025d57806370a082311461027057600080fd5b8063313ce5671161012f5780633950935111610114578063395093511461022457806340c10f19146102375780634885b2541461024a57600080fd5b8063313ce5671461020d5780633644e5151461021c57600080fd5b8063095ea7b311610160578063095ea7b3146101c557806318160ddd146101e857806323b872dd146101fa57600080fd5b806306fdde031461017c578063075461721461019a575b600080fd5b610184610361565b6040516101919190611822565b60405180910390f35b6006546101ad906001600160a01b031681565b6040516001600160a01b039091168152602001610191565b6101d86101d3366004611790565b6103f3565b6040519015158152602001610191565b6002545b604051908152602001610191565b6101d8610208366004611666565b610409565b60405160128152602001610191565b6101ec6104cd565b6101d8610232366004611790565b6104dc565b6101d8610245366004611790565b610518565b6101d8610258366004611712565b61057f565b6101d861026b3660046117b9565b610666565b6101ec61027e366004611613565b6001600160a01b031660009081526020819052604090205490565b6101ec6102a7366004611613565b61074b565b6101d86102ba3660046117b9565b61076b565b610184610844565b6101d86102d5366004611790565b610853565b6101d86102e8366004611790565b610904565b6103006102fb3660046116a1565b610911565b005b6101d86103103660046117b9565b610a75565b6101ec610323366004611634565b6001600160a01b03918216600090815260016020908152604080832093909416825291909152205490565b61030061035c366004611613565b610b4e565b6060600380546103709061188d565b80601f016020809104026020016040519081016040528092919081815260200182805461039c9061188d565b80156103e95780601f106103be576101008083540402835291602001916103e9565b820191906000526020600020905b8154815290600101906020018083116103cc57829003601f168201915b5050505050905090565b6000610400338484610bb4565b50600192915050565b6000610416848484610cd8565b6001600160a01b0384166000908152600160209081526040808320338452909152902054828110156104b55760405162461bcd60e51b815260206004820152602860248201527f45524332303a207472616e7366657220616d6f756e742065786365656473206160448201527f6c6c6f77616e636500000000000000000000000000000000000000000000000060648201526084015b60405180910390fd5b6104c28533858403610bb4565b506001949350505050565b60006104d7610ee1565b905090565b3360008181526001602090815260408083206001600160a01b03871684529091528120549091610400918590610513908690611875565b610bb4565b6006546000906001600160a01b031633146105755760405162461bcd60e51b815260206004820152601160248201527f5a4b503a20756e617574686f72697a656400000000000000000000000000000060448201526064016104ac565b6104008383610fd4565b600061058b84836110c0565b60005b84811015610659576105fb878787848181106105ba57634e487b7160e01b600052603260045260246000fd5b90506020020160208101906105cf9190611613565b8686858181106105ef57634e487b7160e01b600052603260045260246000fd5b90506020020135610409565b6106475760405162461bcd60e51b815260206004820152601860248201527f245a4b503a20756e61626c6520746f207472616e73666572000000000000000060448201526064016104ac565b80610651816118c2565b91505061058e565b5060019695505050505050565b600061067284836110c0565b60005b8281101561073f576106e18686838181106106a057634e487b7160e01b600052603260045260246000fd5b90506020020160208101906106b59190611613565b8585848181106106d557634e487b7160e01b600052603260045260246000fd5b905060200201356104dc565b61072d5760405162461bcd60e51b815260206004820152601760248201527f5a4b503a20756e61626c6520746f20696e63726561736500000000000000000060448201526064016104ac565b80610737816118c2565b915050610675565b50600195945050505050565b6001600160a01b0381166000908152600560205260408120545b92915050565b600061077784836110c0565b60005b8481101561073f576107e68686838181106107a557634e487b7160e01b600052603260045260246000fd5b90506020020160208101906107ba9190611613565b8585848181106107da57634e487b7160e01b600052603260045260246000fd5b90506020020135610904565b6108325760405162461bcd60e51b815260206004820152601760248201527f5a4b503a20756e61626c6520746f207472616e7366657200000000000000000060448201526064016104ac565b8061083c816118c2565b91505061077a565b6060600480546103709061188d565b3360009081526001602090815260408083206001600160a01b0386168452909152812054828110156108ed5760405162461bcd60e51b815260206004820152602560248201527f45524332303a2064656372656173656420616c6c6f77616e63652062656c6f7760448201527f207a65726f00000000000000000000000000000000000000000000000000000060648201526084016104ac565b6108fa3385858403610bb4565b5060019392505050565b6000610400338484610cd8565b834211156109615760405162461bcd60e51b815260206004820152601d60248201527f45524332305065726d69743a206578706972656420646561646c696e6500000060448201526064016104ac565b60007f00000000000000000000000000000000000000000000000000000000000000008888886109908c61110f565b6040805160208101969096526001600160a01b0394851690860152929091166060840152608083015260a082015260c0810186905260e00160405160208183030381529060405280519060200120905060006109eb82611137565b905060006109fb82878787611185565b9050896001600160a01b0316816001600160a01b031614610a5e5760405162461bcd60e51b815260206004820152601e60248201527f45524332305065726d69743a20696e76616c6964207369676e6174757265000060448201526064016104ac565b610a698a8a8a610bb4565b50505050505050505050565b6000610a8184836110c0565b60005b8281101561073f57610af0868683818110610aaf57634e487b7160e01b600052603260045260246000fd5b9050602002016020810190610ac49190611613565b858584818110610ae457634e487b7160e01b600052603260045260246000fd5b90506020020135610853565b610b3c5760405162461bcd60e51b815260206004820152601760248201527f5a4b503a20756e61626c6520746f20646563726561736500000000000000000060448201526064016104ac565b80610b46816118c2565b915050610a84565b6006546001600160a01b03163314610ba85760405162461bcd60e51b815260206004820152601160248201527f5a4b503a20756e617574686f72697a656400000000000000000000000000000060448201526064016104ac565b610bb1816111ad565b50565b6001600160a01b038316610c165760405162461bcd60e51b8152602060048201526024808201527f45524332303a20617070726f76652066726f6d20746865207a65726f206164646044820152637265737360e01b60648201526084016104ac565b6001600160a01b038216610c775760405162461bcd60e51b815260206004820152602260248201527f45524332303a20617070726f766520746f20746865207a65726f206164647265604482015261737360f01b60648201526084016104ac565b6001600160a01b0383811660008181526001602090815260408083209487168084529482529182902085905590518481527f8c5be1e5ebec7d5bd14f71427d1e84f3dd0314c0f7b2291e5b200ac8c7c3b925910160405180910390a3505050565b6001600160a01b038316610d545760405162461bcd60e51b815260206004820152602560248201527f45524332303a207472616e736665722066726f6d20746865207a65726f20616460448201527f647265737300000000000000000000000000000000000000000000000000000060648201526084016104ac565b6001600160a01b038216610db65760405162461bcd60e51b815260206004820152602360248201527f45524332303a207472616e7366657220746f20746865207a65726f206164647260448201526265737360e81b60648201526084016104ac565b610dc183838361123d565b6001600160a01b03831660009081526020819052604090205481811015610e505760405162461bcd60e51b815260206004820152602660248201527f45524332303a207472616e7366657220616d6f756e742065786365656473206260448201527f616c616e6365000000000000000000000000000000000000000000000000000060648201526084016104ac565b6001600160a01b03808516600090815260208190526040808220858503905591851681529081208054849290610e87908490611875565b92505081905550826001600160a01b0316846001600160a01b03167fddf252ad1be2c89b69c2b068fc378daa952ba7f163c4a11628f55a4df523b3ef84604051610ed391815260200190565b60405180910390a350505050565b60007f0000000000000000000000000000000000000000000000000000000000000000461415610f3057507f000000000000000000000000000000000000000000000000000000000000000090565b50604080517f00000000000000000000000000000000000000000000000000000000000000006020808301919091527f0000000000000000000000000000000000000000000000000000000000000000828401527f000000000000000000000000000000000000000000000000000000000000000060608301524660808301523060a0808401919091528351808403909101815260c0909201909252805191012090565b6001600160a01b03821661102a5760405162461bcd60e51b815260206004820152601f60248201527f45524332303a206d696e7420746f20746865207a65726f20616464726573730060448201526064016104ac565b6110366000838361123d565b80600260008282546110489190611875565b90915550506001600160a01b03821660009081526020819052604081208054839290611075908490611875565b90915550506040518181526001600160a01b038316906000907fddf252ad1be2c89b69c2b068fc378daa952ba7f163c4a11628f55a4df523b3ef9060200160405180910390a35b5050565b8082146110bc5760405162461bcd60e51b815260206004820152601260248201527f5a4b503a20696e76616c696420696e707574000000000000000000000000000060448201526064016104ac565b6001600160a01b03811660009081526005602052604090208054600181018255905b50919050565b6000610765611144610ee1565b8360405161190160f01b6020820152602281018390526042810182905260009060620160405160208183030381529060405280519060200120905092915050565b6000806000611196878787876112bf565b915091506111a3816113ac565b5095945050505050565b6001600160a01b0381166112035760405162461bcd60e51b815260206004820152601860248201527f5a4b503a207a65726f206d696e7465722061646472657373000000000000000060448201526064016104ac565b600680547fffffffffffffffffffffffff0000000000000000000000000000000000000000166001600160a01b0392909216919091179055565b6001600160a01b0383166112ba576b033b2e3c9fd0803ce80000008161126260025490565b61126c9190611875565b11156112ba5760405162461bcd60e51b815260206004820152601160248201527f5a4b503a2063617020657863656564656400000000000000000000000000000060448201526064016104ac565b505050565b6000807f7fffffffffffffffffffffffffffffff5d576e7357a4501ddfe92f46681b20a08311156112f657506000905060036113a3565b8460ff16601b1415801561130e57508460ff16601c14155b1561131f57506000905060046113a3565b6040805160008082526020820180845289905260ff881692820192909252606081018690526080810185905260019060a0016020604051602081039080840390855afa158015611373573d6000803e3d6000fd5b5050604051601f1901519150506001600160a01b03811661139c576000600192509250506113a3565b9150600090505b94509492505050565b60008160048111156113ce57634e487b7160e01b600052602160045260246000fd5b14156113d75750565b60018160048111156113f957634e487b7160e01b600052602160045260246000fd5b14156114475760405162461bcd60e51b815260206004820152601860248201527f45434453413a20696e76616c6964207369676e6174757265000000000000000060448201526064016104ac565b600281600481111561146957634e487b7160e01b600052602160045260246000fd5b14156114b75760405162461bcd60e51b815260206004820152601f60248201527f45434453413a20696e76616c6964207369676e6174757265206c656e6774680060448201526064016104ac565b60038160048111156114d957634e487b7160e01b600052602160045260246000fd5b14156115325760405162461bcd60e51b815260206004820152602260248201527f45434453413a20696e76616c6964207369676e6174757265202773272076616c604482015261756560f01b60648201526084016104ac565b600481600481111561155457634e487b7160e01b600052602160045260246000fd5b1415610bb15760405162461bcd60e51b815260206004820152602260248201527f45434453413a20696e76616c6964207369676e6174757265202776272076616c604482015261756560f01b60648201526084016104ac565b80356001600160a01b03811681146115c457600080fd5b919050565b60008083601f8401126115da578182fd5b50813567ffffffffffffffff8111156115f1578182fd5b6020830191508360208260051b850101111561160c57600080fd5b9250929050565b600060208284031215611624578081fd5b61162d826115ad565b9392505050565b60008060408385031215611646578081fd5b61164f836115ad565b915061165d602084016115ad565b90509250929050565b60008060006060848603121561167a578081fd5b611683846115ad565b9250611691602085016115ad565b9150604084013590509250925092565b600080600080600080600060e0888a0312156116bb578283fd5b6116c4886115ad565b96506116d2602089016115ad565b95506040880135945060608801359350608088013560ff811681146116f5578384fd5b9699959850939692959460a0840135945060c09093013592915050565b600080600080600060608688031215611729578081fd5b611732866115ad565b9450602086013567ffffffffffffffff8082111561174e578283fd5b61175a89838a016115c9565b90965094506040880135915080821115611772578283fd5b5061177f888289016115c9565b969995985093965092949392505050565b600080604083850312156117a2578182fd5b6117ab836115ad565b946020939093013593505050565b600080600080604085870312156117ce578384fd5b843567ffffffffffffffff808211156117e5578586fd5b6117f1888389016115c9565b90965094506020870135915080821115611809578384fd5b50611816878288016115c9565b95989497509550505050565b6000602080835283518082850152825b8181101561184e57858101830151858201604001528201611832565b8181111561185f5783604083870101525b50601f01601f1916929092016040019392505050565b60008219821115611888576118886118dd565b500190565b600181811c908216806118a157607f821691505b6020821081141561113157634e487b7160e01b600052602260045260246000fd5b60006000198214156118d6576118d66118dd565b5060010190565b634e487b7160e01b600052601160045260246000fdfea164736f6c6343000804000a",
  "linkReferences": {},
  "deployedLinkReferences": {}
}