{
  "address": "0x106DDc97Ebe4E58A2221CF703E382B2E343306Dd",
  "abi": [
    {
      "inputs": [
        {
          "internalType": "address",
          "name": "_rewardMaster",
          "type": "address"
        },
        {
          "internalType": "address",
          "name": "_actionMsgReceiver",
          "type": "address"
        },
        {
          "internalType": "address",
          "name": "_fxRoot",
          "type": "address"
        }
      ],
      "stateMutability": "nonpayable",
      "type": "constructor"
    },
    {
      "anonymous": false,
      "inputs": [
        {
          "indexed": false,
          "internalType": "uint256",
          "name": "_nonce",
          "type": "uint256"
        },
        {
          "indexed": false,
          "internalType": "bytes",
          "name": "data",
          "type": "bytes"
        }
      ],
      "name": "StakeMsgBridged",
      "type": "event"
    },
    {
      "inputs": [],
      "name": "ACTION_MSG_RECEIVER",
      "outputs": [
        {
          "internalType": "address",
          "name": "",
          "type": "address"
        }
      ],
      "stateMutability": "view",
      "type": "function"
    },
    {
      "inputs": [],
      "name": "FX_ROOT",
      "outputs": [
        {
          "internalType": "address",
          "name": "",
          "type": "address"
        }
      ],
      "stateMutability": "view",
      "type": "function"
    },
    {
      "inputs": [],
      "name": "REWARD_MASTER",
      "outputs": [
        {
          "internalType": "address",
          "name": "",
          "type": "address"
        }
      ],
      "stateMutability": "view",
      "type": "function"
    },
    {
      "inputs": [
        {
          "internalType": "bytes4",
          "name": "action",
          "type": "bytes4"
        },
        {
          "internalType": "bytes",
          "name": "message",
          "type": "bytes"
        }
      ],
      "name": "getRewardAdvice",
      "outputs": [
        {
          "components": [
            {
              "internalType": "address",
              "name": "createSharesFor",
              "type": "address"
            },
            {
              "internalType": "uint96",
              "name": "sharesToCreate",
              "type": "uint96"
            },
            {
              "internalType": "address",
              "name": "redeemSharesFrom",
              "type": "address"
            },
            {
              "internalType": "uint96",
              "name": "sharesToRedeem",
              "type": "uint96"
            },
            {
              "internalType": "address",
              "name": "sendRewardTo",
              "type": "address"
            }
          ],
          "internalType": "struct IRewardAdviser.Advice",
          "name": "",
          "type": "tuple"
        }
      ],
      "stateMutability": "nonpayable",
      "type": "function"
    },
    {
      "inputs": [],
      "name": "nonce",
      "outputs": [
        {
          "internalType": "uint256",
          "name": "",
          "type": "uint256"
        }
      ],
      "stateMutability": "view",
      "type": "function"
    }
  ],
  "transactionHash": "0x41954c97e6094918b3df90bb6c950e37ef834eac98ccf0de194e8a9efb8a5223",
  "args": [
    "0x5BD43a584c44A1EF163d0E010F262DfE26C85ED2",
    "0xfc4Ee073419aA1198DA9531057EdD6ed4e96c7Cf",
    "0x3d1d3E34f7fB6D26245E6640E1c50710eFFf15bA"
  ],
  "numDeployments": 1,
  "solcInputHash": "b8646c57e41aaeee81758989c8b63d63",
  "bytecode": "0x61012060405234801561001157600080fd5b506040516108333803806108338339810160408190526100309161010d565b6319932b9d60e31b63b8372e5560e01b61004e565b60405180910390fd5b6001600160e01b03199182166080521660a0526001600160a01b0381161580159061008157506001600160a01b03821615155b801561009557506001600160a01b03831615155b6100cb5760405162461bcd60e51b8152602060048201526007602482015266414d533a45303160c81b6044820152606401610045565b6001600160601b0319606091821b811660c05292811b831660e0521b166101005261014f565b80516001600160a01b038116811461010857600080fd5b919050565b600080600060608486031215610121578283fd5b61012a846100f1565b9250610138602085016100f1565b9150610146604085016100f1565b90509250925092565b60805160e01c60e01b60a05160e01c60e01b60c05160601c60e05160601c6101005160601c6106796101ba6000396000818160b5015261034f0152600060dc01526000818160710152610322015260006101f70152600081816101ba01526102bb01526106796000f3fe608060405234801561001057600080fd5b50600436106100675760003560e01c8063576eadd211610050578063576eadd2146100d7578063affed0e0146100fe578063e9cb03241461011557600080fd5b806329c9e0581461006c578063479169c4146100b0575b600080fd5b6100937f000000000000000000000000000000000000000000000000000000000000000081565b6040516001600160a01b0390911681526020015b60405180910390f35b6100937f000000000000000000000000000000000000000000000000000000000000000081565b6100937f000000000000000000000000000000000000000000000000000000000000000081565b61010760005481565b6040519081526020016100a7565b61012861012336600461042a565b61018d565b6040516100a79190600060a0820190506001600160a01b0380845116835260208401516bffffffffffffffffffffffff808216602086015282604087015116604086015280606087015116606086015250508060808501511660808401525092915050565b6040805160a0810182526000808252602082018190529181018290526060810182905260808101919091527f00000000000000000000000000000000000000000000000000000000000000006001600160e01b031916836001600160e01b031916148061022d57507f00000000000000000000000000000000000000000000000000000000000000006001600160e01b031916836001600160e01b031916145b61027d5760405162461bcd60e51b815260206004820152601760248201527f5a52413a20756e737570706f7274656420616374696f6e000000000000000000604482015260640160405180910390fd5b61028783836102b9565b506040805160a08101825260008082526020820181905291810182905260608101829052608081019190915292915050565b7f00000000000000000000000000000000000000000000000000000000000000006001600160e01b031916826001600160e01b031916146102f8575050565b60008054906103088285856103fb565b60405163b472047760e01b81529091506001600160a01b037f0000000000000000000000000000000000000000000000000000000000000000169063b472047790610379907f00000000000000000000000000000000000000000000000000000000000000009085906004016105af565b600060405180830381600087803b15801561039357600080fd5b505af11580156103a7573d6000803e3d6000fd5b505050507f572041cd38e1e969e2595e37f964dff9c8ff6352e81996136313b838c3873d3a82826040516103dc9291906105d9565b60405180910390a16103ed82610627565b62ffffff1660005550505050565b606083838360405160200161041293929190610539565b60405160208183030381529060405290509392505050565b6000806040838503121561043c578182fd5b82357fffffffff000000000000000000000000000000000000000000000000000000008116811461046b578283fd5b9150602083013567ffffffffffffffff80821115610487578283fd5b818501915085601f83011261049a578283fd5b8135818111156104ac576104ac610656565b604051601f8201601f19908116603f011681019083821181831017156104d4576104d4610656565b816040528281528860208487010111156104ec578586fd5b82602086016020830137856020848301015280955050505050509250929050565b600081518084526105258160208601602086016105f7565b601f01601f19169290920160200192915050565b60e884901b7fffffff00000000000000000000000000000000000000000000000000000000001681527fffffffff000000000000000000000000000000000000000000000000000000008316600382015281516000906105a08160078501602087016105f7565b91909101600701949350505050565b6001600160a01b03831681526040602082015260006105d1604083018461050d565b949350505050565b62ffffff831681526040602082015260006105d1604083018461050d565b60005b838110156106125781810151838201526020016105fa565b83811115610621576000848401525b50505050565b600062ffffff8083168181141561064c57634e487b7160e01b83526011600452602483fd5b6001019392505050565b634e487b7160e01b600052604160045260246000fdfea164736f6c6343000804000a",
  "devdoc": {
    "kind": "dev",
    "methods": {
      "constructor": {
        "params": {
          "_actionMsgReceiver": "Address of the AdvancedStakeActionMsgRelayer on Polygon/Mumbai",
          "_fxRoot": "Address of the `FxRoot` (PoS Bridge) contract on mainnet/Goerli",
          "_rewardMaster": "Address of the RewardMaster contract on the mainnet/Goerli"
        }
      },
      "getRewardAdvice(bytes4,bytes)": {
        "details": "It is assumed to be called by the RewardMaster contract. It returns the \"zero\" reward advises, no matter who calls it."
      }
    },
    "stateVariables": {
      "FX_ROOT": {
        "details": "`FxRoot` is the contract of the \"Fx-Portal\" on the mainnet/Goerli."
      }
    },
    "version": 1
  },
  "userdoc": {
    "kind": "user",
    "methods": {
      "ACTION_MSG_RECEIVER()": {
        "notice": "Address on the AdvancedStakeActionMsgRelayer on the Polygon/Mumbai"
      },
      "FX_ROOT()": {
        "notice": "Address of the `FxRoot` contract on the mainnet/Goerli network"
      },
      "REWARD_MASTER()": {
        "notice": "Address of the RewardMaster contract on the mainnet/Goerli"
      },
      "nonce()": {
        "notice": "Message nonce (i.e. sequential number of the next message)"
      }
    },
    "version": 1
  },
  "storageLayout": {
    "storage": [
      {
        "astId": 161,
        "contract": "contracts/AdvancedStakeRewardAdviserAndMsgSender.sol:AdvancedStakeRewardAdviserAndMsgSender",
        "label": "nonce",
        "offset": 0,
        "slot": "0",
        "type": "t_uint256"
      }
    ],
    "types": {
      "t_uint256": {
        "encoding": "inplace",
        "label": "uint256",
        "numberOfBytes": "32"
      }
    }
  }
}