{
  "address": "0x33562a952550b43580f9ffF3e5a7B3bA375190B6",
  "abi": [
    {
      "inputs": [
        {
          "internalType": "address",
          "name": "_owner",
          "type": "address"
        },
        {
          "internalType": "address",
          "name": "rewardMaster",
          "type": "address"
        },
        {
          "internalType": "address",
          "name": "pantherPool",
          "type": "address"
        },
        {
          "internalType": "address",
          "name": "zkpToken",
          "type": "address"
        },
        {
          "internalType": "address",
          "name": "nftToken",
          "type": "address"
        }
      ],
      "stateMutability": "nonpayable",
      "type": "constructor"
    },
    {
      "anonymous": false,
      "inputs": [
        {
          "indexed": true,
          "internalType": "address",
          "name": "staker",
          "type": "address"
        },
        {
          "indexed": false,
          "internalType": "uint256",
          "name": "firstLeafId",
          "type": "uint256"
        },
        {
          "indexed": false,
          "internalType": "uint256",
          "name": "zkp",
          "type": "uint256"
        },
        {
          "indexed": false,
          "internalType": "uint256",
          "name": "nft",
          "type": "uint256"
        }
      ],
      "name": "RewardGenerated",
      "type": "event"
    },
    {
      "anonymous": false,
      "inputs": [
        {
          "components": [
            {
              "internalType": "uint96",
              "name": "zkpRewards",
              "type": "uint96"
            },
            {
              "internalType": "uint24",
              "name": "nftRewards",
              "type": "uint24"
            }
          ],
          "indexed": false,
          "internalType": "struct AdvancedStakeRewardController.Limits",
          "name": "newLimits",
          "type": "tuple"
        }
      ],
      "name": "RewardLimitUpdated",
      "type": "event"
    },
    {
      "anonymous": false,
      "inputs": [
        {
          "components": [
            {
              "internalType": "uint32",
              "name": "startTime",
              "type": "uint32"
            },
            {
              "internalType": "uint32",
              "name": "endTime",
              "type": "uint32"
            },
            {
              "internalType": "uint8",
              "name": "startZkpApy",
              "type": "uint8"
            },
            {
              "internalType": "uint8",
              "name": "endZkpApy",
              "type": "uint8"
            }
          ],
          "indexed": false,
          "internalType": "struct AdvancedStakeRewardController.RewardParams",
          "name": "newRewardParams",
          "type": "tuple"
        }
      ],
      "name": "RewardParamsUpdated",
      "type": "event"
    },
    {
      "inputs": [],
      "name": "OWNER",
      "outputs": [
        {
          "internalType": "address",
          "name": "",
          "type": "address"
        }
      ],
      "stateMutability": "view",
      "type": "function"
    },
    {
      "inputs": [],
      "name": "PANTHER_POOL",
      "outputs": [
        {
          "internalType": "address",
          "name": "",
          "type": "address"
        }
      ],
      "stateMutability": "view",
      "type": "function"
    },
    {
      "inputs": [],
      "name": "REWARD_MASTER",
      "outputs": [
        {
          "internalType": "address",
          "name": "",
          "type": "address"
        }
      ],
      "stateMutability": "view",
      "type": "function"
    },
    {
      "inputs": [],
      "name": "START_BLOCK",
      "outputs": [
        {
          "internalType": "uint256",
          "name": "",
          "type": "uint256"
        }
      ],
      "stateMutability": "view",
      "type": "function"
    },
    {
      "inputs": [
        {
          "internalType": "bytes4",
          "name": "action",
          "type": "bytes4"
        },
        {
          "internalType": "bytes",
          "name": "message",
          "type": "bytes"
        }
      ],
      "name": "getRewardAdvice",
      "outputs": [
        {
          "components": [
            {
              "internalType": "address",
              "name": "createSharesFor",
              "type": "address"
            },
            {
              "internalType": "uint96",
              "name": "sharesToCreate",
              "type": "uint96"
            },
            {
              "internalType": "address",
              "name": "redeemSharesFrom",
              "type": "address"
            },
            {
              "internalType": "uint96",
              "name": "sharesToRedeem",
              "type": "uint96"
            },
            {
              "internalType": "address",
              "name": "sendRewardTo",
              "type": "address"
            }
          ],
          "internalType": "struct IRewardAdviser.Advice",
          "name": "",
          "type": "tuple"
        }
      ],
      "stateMutability": "nonpayable",
      "type": "function"
    },
    {
      "inputs": [
        {
          "internalType": "uint256",
          "name": "time",
          "type": "uint256"
        }
      ],
      "name": "getZkpApyAt",
      "outputs": [
        {
          "internalType": "uint256",
          "name": "",
          "type": "uint256"
        }
      ],
      "stateMutability": "view",
      "type": "function"
    },
    {
      "inputs": [],
      "name": "limits",
      "outputs": [
        {
          "internalType": "uint96",
          "name": "zkpRewards",
          "type": "uint96"
        },
        {
          "internalType": "uint24",
          "name": "nftRewards",
          "type": "uint24"
        }
      ],
      "stateMutability": "view",
      "type": "function"
    },
    {
      "inputs": [
        {
          "internalType": "address",
          "name": "",
          "type": "address"
        },
        {
          "internalType": "address",
          "name": "",
          "type": "address"
        },
        {
          "internalType": "uint256",
          "name": "",
          "type": "uint256"
        },
        {
          "internalType": "bytes",
          "name": "",
          "type": "bytes"
        }
      ],
      "name": "onERC721Received",
      "outputs": [
        {
          "internalType": "bytes4",
          "name": "",
          "type": "bytes4"
        }
      ],
      "stateMutability": "view",
      "type": "function"
    },
    {
      "inputs": [
        {
          "internalType": "address",
          "name": "token",
          "type": "address"
        },
        {
          "internalType": "address",
          "name": "to",
          "type": "address"
        },
        {
          "internalType": "uint256",
          "name": "amount",
          "type": "uint256"
        }
      ],
      "name": "rescueErc20",
      "outputs": [],
      "stateMutability": "nonpayable",
      "type": "function"
    },
    {
      "inputs": [],
      "name": "rewardParams",
      "outputs": [
        {
          "internalType": "uint32",
          "name": "startTime",
          "type": "uint32"
        },
        {
          "internalType": "uint32",
          "name": "endTime",
          "type": "uint32"
        },
        {
          "internalType": "uint8",
          "name": "startZkpApy",
          "type": "uint8"
        },
        {
          "internalType": "uint8",
          "name": "endZkpApy",
          "type": "uint8"
        }
      ],
      "stateMutability": "view",
      "type": "function"
    },
    {
      "inputs": [
        {
          "internalType": "uint256",
          "name": "_desiredNftRewardsLimit",
          "type": "uint256"
        }
      ],
      "name": "setNftRewardLimit",
      "outputs": [],
      "stateMutability": "nonpayable",
      "type": "function"
    },
    {
      "inputs": [],
      "name": "totals",
      "outputs": [
        {
          "internalType": "uint96",
          "name": "zkpRewards",
          "type": "uint96"
        },
        {
          "internalType": "uint24",
          "name": "nftRewards",
          "type": "uint24"
        },
        {
          "internalType": "uint40",
          "name": "scZkpStaked",
          "type": "uint40"
        }
      ],
      "stateMutability": "view",
      "type": "function"
    },
    {
      "inputs": [
        {
          "components": [
            {
              "internalType": "uint32",
              "name": "startTime",
              "type": "uint32"
            },
            {
              "internalType": "uint32",
              "name": "endTime",
              "type": "uint32"
            },
            {
              "internalType": "uint8",
              "name": "startZkpApy",
              "type": "uint8"
            },
            {
              "internalType": "uint8",
              "name": "endZkpApy",
              "type": "uint8"
            }
          ],
          "internalType": "struct AdvancedStakeRewardController.RewardParams",
          "name": "_newParams",
          "type": "tuple"
        }
      ],
      "name": "updateRewardParams",
      "outputs": [],
      "stateMutability": "nonpayable",
      "type": "function"
    },
    {
      "inputs": [],
      "name": "updateZkpRewardsLimit",
      "outputs": [],
      "stateMutability": "nonpayable",
      "type": "function"
    }
  ],
  "transactionHash": "0x6d6c2bc839e06671ac9692ee20775146a208b9093cf423f0fc086218056c5ffe",
  "args": [
    "0xf0886ac6B2E9A2A75C9537EAF1A3aa8398FB10e8",
    "0x09220DD0c342Ee92C333FAa6879984D63B4dff03",
    "0x9a423671e9Cde99Ae88853B701f98ca9e136877B",
    "0x9A06Db14D639796B25A6ceC6A1bf614fd98815EC",
    "0xE5da4955cBC480Eb9Bf9534def229F9D8339eE6d"
  ],
  "numDeployments": 1,
  "solcInputHash": "49300367bcb47864d5852738a8da403e",
  "bytecode": "0x6101406040523480156200001257600080fd5b50604051620027f1380380620027f183398101604081905262000035916200014c565b846001600160a01b038116620000925760405162461bcd60e51b815260206004820152601a60248201527f496d6d4f776e3a207a65726f206f776e6572206164647265737300000000000060448201526064015b60405180910390fd5b6001600160a01b03908116608052841615801590620000b957506001600160a01b03831615155b8015620000ce57506001600160a01b03821615155b620001055760405162461bcd60e51b81526020600482015260066024820152654152433a453160d01b604482015260640162000089565b6001600160a01b0393841660a05291831660c052821660e0521661010052504361012052620001bc565b80516001600160a01b03811681146200014757600080fd5b919050565b600080600080600060a086880312156200016557600080fd5b62000170866200012f565b945062000180602087016200012f565b935062000190604087016200012f565b9250620001a0606087016200012f565b9150620001b0608087016200012f565b90509295509295909350565b60805160a05160c05160e05161010051610120516125846200026d60003960006101790152600081816103c0015281816107d101528181610ef3015281816111b7015261132b01526000818161051c01528181610e0f01528181610e7201526112ee01526000818161027d015281816106080152818161088501526113a80152600081816101ae0152610c4c01526000818160f4015281816104a40152818161075901526109e701526125846000f3fe608060405234801561001057600080fd5b50600436106100ea5760003560e01c80638f3e52de1161008c578063bfa6946011610066578063bfa69460146102ba578063c038a38e146102cd578063e9cb03241461032d578063f3d17c69146103a057600080fd5b80638f3e52de14610278578063a1759a8c1461029f578063b4f708f7146102a757600080fd5b806339b3e826116100c857806339b3e82614610174578063576eadd2146101a957806376346914146101d0578063860aefcf1461023457600080fd5b8063117803e3146100ef578063150b7a0214610133578063243feb991461015f575b600080fd5b6101167f000000000000000000000000000000000000000000000000000000000000000081565b6040516001600160a01b0390911681526020015b60405180910390f35b610146610141366004612121565b6103b3565b6040516001600160e01b0319909116815260200161012a565b61017261016d36600461218d565b610400565b005b61019b7f000000000000000000000000000000000000000000000000000000000000000081565b60405190815260200161012a565b6101167f000000000000000000000000000000000000000000000000000000000000000081565b6003546102039063ffffffff8082169164010000000081049091169060ff600160401b8204811691600160481b90041684565b6040805163ffffffff958616815294909316602085015260ff9182169284019290925216606082015260800161012a565b600154610255906001600160601b03811690600160601b900462ffffff1682565b604080516001600160601b03909316835262ffffff90911660208301520161012a565b6101167f000000000000000000000000000000000000000000000000000000000000000081565b6101726105c6565b6101726102b53660046121ce565b610757565b6101726102c8366004612211565b6109e5565b6002546102fd906001600160601b03811690600160601b810462ffffff1690600160781b900464ffffffffff1683565b604080516001600160601b03909416845262ffffff909216602084015264ffffffffff169082015260600161012a565b61034061033b36600461228e565b610c16565b60405161012a9190600060a0820190506001600160a01b0380845116835260208401516001600160601b03808216602086015282604087015116604086015280606087015116606086015250508060808501511660808401525092915050565b61019b6103ae3660046121ce565b610d72565b6000336001600160a01b037f000000000000000000000000000000000000000000000000000000000000000016146103ec5760006103f5565b630a85bd0160e11b5b90505b949350505050565b6002600054036104575760405162461bcd60e51b815260206004820152601a60248201527f636c61696d45726332303a207265656e7472616e742063616c6c00000000000060448201526064015b60405180910390fd5b60026000556040805160808101825260035463ffffffff8082168352640100000000820416602083015260ff600160401b8204811693830193909352600160481b900490911660608201527f00000000000000000000000000000000000000000000000000000000000000006001600160a01b0316331461051a5760405162461bcd60e51b815260206004820152601160248201527f4152433a20756e617574686f72697a6564000000000000000000000000000000604482015260640161044e565b7f00000000000000000000000000000000000000000000000000000000000000006001600160a01b0316846001600160a01b03161415806105645750806020015163ffffffff1642115b6105b05760405162461bcd60e51b815260206004820152601960248201527f4152433a20746f6f206561726c79207769746864726177616c00000000000000604482015260640161044e565b6105bb848484610df4565b505060016000555050565b6040805180820182526001546001600160601b0381168252600160601b900462ffffff16602080830191909152825163411557d160e01b8152925191926000927f00000000000000000000000000000000000000000000000000000000000000006001600160a01b03169263411557d192600480820193918290030181865afa158015610657573d6000803e3d6000fd5b505050506040513d601f19601f8201168201806040525081019061067b91906122eb565b604080516060810182526002546001600160601b0381168252600160601b810462ffffff166020830152600160781b900464ffffffffff16918101919091529091506000906106cc90849084610dff565b9050801561075257825160018054602080870180516001600160601b039095166effffffffffffffffffffffffffffff199093168317600160601b62ffffff9687160217909355604080519283529251909316928101929092527f0b50da2ab337665ba56e9cc037d805d65f41d15953d735381441003a1a0d500a910160405180910390a15b505050565b7f00000000000000000000000000000000000000000000000000000000000000006001600160a01b031633146107cf5760405162461bcd60e51b815260206004820152601460248201527f496d6d4f776e3a20756e617574686f72697a6564000000000000000000000000604482015260640161044e565b7f00000000000000000000000000000000000000000000000000000000000000006001600160a01b0316156109e257604080518082019091526001546001600160601b038116825262ffffff600160601b9182900481166020840152600254919091041682116108815760405162461bcd60e51b815260206004820152601a60248201527f4152433a206c6f77206e66742072657761726473206c696d6974000000000000604482015260640161044e565b60007f00000000000000000000000000000000000000000000000000000000000000006001600160a01b031663411557d16040518163ffffffff1660e01b8152600401602060405180830381865afa1580156108e1573d6000803e3d6000fd5b505050506040513d601f19601f8201168201806040525081019061090591906122eb565b604080516060810182526002546001600160601b0381168252600160601b810462ffffff166020830152600160781b900464ffffffffff1691810191909152909150600090610958908590859085610ea3565b905080156109de57825160018054602080870180516001600160601b039095166effffffffffffffffffffffffffffff199093168317600160601b62ffffff9687160217909355604080519283529251909316928101929092527f0b50da2ab337665ba56e9cc037d805d65f41d15953d735381441003a1a0d500a910160405180910390a15b5050505b50565b7f00000000000000000000000000000000000000000000000000000000000000006001600160a01b03163314610a5d5760405162461bcd60e51b815260206004820152601460248201527f496d6d4f776e3a20756e617574686f72697a6564000000000000000000000000604482015260640161044e565b805163ffffffff1615801590610a865750806000015163ffffffff16816020015163ffffffff16115b8015610a9b575042816020015163ffffffff16115b610ae75760405162461bcd60e51b815260206004820152601160248201527f4152433a20696e76616c69642074696d65000000000000000000000000000000604482015260640161044e565b806060015160ff16816040015160ff161015610b455760405162461bcd60e51b815260206004820152601060248201527f4152433a20696e76616c69642041505900000000000000000000000000000000604482015260640161044e565b80516003805460208085018051604080880180516060808b01805163ffffffff9b8c1667ffffffffffffffff19909a168a17640100000000978d16979097029690961769ffff00000000000000001916600160401b60ff9485160269ff000000000000000000191617600160481b9684169690960295909517909855825196875293519097169385019390935294518116918301919091529251909216908201527f1422c9ddb7dd31ce62409d32ff46ef3c14ce83c1f5e080dd9e42b82713587e969060800160405180910390a150565b6040805160a081018252600080825260208201819052918101829052606081018290526080810191909152336001600160a01b037f00000000000000000000000000000000000000000000000000000000000000001614610cb95760405162461bcd60e51b815260206004820152601160248201527f4152433a20756e617574686f72697a6564000000000000000000000000000000604482015260640161044e565b63066cd46360e31b6001600160e01b0319841601610cdf57610cda82610f26565b610d3f565b6001600160e01b0319831663b8372e5560e01b14610d3f5760405162461bcd60e51b815260206004820152601760248201527f4152433a20756e737570706f7274656420616374696f6e000000000000000000604482015260640161044e565b506040805160a0810182526000808252602082018190529181018290526060810182905260808101919091525b92915050565b6040805160808101825260035463ffffffff8082168084526401000000008304909116602084015260ff600160401b8304811694840194909452600160481b9091049092166060820152600091831080610dd55750806020015163ffffffff1683115b15610de35750600092915050565b610ded818461152f565b9392505050565b610752838383611582565b600080610e356001600160a01b037f000000000000000000000000000000000000000000000000000000000000000016306116a6565b90506000610e4c828760000151876000015161180b565b90935090508215610e9a576001600160601b038116808752610e9a906001600160a01b037f0000000000000000000000000000000000000000000000000000000000000000169086906118a7565b50509392505050565b600080610ec386866020015162ffffff16866020015162ffffff1661180b565b90925090508115610f1d5760208501805162ffffff83811690925216158015610f1b57610f1b6001600160a01b037f000000000000000000000000000000000000000000000000000000000000000016856001611927565b505b50949350505050565b6000806000806000610f37866119a8565b965050955095505094509450836001600160601b0316600003610f9c5760405162461bcd60e51b815260206004820181905260248201527f4152433a20756e6578706563746564207a65726f207374616b65416d6f756e74604482015260640161044e565b8263ffffffff168263ffffffff1611610ff75760405162461bcd60e51b815260206004820152601a60248201527f4152433a20756e6578706563746564206c6f636b656454696c6c000000000000604482015260640161044e565b60408051606080820183526002546001600160601b038082168452600160601b80830462ffffff908116602080880191909152600160781b90940464ffffffffff1686880152865180880188526001548085168252929092041681840152855160808101875260035463ffffffff80821683526401000000008204811695830195909552600160401b810460ff90811698830198909852600160481b90049096169386019390935260009485948594909390926110be91908c16908a8116908c1684611b35565b9550851561114a5782516000906110df9088906001600160601b031661231e565b90508083600001516001600160601b0316101561113e5760405162461bcd60e51b815260206004820152601f60248201527f4152433a20746f6f206c657373207265776172647320617661696c61626c6500604482015260640161044e565b6001600160601b031683525b600061116666038d7ea4c680006001600160601b038d16612347565b846040015164ffffffffff1661117c919061231e565b64ffffffffff166040850152506020808301519084015162ffffff9182169116101561124e5760405163d17c93bf60e01b81523060048201527f00000000000000000000000000000000000000000000000000000000000000006001600160a01b03169063d17c93bf906024016020604051808303816000875af1158015611208573d6000803e3d6000fd5b505050506040513d601f19601f8201168201806040525081019061122c919061235b565b9350600194506001836020018181516112459190612374565b62ffffff169052505b5050805160028054602084015160409094015164ffffffffff16600160781b027fffffffffffffffffffffffff0000000000ffffffffffffffffffffffffffffff62ffffff909516600160601b026effffffffffffffffffffffffffffff199092166001600160601b039094169390931717929092161790556000806112d386611c0b565b915091506000604051806060016040528087600014611312577f0000000000000000000000000000000000000000000000000000000000000000611315565b60005b6001600160a01b03168152602001861561134f577f0000000000000000000000000000000000000000000000000000000000000000611352565b60005b6001600160a01b031681526000602091820181905260408051606080820183528382528185018a9052818301849052825190810183528b81529384018a90529083018290529293506113a2611e6c565b905060007f00000000000000000000000000000000000000000000000000000000000000006001600160a01b031663d6c6be0b86868660405180606001604052808d6000600281106113f6576113f6612390565b602002015181526020018d60016002811061141357611413612390565b602002015181526020018d60016002811061143057611430612390565b60209081029190910151909152604080516060810182528e5181528e8301805193820193909352915182820152516001600160e01b031960e088901b1681526114829594939291908a9060040161241b565b6020604051808303816000875af11580156114a1573d6000803e3d6000fd5b505050506040513d601f19601f820116820180604052508101906114c5919061235b565b90508e6001600160a01b03167f6390fe4035d9526b215a5fffd9c45ebdd9833557acffe1b44ea0274e39669f2f828c8c604051611515939291909283526020830191909152604082015260600190565b60405180910390a250505050505050505050505050505050565b6060820151604083015160ff8082169290910316801561157b578351602085015163ffffffff808316860392909103166000818484028161157257611572612331565b04909403935050505b5092915050565b82803b806115d25760405162461bcd60e51b815260206004820152601d60248201527f5472616e7366657248656c7065723a207a65726f20636f646573697a65000000604482015260640161044e565b6040516001600160a01b03858116602483015260448201859052600091829188169063a9059cbb906064015b6040516020818303038152906040529060e01b6020820180517bffffffffffffffffffffffffffffffffffffffffffffffffffffffff838183161783525050505060405161164c91906124c7565b6000604051808303816000865af19150503d8060008114611689576040519150601f19603f3d011682016040523d82523d6000602084013e61168e565b606091505b509150915061169d8282611e7c565b50505050505050565b6000806000846001600160a01b03166370a08231856040516024016116da91906001600160a01b0391909116815260200190565b6040516020818303038152906040529060e01b6020820180517bffffffffffffffffffffffffffffffffffffffffffffffffffffffff838183161783525050505060405161172891906124c7565b6000604051808303816000865af19150503d8060008114611765576040519150601f19603f3d011682016040523d82523d6000602084013e61176a565b606091505b509150915081801561177c5750805115155b6117ee5760405162461bcd60e51b815260206004820152602660248201527f5472616e7366657248656c7065723a2062616c616e63654f66662063616c6c2060448201527f6661696c65640000000000000000000000000000000000000000000000000000606482015260840161044e565b80806020019051810190611802919061235b565b95945050505050565b600080806118256001600160601b038086169087166124f6565b905080860361183b57600085925092505061189f565b60019250808611156118665780860361185e6001600160601b0387168201611f17565b92505061189d565b6000611873878303611f17565b9050806001600160601b0316866001600160601b031611611895576000611899565b8086035b9250505b505b935093915050565b82803b806118f75760405162461bcd60e51b815260206004820152601d60248201527f5472616e7366657248656c7065723a207a65726f20636f646573697a65000000604482015260640161044e565b6040516001600160a01b03858116602483015260448201859052600091829188169063095ea7b3906064016115fe565b82803b806119775760405162461bcd60e51b815260206004820152601d60248201527f5472616e7366657248656c7065723a207a65726f20636f646573697a65000000604482015260640161044e565b6040516001600160a01b0385811660248301528415156044830152600091829188169063a22cb465906064016115fe565b6000806000806000806060603088511015611a055760405162461bcd60e51b815260206004820152601a60248201527f534d503a20756e6578706563746564206d7367206c656e677468000000000000604482015260640161044e565b602088015160408901518951606083901c99506001600160601b038316985060e082901c975063ffffffff60c083901c8116975060a083901c81169650608083901c169450600090611a59906030906124f6565b90508067ffffffffffffffff811115611a7457611a7461207e565b6040519080825280601f01601f191660200182016040528015611a9e576020820181803683370190505b50935060005b81811015611b26578b611ab882603061231e565b81518110611ac857611ac8612390565b602001015160f81c60f81b858281518110611ae557611ae5612390565b60200101907effffffffffffffffffffffffffffffffffffffffffffffffffffffffffffff1916908160001a90535080611b1e81612509565b915050611aa4565b50505050919395979092949650565b6000816020015163ffffffff168310611b50575060006103f8565b815163ffffffff168411611b66575060006103f8565b600083836000015163ffffffff1611611b7f5783611b88565b825163ffffffff165b90506000836020015163ffffffff168611611ba35785611baf565b836020015163ffffffff165b90506000611bbd83836124f6565b90506000611bcb868561152f565b905063bbf81e0082611bdd838c612522565b611be79190612522565b611bf19190612347565b662386f26fc1000090819004029998505050505050505050565b611c13611fc6565b611c1b611fff565b611c2660028061231e565b611c31906002612522565b611c3c906020612522565b835114611c8b5760405162461bcd60e51b815260206004820152601a60248201527f534d503a20756e6578706563746564206d7367206c656e677468000000000000604482015260640161044e565b611c9361202c565b60015b6020611ca360028061231e565b611cae906002612522565b611cb9906020612522565b611cc39190612541565b6001166020611cd360028061231e565b611cde906002612522565b611ce9906020612522565b611cf39190612347565b611cfd919061231e565b8111611d1f57602081028581015190830152611d1881612509565b9050611c96565b5060005b6002811015611e655781611d38600283612522565b611d4390600161231e565b60098110611d5357611d53612390565b6020020151848260028110611d6a57611d6a612390565b60200201515281611d7c600283612522565b611d8790600261231e565b60098110611d9757611d97612390565b6020020151848260028110611dae57611dae612390565b6020020151602001818152505060005b6002811015611e52578281611dd4846002612522565b611ddf600280612522565b611de9919061231e565b611df3919061231e565b611dfe90600161231e565b60098110611e0e57611e0e612390565b6020020151848360028110611e2557611e25612390565b60200201518260028110611e3b57611e3b612390565b602002015280611e4a81612509565b915050611dbe565b5080611e5d81612509565b915050611d23565b5050915091565b6000611e7742611f70565b905090565b818015611ea1575080511580611ea1575080806020019051810190611ea19190612555565b611f135760405162461bcd60e51b815260206004820152602a60248201527f5472616e7366657248656c7065723a20746f6b656e20636f6e7472616374206360448201527f616c6c206661696c656400000000000000000000000000000000000000000000606482015260840161044e565b5050565b6000600160601b8210611f6c5760405162461bcd60e51b815260206004820152600860248201527f554e534146453936000000000000000000000000000000000000000000000000604482015260640161044e565b5090565b60006401000000008210611f6c5760405162461bcd60e51b815260206004820152600860248201527f554e534146453332000000000000000000000000000000000000000000000000604482015260640161044e565b60405180604001604052806002905b6040805180820190915260008082526020820152815260200190600190039081611fd55790505090565b60405180604001604052806002905b61201661204b565b81526020019060019003908161200e5790505090565b6040518061012001604052806009906020820280368337509192915050565b60405180604001604052806002906020820280368337509192915050565b6001600160a01b03811681146109e257600080fd5b634e487b7160e01b600052604160045260246000fd5b600082601f8301126120a557600080fd5b813567ffffffffffffffff808211156120c0576120c061207e565b604051601f8301601f19908116603f011681019082821181831017156120e8576120e861207e565b8160405283815286602085880101111561210157600080fd5b836020870160208301376000602085830101528094505050505092915050565b6000806000806080858703121561213757600080fd5b843561214281612069565b9350602085013561215281612069565b925060408501359150606085013567ffffffffffffffff81111561217557600080fd5b61218187828801612094565b91505092959194509250565b6000806000606084860312156121a257600080fd5b83356121ad81612069565b925060208401356121bd81612069565b929592945050506040919091013590565b6000602082840312156121e057600080fd5b5035919050565b803563ffffffff811681146121fb57600080fd5b919050565b803560ff811681146121fb57600080fd5b60006080828403121561222357600080fd5b6040516080810181811067ffffffffffffffff821117156122465761224661207e565b604052612252836121e7565b8152612260602084016121e7565b602082015261227160408401612200565b604082015261228260608401612200565b60608201529392505050565b600080604083850312156122a157600080fd5b82356001600160e01b0319811681146122b957600080fd5b9150602083013567ffffffffffffffff8111156122d557600080fd5b6122e185828601612094565b9150509250929050565b6000602082840312156122fd57600080fd5b8151610ded81612069565b634e487b7160e01b600052601160045260246000fd5b80820180821115610d6c57610d6c612308565b634e487b7160e01b600052601260045260246000fd5b60008261235657612356612331565b500490565b60006020828403121561236d57600080fd5b5051919050565b62ffffff81811683821601908082111561157b5761157b612308565b634e487b7160e01b600052603260045260246000fd5b8060005b60038110156109de5781518452602093840193909101906001016123aa565b806000805b600381101561241457825185835b60028110156123fb5782518252602092830192909101906001016123dc565b50505060409490940193602092909201916001016123ce565b5050505050565b6102c08101818860005b600381101561244d5781516001600160a01b0316835260209283019290910190600101612425565b50505061245d60608301886123a6565b61246a60c08301876123a6565b61012082018560005b600381101561249e578151805184526020908101518185015260409093019290910190600101612473565b5050506124af6101e08301856123c9565b63ffffffff83166102a0830152979650505050505050565b6000825160005b818110156124e857602081860181015185830152016124ce565b506000920191825250919050565b81810381811115610d6c57610d6c612308565b60006001820161251b5761251b612308565b5060010190565b600081600019048311821515161561253c5761253c612308565b500290565b60008261255057612550612331565b500690565b60006020828403121561256757600080fd5b81518015158114610ded57600080fdfea164736f6c6343000810000a",
  "devdoc": {
    "details": "This contract is supposed to run on the Polygon. Unless otherwise mentioned, other smart contracts are supposed to run on the Polygon also. As the \"Reward Adviser\" on the \"advanced\" stakes, every time a new stake is being created, it receives the `getRewardAdvice` call from the `RewardMaster` contract with the `STAKE` action type and the stake data (the `message`) being the call parameters. On the `getRewardAdvice` call received, this contract: - computes the amounts of the $ZKP reward and the optional NFT reward - if the `NFT_TOKEN` is non-zero address, it calls `grantOneToken` on the NFT_TOKEN, and gets the `tokenId` of the minted NFT token - calls `generateDeposits` of the PantherPoolV0, providing amounts/parameters of $ZKP, and   optional NFT as \"deposits\", as well as \"spending pubKeys\" and \"secrets\" (explained below) - returns the \"zero reward advice\" (with zero `sharesToCreate`) to the RewardMaster. On the \"zero\" advice, the RewardMaster skips creating \"treasure shares\" for the staker. This way rewarding gets orchestrated by this contract rather than the RewardMaster. Being called `generateDeposits`, the PantherPoolV0: - requests the `Vault` to take (`transferFrom`) the $ZKP and NFT tokens from this contract - generates \"UTXOs\" with the \"spending pubKeys\" and \"secrets\" provided (see bellow). Creating a new stake (i.e. calling the `stake`), the staker generates and provides the \"pubKeys\" and \"secrets\" to the Staking. Both the Staking on the mainnet and the Staking on the Polygon encodes them into the STAKE message and passes to the RewardMaster, which passes the message to this contract with the `getRewardAdvice` call. So this contracts get pubKeys and secrets needed for the `generateDeposits`. For stakes on the Polygon, when all contracts (i.e. Staking, RewardMaster and this contract) run on the same network, the RewardMaster on the Polygon calls this contract directly. For stakes made on the mainnet, where the Staking and the RewardMaster run, but this contract is on the Polygon, the RewardMaster on the mainnet sends the STAKE message to the RewardMaster on the Polygon via the PoS bridge and mediator contracts. The RewardMaster on the Polygon handles a bridged STAKE message (calling the `getRewardAdvice`) as if the message had been sent by the Staking on the Polygon. As a prerequisite: - this contract shall: -- be authorized as the \"RewardAdviser\" with the RewardMaster on the Polygon for advanced stakes -- be authorized as \"Minter\" (aka \"grantor\") with the NFT_TOKEN contract -- hold enough $ZKP to reward stakers - the Vault contract shall be approved to transfer $ZKPs and the NFT tokens from this contract - the $ZKP and the NFT tokens shall be registered as zAssets on the PantherPoolV0.",
    "events": {
      "RewardGenerated(address,uint256,uint256,uint256)": {
        "details": "Emitted when the reward for a stake is generated"
      },
      "RewardLimitUpdated((uint96,uint24))": {
        "details": "Emitted when new amounts are allocated to reward stakers"
      },
      "RewardParamsUpdated((uint32,uint32,uint8,uint8))": {
        "details": "Emitted when rewarding params updated"
      }
    },
    "kind": "dev",
    "methods": {
      "getRewardAdvice(bytes4,bytes)": {
        "details": "To be called by the {RewardMaster} contract on \"advanced\" `STAKE` and `UNSTAKE` actions. The caller is trusted to never call w/ the STAKE acton: - twice for the same stake - after the rewarded period has ended"
      },
      "rescueErc20(address,address,uint256)": {
        "details": "May be only called by the {OWNER}"
      },
      "setNftRewardLimit(uint256)": {
        "details": "Only owner may call it."
      },
      "updateZkpRewardsLimit()": {
        "details": "Anyone may call it."
      }
    },
    "title": "AdvancedStakeRewardController",
    "version": 1
  },
  "userdoc": {
    "kind": "user",
    "methods": {
      "OWNER()": {
        "notice": "The owner who has privileged rights"
      },
      "PANTHER_POOL()": {
        "notice": "PantherPoolV0 contract instance"
      },
      "REWARD_MASTER()": {
        "notice": "RewardMaster contract instance"
      },
      "START_BLOCK()": {
        "notice": "Block when this contract is deployed"
      },
      "getZkpApyAt(uint256)": {
        "notice": "Return the APY for the $ZKP reward at a given time"
      },
      "limits()": {
        "notice": "Amounts of $ZKP and NFT allocated for rewards"
      },
      "rescueErc20(address,address,uint256)": {
        "notice": "Withdraws unclaimed rewards or accidentally sent token from this contract"
      },
      "rewardParams()": {
        "notice": "Reward parameters (start and end point for time and APY)"
      },
      "setNftRewardLimit(uint256)": {
        "notice": "Allocate NFT rewards and approve the Vault to transfer them"
      },
      "totals()": {
        "notice": "Total amounts of $ZKP and NFT rewarded so far"
      },
      "updateZkpRewardsLimit()": {
        "notice": "Allocate for rewards the entire $ZKP balance this contract has and approve the Vault to transfer $ZKP from this contract."
      }
    },
    "notice": "It generates UTXOs in the MASP as rewards to stakers for the \"Advanced Staking\"",
    "version": 1
  },
  "storageLayout": {
    "storage": [
      {
        "astId": 3560,
        "contract": "contracts/staking/AdvancedStakeRewardController.sol:AdvancedStakeRewardController",
        "label": "_reentrancyStatus",
        "offset": 0,
        "slot": "0",
        "type": "t_uint256"
      },
      {
        "astId": 10118,
        "contract": "contracts/staking/AdvancedStakeRewardController.sol:AdvancedStakeRewardController",
        "label": "limits",
        "offset": 0,
        "slot": "1",
        "type": "t_struct(Limits)10076_storage"
      },
      {
        "astId": 10122,
        "contract": "contracts/staking/AdvancedStakeRewardController.sol:AdvancedStakeRewardController",
        "label": "totals",
        "offset": 0,
        "slot": "2",
        "type": "t_struct(Totals)10071_storage"
      },
      {
        "astId": 10126,
        "contract": "contracts/staking/AdvancedStakeRewardController.sol:AdvancedStakeRewardController",
        "label": "rewardParams",
        "offset": 0,
        "slot": "3",
        "type": "t_struct(RewardParams)10089_storage"
      }
    ],
    "types": {
      "t_struct(Limits)10076_storage": {
        "encoding": "inplace",
        "label": "struct AdvancedStakeRewardController.Limits",
        "members": [
          {
            "astId": 10073,
            "contract": "contracts/staking/AdvancedStakeRewardController.sol:AdvancedStakeRewardController",
            "label": "zkpRewards",
            "offset": 0,
            "slot": "0",
            "type": "t_uint96"
          },
          {
            "astId": 10075,
            "contract": "contracts/staking/AdvancedStakeRewardController.sol:AdvancedStakeRewardController",
            "label": "nftRewards",
            "offset": 12,
            "slot": "0",
            "type": "t_uint24"
          }
        ],
        "numberOfBytes": "32"
      },
      "t_struct(RewardParams)10089_storage": {
        "encoding": "inplace",
        "label": "struct AdvancedStakeRewardController.RewardParams",
        "members": [
          {
            "astId": 10079,
            "contract": "contracts/staking/AdvancedStakeRewardController.sol:AdvancedStakeRewardController",
            "label": "startTime",
            "offset": 0,
            "slot": "0",
            "type": "t_uint32"
          },
          {
            "astId": 10082,
            "contract": "contracts/staking/AdvancedStakeRewardController.sol:AdvancedStakeRewardController",
            "label": "endTime",
            "offset": 4,
            "slot": "0",
            "type": "t_uint32"
          },
          {
            "astId": 10085,
            "contract": "contracts/staking/AdvancedStakeRewardController.sol:AdvancedStakeRewardController",
            "label": "startZkpApy",
            "offset": 8,
            "slot": "0",
            "type": "t_uint8"
          },
          {
            "astId": 10088,
            "contract": "contracts/staking/AdvancedStakeRewardController.sol:AdvancedStakeRewardController",
            "label": "endZkpApy",
            "offset": 9,
            "slot": "0",
            "type": "t_uint8"
          }
        ],
        "numberOfBytes": "32"
      },
      "t_struct(Totals)10071_storage": {
        "encoding": "inplace",
        "label": "struct AdvancedStakeRewardController.Totals",
        "members": [
          {
            "astId": 10066,
            "contract": "contracts/staking/AdvancedStakeRewardController.sol:AdvancedStakeRewardController",
            "label": "zkpRewards",
            "offset": 0,
            "slot": "0",
            "type": "t_uint96"
          },
          {
            "astId": 10068,
            "contract": "contracts/staking/AdvancedStakeRewardController.sol:AdvancedStakeRewardController",
            "label": "nftRewards",
            "offset": 12,
            "slot": "0",
            "type": "t_uint24"
          },
          {
            "astId": 10070,
            "contract": "contracts/staking/AdvancedStakeRewardController.sol:AdvancedStakeRewardController",
            "label": "scZkpStaked",
            "offset": 15,
            "slot": "0",
            "type": "t_uint40"
          }
        ],
        "numberOfBytes": "32"
      },
      "t_uint24": {
        "encoding": "inplace",
        "label": "uint24",
        "numberOfBytes": "3"
      },
      "t_uint256": {
        "encoding": "inplace",
        "label": "uint256",
        "numberOfBytes": "32"
      },
      "t_uint32": {
        "encoding": "inplace",
        "label": "uint32",
        "numberOfBytes": "4"
      },
      "t_uint40": {
        "encoding": "inplace",
        "label": "uint40",
        "numberOfBytes": "5"
      },
      "t_uint8": {
        "encoding": "inplace",
        "label": "uint8",
        "numberOfBytes": "1"
      },
      "t_uint96": {
        "encoding": "inplace",
        "label": "uint96",
        "numberOfBytes": "12"
      }
    }
  }
}