{
  "address": "0xD44bf566E132c6A8E49dD781f606123f9a6866C4",
  "abi": [
    {
      "inputs": [
        {
          "internalType": "address",
          "name": "_owner",
          "type": "address"
        },
        {
          "internalType": "address",
          "name": "assetRegistry",
          "type": "address"
        },
        {
          "internalType": "address",
          "name": "vault",
          "type": "address"
        }
      ],
      "stateMutability": "nonpayable",
      "type": "constructor"
    },
    {
      "anonymous": false,
      "inputs": [
        {
          "indexed": true,
          "internalType": "uint256",
          "name": "treeId",
          "type": "uint256"
        },
        {
          "indexed": false,
          "internalType": "bytes32",
          "name": "root",
          "type": "bytes32"
        }
      ],
      "name": "AnchoredRoot",
      "type": "event"
    },
    {
      "anonymous": false,
      "inputs": [
        {
          "indexed": true,
          "internalType": "uint256",
          "name": "treeId",
          "type": "uint256"
        },
        {
          "indexed": false,
          "internalType": "bytes32",
          "name": "root",
          "type": "bytes32"
        }
      ],
      "name": "CachedRoot",
      "type": "event"
    },
    {
      "anonymous": false,
      "inputs": [
        {
          "indexed": true,
          "internalType": "address",
          "name": "token",
          "type": "address"
        },
        {
          "indexed": false,
          "internalType": "uint256",
          "name": "change",
          "type": "uint256"
        }
      ],
      "name": "Change",
      "type": "event"
    },
    {
      "anonymous": false,
      "inputs": [
        {
          "indexed": false,
          "internalType": "uint256",
          "name": "timestamp",
          "type": "uint256"
        }
      ],
      "name": "ExitCommitment",
      "type": "event"
    },
    {
      "anonymous": false,
      "inputs": [
        {
          "indexed": false,
          "internalType": "uint256",
          "name": "newExitTime",
          "type": "uint256"
        },
        {
          "indexed": false,
          "internalType": "uint256",
          "name": "newExitDelay",
          "type": "uint256"
        }
      ],
      "name": "ExitTimesUpdated",
      "type": "event"
    },
    {
      "anonymous": false,
      "inputs": [
        {
          "indexed": true,
          "internalType": "uint256",
          "name": "leftLeafId",
          "type": "uint256"
        },
        {
          "indexed": false,
          "internalType": "uint256",
          "name": "creationTime",
          "type": "uint256"
        },
        {
          "indexed": false,
          "internalType": "bytes32[3]",
          "name": "commitments",
          "type": "bytes32[3]"
        },
        {
          "indexed": false,
          "internalType": "bytes",
          "name": "utxoData",
          "type": "bytes"
        }
      ],
      "name": "NewCommitments",
      "type": "event"
    },
    {
      "anonymous": false,
      "inputs": [
        {
          "indexed": false,
          "internalType": "bytes32",
          "name": "nullifier",
          "type": "bytes32"
        }
      ],
      "name": "Nullifier",
      "type": "event"
    },
    {
      "inputs": [],
      "name": "ASSET_REGISTRY",
      "outputs": [
        {
          "internalType": "address",
          "name": "",
          "type": "address"
        }
      ],
      "stateMutability": "view",
      "type": "function"
    },
    {
      "inputs": [],
      "name": "OWNER",
      "outputs": [
        {
          "internalType": "address",
          "name": "",
          "type": "address"
        }
      ],
      "stateMutability": "view",
      "type": "function"
    },
    {
      "inputs": [],
      "name": "VAULT",
      "outputs": [
        {
          "internalType": "address",
          "name": "",
          "type": "address"
        }
      ],
      "stateMutability": "view",
      "type": "function"
    },
    {
      "inputs": [
        {
          "internalType": "address",
          "name": "token",
          "type": "address"
        },
        {
          "internalType": "address",
          "name": "to",
          "type": "address"
        },
        {
          "internalType": "uint256",
          "name": "amount",
          "type": "uint256"
        }
      ],
      "name": "claimEthOrErc20",
      "outputs": [],
      "stateMutability": "nonpayable",
      "type": "function"
    },
    {
      "inputs": [
        {
          "internalType": "bytes32",
          "name": "exitCommitment",
          "type": "bytes32"
        }
      ],
      "name": "commitToExit",
      "outputs": [],
      "stateMutability": "nonpayable",
      "type": "function"
    },
    {
      "inputs": [],
      "name": "curRoot",
      "outputs": [
        {
          "internalType": "bytes32",
          "name": "root",
          "type": "bytes32"
        },
        {
          "internalType": "uint256",
          "name": "cacheIndex",
          "type": "uint256"
        }
      ],
      "stateMutability": "view",
      "type": "function"
    },
    {
      "inputs": [],
      "name": "curTree",
      "outputs": [
        {
          "internalType": "uint256",
          "name": "",
          "type": "uint256"
        }
      ],
      "stateMutability": "view",
      "type": "function"
    },
    {
      "inputs": [
        {
          "internalType": "address",
          "name": "token",
          "type": "address"
        },
        {
          "internalType": "uint256",
          "name": "subId",
          "type": "uint256"
        },
        {
          "internalType": "uint64",
          "name": "scaledAmount",
          "type": "uint64"
        },
        {
          "internalType": "uint32",
          "name": "creationTime",
          "type": "uint32"
        },
        {
          "internalType": "uint256",
          "name": "privSpendingKey",
          "type": "uint256"
        },
        {
          "internalType": "uint256",
          "name": "leafId",
          "type": "uint256"
        },
        {
          "internalType": "bytes32[16]",
          "name": "pathElements",
          "type": "bytes32[16]"
        },
        {
          "internalType": "bytes32",
          "name": "merkleRoot",
          "type": "bytes32"
        },
        {
          "internalType": "uint256",
          "name": "cacheIndexHint",
          "type": "uint256"
        }
      ],
      "name": "exit",
      "outputs": [],
      "stateMutability": "nonpayable",
      "type": "function"
    },
    {
      "inputs": [
        {
          "internalType": "bytes32",
          "name": "",
          "type": "bytes32"
        }
      ],
      "name": "exitCommitments",
      "outputs": [
        {
          "internalType": "uint32",
          "name": "",
          "type": "uint32"
        }
      ],
      "stateMutability": "view",
      "type": "function"
    },
    {
      "inputs": [],
      "name": "exitDelay",
      "outputs": [
        {
          "internalType": "uint24",
          "name": "",
          "type": "uint24"
        }
      ],
      "stateMutability": "view",
      "type": "function"
    },
    {
      "inputs": [],
      "name": "exitTime",
      "outputs": [
        {
          "internalType": "uint32",
          "name": "",
          "type": "uint32"
        }
      ],
      "stateMutability": "view",
      "type": "function"
    },
    {
      "inputs": [
        {
          "internalType": "uint256",
          "name": "",
          "type": "uint256"
        }
      ],
      "name": "finalRoots",
      "outputs": [
        {
          "internalType": "bytes32",
          "name": "",
          "type": "bytes32"
        }
      ],
      "stateMutability": "view",
      "type": "function"
    },
    {
      "inputs": [
        {
          "internalType": "address[3]",
          "name": "tokens",
          "type": "address[3]"
        },
        {
          "internalType": "uint256[3]",
          "name": "tokenIds",
          "type": "uint256[3]"
        },
        {
          "internalType": "uint256[3]",
          "name": "amounts",
          "type": "uint256[3]"
        },
        {
          "components": [
            {
              "internalType": "uint256",
              "name": "x",
              "type": "uint256"
            },
            {
              "internalType": "uint256",
              "name": "y",
              "type": "uint256"
            }
          ],
          "internalType": "struct G1Point[3]",
          "name": "pubSpendingKeys",
          "type": "tuple[3]"
        },
        {
          "internalType": "uint256[2][3]",
          "name": "secrets",
          "type": "uint256[2][3]"
        },
        {
          "internalType": "uint32",
          "name": "createdAt",
          "type": "uint32"
        }
      ],
      "name": "generateDeposits",
      "outputs": [
        {
          "internalType": "uint256",
          "name": "leftLeafId",
          "type": "uint256"
        }
      ],
      "stateMutability": "nonpayable",
      "type": "function"
    },
    {
      "inputs": [
        {
          "internalType": "uint256",
          "name": "leafId",
          "type": "uint256"
        }
      ],
      "name": "getLeafIndex",
      "outputs": [
        {
          "internalType": "uint256",
          "name": "",
          "type": "uint256"
        }
      ],
      "stateMutability": "pure",
      "type": "function"
    },
    {
      "inputs": [
        {
          "internalType": "uint256",
          "name": "leafId",
          "type": "uint256"
        }
      ],
      "name": "getTreeId",
      "outputs": [
        {
          "internalType": "uint256",
          "name": "",
          "type": "uint256"
        }
      ],
      "stateMutability": "pure",
      "type": "function"
    },
    {
      "inputs": [
        {
          "internalType": "uint256",
          "name": "treeId",
          "type": "uint256"
        },
        {
          "internalType": "bytes32",
          "name": "root",
          "type": "bytes32"
        },
        {
          "internalType": "uint256",
          "name": "cacheIndexHint",
          "type": "uint256"
        }
      ],
      "name": "isKnownRoot",
      "outputs": [
        {
          "internalType": "bool",
          "name": "",
          "type": "bool"
        }
      ],
      "stateMutability": "view",
      "type": "function"
    },
    {
      "inputs": [
        {
          "internalType": "bytes32",
          "name": "",
          "type": "bytes32"
        }
      ],
      "name": "isSpent",
      "outputs": [
        {
          "internalType": "bool",
          "name": "",
          "type": "bool"
        }
      ],
      "stateMutability": "view",
      "type": "function"
    },
    {
      "inputs": [],
      "name": "leavesNum",
      "outputs": [
        {
          "internalType": "uint256",
          "name": "",
          "type": "uint256"
        }
      ],
      "stateMutability": "view",
      "type": "function"
    },
    {
      "inputs": [
        {
          "internalType": "uint32",
          "name": "newExitTime",
          "type": "uint32"
        },
        {
          "internalType": "uint24",
          "name": "newExitDelay",
          "type": "uint24"
        }
      ],
      "name": "updateExitTimes",
      "outputs": [],
      "stateMutability": "nonpayable",
      "type": "function"
    }
  ],
  "transactionHash": "0xc56acf71e1b1c1cf1c127c90212c631295424a41b6de363ad6f4520d0f87af28",
  "args": [
    "0x208Fb9169BBec5915722e0AfF8B0eeEdaBf8a6f0",
    "0xb658B085144a0BEd098620BB829b676371B9B48c",
    "0x5E7Fda6d9f5024C4ad1c780839987aB8c76486c9"
  ],
  "numDeployments": 1,
  "solcInputHash": "49300367bcb47864d5852738a8da403e",
  "bytecode": "0x60e06040523480156200001157600080fd5b50604051620035b2380380620035b2833981016040819052620000349162000188565b826001600160a01b038116620000915760405162461bcd60e51b815260206004820152601a60248201527f496d6d4f776e3a207a65726f206f776e6572206164647265737300000000000060448201526064015b60405180910390fd5b6001600160a01b0316608052620000ab60016002620001d2565b600314620000e15760405162461bcd60e51b8152602060048201526002602482015261045360f41b604482015260640162000088565b620000ec8262000110565b620000f78162000110565b6001600160a01b0391821660a0521660c05250620001fa565b6001600160a01b038116620001685760405162461bcd60e51b815260206004820152601760248201527f554e45585045435445445f5a45524f5f41444452455353000000000000000000604482015260640162000088565b50565b80516001600160a01b03811681146200018357600080fd5b919050565b6000806000606084860312156200019e57600080fd5b620001a9846200016b565b9250620001b9602085016200016b565b9150620001c9604085016200016b565b90509250925092565b80820180821115620001f457634e487b7160e01b600052601160045260246000fd5b92915050565b60805160a05160c05161335e6200025460003960008181610232015281816107220152611da901526000818161028f0152818161060a0152611c03015260008181610170015281816109e20152610b32015261335e6000f3fe608060405234801561001057600080fd5b50600436106101515760003560e01c8063514ef8dd116100cd578063adb49c1111610081578063c539926611610066578063c539926614610348578063d6c6be0b1461035b578063e5285dcc1461036e57600080fd5b8063adb49c111461030f578063bbc2af201461032257600080fd5b8063867a9abd116100b2578063867a9abd146102cf57806399db86d8146102e25780639e2916f71461030757600080fd5b8063514ef8dd1461028a57806383e24c88146102b157600080fd5b80632838863011610124578063411557d111610109578063411557d11461022d5780634e7f4fad1461025457806350dc0f5c1461027757600080fd5b806328388630146101e2578063407860f81461020d57600080fd5b806307447f8e14610156578063117803e31461016b5780631e6569fc146101af5780631f9eae6d146101cc575b600080fd5b610169610164366004612c90565b610391565b005b6101927f000000000000000000000000000000000000000000000000000000000000000081565b6040516001600160a01b0390911681526020015b60405180910390f35b6101b7610853565b604080519283526020830191909152016101a6565b6101d46108c6565b6040519081526020016101a6565b609b546101f990640100000000900462ffffff1681565b60405162ffffff90911681526020016101a6565b6101d461021b366004612d21565b60036020526000908152604090205481565b6101927f000000000000000000000000000000000000000000000000000000000000000081565b610267610262366004612d3a565b6108d8565b60405190151581526020016101a6565b610169610285366004612d66565b6109e0565b6101927f000000000000000000000000000000000000000000000000000000000000000081565b6101d46102bf366004612d21565b61ffff166001810160021c900390565b6101696102dd366004612da5565b610b30565b609b546102f29063ffffffff1681565b60405163ffffffff90911681526020016101a6565b6101d4610c14565b61016961031d366004612d21565b610c2c565b6102f2610330366004612d21565b609d6020526000908152604090205463ffffffff1681565b6101d4610356366004612d21565b610cfa565b6101d4610369366004612e08565b610d1d565b61026761037c366004612d21565b609c6020526000908152604090205460ff1681565b6002600054036103e85760405162461bcd60e51b815260206004820152601a60248201527f636c61696d45726332303a207265656e7472616e742063616c6c00000000000060448201526064015b60405180910390fd5b6002600055609b5463ffffffff166103fe61114f565b63ffffffff16101580156104195750609b5463ffffffff1615155b6040518060400160405280600681526020017f50503a45333000000000000000000000000000000000000000000000000000008152509061046d5760405162461bcd60e51b81526004016103df9190612ed5565b50610478853361115a565b6000610484868661129c565b6000818152609c6020908152604091829020548251808401909352600583527f50503a4538000000000000000000000000000000000000000000000000000000918301919091529192509060ff16156104f05760405162461bcd60e51b81526004016103df9190612ed5565b506000818152609c602052604090819020805460ff19166001179055517fc474ce3f98e456e64643fb51ee2ed4453604400905cfe41e828c72d2e7f529659061053c9083815260200190565b60405180910390a15061055861055185610cfa565b83836108d8565b6040518060400160405280600681526020017f50503a4531360000000000000000000000000000000000000000000000000000815250906105ac5760405162461bcd60e51b81526004016103df9190612ed5565b506040805160c081018252600080825260208201819052818301819052606082018190526080820181905260a0820181905291516331293c6360e01b81526001600160a01b038c81166004830152602482018c9052919291829182917f000000000000000000000000000000000000000000000000000000000000000016906331293c639060440161012060405180830381865afa158015610652573d6000803e3d6000fd5b505050506040513d601f19601f820116820180604052508101906106769190612f0f565b6040808201518151808301909252600682526550503a45313960d01b6020830152919850929650929350909160ff1660011490506106c75760405162461bcd60e51b81526004016103df9190612ed5565b5060006106d38a6113d9565b90506106ea816000015182602001518e858f611496565b9250505061070d856106fb89611600565b600161ffff8b160160021c848a611628565b50600061071e8a8460800151611a56565b90507f00000000000000000000000000000000000000000000000000000000000000006001600160a01b0316635bd3e6c06040518060a00160405280866060015160ff1681526020018f6001600160a01b03168152602001858152602001336001600160a01b03168152602001846bffffffffffffffffffffffff168152506040518263ffffffff1660e01b815260040161080e9190600060a08201905060ff835116825260208301516001600160a01b0380821660208501526040850151604085015280606086015116606085015250506bffffffffffffffffffffffff608084015116608083015292915050565b600060405180830381600087803b15801561082857600080fd5b505af115801561083c573d6000803e3d6000fd5b505060016000555050505050505050505050505050565b600154600090819061086481611aa3565b1561089457507f20fc043586a9fcb416cdf2a3bc8a995f8f815d43f1046a20d1c588cf20482a5592600092509050565b600061089f82610cfa565b90506108aa82611adc565b6000818152600460205260409020549190911894909350915050565b60006108d3600154610cfa565b905090565b60408051808201909152600581527f54543a453100000000000000000000000000000000000000000000000000000060208201526000908361092d5760405162461bcd60e51b81526004016103df9190612ed5565b50811561094d5750600081815260046020526040902054838318146109d9565b60008481526003602052604090205483900361096b575060016109d9565b6001546101005b6004821015801561098257508015155b156109d2576000190161ffff8216156109725760006109a083611adc565b600081815260046020526040902054909150868818036109c657600193505050506109d9565b60048303925050610972565b5060009150505b9392505050565b7f00000000000000000000000000000000000000000000000000000000000000006001600160a01b03163314610a585760405162461bcd60e51b815260206004820152601460248201527f496d6d4f776e3a20756e617574686f72697a656400000000000000000000000060448201526064016103df565b609b5463ffffffff90811690831610801590610a7e57506401000000008263ffffffff16105b8015610a8e575062ffffff811615155b610abf5760405162461bcd60e51b8152602060048201526002602482015261453160f01b60448201526064016103df565b609b805462ffffff8316640100000000810266ffffffffffffff1990921663ffffffff8616908117929092179092556040517f2369247a5a2affa0d5b33a70c8ff61d5660e1132fe764715b971fdd1fc68d10e92610b24928252602082015260400190565b60405180910390a15050565b7f00000000000000000000000000000000000000000000000000000000000000006001600160a01b03163314610ba85760405162461bcd60e51b815260206004820152601460248201527f496d6d4f776e3a20756e617574686f72697a656400000000000000000000000060448201526064016103df565b600260005403610bfa5760405162461bcd60e51b815260206004820152601a60248201527f636c61696d45726332303a207265656e7472616e742063616c6c00000000000060448201526064016103df565b6002600055610c0a838383611b03565b5050600160005550565b60006108d3600154600281901c600390810291160190565b6000818152609d6020908152604091829020548251808401909352600683527f50503a45333200000000000000000000000000000000000000000000000000009183019190915263ffffffff1615610c975760405162461bcd60e51b81526004016103df9190612ed5565b506000610ca261114f565b6000838152609d6020908152604091829020805463ffffffff191663ffffffff851690811790915591519182529192507f41685940dd65dd5fc11832115bda1957c2ed7b4e2982cfac6c3ba41bd1566a3c9101610b24565b60006002610d0a6001600f613018565b610d14919061302b565b9190911c919050565b6000600260005403610d715760405162461bcd60e51b815260206004820152601a60248201527f636c61696d45726332303a207265656e7472616e742063616c6c00000000000060448201526064016103df565b6002600055609b5460408051808201909152600681527f50503a453331000000000000000000000000000000000000000000000000000060208201529063ffffffff16610dd15760405162461bcd60e51b81526004016103df9190612ed5565b506000610ddc61114f565b905063ffffffff831615610e53578063ffffffff168363ffffffff1611156040518060400160405280600581526020017f50503a453900000000000000000000000000000000000000000000000000000081525090610e4e5760405162461bcd60e51b81526004016103df9190612ed5565b508290505b610e5b612bc7565b610e63612be5565b6000805b610e736001600261302b565b81101561112857600080610ed88e8460038110610e9257610e9261303e565b602002016020810190610ea59190613054565b8e8560038110610eb757610eb761303e565b60200201358e8660038110610ece57610ece61303e565b6020020135611b2b565b9150915082600014610eef5760028460ff16901b93505b8067ffffffffffffffff16600003610fbc5760408051808201909152600681527f50503a4532310000000000000000000000000000000000000000000000000000602082015283610f535760405162461bcd60e51b81526004016103df9190612ed5565b507f0667764c376602b72ef22218e1673c2cc8546201f9a77807570b3e5de137680d868460038110610f8757610f8761303e565b60200201818152505060405180602001604052806000815250858460038110610fb257610fb261303e565b6020020152611113565b610ff88b8460038110610fd157610fd161303e565b60400201358c8560038110610fe857610fe861303e565b604002016020013583858b611496565b86846003811061100a5761100a61303e565b60200201526bffffffffffffffffffffffff19606083901b1667ffffffffffffffff8216178d84600381106110415761104161303e565b6020020135156110a4576001851794508a84600381106110635761106361303e565b6040020181604051602001611079929190613071565b60405160208183030381529060405286856003811061109a5761109a61303e565b6020020152611111565b6002851794508a84600381106110bc576110bc61303e565b60400201818f86600381106110d3576110d361303e565b60200201356040516020016110ea93929190613086565b60405160208183030381529060405286856003811061110b5761110b61303e565b60200201525b505b50508080611120906130a0565b915050610e67565b5061113b8382848763ffffffff16611e13565b60016000559b9a5050505050505050505050565b60006108d342611f8a565b600082826040516020016111819291909182526001600160a01b0316602082015260400190565b60408051601f1981840301815282825280516020918201206000818152609d835283902054848401909352600684527f50503a453334000000000000000000000000000000000000000000000000000091840191909152925063ffffffff1690816111ff5760405162461bcd60e51b81526004016103df9190612ed5565b50609b5460009061122390640100000000900462ffffff1663ffffffff841661302b565b90508042116040518060400160405280600681526020017f50503a45333300000000000000000000000000000000000000000000000000008152509061127c5760405162461bcd60e51b81526004016103df9190612ed5565b5050506000908152609d60205260409020805463ffffffff191690555050565b60006000805160206133328339815191528310604051806040016040528060068152602001650a0a0748a64760d31b815250906112ec5760405162461bcd60e51b81526004016103df9190612ed5565b5060408051808201909152600681527f50503a45323700000000000000000000000000000000000000000000000000006020820152600080516020613332833981519152831061134f5760405162461bcd60e51b81526004016103df9190612ed5565b5060408051808201825284815260208101849052905163014cf2b360e51b815273A944DFafE9bcb0094A471E58206079c43ce0043D9163299e56609161139891906004016130b9565b602060405180830381865af41580156113b5573d6000803e3d6000fd5b505050506040513d601f19601f820116820180604052508101906109d991906130ea565b60408051808201909152600080825260208201526040805180820190915260068152650a0a0748a64760d31b602082015260008051602061333283398151915283106114385760405162461bcd60e51b81526004016103df9190612ed5565b50604080518082019091527f0bb77a6ad63e739b4eacb2e09d6277c12ab8d8010534e0b62893f3f6bb95705181527f25797203f7a0b24925572e1cd16bf9edfce0051fb9e133774b3c257a872d7d8b60208201526109d98184611fe4565b600060008051602061333283398151915286111580156114c457506000805160206133328339815191528511155b6040518060400160405280600581526020017f43473a4531000000000000000000000000000000000000000000000000000000815250906115185760405162461bcd60e51b81526004016103df9190612ed5565b5060408051606081018252878152602080820188905263ffffffff85169086901b77ffffffffffffffffffffffffffffffffffffffff000000001660c088901b7fffffffffffffffff000000000000000000000000000000000000000000000000161717818301529051635a53025d60e01b815273f0FfB73D51d001024F6301a19c8A56488e9d211091635a53025d916115b59190600401613103565b602060405180830381865af41580156115d2573d6000803e3d6000fd5b505050506040513d601f19601f820116820180604052508101906115f691906130ea565b9695505050505050565b600060036116188361ffff166001810160021c900390565b6116229190613141565b92915050565b60408051808201909152600581527f4d503a453300000000000000000000000000000000000000000000000000000060208201526003851061167d5760405162461bcd60e51b81526004016103df9190612ed5565b5060008461174c5773f0FfB73D51d001024F6301a19c8A56488e9d2110635a53025d6040518060600160405280868152602001856000601081106116c3576116c361303e565b60200201358152602001856001601081106116e0576116e061303e565b60200201358152506040518263ffffffff1660e01b81526004016117049190613103565b602060405180830381865af4158015611721573d6000803e3d6000fd5b505050506040513d601f19601f8201168201806040525081019061174591906130ea565b905061187a565b600185036117af5773f0FfB73D51d001024F6301a19c8A56488e9d2110635a53025d60405180606001604052808560006010811061178c5761178c61303e565b60200201358152602001868152602001856001601081106116e0576116e061303e565b6002850361187a5773f0FfB73D51d001024F6301a19c8A56488e9d2110635a53025d6040518060600160405280856000601081106117ef576117ef61303e565b602002013581526020018560016010811061180c5761180c61303e565b60200201358152602001868152506040518263ffffffff1660e01b81526004016118369190613103565b602060405180830381865af4158015611853573d6000803e3d6000fd5b505050506040513d601f19601f8201168201806040525081019061187791906130ea565b90505b60025b60108110156119f857600160011982011b85161580156119405773A944DFafE9bcb0094A471E58206079c43ce0043D63299e566060405180604001604052808681526020018786601081106118d4576118d461303e565b60200201358152506040518263ffffffff1660e01b81526004016118f891906130b9565b602060405180830381865af4158015611915573d6000803e3d6000fd5b505050506040513d601f19601f8201168201806040525081019061193991906130ea565b92506119e5565b73A944DFafE9bcb0094A471E58206079c43ce0043D63299e566060405180604001604052808786601081106119775761197761303e565b60200201358152602001868152506040518263ffffffff1660e01b81526004016119a191906130b9565b602060405180830381865af41580156119be573d6000803e3d6000fd5b505050506040513d601f19601f820116820180604052508101906119e291906130ea565b92505b50806119f0816130a0565b91505061187d565b5060408051808201909152600581527f4d503a45310000000000000000000000000000000000000000000000000000006020820152868214611a4d5760405162461bcd60e51b81526004016103df9190612ed5565b50505050505050565b60008060ff831615611a8457611a6b8361207a565b611a7f9067ffffffffffffffff8616613163565b611a90565b8367ffffffffffffffff165b9050611a9b81612087565b949350505050565b600060016004611ab482600f613018565b611abf906002613266565b611ac99190613163565b611ad39190613018565b90911615919050565b60006001611aed6004610100613163565b611af79190613018565b82166001179050919050565b6001600160a01b038316611b2057611b1b82826120f4565b505050565b611b1b8383836121bd565b60008082600003611bac576001600160a01b038516158015611b4b575083155b6040518060400160405280600681526020017f50503a453239000000000000000000000000000000000000000000000000000081525090611b9f5760405162461bcd60e51b81526004016103df9190612ed5565b5060008091509150611e0b565b6040805160c081018252600080825260208201819052918101829052606081018290526080810182905260a081018290526040516331293c6360e01b81526001600160a01b038881166004830152602482018890527f000000000000000000000000000000000000000000000000000000000000000016906331293c639060440161012060405180830381865afa158015611c4b573d6000803e3d6000fd5b505050506040513d601f19601f82011682018060405250810190611c6f9190612f0f565b6040808201518151808301909252600682526550503a45313960d01b60208301529498509295509350909160ff166001149050611cbf5760405162461bcd60e51b81526004016103df9190612ed5565b506000611cd08683608001516122cf565b90945090508015611d1f57876001600160a01b03167f05b5d46649ab2015d3a08705cbaa391e094d9594c393ce89d3afffe960744da182604051611d1691815260200190565b60405180910390a25b6040805160a0808201835260608581015160ff9081168452918601516001600160a01b0390811660208501908152848601898152339386019384526bffffffffffffffffffffffff8d8116608088019081529751631d106e8960e21b81529651909516600487015290518216602486015251604485015290518116606484015292511660848201527f000000000000000000000000000000000000000000000000000000000000000090911690637441ba249060a401600060405180830381600087803b158015611def57600080fd5b505af1158015611e03573d6000803e3d6000fd5b505050505050505b935093915050565b6040805160f885901b7fff00000000000000000000000000000000000000000000000000000000000000166020820152815160018183030181526021909101909152600090815b611e666001600261302b565b811015611f3957600080516020613332833981519152878260038110611e8e57611e8e61303e565b602002015160001c106040518060400160405280600581526020017f43543a453100000000000000000000000000000000000000000000000000000081525090611eeb5760405162461bcd60e51b81526004016103df9190612ed5565b5081858260038110611eff57611eff61303e565b6020020151604051602001611f15929190613272565b60405160208183030381529060405291508080611f31906130a0565b915050611e5a565b50611f4386612324565b9150817f724bdd8d0d4293d630d4223512262f7f1bd9e7bb88cadfef6de67ff0b0f1d8b4848884604051611f79939291906132a1565b60405180910390a250949350505050565b60006401000000008210611fe05760405162461bcd60e51b815260206004820152600860248201527f554e53414645333200000000000000000000000000000000000000000000000060448201526064016103df565b5090565b60408051808201909152600081526001602082015281835b8115612032578160011660010361201a576120178382612747565b92505b6120248182612747565b9050600182901c9150611ffc565b825161204d9060008051602061333283398151915290613141565b8352602083015161206d9060008051602061333283398151915290613141565b6020840152505092915050565b600061162282600a6132e4565b60006c0100000000000000000000000082106040518060400160405280600681526020017f50503a4531300000000000000000000000000000000000000000000000000000815250906120ed5760405162461bcd60e51b81526004016103df9190612ed5565b5090919050565b604080516000808252602082019092526001600160a01b03841690839060405161211e91906132f3565b60006040518083038185875af1925050503d806000811461215b576040519150601f19603f3d011682016040523d82523d6000602084013e612160565b606091505b5050905080611b1b5760405162461bcd60e51b815260206004820152602360248201527f5472616e7366657248656c7065723a20455448207472616e73666572206661696044820152621b195960ea1b60648201526084016103df565b82803b8061220d5760405162461bcd60e51b815260206004820152601d60248201527f5472616e7366657248656c7065723a207a65726f20636f646573697a6500000060448201526064016103df565b604080516001600160a01b038681166024830152604480830187905283518084039091018152606490920183526020820180517bffffffffffffffffffffffffffffffffffffffffffffffffffffffff1663a9059cbb60e01b179052915160009283929089169161227e91906132f3565b6000604051808303816000865af19150503d80600081146122bb576040519150601f19603f3d011682016040523d82523d6000602084013e6122c0565b606091505b5091509150611a4d82826128f6565b60008060008360ff166000036122ea57506000905083612311565b60006122f58561207a565b90508086816123065761230661312b565b049081028603925090505b61231a81612991565b9250509250929050565b60015461232f612c0c565b7f0667764c376602b72ef22218e1673c2cc8546201f9a77807570b3e5de137680d81527f1be18cd72ac1586de27dd60eba90654bd54383004991951bccb0f6bad02c67f660208201527f07677e6102f0acf343edde864f79ef7652faa5a66d575b8b60bb826a4aa517e660408201527f28a85866ab97bd65cc94b0d1f5c5986481f8a0d65bdd5c1e562659eebb13cf6360608201527f087321a66ea3af7780128ea1995d7fc6ec44a96a1b2d85d3021208cede68c15c60808201527f233b4e488f0aaf5faef4fc8ea4fefeadb6934eb882bc33b9df782fd1d83b41a060a08201527f1a0cefcf0c592da6426717d3718408c61af1d0a9492887f3faecefcba1a0a30960c08201527f2cdf963150b321923dd07b2b52659aceb529516a537dfebe24106881dd97429360e08201527f093a186bf9ec2cc874ceab26409d581579e1a431ecb6987d428777ceedfa15c46101008201527f0cbfc07131ef4197a4b4e60153d43381520ec9ab4c9c3ed34d88883a881a4e076101208201527f17b31de43ba4c687cf950ad00dfbe33df40047e79245b50bd1d9f87e622bf2af6101408201527f2f3328354bceaf5882a8cc88053e0dd0ae594009a4e84e9e75a4fefe8604a6026101608201527f2b2e8defd4dad2404c6874918925fc1192123f45df0ee3e04b6c16ff22ca1cfd6101808201527f1cbdc4065aa4137da01d64a090706267d65f425ea5e815673516d29d9aa14d386101a08201527f13ca69f9fde4ece39e395bb55dd41ed7dd9dfaa26671e26bd9fd6f4f635fc8726101c08201528251602084015160408501516000928392839261258b9291906129f3565b915060026001600461259e82600f613018565b6125a9906002613266565b6125b39190613163565b6125bd9190613018565b8616901c9250600080600192505b600f831015612657576125df600286613141565b60000361261f578391508583600f81106125fb576125fb61303e565b60200201519050836002600085815260200190815260200160002081905550612632565b5050600081815260026020526040902054825b61263c8282612a8e565b60019590951c9493508261264f816130a0565b9350506125cb565b600061266460048961302b565b60018190559050600061267689610cfa565b9050600461ffff8a166201000003116126db57600081815260036020526040908190208790555181907f7cd9c9cf009b511548bb15f2d648fc3ee3e6e880d24f043861b274dca5a55435906126ce9089815260200190565b60405180910390a261273a565b60006126e683611adc565b6000818152600460205260409081902089851890555190915082907f46b4356c55762628b29b60a689ae18c610a9cd9774ca704e7a567aa41bb7cebf90612730908a815260200190565b60405180910390a2505b5050505050505050919050565b60408051808201909152600080825260208201528251600090819015801561277157506020850151155b1561278f576040805180820190915291825260208201529050611622565b83511580156127a057506020850151155b156127be576040805180820190915291825260208201529050611622565b600060008051602061333283398151915285518751099050600060008051602061333283398151915286602001518860200151099050600060008051602061333283398151915280838509620292f8099050600060008051602061333283398151915280895160208c01510960008051602061333283398151915260208b01518c510908905060006128738460008051602061333283398151915287620292fc09600080516020613332833981519152612b1a565b905060008051602061333283398151915261289f60008051602061333283398151915285600108612b55565b830996506000805160206133328339815191526128d46128cf600186600080516020613332833981519152612b1a565b612b55565b8209604080518082019091529788526020880152509498975050505050505050565b81801561291b57508051158061291b57508080602001905181019061291b919061330f565b61298d5760405162461bcd60e51b815260206004820152602a60248201527f5472616e7366657248656c7065723a20746f6b656e20636f6e7472616374206360448201527f616c6c206661696c65640000000000000000000000000000000000000000000060648201526084016103df565b5050565b60006801000000000000000082106040518060400160405280600681526020017f50503a4532360000000000000000000000000000000000000000000000000000815250906120ed5760405162461bcd60e51b81526004016103df9190612ed5565b60006129fd612bc7565b84815260208101849052604080820184905251635a53025d60e01b815273f0FfB73D51d001024F6301a19c8A56488e9d211090635a53025d90612a44908490600401613103565b602060405180830381865af4158015612a61573d6000803e3d6000fd5b505050506040513d601f19601f82011682018060405250810190612a8591906130ea565b95945050505050565b6000612a98612c2b565b8381526020810183905260405163014cf2b360e51b815273A944DFafE9bcb0094A471E58206079c43ce0043D9063299e566090612ad99084906004016130b9565b602060405180830381865af4158015612af6573d6000803e3d6000fd5b505050506040513d601f19601f82011682018060405250810190611a9b91906130ea565b600083838111612b3157612b2e838261302b565b90505b8280612b3f57612b3f61312b565b6000612b4b8684613018565b0895945050505050565b600061162282612b746002600080516020613332833981519152613018565b600080516020613332833981519152600060405160208152602080820152602060408201528460608201528360808201528260a082015260208160c08360055afa80801561015157505051949350505050565b60405180606001604052806003906020820280368337509192915050565b60405180606001604052806003905b6060815260200190600190039081612bf45790505090565b604051806101e00160405280600f906020820280368337509192915050565b60405180604001604052806002906020820280368337509192915050565b6001600160a01b0381168114612c5e57600080fd5b50565b67ffffffffffffffff81168114612c5e57600080fd5b803563ffffffff81168114612c8b57600080fd5b919050565b60008060008060008060008060006103008a8c031215612caf57600080fd5b8935612cba81612c49565b985060208a0135975060408a0135612cd181612c61565b9650612cdf60608b01612c77565b955060808a0135945060a08a013593506102c08a018b811115612d0157600080fd5b60c08b01935080359250506102e08a013590509295985092959850929598565b600060208284031215612d3357600080fd5b5035919050565b600080600060608486031215612d4f57600080fd5b505081359360208301359350604090920135919050565b60008060408385031215612d7957600080fd5b612d8283612c77565b9150602083013562ffffff81168114612d9a57600080fd5b809150509250929050565b600080600060608486031215612dba57600080fd5b8335612dc581612c49565b92506020840135612dd581612c49565b929592945050506040919091013590565b806060810183101561162257600080fd5b8060c0810183101561162257600080fd5b6000806000806000806102c08789031215612e2257600080fd5b612e2c8888612de6565b9550612e3b8860608901612de6565b9450612e4a8860c08901612de6565b9350612e5a886101208901612df7565b9250612e6a886101e08901612df7565b9150612e796102a08801612c77565b90509295509295509295565b60005b83811015612ea0578181015183820152602001612e88565b50506000910152565b60008151808452612ec1816020860160208601612e85565b601f01601f19169290920160200192915050565b6020815260006109d96020830184612ea9565b8051612c8b81612c61565b805160ff81168114612c8b57600080fd5b8051612c8b81612c49565b600080600080848603610120811215612f2757600080fd5b8551612f3281612c49565b602087015160408801519196509450612f4a81612c49565b925060c0605f1982011215612f5e57600080fd5b5060405160c0810181811067ffffffffffffffff82111715612f9057634e487b7160e01b600052604160045260246000fd5b604052612f9f60608701612ee8565b8152612fad60808701612ef3565b6020820152612fbe60a08701612ef3565b6040820152612fcf60c08701612ef3565b6060820152612fe060e08701612ef3565b6080820152612ff26101008701612f04565b60a0820152939692955090935050565b634e487b7160e01b600052601160045260246000fd5b8181038181111561162257611622613002565b8082018082111561162257611622613002565b634e487b7160e01b600052603260045260246000fd5b60006020828403121561306657600080fd5b81356109d981612c49565b60408382376040810191909152606001919050565b604084823760408101929092526060820152608001919050565b6000600182016130b2576130b2613002565b5060010190565b60408101818360005b60028110156130e15781518352602092830192909101906001016130c2565b50505092915050565b6000602082840312156130fc57600080fd5b5051919050565b60608101818360005b60038110156130e157815183526020928301929091019060010161310c565b634e487b7160e01b600052601260045260246000fd5b60008261315e57634e487b7160e01b600052601260045260246000fd5b500690565b600081600019048311821515161561317d5761317d613002565b500290565b600181815b808511156131bd5781600019048211156131a3576131a3613002565b808516156131b057918102915b93841c9390800290613187565b509250929050565b6000826131d457506001611622565b816131e157506000611622565b81600181146131f757600281146132015761321d565b6001915050611622565b60ff84111561321257613212613002565b50506001821b611622565b5060208310610133831016604e8410600b8410161715613240575081810a611622565b61324a8383613182565b806000190482111561325e5761325e613002565b029392505050565b60006109d983836131c5565b60008351613284818460208801612e85565b835190830190613298818360208801612e85565b01949350505050565b838152600060208083018560005b60038110156132cc578151835291830191908301906001016132af565b5050505060a06080830152612a8560a0830184612ea9565b60006109d960ff8416836131c5565b60008251613305818460208701612e85565b9190910192915050565b60006020828403121561332157600080fd5b815180151581146109d957600080fdfe30644e72e131a029b85045b68181585d2833e84879b9709143e1f593f0000001a164736f6c6343000810000a",
  "deployedBytecode": "0x608060405234801561001057600080fd5b50600436106101515760003560e01c8063514ef8dd116100cd578063adb49c1111610081578063c539926611610066578063c539926614610348578063d6c6be0b1461035b578063e5285dcc1461036e57600080fd5b8063adb49c111461030f578063bbc2af201461032257600080fd5b8063867a9abd116100b2578063867a9abd146102cf57806399db86d8146102e25780639e2916f71461030757600080fd5b8063514ef8dd1461028a57806383e24c88146102b157600080fd5b80632838863011610124578063411557d111610109578063411557d11461022d5780634e7f4fad1461025457806350dc0f5c1461027757600080fd5b806328388630146101e2578063407860f81461020d57600080fd5b806307447f8e14610156578063117803e31461016b5780631e6569fc146101af5780631f9eae6d146101cc575b600080fd5b610169610164366004612c90565b610391565b005b6101927f000000000000000000000000000000000000000000000000000000000000000081565b6040516001600160a01b0390911681526020015b60405180910390f35b6101b7610853565b604080519283526020830191909152016101a6565b6101d46108c6565b6040519081526020016101a6565b609b546101f990640100000000900462ffffff1681565b60405162ffffff90911681526020016101a6565b6101d461021b366004612d21565b60036020526000908152604090205481565b6101927f000000000000000000000000000000000000000000000000000000000000000081565b610267610262366004612d3a565b6108d8565b60405190151581526020016101a6565b610169610285366004612d66565b6109e0565b6101927f000000000000000000000000000000000000000000000000000000000000000081565b6101d46102bf366004612d21565b61ffff166001810160021c900390565b6101696102dd366004612da5565b610b30565b609b546102f29063ffffffff1681565b60405163ffffffff90911681526020016101a6565b6101d4610c14565b61016961031d366004612d21565b610c2c565b6102f2610330366004612d21565b609d6020526000908152604090205463ffffffff1681565b6101d4610356366004612d21565b610cfa565b6101d4610369366004612e08565b610d1d565b61026761037c366004612d21565b609c6020526000908152604090205460ff1681565b6002600054036103e85760405162461bcd60e51b815260206004820152601a60248201527f636c61696d45726332303a207265656e7472616e742063616c6c00000000000060448201526064015b60405180910390fd5b6002600055609b5463ffffffff166103fe61114f565b63ffffffff16101580156104195750609b5463ffffffff1615155b6040518060400160405280600681526020017f50503a45333000000000000000000000000000000000000000000000000000008152509061046d5760405162461bcd60e51b81526004016103df9190612ed5565b50610478853361115a565b6000610484868661129c565b6000818152609c6020908152604091829020548251808401909352600583527f50503a4538000000000000000000000000000000000000000000000000000000918301919091529192509060ff16156104f05760405162461bcd60e51b81526004016103df9190612ed5565b506000818152609c602052604090819020805460ff19166001179055517fc474ce3f98e456e64643fb51ee2ed4453604400905cfe41e828c72d2e7f529659061053c9083815260200190565b60405180910390a15061055861055185610cfa565b83836108d8565b6040518060400160405280600681526020017f50503a4531360000000000000000000000000000000000000000000000000000815250906105ac5760405162461bcd60e51b81526004016103df9190612ed5565b506040805160c081018252600080825260208201819052818301819052606082018190526080820181905260a0820181905291516331293c6360e01b81526001600160a01b038c81166004830152602482018c9052919291829182917f000000000000000000000000000000000000000000000000000000000000000016906331293c639060440161012060405180830381865afa158015610652573d6000803e3d6000fd5b505050506040513d601f19601f820116820180604052508101906106769190612f0f565b6040808201518151808301909252600682526550503a45313960d01b6020830152919850929650929350909160ff1660011490506106c75760405162461bcd60e51b81526004016103df9190612ed5565b5060006106d38a6113d9565b90506106ea816000015182602001518e858f611496565b9250505061070d856106fb89611600565b600161ffff8b160160021c848a611628565b50600061071e8a8460800151611a56565b90507f00000000000000000000000000000000000000000000000000000000000000006001600160a01b0316635bd3e6c06040518060a00160405280866060015160ff1681526020018f6001600160a01b03168152602001858152602001336001600160a01b03168152602001846bffffffffffffffffffffffff168152506040518263ffffffff1660e01b815260040161080e9190600060a08201905060ff835116825260208301516001600160a01b0380821660208501526040850151604085015280606086015116606085015250506bffffffffffffffffffffffff608084015116608083015292915050565b600060405180830381600087803b15801561082857600080fd5b505af115801561083c573d6000803e3d6000fd5b505060016000555050505050505050505050505050565b600154600090819061086481611aa3565b1561089457507f20fc043586a9fcb416cdf2a3bc8a995f8f815d43f1046a20d1c588cf20482a5592600092509050565b600061089f82610cfa565b90506108aa82611adc565b6000818152600460205260409020549190911894909350915050565b60006108d3600154610cfa565b905090565b60408051808201909152600581527f54543a453100000000000000000000000000000000000000000000000000000060208201526000908361092d5760405162461bcd60e51b81526004016103df9190612ed5565b50811561094d5750600081815260046020526040902054838318146109d9565b60008481526003602052604090205483900361096b575060016109d9565b6001546101005b6004821015801561098257508015155b156109d2576000190161ffff8216156109725760006109a083611adc565b600081815260046020526040902054909150868818036109c657600193505050506109d9565b60048303925050610972565b5060009150505b9392505050565b7f00000000000000000000000000000000000000000000000000000000000000006001600160a01b03163314610a585760405162461bcd60e51b815260206004820152601460248201527f496d6d4f776e3a20756e617574686f72697a656400000000000000000000000060448201526064016103df565b609b5463ffffffff90811690831610801590610a7e57506401000000008263ffffffff16105b8015610a8e575062ffffff811615155b610abf5760405162461bcd60e51b8152602060048201526002602482015261453160f01b60448201526064016103df565b609b805462ffffff8316640100000000810266ffffffffffffff1990921663ffffffff8616908117929092179092556040517f2369247a5a2affa0d5b33a70c8ff61d5660e1132fe764715b971fdd1fc68d10e92610b24928252602082015260400190565b60405180910390a15050565b7f00000000000000000000000000000000000000000000000000000000000000006001600160a01b03163314610ba85760405162461bcd60e51b815260206004820152601460248201527f496d6d4f776e3a20756e617574686f72697a656400000000000000000000000060448201526064016103df565b600260005403610bfa5760405162461bcd60e51b815260206004820152601a60248201527f636c61696d45726332303a207265656e7472616e742063616c6c00000000000060448201526064016103df565b6002600055610c0a838383611b03565b5050600160005550565b60006108d3600154600281901c600390810291160190565b6000818152609d6020908152604091829020548251808401909352600683527f50503a45333200000000000000000000000000000000000000000000000000009183019190915263ffffffff1615610c975760405162461bcd60e51b81526004016103df9190612ed5565b506000610ca261114f565b6000838152609d6020908152604091829020805463ffffffff191663ffffffff851690811790915591519182529192507f41685940dd65dd5fc11832115bda1957c2ed7b4e2982cfac6c3ba41bd1566a3c9101610b24565b60006002610d0a6001600f613018565b610d14919061302b565b9190911c919050565b6000600260005403610d715760405162461bcd60e51b815260206004820152601a60248201527f636c61696d45726332303a207265656e7472616e742063616c6c00000000000060448201526064016103df565b6002600055609b5460408051808201909152600681527f50503a453331000000000000000000000000000000000000000000000000000060208201529063ffffffff16610dd15760405162461bcd60e51b81526004016103df9190612ed5565b506000610ddc61114f565b905063ffffffff831615610e53578063ffffffff168363ffffffff1611156040518060400160405280600581526020017f50503a453900000000000000000000000000000000000000000000000000000081525090610e4e5760405162461bcd60e51b81526004016103df9190612ed5565b508290505b610e5b612bc7565b610e63612be5565b6000805b610e736001600261302b565b81101561112857600080610ed88e8460038110610e9257610e9261303e565b602002016020810190610ea59190613054565b8e8560038110610eb757610eb761303e565b60200201358e8660038110610ece57610ece61303e565b6020020135611b2b565b9150915082600014610eef5760028460ff16901b93505b8067ffffffffffffffff16600003610fbc5760408051808201909152600681527f50503a4532310000000000000000000000000000000000000000000000000000602082015283610f535760405162461bcd60e51b81526004016103df9190612ed5565b507f0667764c376602b72ef22218e1673c2cc8546201f9a77807570b3e5de137680d868460038110610f8757610f8761303e565b60200201818152505060405180602001604052806000815250858460038110610fb257610fb261303e565b6020020152611113565b610ff88b8460038110610fd157610fd161303e565b60400201358c8560038110610fe857610fe861303e565b604002016020013583858b611496565b86846003811061100a5761100a61303e565b60200201526bffffffffffffffffffffffff19606083901b1667ffffffffffffffff8216178d84600381106110415761104161303e565b6020020135156110a4576001851794508a84600381106110635761106361303e565b6040020181604051602001611079929190613071565b60405160208183030381529060405286856003811061109a5761109a61303e565b6020020152611111565b6002851794508a84600381106110bc576110bc61303e565b60400201818f86600381106110d3576110d361303e565b60200201356040516020016110ea93929190613086565b60405160208183030381529060405286856003811061110b5761110b61303e565b60200201525b505b50508080611120906130a0565b915050610e67565b5061113b8382848763ffffffff16611e13565b60016000559b9a5050505050505050505050565b60006108d342611f8a565b600082826040516020016111819291909182526001600160a01b0316602082015260400190565b60408051601f1981840301815282825280516020918201206000818152609d835283902054848401909352600684527f50503a453334000000000000000000000000000000000000000000000000000091840191909152925063ffffffff1690816111ff5760405162461bcd60e51b81526004016103df9190612ed5565b50609b5460009061122390640100000000900462ffffff1663ffffffff841661302b565b90508042116040518060400160405280600681526020017f50503a45333300000000000000000000000000000000000000000000000000008152509061127c5760405162461bcd60e51b81526004016103df9190612ed5565b5050506000908152609d60205260409020805463ffffffff191690555050565b60006000805160206133328339815191528310604051806040016040528060068152602001650a0a0748a64760d31b815250906112ec5760405162461bcd60e51b81526004016103df9190612ed5565b5060408051808201909152600681527f50503a45323700000000000000000000000000000000000000000000000000006020820152600080516020613332833981519152831061134f5760405162461bcd60e51b81526004016103df9190612ed5565b5060408051808201825284815260208101849052905163014cf2b360e51b815273__$3d381aec2d571db697c779e211a438fb21$__9163299e56609161139891906004016130b9565b602060405180830381865af41580156113b5573d6000803e3d6000fd5b505050506040513d601f19601f820116820180604052508101906109d991906130ea565b60408051808201909152600080825260208201526040805180820190915260068152650a0a0748a64760d31b602082015260008051602061333283398151915283106114385760405162461bcd60e51b81526004016103df9190612ed5565b50604080518082019091527f0bb77a6ad63e739b4eacb2e09d6277c12ab8d8010534e0b62893f3f6bb95705181527f25797203f7a0b24925572e1cd16bf9edfce0051fb9e133774b3c257a872d7d8b60208201526109d98184611fe4565b600060008051602061333283398151915286111580156114c457506000805160206133328339815191528511155b6040518060400160405280600581526020017f43473a4531000000000000000000000000000000000000000000000000000000815250906115185760405162461bcd60e51b81526004016103df9190612ed5565b5060408051606081018252878152602080820188905263ffffffff85169086901b77ffffffffffffffffffffffffffffffffffffffff000000001660c088901b7fffffffffffffffff000000000000000000000000000000000000000000000000161717818301529051635a53025d60e01b815273__$a786a838ef97de7d2113fa91ed3c799076$__91635a53025d916115b59190600401613103565b602060405180830381865af41580156115d2573d6000803e3d6000fd5b505050506040513d601f19601f820116820180604052508101906115f691906130ea565b9695505050505050565b600060036116188361ffff166001810160021c900390565b6116229190613141565b92915050565b60408051808201909152600581527f4d503a453300000000000000000000000000000000000000000000000000000060208201526003851061167d5760405162461bcd60e51b81526004016103df9190612ed5565b5060008461174c5773__$a786a838ef97de7d2113fa91ed3c799076$__635a53025d6040518060600160405280868152602001856000601081106116c3576116c361303e565b60200201358152602001856001601081106116e0576116e061303e565b60200201358152506040518263ffffffff1660e01b81526004016117049190613103565b602060405180830381865af4158015611721573d6000803e3d6000fd5b505050506040513d601f19601f8201168201806040525081019061174591906130ea565b905061187a565b600185036117af5773__$a786a838ef97de7d2113fa91ed3c799076$__635a53025d60405180606001604052808560006010811061178c5761178c61303e565b60200201358152602001868152602001856001601081106116e0576116e061303e565b6002850361187a5773__$a786a838ef97de7d2113fa91ed3c799076$__635a53025d6040518060600160405280856000601081106117ef576117ef61303e565b602002013581526020018560016010811061180c5761180c61303e565b60200201358152602001868152506040518263ffffffff1660e01b81526004016118369190613103565b602060405180830381865af4158015611853573d6000803e3d6000fd5b505050506040513d601f19601f8201168201806040525081019061187791906130ea565b90505b60025b60108110156119f857600160011982011b85161580156119405773__$3d381aec2d571db697c779e211a438fb21$__63299e566060405180604001604052808681526020018786601081106118d4576118d461303e565b60200201358152506040518263ffffffff1660e01b81526004016118f891906130b9565b602060405180830381865af4158015611915573d6000803e3d6000fd5b505050506040513d601f19601f8201168201806040525081019061193991906130ea565b92506119e5565b73__$3d381aec2d571db697c779e211a438fb21$__63299e566060405180604001604052808786601081106119775761197761303e565b60200201358152602001868152506040518263ffffffff1660e01b81526004016119a191906130b9565b602060405180830381865af41580156119be573d6000803e3d6000fd5b505050506040513d601f19601f820116820180604052508101906119e291906130ea565b92505b50806119f0816130a0565b91505061187d565b5060408051808201909152600581527f4d503a45310000000000000000000000000000000000000000000000000000006020820152868214611a4d5760405162461bcd60e51b81526004016103df9190612ed5565b50505050505050565b60008060ff831615611a8457611a6b8361207a565b611a7f9067ffffffffffffffff8616613163565b611a90565b8367ffffffffffffffff165b9050611a9b81612087565b949350505050565b600060016004611ab482600f613018565b611abf906002613266565b611ac99190613163565b611ad39190613018565b90911615919050565b60006001611aed6004610100613163565b611af79190613018565b82166001179050919050565b6001600160a01b038316611b2057611b1b82826120f4565b505050565b611b1b8383836121bd565b60008082600003611bac576001600160a01b038516158015611b4b575083155b6040518060400160405280600681526020017f50503a453239000000000000000000000000000000000000000000000000000081525090611b9f5760405162461bcd60e51b81526004016103df9190612ed5565b5060008091509150611e0b565b6040805160c081018252600080825260208201819052918101829052606081018290526080810182905260a081018290526040516331293c6360e01b81526001600160a01b038881166004830152602482018890527f000000000000000000000000000000000000000000000000000000000000000016906331293c639060440161012060405180830381865afa158015611c4b573d6000803e3d6000fd5b505050506040513d601f19601f82011682018060405250810190611c6f9190612f0f565b6040808201518151808301909252600682526550503a45313960d01b60208301529498509295509350909160ff166001149050611cbf5760405162461bcd60e51b81526004016103df9190612ed5565b506000611cd08683608001516122cf565b90945090508015611d1f57876001600160a01b03167f05b5d46649ab2015d3a08705cbaa391e094d9594c393ce89d3afffe960744da182604051611d1691815260200190565b60405180910390a25b6040805160a0808201835260608581015160ff9081168452918601516001600160a01b0390811660208501908152848601898152339386019384526bffffffffffffffffffffffff8d8116608088019081529751631d106e8960e21b81529651909516600487015290518216602486015251604485015290518116606484015292511660848201527f000000000000000000000000000000000000000000000000000000000000000090911690637441ba249060a401600060405180830381600087803b158015611def57600080fd5b505af1158015611e03573d6000803e3d6000fd5b505050505050505b935093915050565b6040805160f885901b7fff00000000000000000000000000000000000000000000000000000000000000166020820152815160018183030181526021909101909152600090815b611e666001600261302b565b811015611f3957600080516020613332833981519152878260038110611e8e57611e8e61303e565b602002015160001c106040518060400160405280600581526020017f43543a453100000000000000000000000000000000000000000000000000000081525090611eeb5760405162461bcd60e51b81526004016103df9190612ed5565b5081858260038110611eff57611eff61303e565b6020020151604051602001611f15929190613272565b60405160208183030381529060405291508080611f31906130a0565b915050611e5a565b50611f4386612324565b9150817f724bdd8d0d4293d630d4223512262f7f1bd9e7bb88cadfef6de67ff0b0f1d8b4848884604051611f79939291906132a1565b60405180910390a250949350505050565b60006401000000008210611fe05760405162461bcd60e51b815260206004820152600860248201527f554e53414645333200000000000000000000000000000000000000000000000060448201526064016103df565b5090565b60408051808201909152600081526001602082015281835b8115612032578160011660010361201a576120178382612747565b92505b6120248182612747565b9050600182901c9150611ffc565b825161204d9060008051602061333283398151915290613141565b8352602083015161206d9060008051602061333283398151915290613141565b6020840152505092915050565b600061162282600a6132e4565b60006c0100000000000000000000000082106040518060400160405280600681526020017f50503a4531300000000000000000000000000000000000000000000000000000815250906120ed5760405162461bcd60e51b81526004016103df9190612ed5565b5090919050565b604080516000808252602082019092526001600160a01b03841690839060405161211e91906132f3565b60006040518083038185875af1925050503d806000811461215b576040519150601f19603f3d011682016040523d82523d6000602084013e612160565b606091505b5050905080611b1b5760405162461bcd60e51b815260206004820152602360248201527f5472616e7366657248656c7065723a20455448207472616e73666572206661696044820152621b195960ea1b60648201526084016103df565b82803b8061220d5760405162461bcd60e51b815260206004820152601d60248201527f5472616e7366657248656c7065723a207a65726f20636f646573697a6500000060448201526064016103df565b604080516001600160a01b038681166024830152604480830187905283518084039091018152606490920183526020820180517bffffffffffffffffffffffffffffffffffffffffffffffffffffffff1663a9059cbb60e01b179052915160009283929089169161227e91906132f3565b6000604051808303816000865af19150503d80600081146122bb576040519150601f19603f3d011682016040523d82523d6000602084013e6122c0565b606091505b5091509150611a4d82826128f6565b60008060008360ff166000036122ea57506000905083612311565b60006122f58561207a565b90508086816123065761230661312b565b049081028603925090505b61231a81612991565b9250509250929050565b60015461232f612c0c565b7f0667764c376602b72ef22218e1673c2cc8546201f9a77807570b3e5de137680d81527f1be18cd72ac1586de27dd60eba90654bd54383004991951bccb0f6bad02c67f660208201527f07677e6102f0acf343edde864f79ef7652faa5a66d575b8b60bb826a4aa517e660408201527f28a85866ab97bd65cc94b0d1f5c5986481f8a0d65bdd5c1e562659eebb13cf6360608201527f087321a66ea3af7780128ea1995d7fc6ec44a96a1b2d85d3021208cede68c15c60808201527f233b4e488f0aaf5faef4fc8ea4fefeadb6934eb882bc33b9df782fd1d83b41a060a08201527f1a0cefcf0c592da6426717d3718408c61af1d0a9492887f3faecefcba1a0a30960c08201527f2cdf963150b321923dd07b2b52659aceb529516a537dfebe24106881dd97429360e08201527f093a186bf9ec2cc874ceab26409d581579e1a431ecb6987d428777ceedfa15c46101008201527f0cbfc07131ef4197a4b4e60153d43381520ec9ab4c9c3ed34d88883a881a4e076101208201527f17b31de43ba4c687cf950ad00dfbe33df40047e79245b50bd1d9f87e622bf2af6101408201527f2f3328354bceaf5882a8cc88053e0dd0ae594009a4e84e9e75a4fefe8604a6026101608201527f2b2e8defd4dad2404c6874918925fc1192123f45df0ee3e04b6c16ff22ca1cfd6101808201527f1cbdc4065aa4137da01d64a090706267d65f425ea5e815673516d29d9aa14d386101a08201527f13ca69f9fde4ece39e395bb55dd41ed7dd9dfaa26671e26bd9fd6f4f635fc8726101c08201528251602084015160408501516000928392839261258b9291906129f3565b915060026001600461259e82600f613018565b6125a9906002613266565b6125b39190613163565b6125bd9190613018565b8616901c9250600080600192505b600f831015612657576125df600286613141565b60000361261f578391508583600f81106125fb576125fb61303e565b60200201519050836002600085815260200190815260200160002081905550612632565b5050600081815260026020526040902054825b61263c8282612a8e565b60019590951c9493508261264f816130a0565b9350506125cb565b600061266460048961302b565b60018190559050600061267689610cfa565b9050600461ffff8a166201000003116126db57600081815260036020526040908190208790555181907f7cd9c9cf009b511548bb15f2d648fc3ee3e6e880d24f043861b274dca5a55435906126ce9089815260200190565b60405180910390a261273a565b60006126e683611adc565b6000818152600460205260409081902089851890555190915082907f46b4356c55762628b29b60a689ae18c610a9cd9774ca704e7a567aa41bb7cebf90612730908a815260200190565b60405180910390a2505b5050505050505050919050565b60408051808201909152600080825260208201528251600090819015801561277157506020850151155b1561278f576040805180820190915291825260208201529050611622565b83511580156127a057506020850151155b156127be576040805180820190915291825260208201529050611622565b600060008051602061333283398151915285518751099050600060008051602061333283398151915286602001518860200151099050600060008051602061333283398151915280838509620292f8099050600060008051602061333283398151915280895160208c01510960008051602061333283398151915260208b01518c510908905060006128738460008051602061333283398151915287620292fc09600080516020613332833981519152612b1a565b905060008051602061333283398151915261289f60008051602061333283398151915285600108612b55565b830996506000805160206133328339815191526128d46128cf600186600080516020613332833981519152612b1a565b612b55565b8209604080518082019091529788526020880152509498975050505050505050565b81801561291b57508051158061291b57508080602001905181019061291b919061330f565b61298d5760405162461bcd60e51b815260206004820152602a60248201527f5472616e7366657248656c7065723a20746f6b656e20636f6e7472616374206360448201527f616c6c206661696c65640000000000000000000000000000000000000000000060648201526084016103df565b5050565b60006801000000000000000082106040518060400160405280600681526020017f50503a4532360000000000000000000000000000000000000000000000000000815250906120ed5760405162461bcd60e51b81526004016103df9190612ed5565b60006129fd612bc7565b84815260208101849052604080820184905251635a53025d60e01b815273__$a786a838ef97de7d2113fa91ed3c799076$__90635a53025d90612a44908490600401613103565b602060405180830381865af4158015612a61573d6000803e3d6000fd5b505050506040513d601f19601f82011682018060405250810190612a8591906130ea565b95945050505050565b6000612a98612c2b565b8381526020810183905260405163014cf2b360e51b815273__$3d381aec2d571db697c779e211a438fb21$__9063299e566090612ad99084906004016130b9565b602060405180830381865af4158015612af6573d6000803e3d6000fd5b505050506040513d601f19601f82011682018060405250810190611a9b91906130ea565b600083838111612b3157612b2e838261302b565b90505b8280612b3f57612b3f61312b565b6000612b4b8684613018565b0895945050505050565b600061162282612b746002600080516020613332833981519152613018565b600080516020613332833981519152600060405160208152602080820152602060408201528460608201528360808201528260a082015260208160c08360055afa80801561015157505051949350505050565b60405180606001604052806003906020820280368337509192915050565b60405180606001604052806003905b6060815260200190600190039081612bf45790505090565b604051806101e00160405280600f906020820280368337509192915050565b60405180604001604052806002906020820280368337509192915050565b6001600160a01b0381168114612c5e57600080fd5b50565b67ffffffffffffffff81168114612c5e57600080fd5b803563ffffffff81168114612c8b57600080fd5b919050565b60008060008060008060008060006103008a8c031215612caf57600080fd5b8935612cba81612c49565b985060208a0135975060408a0135612cd181612c61565b9650612cdf60608b01612c77565b955060808a0135945060a08a013593506102c08a018b811115612d0157600080fd5b60c08b01935080359250506102e08a013590509295985092959850929598565b600060208284031215612d3357600080fd5b5035919050565b600080600060608486031215612d4f57600080fd5b505081359360208301359350604090920135919050565b60008060408385031215612d7957600080fd5b612d8283612c77565b9150602083013562ffffff81168114612d9a57600080fd5b809150509250929050565b600080600060608486031215612dba57600080fd5b8335612dc581612c49565b92506020840135612dd581612c49565b929592945050506040919091013590565b806060810183101561162257600080fd5b8060c0810183101561162257600080fd5b6000806000806000806102c08789031215612e2257600080fd5b612e2c8888612de6565b9550612e3b8860608901612de6565b9450612e4a8860c08901612de6565b9350612e5a886101208901612df7565b9250612e6a886101e08901612df7565b9150612e796102a08801612c77565b90509295509295509295565b60005b83811015612ea0578181015183820152602001612e88565b50506000910152565b60008151808452612ec1816020860160208601612e85565b601f01601f19169290920160200192915050565b6020815260006109d96020830184612ea9565b8051612c8b81612c61565b805160ff81168114612c8b57600080fd5b8051612c8b81612c49565b600080600080848603610120811215612f2757600080fd5b8551612f3281612c49565b602087015160408801519196509450612f4a81612c49565b925060c0605f1982011215612f5e57600080fd5b5060405160c0810181811067ffffffffffffffff82111715612f9057634e487b7160e01b600052604160045260246000fd5b604052612f9f60608701612ee8565b8152612fad60808701612ef3565b6020820152612fbe60a08701612ef3565b6040820152612fcf60c08701612ef3565b6060820152612fe060e08701612ef3565b6080820152612ff26101008701612f04565b60a0820152939692955090935050565b634e487b7160e01b600052601160045260246000fd5b8181038181111561162257611622613002565b8082018082111561162257611622613002565b634e487b7160e01b600052603260045260246000fd5b60006020828403121561306657600080fd5b81356109d981612c49565b60408382376040810191909152606001919050565b604084823760408101929092526060820152608001919050565b6000600182016130b2576130b2613002565b5060010190565b60408101818360005b60028110156130e15781518352602092830192909101906001016130c2565b50505092915050565b6000602082840312156130fc57600080fd5b5051919050565b60608101818360005b60038110156130e157815183526020928301929091019060010161310c565b634e487b7160e01b600052601260045260246000fd5b60008261315e57634e487b7160e01b600052601260045260246000fd5b500690565b600081600019048311821515161561317d5761317d613002565b500290565b600181815b808511156131bd5781600019048211156131a3576131a3613002565b808516156131b057918102915b93841c9390800290613187565b509250929050565b6000826131d457506001611622565b816131e157506000611622565b81600181146131f757600281146132015761321d565b6001915050611622565b60ff84111561321257613212613002565b50506001821b611622565b5060208310610133831016604e8410600b8410161715613240575081810a611622565b61324a8383613182565b806000190482111561325e5761325e613002565b029392505050565b60006109d983836131c5565b60008351613284818460208801612e85565b835190830190613298818360208801612e85565b01949350505050565b838152600060208083018560005b60038110156132cc578151835291830191908301906001016132af565b5050505060a06080830152612a8560a0830184612ea9565b60006109d960ff8416836131c5565b60008251613305818460208701612e85565b9190910192915050565b60006020828403121561332157600080fd5b815180151581146109d957600080fdfe30644e72e131a029b85045b68181585d2833e84879b9709143e1f593f0000001a164736f6c6343000810000a",
  "libraries": {
    "PoseidonT3": "0xA944DFafE9bcb0094A471E58206079c43ce0043D",
    "PoseidonT4": "0xf0FfB73D51d001024F6301a19c8A56488e9d2110"
  },
  "devdoc": {
    "author": "Pantherprotocol Contributors",
    "details": "It is the \"version 0\" of the Panther Protocol Multi-Asset Shielded Pool (\"MASP\"). It locks assets (ERC-20, ERC-721 or ERC-1155 tokens) of a user with the `Vault` smart contract and generates UTXO's in the MASP for the user (i.e. builds merkle trees of UTXO's commitments). This contract does not implement the functionality for spending UTXO's (other than the `exit` described further) and is supposed to be upgraded with the new one. The new contract, the \"v.1\" of the MASP, is planned to implement spending of UTXO's using zero-knowledge proves. To be upgradable, this contract is assumed to run as an \"implementation\" for a proxy that DELEGATECALL's the implementation. To protect holders against lost of assets in case this contract is not upgraded, it exposes the `exit` function, through which users may withdraw their locked assets via revealing preimages of commitments.",
    "events": {
      "Change(address,uint256)": {
        "details": "A tiny disowned token amount gets locked in the Vault (as a result of imprecise scaling of deposited amounts)"
      },
      "ExitCommitment(uint256)": {
        "details": "New exit commitment registered"
      },
      "ExitTimesUpdated(uint256,uint256)": {
        "details": "Emitted when exit time and/or exit delay updated"
      },
      "Nullifier(bytes32)": {
        "details": "New nullifier has been seen"
      }
    },
    "kind": "dev",
    "methods": {
      "claimEthOrErc20(address,address,uint256)": {
        "details": "The \"owner\" may call only"
      },
      "commitToExit(bytes32)": {
        "params": {
          "exitCommitment": "Commitment to the UTXO spending key and the recipient address. MUST be equal to keccak256(abi.encode(uint256(privSpendingKey), address(recipient))."
        }
      },
      "constructor": {
        "params": {
          "_owner": "Address of the `OWNER` who may call `onlyOwner` methods",
          "assetRegistry": "Address of the ZAssetRegistry contract",
          "vault": "Address of the Vault contract"
        }
      },
      "exit(address,uint256,uint64,uint32,uint256,uint256,bytes32[16],bytes32,uint256)": {
        "details": "`cacheIndexHint` needed for the \"current\" (partially populated) tree only",
        "params": {
          "cacheIndexHint": "Index of the `merkleRoot` in the cache of roots, 0 by default",
          "leafId": "Id of the leaf with the UTXO commitments in the Merkle Trees",
          "merkleRoot": "The root of the Merkle Tree the leaf is a part of",
          "pathElements": "Elements of the Merkle proof of inclusion",
          "privSpendingKey": "UTXO's Private Spending Key",
          "scaledAmount": "Token scaled amount"
        }
      },
      "generateDeposits(address[3],uint256[3],uint256[3],(uint256,uint256)[3],uint256[2][3],uint32)": {
        "details": "createdAt must be less (or equal) the network time",
        "params": {
          "amounts": "Token amounts (unscaled) to be deposited",
          "createdAt": "Optional, if 0 the network time used",
          "pubSpendingKeys": "Public Spending Key for every UTXO",
          "secrets": "Encrypted opening values for every UTXO",
          "tokenIds": "For ERC-721 and ERC-1155 - token ID or subId of the token, 0 for ERC-20",
          "tokens": "Address of the token contract for every UTXO"
        },
        "returns": {
          "leftLeafId": "The `leafId` of the first UTXO (leaf) in the batch"
        }
      },
      "isKnownRoot(uint256,bytes32,uint256)": {
        "params": {
          "cacheIndexHint": "Index of the root in the cache, ignored if 0"
        }
      },
      "updateExitTimes(uint32,uint24)": {
        "details": "Owner only may calls"
      }
    },
    "title": "PantherPool",
    "version": 1
  },
  "userdoc": {
    "kind": "user",
    "methods": {
      "ASSET_REGISTRY()": {
        "notice": "Address of the ZAssetRegistry contract"
      },
      "OWNER()": {
        "notice": "The owner who has privileged rights"
      },
      "VAULT()": {
        "notice": "Address of the Vault contract"
      },
      "claimEthOrErc20(address,address,uint256)": {
        "notice": "Withdraw accidentally sent tokens or ETH from this contract"
      },
      "commitToExit(bytes32)": {
        "notice": "Register future `exit` to protect against front-run and DoS. The `exit` is possible only after `exitDelay` since this function call."
      },
      "curRoot()": {
        "notice": "Returns the root of the current tree and its index in cache"
      },
      "curTree()": {
        "notice": "Returns `treeId` of the current tree"
      },
      "exitCommitments(bytes32)": {
        "notice": "Unused registered commitments to exit"
      },
      "exitDelay()": {
        "notice": "Period (seconds) since `commitToExit` when `exit` opens"
      },
      "exitTime()": {
        "notice": "(UNIX) Time since when the `exit` calls get enabled"
      },
      "finalRoots(uint256)": {
        "notice": "Roots of fully populated trees"
      },
      "generateDeposits(address[3],uint256[3],uint256[3],(uint256,uint256)[3],uint256[2][3],uint32)": {
        "notice": "Transfer assets from the msg.sender to the VAULT and generate UTXOs in the MASP"
      },
      "getLeafIndex(uint256)": {
        "notice": "Returns `leafIndex` (index in the tree) of the given leaf"
      },
      "getTreeId(uint256)": {
        "notice": "Returns `treeId` of the given leaf's tree"
      },
      "isKnownRoot(uint256,bytes32,uint256)": {
        "notice": "Returns `true` if the given root of the given tree is known"
      },
      "leavesNum()": {
        "notice": "Returns the number of leaves inserted in all trees so far"
      },
      "updateExitTimes(uint32,uint24)": {
        "notice": "Update the exit time and the exit delay"
      }
    },
    "notice": "Multi-Asset Shielded Pool main contract v0",
    "version": 1
  },
  "storageLayout": {
    "storage": [
      {
        "astId": 3560,
        "contract": "contracts/protocol/PantherPoolV0.sol:PantherPoolV0",
        "label": "_reentrancyStatus",
        "offset": 0,
        "slot": "0",
        "type": "t_uint256"
      },
      {
        "astId": 8912,
        "contract": "contracts/protocol/PantherPoolV0.sol:PantherPoolV0",
        "label": "_nextLeafId",
        "offset": 0,
        "slot": "1",
        "type": "t_uint256"
      },
      {
        "astId": 8916,
        "contract": "contracts/protocol/PantherPoolV0.sol:PantherPoolV0",
        "label": "_filledSubtrees",
        "offset": 0,
        "slot": "2",
        "type": "t_mapping(t_uint256,t_bytes32)"
      },
      {
        "astId": 8921,
        "contract": "contracts/protocol/PantherPoolV0.sol:PantherPoolV0",
        "label": "finalRoots",
        "offset": 0,
        "slot": "3",
        "type": "t_mapping(t_uint256,t_bytes32)"
      },
      {
        "astId": 8925,
        "contract": "contracts/protocol/PantherPoolV0.sol:PantherPoolV0",
        "label": "_cachedRoots",
        "offset": 0,
        "slot": "4",
        "type": "t_mapping(t_uint256,t_uint256)"
      },
      {
        "astId": 9501,
        "contract": "contracts/protocol/PantherPoolV0.sol:PantherPoolV0",
        "label": "__gap",
        "offset": 0,
        "slot": "5",
        "type": "t_array(t_uint256)50_storage"
      },
      {
        "astId": 8544,
        "contract": "contracts/protocol/PantherPoolV0.sol:PantherPoolV0",
        "label": "__gap",
        "offset": 0,
        "slot": "55",
        "type": "t_array(t_uint256)50_storage"
      },
      {
        "astId": 4185,
        "contract": "contracts/protocol/PantherPoolV0.sol:PantherPoolV0",
        "label": "__gap",
        "offset": 0,
        "slot": "105",
        "type": "t_array(t_uint256)50_storage"
      },
      {
        "astId": 4194,
        "contract": "contracts/protocol/PantherPoolV0.sol:PantherPoolV0",
        "label": "exitTime",
        "offset": 0,
        "slot": "155",
        "type": "t_uint32"
      },
      {
        "astId": 4197,
        "contract": "contracts/protocol/PantherPoolV0.sol:PantherPoolV0",
        "label": "exitDelay",
        "offset": 4,
        "slot": "155",
        "type": "t_uint24"
      },
      {
        "astId": 4199,
        "contract": "contracts/protocol/PantherPoolV0.sol:PantherPoolV0",
        "label": "_reserved",
        "offset": 7,
        "slot": "155",
        "type": "t_uint200"
      },
      {
        "astId": 4203,
        "contract": "contracts/protocol/PantherPoolV0.sol:PantherPoolV0",
        "label": "isSpent",
        "offset": 0,
        "slot": "156",
        "type": "t_mapping(t_bytes32,t_bool)"
      },
      {
        "astId": 4208,
        "contract": "contracts/protocol/PantherPoolV0.sol:PantherPoolV0",
        "label": "exitCommitments",
        "offset": 0,
        "slot": "157",
        "type": "t_mapping(t_bytes32,t_uint32)"
      }
    ],
    "types": {
      "t_array(t_uint256)50_storage": {
        "base": "t_uint256",
        "encoding": "inplace",
        "label": "uint256[50]",
        "numberOfBytes": "1600"
      },
      "t_bool": {
        "encoding": "inplace",
        "label": "bool",
        "numberOfBytes": "1"
      },
      "t_bytes32": {
        "encoding": "inplace",
        "label": "bytes32",
        "numberOfBytes": "32"
      },
      "t_mapping(t_bytes32,t_bool)": {
        "encoding": "mapping",
        "key": "t_bytes32",
        "label": "mapping(bytes32 => bool)",
        "numberOfBytes": "32",
        "value": "t_bool"
      },
      "t_mapping(t_bytes32,t_uint32)": {
        "encoding": "mapping",
        "key": "t_bytes32",
        "label": "mapping(bytes32 => uint32)",
        "numberOfBytes": "32",
        "value": "t_uint32"
      },
      "t_mapping(t_uint256,t_bytes32)": {
        "encoding": "mapping",
        "key": "t_uint256",
        "label": "mapping(uint256 => bytes32)",
        "numberOfBytes": "32",
        "value": "t_bytes32"
      },
      "t_mapping(t_uint256,t_uint256)": {
        "encoding": "mapping",
        "key": "t_uint256",
        "label": "mapping(uint256 => uint256)",
        "numberOfBytes": "32",
        "value": "t_uint256"
      },
      "t_uint200": {
        "encoding": "inplace",
        "label": "uint200",
        "numberOfBytes": "25"
      },
      "t_uint24": {
        "encoding": "inplace",
        "label": "uint24",
        "numberOfBytes": "3"
      },
      "t_uint256": {
        "encoding": "inplace",
        "label": "uint256",
        "numberOfBytes": "32"
      },
      "t_uint32": {
        "encoding": "inplace",
        "label": "uint32",
        "numberOfBytes": "4"
      }
    }
  }
}