{
  "address": "0xE5da4955cBC480Eb9Bf9534def229F9D8339eE6d",
  "abi": [
    {
      "inputs": [
        {
          "internalType": "address",
          "name": "_owner",
          "type": "address"
        },
        {
          "internalType": "string",
          "name": "_name",
          "type": "string"
        },
        {
          "internalType": "string",
          "name": "_symbol",
          "type": "string"
        }
      ],
      "stateMutability": "nonpayable",
      "type": "constructor"
    },
    {
      "anonymous": false,
      "inputs": [
        {
          "indexed": true,
          "internalType": "address",
          "name": "owner",
          "type": "address"
        },
        {
          "indexed": true,
          "internalType": "address",
          "name": "approved",
          "type": "address"
        },
        {
          "indexed": true,
          "internalType": "uint256",
          "name": "tokenId",
          "type": "uint256"
        }
      ],
      "name": "Approval",
      "type": "event"
    },
    {
      "anonymous": false,
      "inputs": [
        {
          "indexed": true,
          "internalType": "address",
          "name": "owner",
          "type": "address"
        },
        {
          "indexed": true,
          "internalType": "address",
          "name": "operator",
          "type": "address"
        },
        {
          "indexed": false,
          "internalType": "bool",
          "name": "approved",
          "type": "bool"
        }
      ],
      "name": "ApprovalForAll",
      "type": "event"
    },
    {
      "anonymous": false,
      "inputs": [
        {
          "indexed": false,
          "internalType": "address",
          "name": "approvee",
          "type": "address"
        }
      ],
      "name": "ApprovedForAllUpdated",
      "type": "event"
    },
    {
      "anonymous": false,
      "inputs": [
        {
          "indexed": false,
          "internalType": "string",
          "name": "_contractURI",
          "type": "string"
        }
      ],
      "name": "ContractUriUpdated",
      "type": "event"
    },
    {
      "anonymous": false,
      "inputs": [
        {
          "indexed": false,
          "internalType": "address",
          "name": "userAddress",
          "type": "address"
        },
        {
          "indexed": false,
          "internalType": "address payable",
          "name": "relayerAddress",
          "type": "address"
        },
        {
          "indexed": false,
          "internalType": "bytes",
          "name": "functionSignature",
          "type": "bytes"
        }
      ],
      "name": "MetaTransactionExecuted",
      "type": "event"
    },
    {
      "anonymous": false,
      "inputs": [
        {
          "indexed": false,
          "internalType": "address",
          "name": "_minter",
          "type": "address"
        }
      ],
      "name": "MinterUpdated",
      "type": "event"
    },
    {
      "anonymous": false,
      "inputs": [
        {
          "indexed": false,
          "internalType": "string",
          "name": "_tokenURI",
          "type": "string"
        }
      ],
      "name": "TokenUriUpdated",
      "type": "event"
    },
    {
      "anonymous": false,
      "inputs": [
        {
          "indexed": true,
          "internalType": "address",
          "name": "from",
          "type": "address"
        },
        {
          "indexed": true,
          "internalType": "address",
          "name": "to",
          "type": "address"
        },
        {
          "indexed": true,
          "internalType": "uint256",
          "name": "tokenId",
          "type": "uint256"
        }
      ],
      "name": "Transfer",
      "type": "event"
    },
    {
      "inputs": [],
      "name": "ERC712_VERSION",
      "outputs": [
        {
          "internalType": "string",
          "name": "",
          "type": "string"
        }
      ],
      "stateMutability": "view",
      "type": "function"
    },
    {
      "inputs": [],
      "name": "OWNER",
      "outputs": [
        {
          "internalType": "address",
          "name": "",
          "type": "address"
        }
      ],
      "stateMutability": "view",
      "type": "function"
    },
    {
      "inputs": [
        {
          "internalType": "address",
          "name": "to",
          "type": "address"
        },
        {
          "internalType": "uint256",
          "name": "tokenId",
          "type": "uint256"
        }
      ],
      "name": "approve",
      "outputs": [],
      "stateMutability": "nonpayable",
      "type": "function"
    },
    {
      "inputs": [],
      "name": "approvedForAll",
      "outputs": [
        {
          "internalType": "address",
          "name": "",
          "type": "address"
        }
      ],
      "stateMutability": "view",
      "type": "function"
    },
    {
      "inputs": [
        {
          "internalType": "address",
          "name": "owner",
          "type": "address"
        }
      ],
      "name": "balanceOf",
      "outputs": [
        {
          "internalType": "uint256",
          "name": "",
          "type": "uint256"
        }
      ],
      "stateMutability": "view",
      "type": "function"
    },
    {
      "inputs": [],
      "name": "baseTokenURI",
      "outputs": [
        {
          "internalType": "string",
          "name": "",
          "type": "string"
        }
      ],
      "stateMutability": "view",
      "type": "function"
    },
    {
      "inputs": [],
      "name": "contractURI",
      "outputs": [
        {
          "internalType": "string",
          "name": "",
          "type": "string"
        }
      ],
      "stateMutability": "view",
      "type": "function"
    },
    {
      "inputs": [
        {
          "internalType": "address",
          "name": "userAddress",
          "type": "address"
        },
        {
          "internalType": "bytes",
          "name": "functionSignature",
          "type": "bytes"
        },
        {
          "internalType": "bytes32",
          "name": "sigR",
          "type": "bytes32"
        },
        {
          "internalType": "bytes32",
          "name": "sigS",
          "type": "bytes32"
        },
        {
          "internalType": "uint8",
          "name": "sigV",
          "type": "uint8"
        }
      ],
      "name": "executeMetaTransaction",
      "outputs": [
        {
          "internalType": "bytes",
          "name": "",
          "type": "bytes"
        }
      ],
      "stateMutability": "payable",
      "type": "function"
    },
    {
      "inputs": [
        {
          "internalType": "uint256",
          "name": "tokenId",
          "type": "uint256"
        }
      ],
      "name": "getApproved",
      "outputs": [
        {
          "internalType": "address",
          "name": "",
          "type": "address"
        }
      ],
      "stateMutability": "view",
      "type": "function"
    },
    {
      "inputs": [],
      "name": "getChainId",
      "outputs": [
        {
          "internalType": "uint256",
          "name": "",
          "type": "uint256"
        }
      ],
      "stateMutability": "view",
      "type": "function"
    },
    {
      "inputs": [],
      "name": "getDomainSeperator",
      "outputs": [
        {
          "internalType": "bytes32",
          "name": "",
          "type": "bytes32"
        }
      ],
      "stateMutability": "view",
      "type": "function"
    },
    {
      "inputs": [
        {
          "internalType": "address",
          "name": "user",
          "type": "address"
        }
      ],
      "name": "getNonce",
      "outputs": [
        {
          "internalType": "uint256",
          "name": "nonce",
          "type": "uint256"
        }
      ],
      "stateMutability": "view",
      "type": "function"
    },
    {
      "inputs": [
        {
          "internalType": "address",
          "name": "_to",
          "type": "address"
        }
      ],
      "name": "grantOneToken",
      "outputs": [
        {
          "internalType": "uint256",
          "name": "currentTokenId",
          "type": "uint256"
        }
      ],
      "stateMutability": "nonpayable",
      "type": "function"
    },
    {
      "inputs": [
        {
          "internalType": "address",
          "name": "owner",
          "type": "address"
        },
        {
          "internalType": "address",
          "name": "operator",
          "type": "address"
        }
      ],
      "name": "isApprovedForAll",
      "outputs": [
        {
          "internalType": "bool",
          "name": "",
          "type": "bool"
        }
      ],
      "stateMutability": "view",
      "type": "function"
    },
    {
      "inputs": [],
      "name": "minter",
      "outputs": [
        {
          "internalType": "address",
          "name": "",
          "type": "address"
        }
      ],
      "stateMutability": "view",
      "type": "function"
    },
    {
      "inputs": [],
      "name": "name",
      "outputs": [
        {
          "internalType": "string",
          "name": "",
          "type": "string"
        }
      ],
      "stateMutability": "view",
      "type": "function"
    },
    {
      "inputs": [
        {
          "internalType": "uint256",
          "name": "tokenId",
          "type": "uint256"
        }
      ],
      "name": "ownerOf",
      "outputs": [
        {
          "internalType": "address",
          "name": "",
          "type": "address"
        }
      ],
      "stateMutability": "view",
      "type": "function"
    },
    {
      "inputs": [
        {
          "internalType": "address",
          "name": "from",
          "type": "address"
        },
        {
          "internalType": "address",
          "name": "to",
          "type": "address"
        },
        {
          "internalType": "uint256",
          "name": "tokenId",
          "type": "uint256"
        }
      ],
      "name": "safeTransferFrom",
      "outputs": [],
      "stateMutability": "nonpayable",
      "type": "function"
    },
    {
      "inputs": [
        {
          "internalType": "address",
          "name": "from",
          "type": "address"
        },
        {
          "internalType": "address",
          "name": "to",
          "type": "address"
        },
        {
          "internalType": "uint256",
          "name": "tokenId",
          "type": "uint256"
        },
        {
          "internalType": "bytes",
          "name": "_data",
          "type": "bytes"
        }
      ],
      "name": "safeTransferFrom",
      "outputs": [],
      "stateMutability": "nonpayable",
      "type": "function"
    },
    {
      "inputs": [
        {
          "internalType": "address",
          "name": "operator",
          "type": "address"
        },
        {
          "internalType": "bool",
          "name": "approved",
          "type": "bool"
        }
      ],
      "name": "setApprovalForAll",
      "outputs": [],
      "stateMutability": "nonpayable",
      "type": "function"
    },
    {
      "inputs": [
        {
          "internalType": "address",
          "name": "approvee",
          "type": "address"
        }
      ],
      "name": "setApprovedForAllOperator",
      "outputs": [],
      "stateMutability": "nonpayable",
      "type": "function"
    },
    {
      "inputs": [
        {
          "internalType": "string",
          "name": "_baseTokenURI",
          "type": "string"
        }
      ],
      "name": "setBaseTokenURI",
      "outputs": [],
      "stateMutability": "nonpayable",
      "type": "function"
    },
    {
      "inputs": [
        {
          "internalType": "string",
          "name": "_contractURI",
          "type": "string"
        }
      ],
      "name": "setContractURI",
      "outputs": [],
      "stateMutability": "nonpayable",
      "type": "function"
    },
    {
      "inputs": [
        {
          "internalType": "address",
          "name": "_minter",
          "type": "address"
        }
      ],
      "name": "setMinter",
      "outputs": [],
      "stateMutability": "nonpayable",
      "type": "function"
    },
    {
      "inputs": [
        {
          "internalType": "bytes4",
          "name": "interfaceId",
          "type": "bytes4"
        }
      ],
      "name": "supportsInterface",
      "outputs": [
        {
          "internalType": "bool",
          "name": "",
          "type": "bool"
        }
      ],
      "stateMutability": "view",
      "type": "function"
    },
    {
      "inputs": [],
      "name": "symbol",
      "outputs": [
        {
          "internalType": "string",
          "name": "",
          "type": "string"
        }
      ],
      "stateMutability": "view",
      "type": "function"
    },
    {
      "inputs": [
        {
          "internalType": "uint256",
          "name": "_tokenId",
          "type": "uint256"
        }
      ],
      "name": "tokenURI",
      "outputs": [
        {
          "internalType": "string",
          "name": "",
          "type": "string"
        }
      ],
      "stateMutability": "view",
      "type": "function"
    },
    {
      "inputs": [],
      "name": "totalSupply",
      "outputs": [
        {
          "internalType": "uint256",
          "name": "",
          "type": "uint256"
        }
      ],
      "stateMutability": "view",
      "type": "function"
    },
    {
      "inputs": [
        {
          "internalType": "address",
          "name": "from",
          "type": "address"
        },
        {
          "internalType": "address",
          "name": "to",
          "type": "address"
        },
        {
          "internalType": "uint256",
          "name": "tokenId",
          "type": "uint256"
        }
      ],
      "name": "transferFrom",
      "outputs": [],
      "stateMutability": "nonpayable",
      "type": "function"
    }
  ],
  "transactionHash": "0xbb9281110fc3cf473465c8fff0894037449c4e1045387ec900d1464c73d58236",
  "args": [
    "0x208Fb9169BBec5915722e0AfF8B0eeEdaBf8a6f0",
    "Panther NFT",
    "PNFT"
  ],
  "numDeployments": 1,
  "solcInputHash": "49300367bcb47864d5852738a8da403e",
  "bytecode": "0x60a06040526006805460ff191690553480156200001b57600080fd5b50604051620029e9380380620029e98339810160408190526200003e91620002c5565b8181846001600160a01b0381166200009d5760405162461bcd60e51b815260206004820152601a60248201527f496d6d4f776e3a207a65726f206f776e6572206164647265737300000000000060448201526064015b60405180910390fd5b6001600160a01b03166080526000620000b78382620003de565b506001620000c68282620003de565b505050620000e06009620000f460201b6200127f1760201c565b620000eb82620000fd565b505050620004aa565b80546001019055565b60065460ff1615620001435760405162461bcd60e51b815260206004820152600e60248201526d185b1c9958591e481a5b9a5d195960921b604482015260640162000094565b6200014e816200015e565b506006805460ff19166001179055565b6040518060800160405280604f81526020016200299a604f9139805160209182012082519282019290922060408051808201825260018152603160f81b90840152805180840194909452838101919091527fc89efdaa54c0f20c7adf612882df0950f5a951637e0307cdcb4c672f298b8bc660608401523060808401524660a0808501919091528151808503909101815260c090930190528151910120600755565b634e487b7160e01b600052604160045260246000fd5b600082601f8301126200022857600080fd5b81516001600160401b038082111562000245576200024562000200565b604051601f8301601f19908116603f0116810190828211818310171562000270576200027062000200565b816040528381526020925086838588010111156200028d57600080fd5b600091505b83821015620002b1578582018301518183018401529082019062000292565b600093810190920192909252949350505050565b600080600060608486031215620002db57600080fd5b83516001600160a01b0381168114620002f357600080fd5b60208501519093506001600160401b03808211156200031157600080fd5b6200031f8783880162000216565b935060408601519150808211156200033657600080fd5b50620003458682870162000216565b9150509250925092565b600181811c908216806200036457607f821691505b6020821081036200038557634e487b7160e01b600052602260045260246000fd5b50919050565b601f821115620003d957600081815260208120601f850160051c81016020861015620003b45750805b601f850160051c820191505b81811015620003d557828155600101620003c0565b5050505b505050565b81516001600160401b03811115620003fa57620003fa62000200565b62000412816200040b84546200034f565b846200038b565b602080601f8311600181146200044a5760008415620004315750858301515b600019600386901b1c1916600185901b178555620003d5565b600085815260208120601f198616915b828110156200047b578886015182559484019460019091019084016200045a565b50858210156200049a5787850151600019600388901b60f8161c191681555b5050505050600190811b01905550565b6080516124b8620004e2600039600081816102ea01528181610ac701528181610d20015281816110aa015261116e01526124b86000f3fe6080604052600436106101c25760003560e01c806342842e0e116100f7578063b88d4fde11610095578063e8a3d48511610064578063e8a3d48514610517578063e985e9c51461052c578063fbd616d21461054c578063fca3b5aa1461056c57600080fd5b8063b88d4fde146104a2578063c87b56dd146104c2578063d17c93bf146104e2578063d547cfb71461050257600080fd5b8063938e3d7b116100d1578063938e3d7b1461042d57806395d89b411461044d578063a22cb46514610462578063b74c9c8c1461048257600080fd5b806342842e0e146103cd5780636352211e146103ed57806370a082311461040d57600080fd5b8063117803e31161016457806323b872dd1161013e57806323b872dd146103445780632d0335ab1461036457806330176e131461039a5780633408e470146103ba57600080fd5b8063117803e3146102d857806318160ddd1461030c57806320379ee51461032f57600080fd5b8063081812fc116101a0578063081812fc14610256578063095ea7b3146102765780630c53c51c146102985780630f7e5970146102ab57600080fd5b806301ffc9a7146101c757806306fdde03146101fc578063075461721461021e575b600080fd5b3480156101d357600080fd5b506101e76101e2366004611d3f565b61058c565b60405190151581526020015b60405180910390f35b34801561020857600080fd5b506102116105de565b6040516101f39190611db3565b34801561022a57600080fd5b50600b5461023e906001600160a01b031681565b6040516001600160a01b0390911681526020016101f3565b34801561026257600080fd5b5061023e610271366004611dc6565b610670565b34801561028257600080fd5b50610296610291366004611df6565b61070a565b005b6102116102a6366004611ec3565b610831565b3480156102b757600080fd5b50610211604051806040016040528060018152602001603160f81b81525081565b3480156102e457600080fd5b5061023e7f000000000000000000000000000000000000000000000000000000000000000081565b34801561031857600080fd5b50610321610a1b565b6040519081526020016101f3565b34801561033b57600080fd5b50600754610321565b34801561035057600080fd5b5061029661035f366004611f3f565b610a37565b34801561037057600080fd5b5061032161037f366004611f7b565b6001600160a01b031660009081526008602052604090205490565b3480156103a657600080fd5b506102966103b5366004611f96565b610ac5565b3480156103c657600080fd5b5046610321565b3480156103d957600080fd5b506102966103e8366004611f3f565b610bde565b3480156103f957600080fd5b5061023e610408366004611dc6565b610bf9565b34801561041957600080fd5b50610321610428366004611f7b565b610c84565b34801561043957600080fd5b50610296610448366004611f96565b610d1e565b34801561045957600080fd5b50610211610e2b565b34801561046e57600080fd5b5061029661047d366004612008565b610e3a565b34801561048e57600080fd5b50600a5461023e906001600160a01b031681565b3480156104ae57600080fd5b506102966104bd366004612044565b610e50565b3480156104ce57600080fd5b506102116104dd366004611dc6565b610ee5565b3480156104ee57600080fd5b506103216104fd366004611f7b565b610f19565b34801561050e57600080fd5b50610211610fa1565b34801561052357600080fd5b5061021161102f565b34801561053857600080fd5b506101e76105473660046120ac565b61103c565b34801561055857600080fd5b50610296610567366004611f7b565b6110a8565b34801561057857600080fd5b50610296610587366004611f7b565b61116c565b60006001600160e01b031982166380ac58cd60e01b14806105bd57506001600160e01b03198216635b5e139f60e01b145b806105d857506301ffc9a760e01b6001600160e01b03198316145b92915050565b6060600080546105ed906120df565b80601f0160208091040260200160405190810160405280929190818152602001828054610619906120df565b80156106665780601f1061063b57610100808354040283529160200191610666565b820191906000526020600020905b81548152906001019060200180831161064957829003601f168201915b5050505050905090565b6000818152600260205260408120546001600160a01b03166106ee5760405162461bcd60e51b815260206004820152602c60248201527f4552433732313a20617070726f76656420717565727920666f72206e6f6e657860448201526b34b9ba32b73a103a37b5b2b760a11b60648201526084015b60405180910390fd5b506000908152600460205260409020546001600160a01b031690565b600061071582610bf9565b9050806001600160a01b0316836001600160a01b0316036107825760405162461bcd60e51b815260206004820152602160248201527f4552433732313a20617070726f76616c20746f2063757272656e74206f776e656044820152603960f91b60648201526084016106e5565b806001600160a01b0316610794611288565b6001600160a01b031614806107b057506107b081610547611288565b6108225760405162461bcd60e51b815260206004820152603860248201527f4552433732313a20617070726f76652063616c6c6572206973206e6f74206f7760448201527f6e6572206e6f7220617070726f76656420666f7220616c6c000000000000000060648201526084016106e5565b61082c8383611292565b505050565b60408051606081810183526001600160a01b0388166000818152600860209081529085902054845283015291810186905261086f8782878787611300565b6108c55760405162461bcd60e51b815260206004820152602160248201527f5369676e657220616e64207369676e617475726520646f206e6f74206d6174636044820152600d60fb1b60648201526084016106e5565b6001600160a01b0387166000908152600860205260409020546108e990600161212f565b6001600160a01b0388166000908152600860205260409081902091909155517f5845892132946850460bff5a0083f71031bc5bf9aadcd40f1de79423eac9b10b9061093990899033908a90612142565b60405180910390a1600080306001600160a01b0316888a604051602001610961929190612177565b60408051601f198184030181529082905261097b916121ae565b6000604051808303816000865af19150503d80600081146109b8576040519150601f19603f3d011682016040523d82523d6000602084013e6109bd565b606091505b509150915081610a0f5760405162461bcd60e51b815260206004820152601c60248201527f46756e6374696f6e2063616c6c206e6f74207375636365737366756c0000000060448201526064016106e5565b98975050505050505050565b60006001610a2860095490565b610a3291906121ca565b905090565b610a48610a42611288565b82611408565b610aba5760405162461bcd60e51b815260206004820152603160248201527f4552433732313a207472616e736665722063616c6c6572206973206e6f74206f60448201527f776e6572206e6f7220617070726f76656400000000000000000000000000000060648201526084016106e5565b61082c8383836114d7565b7f00000000000000000000000000000000000000000000000000000000000000006001600160a01b03163314610b345760405162461bcd60e51b8152602060048201526014602482015273125b5b53dddb8e881d5b985d5d1a1bdc9a5e995960621b60448201526064016106e5565b6000600d8054610b43906120df565b90501115610b935760405162461bcd60e51b815260206004820152601360248201527f426173652055524920697320646566696e65640000000000000000000000000060448201526064016106e5565b600d610ba082848361222b565b507f89e5189514b6402e76dacf643a35960a8b0a3302552103511c83cb42b07b25ab8282604051610bd29291906122ec565b60405180910390a15050565b61082c83838360405180602001604052806000815250610e50565b6000818152600260205260408120546001600160a01b0316806105d85760405162461bcd60e51b815260206004820152602960248201527f4552433732313a206f776e657220717565727920666f72206e6f6e657869737460448201527f656e7420746f6b656e000000000000000000000000000000000000000000000060648201526084016106e5565b60006001600160a01b038216610d025760405162461bcd60e51b815260206004820152602a60248201527f4552433732313a2062616c616e636520717565727920666f7220746865207a6560448201527f726f20616464726573730000000000000000000000000000000000000000000060648201526084016106e5565b506001600160a01b031660009081526003602052604090205490565b7f00000000000000000000000000000000000000000000000000000000000000006001600160a01b03163314610d8d5760405162461bcd60e51b8152602060048201526014602482015273125b5b53dddb8e881d5b985d5d1a1bdc9a5e995960621b60448201526064016106e5565b6000600c8054610d9c906120df565b90501115610dec5760405162461bcd60e51b815260206004820152601760248201527f436f6e74726163742055524920697320646566696e656400000000000000000060448201526064016106e5565b600c610df982848361222b565b507f4fe5dc42d3135f1187553067d4fc915fc201e7eaa6ef43dcc4929a2089772b4a8282604051610bd29291906122ec565b6060600180546105ed906120df565b610e4c610e45611288565b838361168b565b5050565b610e61610e5b611288565b83611408565b610ed35760405162461bcd60e51b815260206004820152603160248201527f4552433732313a207472616e736665722063616c6c6572206973206e6f74206f60448201527f776e6572206e6f7220617070726f76656400000000000000000000000000000060648201526084016106e5565b610edf84848484611759565b50505050565b6060600d610ef2836117d7565b604051602001610f0392919061231b565b6040516020818303038152906040529050919050565b600b546000906001600160a01b0316610f30611288565b6001600160a01b031614610f865760405162461bcd60e51b815260206004820152600b60248201527f4f6e6c79206d696e74657200000000000000000000000000000000000000000060448201526064016106e5565b506009805460018101909155610f9c82826118f0565b919050565b600d8054610fae906120df565b80601f0160208091040260200160405190810160405280929190818152602001828054610fda906120df565b80156110275780601f10610ffc57610100808354040283529160200191611027565b820191906000526020600020905b81548152906001019060200180831161100a57829003601f168201915b505050505081565b600c8054610fae906120df565b6001600160a01b03808316600090815260056020908152604080832093851683529290529081205460ff1615611074575060016105d8565b600a546001600160a01b031680158015906110a05750826001600160a01b0316816001600160a01b0316145b949350505050565b7f00000000000000000000000000000000000000000000000000000000000000006001600160a01b031633146111175760405162461bcd60e51b8152602060048201526014602482015273125b5b53dddb8e881d5b985d5d1a1bdc9a5e995960621b60448201526064016106e5565b600a80546001600160a01b0319166001600160a01b0383169081179091556040519081527fa03480b0bdd9936fc87365d0586f60fa5b1d691919b350634f74ce5bb34588fc906020015b60405180910390a150565b7f00000000000000000000000000000000000000000000000000000000000000006001600160a01b031633146111db5760405162461bcd60e51b8152602060048201526014602482015273125b5b53dddb8e881d5b985d5d1a1bdc9a5e995960621b60448201526064016106e5565b6001600160a01b0381166112315760405162461bcd60e51b815260206004820152600c60248201527f5a65726f2061646472657373000000000000000000000000000000000000000060448201526064016106e5565b600b80546001600160a01b0319166001600160a01b0383169081179091556040519081527fad0f299ec81a386c98df0ac27dae11dd020ed1b56963c53a7292e7a3a314539a90602001611161565b80546001019055565b6000610a3261190a565b600081815260046020526040902080546001600160a01b0319166001600160a01b03841690811790915581906112c782610bf9565b6001600160a01b03167f8c5be1e5ebec7d5bd14f71427d1e84f3dd0314c0f7b2291e5b200ac8c7c3b92560405160405180910390a45050565b60006001600160a01b03861661137e5760405162461bcd60e51b815260206004820152602560248201527f4e61746976654d6574615472616e73616374696f6e3a20494e56414c49445f5360448201527f49474e455200000000000000000000000000000000000000000000000000000060648201526084016106e5565b600161139161138c87611966565b6119e3565b6040805160008152602081018083529290925260ff851690820152606081018690526080810185905260a0016020604051602081039080840390855afa1580156113df573d6000803e3d6000fd5b505050602060405103516001600160a01b0316866001600160a01b031614905095945050505050565b6000818152600260205260408120546001600160a01b03166114815760405162461bcd60e51b815260206004820152602c60248201527f4552433732313a206f70657261746f7220717565727920666f72206e6f6e657860448201526b34b9ba32b73a103a37b5b2b760a11b60648201526084016106e5565b600061148c83610bf9565b9050806001600160a01b0316846001600160a01b031614806114c75750836001600160a01b03166114bc84610670565b6001600160a01b0316145b806110a057506110a0818561103c565b826001600160a01b03166114ea82610bf9565b6001600160a01b0316146115665760405162461bcd60e51b815260206004820152602960248201527f4552433732313a207472616e73666572206f6620746f6b656e2074686174206960448201527f73206e6f74206f776e000000000000000000000000000000000000000000000060648201526084016106e5565b6001600160a01b0382166115c85760405162461bcd60e51b8152602060048201526024808201527f4552433732313a207472616e7366657220746f20746865207a65726f206164646044820152637265737360e01b60648201526084016106e5565b6115d3600082611292565b6001600160a01b03831660009081526003602052604081208054600192906115fc9084906121ca565b90915550506001600160a01b038216600090815260036020526040812080546001929061162a90849061212f565b909155505060008181526002602052604080822080546001600160a01b0319166001600160a01b0386811691821790925591518493918716917fddf252ad1be2c89b69c2b068fc378daa952ba7f163c4a11628f55a4df523b3ef91a4505050565b816001600160a01b0316836001600160a01b0316036116ec5760405162461bcd60e51b815260206004820152601960248201527f4552433732313a20617070726f766520746f2063616c6c65720000000000000060448201526064016106e5565b6001600160a01b03838116600081815260056020908152604080832094871680845294825291829020805460ff191686151590811790915591519182527f17307eab39ab6107e8899845ad3d59bd9653f200f220920489ca2b5937696c31910160405180910390a3505050565b6117648484846114d7565b61177084848484611a13565b610edf5760405162461bcd60e51b815260206004820152603260248201527f4552433732313a207472616e7366657220746f206e6f6e20455243373231526560448201527131b2b4bb32b91034b6b83632b6b2b73a32b960711b60648201526084016106e5565b6060816000036117fe5750506040805180820190915260018152600360fc1b602082015290565b8160005b81156118285780611812816123a2565b91506118219050600a836123d1565b9150611802565b60008167ffffffffffffffff81111561184357611843611e20565b6040519080825280601f01601f19166020018201604052801561186d576020820181803683370190505b5090505b84156110a0576118826001836121ca565b915061188f600a866123e5565b61189a90603061212f565b60f81b8183815181106118af576118af6123f9565b60200101907effffffffffffffffffffffffffffffffffffffffffffffffffffffffffffff1916908160001a9053506118e9600a866123d1565b9450611871565b610e4c828260405180602001604052806000815250611b66565b600030330361196057600080368080601f0160208091040260200160405190810160405280939291908181526020018383808284376000920191909152505050503601516001600160a01b031691506119639050565b50335b90565b600060405180608001604052806043815260200161246960439139805160209182012083518483015160408087015180519086012090516119c6950193845260208401929092526001600160a01b03166040830152606082015260800190565b604051602081830303815290604052805190602001209050919050565b60006119ee60075490565b60405161190160f01b60208201526022810191909152604281018390526062016119c6565b60006001600160a01b0384163b15611b5b57836001600160a01b031663150b7a02611a3c611288565b8786866040518563ffffffff1660e01b8152600401611a5e949392919061240f565b6020604051808303816000875af1925050508015611a99575060408051601f3d908101601f19168201909252611a969181019061244b565b60015b611b41573d808015611ac7576040519150601f19603f3d011682016040523d82523d6000602084013e611acc565b606091505b508051600003611b395760405162461bcd60e51b815260206004820152603260248201527f4552433732313a207472616e7366657220746f206e6f6e20455243373231526560448201527131b2b4bb32b91034b6b83632b6b2b73a32b960711b60648201526084016106e5565b805181602001fd5b6001600160e01b031916630a85bd0160e11b1490506110a0565b506001949350505050565b611b708383611be4565b611b7d6000848484611a13565b61082c5760405162461bcd60e51b815260206004820152603260248201527f4552433732313a207472616e7366657220746f206e6f6e20455243373231526560448201527131b2b4bb32b91034b6b83632b6b2b73a32b960711b60648201526084016106e5565b6001600160a01b038216611c3a5760405162461bcd60e51b815260206004820181905260248201527f4552433732313a206d696e7420746f20746865207a65726f206164647265737360448201526064016106e5565b6000818152600260205260409020546001600160a01b031615611c9f5760405162461bcd60e51b815260206004820152601c60248201527f4552433732313a20746f6b656e20616c7265616479206d696e7465640000000060448201526064016106e5565b6001600160a01b0382166000908152600360205260408120805460019290611cc890849061212f565b909155505060008181526002602052604080822080546001600160a01b0319166001600160a01b03861690811790915590518392907fddf252ad1be2c89b69c2b068fc378daa952ba7f163c4a11628f55a4df523b3ef908290a45050565b6001600160e01b031981168114611d3c57600080fd5b50565b600060208284031215611d5157600080fd5b8135611d5c81611d26565b9392505050565b60005b83811015611d7e578181015183820152602001611d66565b50506000910152565b60008151808452611d9f816020860160208601611d63565b601f01601f19169290920160200192915050565b602081526000611d5c6020830184611d87565b600060208284031215611dd857600080fd5b5035919050565b80356001600160a01b0381168114610f9c57600080fd5b60008060408385031215611e0957600080fd5b611e1283611ddf565b946020939093013593505050565b634e487b7160e01b600052604160045260246000fd5b600082601f830112611e4757600080fd5b813567ffffffffffffffff80821115611e6257611e62611e20565b604051601f8301601f19908116603f01168101908282118183101715611e8a57611e8a611e20565b81604052838152866020858801011115611ea357600080fd5b836020870160208301376000602085830101528094505050505092915050565b600080600080600060a08688031215611edb57600080fd5b611ee486611ddf565b9450602086013567ffffffffffffffff811115611f0057600080fd5b611f0c88828901611e36565b9450506040860135925060608601359150608086013560ff81168114611f3157600080fd5b809150509295509295909350565b600080600060608486031215611f5457600080fd5b611f5d84611ddf565b9250611f6b60208501611ddf565b9150604084013590509250925092565b600060208284031215611f8d57600080fd5b611d5c82611ddf565b60008060208385031215611fa957600080fd5b823567ffffffffffffffff80821115611fc157600080fd5b818501915085601f830112611fd557600080fd5b813581811115611fe457600080fd5b866020828501011115611ff657600080fd5b60209290920196919550909350505050565b6000806040838503121561201b57600080fd5b61202483611ddf565b91506020830135801515811461203957600080fd5b809150509250929050565b6000806000806080858703121561205a57600080fd5b61206385611ddf565b935061207160208601611ddf565b925060408501359150606085013567ffffffffffffffff81111561209457600080fd5b6120a087828801611e36565b91505092959194509250565b600080604083850312156120bf57600080fd5b6120c883611ddf565b91506120d660208401611ddf565b90509250929050565b600181811c908216806120f357607f821691505b60208210810361211357634e487b7160e01b600052602260045260246000fd5b50919050565b634e487b7160e01b600052601160045260246000fd5b808201808211156105d8576105d8612119565b60006001600160a01b0380861683528085166020840152506060604083015261216e6060830184611d87565b95945050505050565b60008351612189818460208801611d63565b60609390931b6bffffffffffffffffffffffff19169190920190815260140192915050565b600082516121c0818460208701611d63565b9190910192915050565b818103818111156105d8576105d8612119565b601f82111561082c57600081815260208120601f850160051c810160208610156122045750805b601f850160051c820191505b8181101561222357828155600101612210565b505050505050565b67ffffffffffffffff83111561224357612243611e20565b6122578361225183546120df565b836121dd565b6000601f84116001811461228b57600085156122735750838201355b600019600387901b1c1916600186901b1783556122e5565b600083815260209020601f19861690835b828110156122bc578685013582556020948501946001909201910161229c565b50868210156122d95760001960f88860031b161c19848701351681555b505060018560011b0183555b5050505050565b60208152816020820152818360408301376000818301604090810191909152601f909201601f19160101919050565b6000808454612329816120df565b60018281168015612341576001811461235657612385565b60ff1984168752821515830287019450612385565b8860005260208060002060005b8581101561237c5781548a820152908401908201612363565b50505082870194505b505050508351612399818360208801611d63565b01949350505050565b6000600182016123b4576123b4612119565b5060010190565b634e487b7160e01b600052601260045260246000fd5b6000826123e0576123e06123bb565b500490565b6000826123f4576123f46123bb565b500690565b634e487b7160e01b600052603260045260246000fd5b60006001600160a01b038087168352808616602084015250836040830152608060608301526124416080830184611d87565b9695505050505050565b60006020828403121561245d57600080fd5b8151611d5c81611d2656fe4d6574615472616e73616374696f6e2875696e74323536206e6f6e63652c616464726573732066726f6d2c62797465732066756e6374696f6e5369676e617475726529a164736f6c6343000810000a454950373132446f6d61696e28737472696e67206e616d652c737472696e672076657273696f6e2c6164647265737320766572696679696e67436f6e74726163742c627974657333322073616c7429",
  "devdoc": {
    "details": "If called by the \"minter\", it mints and grants one NFT to the address given. The `AdvancedStakeRewardController` is supposed to be the minter and call it to reward stakers with $PNFTs. An immutable \"owner\" may update the minter and set the metadata (URIs) once. Inspired and borrowed by/from the OpenSea's ERC721Tradable contract. https://github.com/ProjectOpenSea/opensea-creatures/blob/master/contracts/ERC721Tradable.sol",
    "kind": "dev",
    "methods": {
      "approve(address,uint256)": {
        "details": "See {IERC721-approve}."
      },
      "balanceOf(address)": {
        "details": "See {IERC721-balanceOf}."
      },
      "getApproved(uint256)": {
        "details": "See {IERC721-getApproved}."
      },
      "grantOneToken(address)": {
        "details": "Mints a token to an address with a tokenURI.",
        "params": {
          "_to": "address of the future owner of the token"
        }
      },
      "name()": {
        "details": "See {IERC721Metadata-name}."
      },
      "ownerOf(uint256)": {
        "details": "See {IERC721-ownerOf}."
      },
      "safeTransferFrom(address,address,uint256)": {
        "details": "See {IERC721-safeTransferFrom}."
      },
      "safeTransferFrom(address,address,uint256,bytes)": {
        "details": "See {IERC721-safeTransferFrom}."
      },
      "setApprovalForAll(address,bool)": {
        "details": "See {IERC721-setApprovalForAll}."
      },
      "setApprovedForAllOperator(address)": {
        "details": "Sets the address of the \"operator\" approved for all transactions. May be set by the owner only.",
        "params": {
          "approvee": "Approved address. It may be a Panther's contract or OpenSea's ERC721 Proxy Registry, which is at matic:0x58807baD0B376efc12F5AD86aAc70E78ed67deaE (mumbai:0xff7Ca10aF37178BdD056628eF42fD7F799fAc77c)"
        }
      },
      "setBaseTokenURI(string)": {
        "details": "Sets the URI of the token. it can be called only once by the owner",
        "params": {
          "_baseTokenURI": "URI of the token"
        }
      },
      "setContractURI(string)": {
        "details": "Sets the URI of the contract. it can be called only once by the owner",
        "params": {
          "_contractURI": "URI of the contract"
        }
      },
      "setMinter(address)": {
        "details": "Sets the minter address",
        "params": {
          "_minter": "The address that can mint token"
        }
      },
      "supportsInterface(bytes4)": {
        "details": "See {IERC165-supportsInterface}."
      },
      "symbol()": {
        "details": "See {IERC721Metadata-symbol}."
      },
      "totalSupply()": {
        "details": "Returns the total tokens minted so far. 1 is always subtracted from the Counter since it tracks the next available tokenId."
      },
      "transferFrom(address,address,uint256)": {
        "details": "See {IERC721-transferFrom}."
      }
    },
    "title": "PNftToken",
    "version": 1
  },
  "userdoc": {
    "kind": "user",
    "methods": {
      "OWNER()": {
        "notice": "The owner who has privileged rights"
      },
      "approvedForAll()": {
        "notice": "Operator (or user's Proxy Register) approved for all transactions"
      },
      "isApprovedForAll(address,address)": {
        "notice": "Override isApprovedForAll to whitelist a Panther authorized account or user's OpenSea proxy accounts to enable gas-less transactions/listings."
      }
    },
    "notice": "Panther NFT (PNFT) token on Polygon.",
    "version": 1
  },
  "storageLayout": {
    "storage": [
      {
        "astId": 1225,
        "contract": "contracts/staking/PNftToken.sol:PNftToken",
        "label": "_name",
        "offset": 0,
        "slot": "0",
        "type": "t_string_storage"
      },
      {
        "astId": 1227,
        "contract": "contracts/staking/PNftToken.sol:PNftToken",
        "label": "_symbol",
        "offset": 0,
        "slot": "1",
        "type": "t_string_storage"
      },
      {
        "astId": 1231,
        "contract": "contracts/staking/PNftToken.sol:PNftToken",
        "label": "_owners",
        "offset": 0,
        "slot": "2",
        "type": "t_mapping(t_uint256,t_address)"
      },
      {
        "astId": 1235,
        "contract": "contracts/staking/PNftToken.sol:PNftToken",
        "label": "_balances",
        "offset": 0,
        "slot": "3",
        "type": "t_mapping(t_address,t_uint256)"
      },
      {
        "astId": 1239,
        "contract": "contracts/staking/PNftToken.sol:PNftToken",
        "label": "_tokenApprovals",
        "offset": 0,
        "slot": "4",
        "type": "t_mapping(t_uint256,t_address)"
      },
      {
        "astId": 1245,
        "contract": "contracts/staking/PNftToken.sol:PNftToken",
        "label": "_operatorApprovals",
        "offset": 0,
        "slot": "5",
        "type": "t_mapping(t_address,t_mapping(t_address,t_bool))"
      },
      {
        "astId": 14149,
        "contract": "contracts/staking/PNftToken.sol:PNftToken",
        "label": "inited",
        "offset": 0,
        "slot": "6",
        "type": "t_bool"
      },
      {
        "astId": 14055,
        "contract": "contracts/staking/PNftToken.sol:PNftToken",
        "label": "domainSeperator",
        "offset": 0,
        "slot": "7",
        "type": "t_bytes32"
      },
      {
        "astId": 14191,
        "contract": "contracts/staking/PNftToken.sol:PNftToken",
        "label": "nonces",
        "offset": 0,
        "slot": "8",
        "type": "t_mapping(t_address,t_uint256)"
      },
      {
        "astId": 11160,
        "contract": "contracts/staking/PNftToken.sol:PNftToken",
        "label": "_nextTokenId",
        "offset": 0,
        "slot": "9",
        "type": "t_struct(Counter)2516_storage"
      },
      {
        "astId": 11163,
        "contract": "contracts/staking/PNftToken.sol:PNftToken",
        "label": "approvedForAll",
        "offset": 0,
        "slot": "10",
        "type": "t_address"
      },
      {
        "astId": 11165,
        "contract": "contracts/staking/PNftToken.sol:PNftToken",
        "label": "minter",
        "offset": 0,
        "slot": "11",
        "type": "t_address"
      },
      {
        "astId": 11167,
        "contract": "contracts/staking/PNftToken.sol:PNftToken",
        "label": "contractURI",
        "offset": 0,
        "slot": "12",
        "type": "t_string_storage"
      },
      {
        "astId": 11169,
        "contract": "contracts/staking/PNftToken.sol:PNftToken",
        "label": "baseTokenURI",
        "offset": 0,
        "slot": "13",
        "type": "t_string_storage"
      }
    ],
    "types": {
      "t_address": {
        "encoding": "inplace",
        "label": "address",
        "numberOfBytes": "20"
      },
      "t_bool": {
        "encoding": "inplace",
        "label": "bool",
        "numberOfBytes": "1"
      },
      "t_bytes32": {
        "encoding": "inplace",
        "label": "bytes32",
        "numberOfBytes": "32"
      },
      "t_mapping(t_address,t_bool)": {
        "encoding": "mapping",
        "key": "t_address",
        "label": "mapping(address => bool)",
        "numberOfBytes": "32",
        "value": "t_bool"
      },
      "t_mapping(t_address,t_mapping(t_address,t_bool))": {
        "encoding": "mapping",
        "key": "t_address",
        "label": "mapping(address => mapping(address => bool))",
        "numberOfBytes": "32",
        "value": "t_mapping(t_address,t_bool)"
      },
      "t_mapping(t_address,t_uint256)": {
        "encoding": "mapping",
        "key": "t_address",
        "label": "mapping(address => uint256)",
        "numberOfBytes": "32",
        "value": "t_uint256"
      },
      "t_mapping(t_uint256,t_address)": {
        "encoding": "mapping",
        "key": "t_uint256",
        "label": "mapping(uint256 => address)",
        "numberOfBytes": "32",
        "value": "t_address"
      },
      "t_string_storage": {
        "encoding": "bytes",
        "label": "string",
        "numberOfBytes": "32"
      },
      "t_struct(Counter)2516_storage": {
        "encoding": "inplace",
        "label": "struct Counters.Counter",
        "members": [
          {
            "astId": 2515,
            "contract": "contracts/staking/PNftToken.sol:PNftToken",
            "label": "_value",
            "offset": 0,
            "slot": "0",
            "type": "t_uint256"
          }
        ],
        "numberOfBytes": "32"
      },
      "t_uint256": {
        "encoding": "inplace",
        "label": "uint256",
        "numberOfBytes": "32"
      }
    }
  }
}