{
  "address": "0xd33B839Cd4f75b860dBF1662C25cfD1dC78B07Ba",
  "abi": [
    {
      "inputs": [
        {
          "internalType": "address",
          "name": "_owner",
          "type": "address"
        }
      ],
      "stateMutability": "nonpayable",
      "type": "constructor"
    },
    {
      "anonymous": false,
      "inputs": [
        {
          "components": [
            {
              "internalType": "uint8",
              "name": "tokenType",
              "type": "uint8"
            },
            {
              "internalType": "address",
              "name": "token",
              "type": "address"
            },
            {
              "internalType": "uint256",
              "name": "tokenId",
              "type": "uint256"
            },
            {
              "internalType": "address",
              "name": "extAccount",
              "type": "address"
            },
            {
              "internalType": "uint96",
              "name": "extAmount",
              "type": "uint96"
            }
          ],
          "indexed": false,
          "internalType": "struct LockData",
          "name": "data",
          "type": "tuple"
        }
      ],
      "name": "Locked",
      "type": "event"
    },
    {
      "anonymous": false,
      "inputs": [
        {
          "components": [
            {
              "internalType": "uint8",
              "name": "tokenType",
              "type": "uint8"
            },
            {
              "internalType": "address",
              "name": "token",
              "type": "address"
            },
            {
              "internalType": "uint256",
              "name": "tokenId",
              "type": "uint256"
            },
            {
              "internalType": "address",
              "name": "extAccount",
              "type": "address"
            },
            {
              "internalType": "uint96",
              "name": "extAmount",
              "type": "uint96"
            }
          ],
          "indexed": false,
          "internalType": "struct LockData",
          "name": "data",
          "type": "tuple"
        }
      ],
      "name": "Unlocked",
      "type": "event"
    },
    {
      "inputs": [],
      "name": "OWNER",
      "outputs": [
        {
          "internalType": "address",
          "name": "",
          "type": "address"
        }
      ],
      "stateMutability": "view",
      "type": "function"
    },
    {
      "inputs": [
        {
          "components": [
            {
              "internalType": "uint8",
              "name": "tokenType",
              "type": "uint8"
            },
            {
              "internalType": "address",
              "name": "token",
              "type": "address"
            },
            {
              "internalType": "uint256",
              "name": "tokenId",
              "type": "uint256"
            },
            {
              "internalType": "address",
              "name": "extAccount",
              "type": "address"
            },
            {
              "internalType": "uint96",
              "name": "extAmount",
              "type": "uint96"
            }
          ],
          "internalType": "struct LockData",
          "name": "data",
          "type": "tuple"
        }
      ],
      "name": "lockAsset",
      "outputs": [],
      "stateMutability": "nonpayable",
      "type": "function"
    },
    {
      "inputs": [
        {
          "internalType": "address",
          "name": "",
          "type": "address"
        },
        {
          "internalType": "address",
          "name": "",
          "type": "address"
        },
        {
          "internalType": "uint256",
          "name": "",
          "type": "uint256"
        },
        {
          "internalType": "uint256",
          "name": "",
          "type": "uint256"
        },
        {
          "internalType": "bytes",
          "name": "",
          "type": "bytes"
        }
      ],
      "name": "onERC1155Received",
      "outputs": [
        {
          "internalType": "bytes4",
          "name": "",
          "type": "bytes4"
        }
      ],
      "stateMutability": "pure",
      "type": "function"
    },
    {
      "inputs": [
        {
          "internalType": "address",
          "name": "",
          "type": "address"
        },
        {
          "internalType": "address",
          "name": "",
          "type": "address"
        },
        {
          "internalType": "uint256",
          "name": "",
          "type": "uint256"
        },
        {
          "internalType": "bytes",
          "name": "",
          "type": "bytes"
        }
      ],
      "name": "onERC721Received",
      "outputs": [
        {
          "internalType": "bytes4",
          "name": "",
          "type": "bytes4"
        }
      ],
      "stateMutability": "nonpayable",
      "type": "function"
    },
    {
      "inputs": [
        {
          "components": [
            {
              "internalType": "uint8",
              "name": "tokenType",
              "type": "uint8"
            },
            {
              "internalType": "address",
              "name": "token",
              "type": "address"
            },
            {
              "internalType": "uint256",
              "name": "tokenId",
              "type": "uint256"
            },
            {
              "internalType": "address",
              "name": "extAccount",
              "type": "address"
            },
            {
              "internalType": "uint96",
              "name": "extAmount",
              "type": "uint96"
            }
          ],
          "internalType": "struct LockData",
          "name": "data",
          "type": "tuple"
        }
      ],
      "name": "unlockAsset",
      "outputs": [],
      "stateMutability": "nonpayable",
      "type": "function"
    }
  ],
  "transactionHash": "0x5a4f581e28864b526e86afe3a17fad5a83b9223c79a3ecafe21b8885c511b8ea",
  "args": [
    "0x9a423671e9Cde99Ae88853B701f98ca9e136877B"
  ],
  "numDeployments": 1,
  "solcInputHash": "49300367bcb47864d5852738a8da403e",
  "bytecode": "0x60a060405234801561001057600080fd5b5060405161104538038061104583398101604081905261002f9161009c565b806001600160a01b03811661008a5760405162461bcd60e51b815260206004820152601a60248201527f496d6d4f776e3a207a65726f206f776e65722061646472657373000000000000604482015260640160405180910390fd5b6001600160a01b0316608052506100cc565b6000602082840312156100ae57600080fd5b81516001600160a01b03811681146100c557600080fd5b9392505050565b608051610f516100f46000396000818160710152818161014901526104a40152610f516000f3fe608060405234801561001057600080fd5b50600436106100675760003560e01c80635bd3e6c0116100505780635bd3e6c0146100ff5780637441ba2414610114578063f23a6e611461012757600080fd5b8063117803e31461006c578063150b7a02146100b0575b600080fd5b6100937f000000000000000000000000000000000000000000000000000000000000000081565b6040516001600160a01b0390911681526020015b60405180910390f35b6100ce6100be366004610bcf565b630a85bd0160e11b949350505050565b6040517fffffffff0000000000000000000000000000000000000000000000000000000090911681526020016100a7565b61011261010d366004610cab565b610147565b005b610112610122366004610cab565b6104a2565b6100ce610135366004610cc3565b63f23a6e6160e01b9695505050505050565b7f00000000000000000000000000000000000000000000000000000000000000006001600160a01b031633146101c45760405162461bcd60e51b815260206004820152601460248201527f496d6d4f776e3a20756e617574686f72697a656400000000000000000000000060448201526064015b60405180910390fd5b8060006101d76040830160208401610d69565b6001600160a01b03161415604051806040016040528060058152602001642b209d229960d91b8152509061021e5760405162461bcd60e51b81526004016101bb9190610ddb565b5060006102316080830160608401610d69565b6001600160a01b031614156040518060400160405280600581526020016456413a453360d81b815250906102785760405162461bcd60e51b81526004016101bb9190610ddb565b50600061028b60a0830160808401610e0a565b6bffffffffffffffffffffffff16116040518060400160405280600581526020016415904e914d60da1b815250906102d65760405162461bcd60e51b81526004016101bb9190610ddb565b5060006102e66020840184610e36565b60ff16036103445761033f6103016080840160608501610d69565b61031160a0850160808601610e0a565b6bffffffffffffffffffffffff1661032f6040860160208701610d69565b6001600160a01b0316919061074b565b610467565b60106103536020840184610e36565b60ff16036103955761033f6040830135306103746080860160608701610d69565b6103846040870160208801610d69565b6001600160a01b0316929190610851565b60116103a46020840184610e36565b60ff160361041c5761033f306103c06080850160608601610d69565b60408501356103d560a0870160808801610e0a565b604080516000808252602082019092526bffffffffffffffffffffffff929092169190506104096040890160208a01610d69565b6001600160a01b03169493929190610969565b604080518082018252600581527f56413a45310000000000000000000000000000000000000000000000000000006020820152905162461bcd60e51b81526101bb9190600401610ddb565b7f2437c8e0ff3ebf9cffe6210e0d3eeeba5191660e089a6cc3c9b146acf69bb0e9826040516104969190610e51565b60405180910390a15050565b7f00000000000000000000000000000000000000000000000000000000000000006001600160a01b0316331461051a5760405162461bcd60e51b815260206004820152601460248201527f496d6d4f776e3a20756e617574686f72697a656400000000000000000000000060448201526064016101bb565b80600061052d6040830160208401610d69565b6001600160a01b03161415604051806040016040528060058152602001642b209d229960d91b815250906105745760405162461bcd60e51b81526004016101bb9190610ddb565b5060006105876080830160608401610d69565b6001600160a01b031614156040518060400160405280600581526020016456413a453360d81b815250906105ce5760405162461bcd60e51b81526004016101bb9190610ddb565b5060006105e160a0830160808401610e0a565b6bffffffffffffffffffffffff16116040518060400160405280600581526020016415904e914d60da1b8152509061062c5760405162461bcd60e51b81526004016101bb9190610ddb565b50600061063c6020840184610e36565b60ff160361069c576106976106576080840160608501610d69565b3061066860a0860160808701610e0a565b6bffffffffffffffffffffffff166106866040870160208801610d69565b6001600160a01b0316929190610a7a565b61071c565b60106106ab6020840184610e36565b60ff16036106dc5761069760408301356106cb6080850160608601610d69565b306103846040870160208801610d69565b60116106eb6020840184610e36565b60ff160361041c576106976107066080840160608501610d69565b3060408501356103d560a0870160808801610e0a565b7f19437e3e1b685db6090b1c6e20adf08b5e54b6ad91e1422dfe7fe4345abbd048826040516104969190610e51565b82803b8061079b5760405162461bcd60e51b815260206004820152601d60248201527f5472616e7366657248656c7065723a207a65726f20636f646573697a6500000060448201526064016101bb565b604080516001600160a01b038681166024830152604480830187905283518084039091018152606490920183526020820180516001600160e01b031663a9059cbb60e01b17905291516000928392908916916107f79190610ec3565b6000604051808303816000865af19150503d8060008114610834576040519150601f19603f3d011682016040523d82523d6000602084013e610839565b606091505b50915091506108488282610b02565b50505050505050565b83803b806108a15760405162461bcd60e51b815260206004820152601d60248201527f5472616e7366657248656c7065723a207a65726f20636f646573697a6500000060448201526064016101bb565b6040516001600160a01b03858116602483015284811660448301526064820187905260009182918916906342842e0e906084015b6040516020818303038152906040529060e01b6020820180516001600160e01b03838183161783525050505060405161090e9190610ec3565b6000604051808303816000865af19150503d806000811461094b576040519150601f19603f3d011682016040523d82523d6000602084013e610950565b606091505b509150915061095f8282610b02565b5050505050505050565b85803b806109b95760405162461bcd60e51b815260206004820152601d60248201527f5472616e7366657248656c7065723a207a65726f20636f646573697a6500000060448201526064016101bb565b600080896001600160a01b031663f242432a8a8a8a8a8a6040516024016109e4959493929190610edf565b6040516020818303038152906040529060e01b6020820180516001600160e01b038381831617835250505050604051610a1d9190610ec3565b6000604051808303816000865af19150503d8060008114610a5a576040519150601f19603f3d011682016040523d82523d6000602084013e610a5f565b606091505b5091509150610a6e8282610b02565b50505050505050505050565b83803b80610aca5760405162461bcd60e51b815260206004820152601d60248201527f5472616e7366657248656c7065723a207a65726f20636f646573697a6500000060448201526064016101bb565b6040516001600160a01b03868116602483015285811660448301526064820185905260009182918916906323b872dd906084016108d5565b818015610b27575080511580610b27575080806020019051810190610b279190610f22565b610b995760405162461bcd60e51b815260206004820152602a60248201527f5472616e7366657248656c7065723a20746f6b656e20636f6e7472616374206360448201527f616c6c206661696c65640000000000000000000000000000000000000000000060648201526084016101bb565b5050565b80356001600160a01b0381168114610bb457600080fd5b919050565b634e487b7160e01b600052604160045260246000fd5b60008060008060808587031215610be557600080fd5b610bee85610b9d565b9350610bfc60208601610b9d565b925060408501359150606085013567ffffffffffffffff80821115610c2057600080fd5b818701915087601f830112610c3457600080fd5b813581811115610c4657610c46610bb9565b604051601f8201601f19908116603f01168101908382118183101715610c6e57610c6e610bb9565b816040528281528a6020848701011115610c8757600080fd5b82602086016020830137600060208483010152809550505050505092959194509250565b600060a08284031215610cbd57600080fd5b50919050565b60008060008060008060a08789031215610cdc57600080fd5b610ce587610b9d565b9550610cf360208801610b9d565b94506040870135935060608701359250608087013567ffffffffffffffff80821115610d1e57600080fd5b818901915089601f830112610d3257600080fd5b813581811115610d4157600080fd5b8a6020828501011115610d5357600080fd5b6020830194508093505050509295509295509295565b600060208284031215610d7b57600080fd5b610d8482610b9d565b9392505050565b60005b83811015610da6578181015183820152602001610d8e565b50506000910152565b60008151808452610dc7816020860160208601610d8b565b601f01601f19169290920160200192915050565b602081526000610d846020830184610daf565b80356bffffffffffffffffffffffff81168114610bb457600080fd5b600060208284031215610e1c57600080fd5b610d8482610dee565b803560ff81168114610bb457600080fd5b600060208284031215610e4857600080fd5b610d8482610e25565b60a0810160ff610e6084610e25565b168252610e6f60208401610b9d565b6001600160a01b0380821660208501526040850135604085015280610e9660608701610b9d565b16606085015250506bffffffffffffffffffffffff610eb760808501610dee565b16608083015292915050565b60008251610ed5818460208701610d8b565b9190910192915050565b60006001600160a01b03808816835280871660208401525084604083015283606083015260a06080830152610f1760a0830184610daf565b979650505050505050565b600060208284031215610f3457600080fd5b81518015158114610d8457600080fdfea164736f6c6343000810000a",
  "devdoc": {
    "author": "Pantherprotocol Contributors",
    "details": "It transfers assets from user to itself (Lock) and vice versa (Unlock). `PantherPool` is assumed to be the `owner` that is authorized to trigger locking/unlocking assets.",
    "kind": "dev",
    "methods": {},
    "title": "Vault",
    "version": 1
  },
  "userdoc": {
    "kind": "user",
    "methods": {
      "OWNER()": {
        "notice": "The owner who has privileged rights"
      }
    },
    "notice": "Holder of assets (tokens) for `PantherPool` contract",
    "version": 1
  },
  "storageLayout": {
    "storage": [],
    "types": null
  }
}