{
  "address": "0x3F432d43E33B5CE9E10beE80f474394174f0E41D",
  "abi": [
    {
      "inputs": [
        {
          "internalType": "address",
          "name": "_owner",
          "type": "address"
        }
      ],
      "stateMutability": "nonpayable",
      "type": "constructor"
    },
    {
      "anonymous": false,
      "inputs": [
        {
          "indexed": true,
          "internalType": "uint160",
          "name": "zAssetRecId",
          "type": "uint160"
        },
        {
          "components": [
            {
              "internalType": "uint64",
              "name": "_unused",
              "type": "uint64"
            },
            {
              "internalType": "uint8",
              "name": "version",
              "type": "uint8"
            },
            {
              "internalType": "uint8",
              "name": "status",
              "type": "uint8"
            },
            {
              "internalType": "uint8",
              "name": "tokenType",
              "type": "uint8"
            },
            {
              "internalType": "uint8",
              "name": "scale",
              "type": "uint8"
            },
            {
              "internalType": "address",
              "name": "token",
              "type": "address"
            }
          ],
          "indexed": false,
          "internalType": "struct ZAsset",
          "name": "asset",
          "type": "tuple"
        }
      ],
      "name": "AssetAdded",
      "type": "event"
    },
    {
      "anonymous": false,
      "inputs": [
        {
          "indexed": true,
          "internalType": "uint160",
          "name": "zAssetRecId",
          "type": "uint160"
        },
        {
          "indexed": false,
          "internalType": "uint8",
          "name": "newStatus",
          "type": "uint8"
        },
        {
          "indexed": false,
          "internalType": "uint8",
          "name": "oldStatus",
          "type": "uint8"
        }
      ],
      "name": "AssetStatusChanged",
      "type": "event"
    },
    {
      "inputs": [],
      "name": "OWNER",
      "outputs": [
        {
          "internalType": "address",
          "name": "",
          "type": "address"
        }
      ],
      "stateMutability": "view",
      "type": "function"
    },
    {
      "inputs": [
        {
          "components": [
            {
              "internalType": "uint64",
              "name": "_unused",
              "type": "uint64"
            },
            {
              "internalType": "uint8",
              "name": "version",
              "type": "uint8"
            },
            {
              "internalType": "uint8",
              "name": "status",
              "type": "uint8"
            },
            {
              "internalType": "uint8",
              "name": "tokenType",
              "type": "uint8"
            },
            {
              "internalType": "uint8",
              "name": "scale",
              "type": "uint8"
            },
            {
              "internalType": "address",
              "name": "token",
              "type": "address"
            }
          ],
          "internalType": "struct ZAsset",
          "name": "asset",
          "type": "tuple"
        }
      ],
      "name": "addZAsset",
      "outputs": [],
      "stateMutability": "nonpayable",
      "type": "function"
    },
    {
      "inputs": [
        {
          "internalType": "uint160",
          "name": "zAssetRecId",
          "type": "uint160"
        },
        {
          "internalType": "uint8",
          "name": "newStatus",
          "type": "uint8"
        }
      ],
      "name": "changeZAssetStatus",
      "outputs": [],
      "stateMutability": "nonpayable",
      "type": "function"
    },
    {
      "inputs": [
        {
          "internalType": "uint160",
          "name": "zAssetRecId",
          "type": "uint160"
        }
      ],
      "name": "getZAsset",
      "outputs": [
        {
          "components": [
            {
              "internalType": "uint64",
              "name": "_unused",
              "type": "uint64"
            },
            {
              "internalType": "uint8",
              "name": "version",
              "type": "uint8"
            },
            {
              "internalType": "uint8",
              "name": "status",
              "type": "uint8"
            },
            {
              "internalType": "uint8",
              "name": "tokenType",
              "type": "uint8"
            },
            {
              "internalType": "uint8",
              "name": "scale",
              "type": "uint8"
            },
            {
              "internalType": "address",
              "name": "token",
              "type": "address"
            }
          ],
          "internalType": "struct ZAsset",
          "name": "asset",
          "type": "tuple"
        }
      ],
      "stateMutability": "view",
      "type": "function"
    },
    {
      "inputs": [
        {
          "internalType": "address",
          "name": "token",
          "type": "address"
        },
        {
          "internalType": "uint256",
          "name": "subId",
          "type": "uint256"
        }
      ],
      "name": "getZAssetAndIds",
      "outputs": [
        {
          "internalType": "uint160",
          "name": "zAssetId",
          "type": "uint160"
        },
        {
          "internalType": "uint256",
          "name": "_tokenId",
          "type": "uint256"
        },
        {
          "internalType": "uint160",
          "name": "zAssetRecId",
          "type": "uint160"
        },
        {
          "components": [
            {
              "internalType": "uint64",
              "name": "_unused",
              "type": "uint64"
            },
            {
              "internalType": "uint8",
              "name": "version",
              "type": "uint8"
            },
            {
              "internalType": "uint8",
              "name": "status",
              "type": "uint8"
            },
            {
              "internalType": "uint8",
              "name": "tokenType",
              "type": "uint8"
            },
            {
              "internalType": "uint8",
              "name": "scale",
              "type": "uint8"
            },
            {
              "internalType": "address",
              "name": "token",
              "type": "address"
            }
          ],
          "internalType": "struct ZAsset",
          "name": "asset",
          "type": "tuple"
        }
      ],
      "stateMutability": "view",
      "type": "function"
    },
    {
      "inputs": [
        {
          "internalType": "address",
          "name": "token",
          "type": "address"
        },
        {
          "internalType": "uint256",
          "name": "subId",
          "type": "uint256"
        }
      ],
      "name": "getZAssetId",
      "outputs": [
        {
          "internalType": "uint160",
          "name": "",
          "type": "uint160"
        }
      ],
      "stateMutability": "pure",
      "type": "function"
    },
    {
      "inputs": [
        {
          "internalType": "uint160",
          "name": "zAssetRecId",
          "type": "uint160"
        }
      ],
      "name": "isZAssetWhitelisted",
      "outputs": [
        {
          "internalType": "bool",
          "name": "",
          "type": "bool"
        }
      ],
      "stateMutability": "view",
      "type": "function"
    }
  ],
  "transactionHash": "0xe923a199d2359b1a50967ed2d6703f4741373873c8626ca0848524708bdd4360",
  "args": [
    "0x208Fb9169BBec5915722e0AfF8B0eeEdaBf8a6f0"
  ],
  "numDeployments": 1,
  "solcInputHash": "49300367bcb47864d5852738a8da403e",
  "bytecode": "0x60a060405234801561001057600080fd5b50604051610f03380380610f0383398101604081905261002f9161009c565b806001600160a01b03811661008a5760405162461bcd60e51b815260206004820152601a60248201527f496d6d4f776e3a207a65726f206f776e65722061646472657373000000000000604482015260640160405180910390fd5b6001600160a01b0316608052506100cc565b6000602082840312156100ae57600080fd5b81516001600160a01b03811681146100c557600080fd5b9392505050565b608051610e0f6100f460003960008181609c015281816102a001526106210152610e0f6000f3fe608060405234801561001057600080fd5b506004361061007d5760003560e01c806331293c631161005b57806331293c63146100ee578063dc921d2614610111578063f49a7db4146101b9578063faa86eb71461028b57600080fd5b80630fa4758314610082578063117803e3146100975780632a381547146100db575b600080fd5b610095610090366004610b96565b61029e565b005b6100be7f000000000000000000000000000000000000000000000000000000000000000081565b6040516001600160a01b0390911681526020015b60405180910390f35b6100956100e9366004610c43565b61061f565b6101016100fc366004610c78565b6107fc565b6040516100d29493929190610ca4565b6101a961011f366004610d2e565b6001600160a01b0390811660009081526020818152604091829020825160c081018452905467ffffffffffffffff8116825260ff600160401b8204811693830193909352600160481b81048316938201849052600160501b810483166060830152600160581b81049092166080820152600160601b90910490921660a09092019190915260011490565b60405190151581526020016100d2565b61027e6101c7366004610d2e565b6040805160c081018252600080825260208201819052918101829052606081018290526080810182905260a0810191909152506001600160a01b0390811660009081526020818152604091829020825160c081018452905467ffffffffffffffff8116825260ff600160401b8204811693830193909352600160481b8104831693820193909352600160501b830482166060820152600160581b83049091166080820152600160601b90910490911660a082015290565b6040516100d29190610d52565b6100be610299366004610c78565b610a7a565b7f00000000000000000000000000000000000000000000000000000000000000006001600160a01b0316331461031b5760405162461bcd60e51b815260206004820152601460248201527f496d6d4f776e3a20756e617574686f72697a656400000000000000000000000060448201526064015b60405180910390fd5b60a081015160408051808201909152600581526441523a453760d81b6020820152906001600160a01b03166103635760405162461bcd60e51b81526004016103129190610db4565b506040808201518151808301909252600582526441523a453360d81b602083015260ff166103a45760405162461bcd60e51b81526004016103129190610db4565b50602081015160ff1615806103cf5750606081015160ff161580156103cf575060208181015160ff16105b6040518060400160405280600581526020017f41523a4535000000000000000000000000000000000000000000000000000000815250906104235760405162461bcd60e51b81526004016103129190610db4565b5061042d81610abf565b60208181015160a08084015160ff928316186001600160a01b038181166000908152808652604090819020815160c081018352905467ffffffffffffffff81168252600160401b8104871682890152600160481b81048716828401819052600160501b820488166060840152600160581b82049097166080830152600160601b9004909216938201939093528251808401909352600583527f41523a45310000000000000000000000000000000000000000000000000000009483019490945292911561050d5760405162461bcd60e51b81526004016103129190610db4565b506001600160a01b03808316600081815260208181526040918290208751815492890151848a015160608b015160808c015160a08d0151909916600160601b026bffffffffffffffffffffffff60ff9a8b16600160581b02166affffffffffffffffffffff928b16600160501b026aff0000000000000000000019948c16600160481b02949094166affff000000000000000000199b909516600160401b0268ffffffffffffffffff1990981667ffffffffffffffff909616959095179690961798909816919091171795909516949094171790925590517f6d53e023dd2f7860d7fda3a15015fe6f1a32ba33dc829849438795dbd8920eaa90610612908690610d52565b60405180910390a2505050565b7f00000000000000000000000000000000000000000000000000000000000000006001600160a01b031633146106975760405162461bcd60e51b815260206004820152601460248201527f496d6d4f776e3a20756e617574686f72697a65640000000000000000000000006044820152606401610312565b6001600160a01b0382811660009081526020818152604091829020548251808401909352600583527f41523a4532000000000000000000000000000000000000000000000000000000918301919091529091600160601b9091041661070f5760405162461bcd60e51b81526004016103129190610db4565b506001600160a01b03821660009081526020819052604090205460ff600160481b90910481169082161580159061074c57508160ff168160ff1614155b6040518060400160405280600581526020016441523a453360d81b815250906107885760405162461bcd60e51b81526004016103129190610db4565b506001600160a01b03831660008181526020818152604091829020805469ff0000000000000000001916600160481b60ff8881169182029290921790925583519182528516918101919091527f23616cab3d900e747e5ed9a2ae74d5bf24047e5798e2eb16fa71d752d3a443469101610612565b6040805160c081018252600080825260208201819052918101829052606081018290526080810182905260a081018290528190819060408051808201909152600581526441523a453760d81b60208201526001600160a01b0387166108745760405162461bcd60e51b81526004016103129190610db4565b508492508215610942576001600160a01b038616851860208110801561089957508015155b15610940576001600160a01b0380871660009081526020818152604091829020825160c081018452905467ffffffffffffffff8116825260ff600160401b82048116938301849052600160481b8204811694830194909452600160501b810484166060830152600160581b810484166080830152600160601b900490931660a084015291935082169003610940576109318787610a7a565b94508592506000935050610a71565b505b50506001600160a01b0380851660009081526020818152604091829020825160c081018452905467ffffffffffffffff8116825260ff600160401b8204811693830193909352600160481b81048316938201849052600160501b810483166060830152600160581b81049092166080820152600160601b90910490921660a08301528591906109db576000806000935093509350610a71565b8415806109ee5750606081015160ff1615155b8015610a0f5750856001600160a01b03168160a001516001600160a01b0316145b6040518060400160405280600581526020017f41523a453600000000000000000000000000000000000000000000000000000081525090610a635760405162461bcd60e51b81526004016103129190610db4565b50610a6e8684610a7a565b93505b92959194509250565b604080516001600160a01b038416602082015290810182905260009060609081016040516020818303038152906040528051906020012060001c901c90505b92915050565b608081015160ff161580610aed5750602060ff16816080015160ff16108015610aed5750606081015160ff16155b6040518060400160405280600581526020017f41523a453400000000000000000000000000000000000000000000000000000081525090610b415760405162461bcd60e51b81526004016103129190610db4565b5050565b803567ffffffffffffffff81168114610b5d57600080fd5b919050565b803560ff81168114610b5d57600080fd5b6001600160a01b0381168114610b8857600080fd5b50565b8035610b5d81610b73565b600060c08284031215610ba857600080fd5b60405160c0810181811067ffffffffffffffff82111715610bd957634e487b7160e01b600052604160045260246000fd5b604052610be583610b45565b8152610bf360208401610b62565b6020820152610c0460408401610b62565b6040820152610c1560608401610b62565b6060820152610c2660808401610b62565b6080820152610c3760a08401610b8b565b60a08201529392505050565b60008060408385031215610c5657600080fd5b8235610c6181610b73565b9150610c6f60208401610b62565b90509250929050565b60008060408385031215610c8b57600080fd5b8235610c9681610b73565b946020939093013593505050565b6001600160a01b03858116825260208201859052831660408201526101208101610d25606083018467ffffffffffffffff815116825260ff602082015116602083015260ff604082015116604083015260ff606082015116606083015260ff60808201511660808301526001600160a01b0360a08201511660a08301525050565b95945050505050565b600060208284031215610d4057600080fd5b8135610d4b81610b73565b9392505050565b60c08101610ab9828467ffffffffffffffff815116825260ff602082015116602083015260ff604082015116604083015260ff606082015116606083015260ff60808201511660808301526001600160a01b0360a08201511660a08301525050565b600060208083528351808285015260005b81811015610de157858101830151858201604001528201610dc5565b506000604082860101526040601f19601f830116850101925050509291505056fea164736f6c6343000810000a",
  "devdoc": {
    "author": "Pantherprotocol Contributors",
    "kind": "dev",
    "methods": {
      "addZAsset((uint64,uint8,uint8,uint8,uint8,address))": {
        "details": "The \"owner\" may call only",
        "params": {
          "asset": "Params of the asset (including its `ZAsset.status`)"
        }
      },
      "changeZAssetStatus(uint160,uint8)": {
        "details": "The \"owner\" may call only",
        "params": {
          "newStatus": "Status to be set",
          "zAssetRecId": "ID of the ZAsset record"
        }
      },
      "getZAssetAndIds(address,uint256)": {
        "returns": {
          "_tokenId": "ERC-721/1155 _tokenId/_id, if it's an NFT, or 0 for ERC-20",
          "asset": "ZAsset record for the token",
          "zAssetId": "zAssetId",
          "zAssetRecId": "ID of the ZAsset record"
        }
      },
      "getZAssetId(address,uint256)": {
        "details": "declared as view rather than pure to allow for protocol changes"
      }
    },
    "title": "ZAssetsRegistry",
    "version": 1
  },
  "userdoc": {
    "kind": "user",
    "methods": {
      "OWNER()": {
        "notice": "The owner who has privileged rights"
      },
      "addZAsset((uint64,uint8,uint8,uint8,uint8,address))": {
        "notice": "Register with the MASP a new asset with given params"
      },
      "changeZAssetStatus(uint160,uint8)": {
        "notice": "Updates the status of the existing asset"
      },
      "getZAsset(uint160)": {
        "notice": "Returns ZAsset record for the given record ID"
      }
    },
    "notice": "Registry and whitelist of assets (tokens) supported by the Panther Protocol Multi-Asset Shielded Pool (aka \"MASP\")",
    "version": 1
  },
  "storageLayout": {
    "storage": [
      {
        "astId": 5713,
        "contract": "contracts/protocol/ZAssetsRegistry.sol:ZAssetsRegistry",
        "label": "_registry",
        "offset": 0,
        "slot": "0",
        "type": "t_mapping(t_uint160,t_struct(ZAsset)3982_storage)"
      }
    ],
    "types": {
      "t_address": {
        "encoding": "inplace",
        "label": "address",
        "numberOfBytes": "20"
      },
      "t_mapping(t_uint160,t_struct(ZAsset)3982_storage)": {
        "encoding": "mapping",
        "key": "t_uint160",
        "label": "mapping(uint160 => struct ZAsset)",
        "numberOfBytes": "32",
        "value": "t_struct(ZAsset)3982_storage"
      },
      "t_struct(ZAsset)3982_storage": {
        "encoding": "inplace",
        "label": "struct ZAsset",
        "members": [
          {
            "astId": 3971,
            "contract": "contracts/protocol/ZAssetsRegistry.sol:ZAssetsRegistry",
            "label": "_unused",
            "offset": 0,
            "slot": "0",
            "type": "t_uint64"
          },
          {
            "astId": 3973,
            "contract": "contracts/protocol/ZAssetsRegistry.sol:ZAssetsRegistry",
            "label": "version",
            "offset": 8,
            "slot": "0",
            "type": "t_uint8"
          },
          {
            "astId": 3975,
            "contract": "contracts/protocol/ZAssetsRegistry.sol:ZAssetsRegistry",
            "label": "status",
            "offset": 9,
            "slot": "0",
            "type": "t_uint8"
          },
          {
            "astId": 3977,
            "contract": "contracts/protocol/ZAssetsRegistry.sol:ZAssetsRegistry",
            "label": "tokenType",
            "offset": 10,
            "slot": "0",
            "type": "t_uint8"
          },
          {
            "astId": 3979,
            "contract": "contracts/protocol/ZAssetsRegistry.sol:ZAssetsRegistry",
            "label": "scale",
            "offset": 11,
            "slot": "0",
            "type": "t_uint8"
          },
          {
            "astId": 3981,
            "contract": "contracts/protocol/ZAssetsRegistry.sol:ZAssetsRegistry",
            "label": "token",
            "offset": 12,
            "slot": "0",
            "type": "t_address"
          }
        ],
        "numberOfBytes": "32"
      },
      "t_uint160": {
        "encoding": "inplace",
        "label": "uint160",
        "numberOfBytes": "20"
      },
      "t_uint64": {
        "encoding": "inplace",
        "label": "uint64",
        "numberOfBytes": "8"
      },
      "t_uint8": {
        "encoding": "inplace",
        "label": "uint8",
        "numberOfBytes": "1"
      }
    }
  }
}