{
  "address": "0xFED599513aB078Edea7Cf46574154f92b0B9FCAB",
  "abi": [
    {
      "inputs": [
        {
          "internalType": "address",
          "name": "_rewardMaster",
          "type": "address"
        },
        {
          "internalType": "address",
          "name": "_actionMsgReceiver",
          "type": "address"
        },
        {
          "internalType": "address",
          "name": "_fxRoot",
          "type": "address"
        }
      ],
      "stateMutability": "nonpayable",
      "type": "constructor"
    },
    {
      "anonymous": false,
      "inputs": [
        {
          "indexed": false,
          "internalType": "uint256",
          "name": "_nonce",
          "type": "uint256"
        },
        {
          "indexed": false,
          "internalType": "bytes",
          "name": "data",
          "type": "bytes"
        }
      ],
      "name": "StakeMsgBridged",
      "type": "event"
    },
    {
      "inputs": [],
      "name": "ACTION_MSG_RECEIVER",
      "outputs": [
        {
          "internalType": "address",
          "name": "",
          "type": "address"
        }
      ],
      "stateMutability": "view",
      "type": "function"
    },
    {
      "inputs": [],
      "name": "FX_ROOT",
      "outputs": [
        {
          "internalType": "address",
          "name": "",
          "type": "address"
        }
      ],
      "stateMutability": "view",
      "type": "function"
    },
    {
      "inputs": [],
      "name": "REWARD_MASTER",
      "outputs": [
        {
          "internalType": "address",
          "name": "",
          "type": "address"
        }
      ],
      "stateMutability": "view",
      "type": "function"
    },
    {
      "inputs": [
        {
          "internalType": "bytes4",
          "name": "action",
          "type": "bytes4"
        },
        {
          "internalType": "bytes",
          "name": "message",
          "type": "bytes"
        }
      ],
      "name": "getRewardAdvice",
      "outputs": [
        {
          "components": [
            {
              "internalType": "address",
              "name": "createSharesFor",
              "type": "address"
            },
            {
              "internalType": "uint96",
              "name": "sharesToCreate",
              "type": "uint96"
            },
            {
              "internalType": "address",
              "name": "redeemSharesFrom",
              "type": "address"
            },
            {
              "internalType": "uint96",
              "name": "sharesToRedeem",
              "type": "uint96"
            },
            {
              "internalType": "address",
              "name": "sendRewardTo",
              "type": "address"
            }
          ],
          "internalType": "struct IRewardAdviser.Advice",
          "name": "",
          "type": "tuple"
        }
      ],
      "stateMutability": "nonpayable",
      "type": "function"
    },
    {
      "inputs": [],
      "name": "nonce",
      "outputs": [
        {
          "internalType": "uint256",
          "name": "",
          "type": "uint256"
        }
      ],
      "stateMutability": "view",
      "type": "function"
    }
  ],
  "transactionHash": "0x694c79bb6e79144cdeca36b2c781637e293b3ce5992984cbe475777077efde6b",
  "args": [
    "0x347a58878D04951588741d4d16d54B742c7f60fC",
    "0x47374FBE2289c0442f33a388590385A0b32a20Ff",
    "0xfe5e5D361b2ad62c541bAb87C45a0B9B018389a2"
  ],
  "numDeployments": 1,
  "solcInputHash": "49300367bcb47864d5852738a8da403e",
  "bytecode": "0x61012060405234801561001157600080fd5b5060405161080b38038061080b83398101604081905261003091610105565b6319932b9d60e31b63b8372e5560e01b61004e565b60405180910390fd5b6001600160e01b03199182166080521660a0526001600160a01b0381161580159061008157506001600160a01b03821615155b801561009557506001600160a01b03831615155b6100cb5760405162461bcd60e51b8152602060048201526007602482015266414d533a45303160c81b6044820152606401610045565b6001600160a01b0390811660c05291821660e0521661010052610148565b80516001600160a01b038116811461010057600080fd5b919050565b60008060006060848603121561011a57600080fd5b610123846100e9565b9250610131602085016100e9565b915061013f604085016100e9565b90509250925092565b60805160a05160c05160e0516101005161066d61019e6000396000818160b501526103680152600060dc0152600081816071015261033b015260006101f70152600081816101ba01526102bc015261066d6000f3fe608060405234801561001057600080fd5b50600436106100675760003560e01c8063576eadd211610050578063576eadd2146100d7578063affed0e0146100fe578063e9cb03241461011557600080fd5b806329c9e0581461006c578063479169c4146100b0575b600080fd5b6100937f000000000000000000000000000000000000000000000000000000000000000081565b6040516001600160a01b0390911681526020015b60405180910390f35b6100937f000000000000000000000000000000000000000000000000000000000000000081565b6100937f000000000000000000000000000000000000000000000000000000000000000081565b61010760005481565b6040519081526020016100a7565b610128610123366004610448565b61018d565b6040516100a79190600060a0820190506001600160a01b0380845116835260208401516bffffffffffffffffffffffff808216602086015282604087015116604086015280606087015116606086015250508060808501511660808401525092915050565b6040805160a0810182526000808252602082018190529181018290526060810182905260808101919091527f00000000000000000000000000000000000000000000000000000000000000006001600160e01b031916836001600160e01b031916148061022d57507f00000000000000000000000000000000000000000000000000000000000000006001600160e01b031916836001600160e01b031916145b61027d5760405162461bcd60e51b815260206004820152601760248201527f5a52413a20756e737570706f7274656420616374696f6e000000000000000000604482015260640160405180910390fd5b61028783836102ba565b506040805160a0810182526000808252602082018190529181018290526060810182905260808101919091525b92915050565b7f00000000000000000000000000000000000000000000000000000000000000006001600160e01b031916826001600160e01b031916146102f9575050565b60008054610308906001610531565b62ffffff81166000908155909150610321828585610403565b60405163b472047760e01b81529091506001600160a01b037f0000000000000000000000000000000000000000000000000000000000000000169063b472047790610392907f00000000000000000000000000000000000000000000000000000000000000009085906004016105a2565b600060405180830381600087803b1580156103ac57600080fd5b505af11580156103c0573d6000803e3d6000fd5b505050507f572041cd38e1e969e2595e37f964dff9c8ff6352e81996136313b838c3873d3a82826040516103f59291906105cc565b60405180910390a150505050565b606083838360405160200161041a939291906105ea565b60405160208183030381529060405290509392505050565b634e487b7160e01b600052604160045260246000fd5b6000806040838503121561045b57600080fd5b82357fffffffff000000000000000000000000000000000000000000000000000000008116811461048b57600080fd5b9150602083013567ffffffffffffffff808211156104a857600080fd5b818501915085601f8301126104bc57600080fd5b8135818111156104ce576104ce610432565b604051601f8201601f19908116603f011681019083821181831017156104f6576104f6610432565b8160405282815288602084870101111561050f57600080fd5b8260208601602083013760006020848301015280955050505050509250929050565b808201808211156102b457634e487b7160e01b600052601160045260246000fd5b60005b8381101561056d578181015183820152602001610555565b50506000910152565b6000815180845261058e816020860160208601610552565b601f01601f19169290920160200192915050565b6001600160a01b03831681526040602082015260006105c46040830184610576565b949350505050565b62ffffff831681526040602082015260006105c46040830184610576565b60e884901b7fffffff00000000000000000000000000000000000000000000000000000000001681527fffffffff00000000000000000000000000000000000000000000000000000000831660038201528151600090610651816007850160208701610552565b9190910160070194935050505056fea164736f6c6343000810000a",
  "devdoc": {
    "kind": "dev",
    "methods": {
      "constructor": {
        "params": {
          "_actionMsgReceiver": "Address of the AdvancedStakeActionMsgRelayer on Polygon/Mumbai",
          "_fxRoot": "Address of the `FxRoot` (PoS Bridge) contract on mainnet/Goerli",
          "_rewardMaster": "Address of the RewardMaster contract on the mainnet/Goerli"
        }
      },
      "getRewardAdvice(bytes4,bytes)": {
        "details": "It is assumed to be called by the RewardMaster contract. It returns the \"zero\" reward advises, no matter who calls it."
      }
    },
    "stateVariables": {
      "FX_ROOT": {
        "details": "`FxRoot` is the contract of the \"Fx-Portal\" on the mainnet/Goerli."
      }
    },
    "version": 1
  },
  "userdoc": {
    "kind": "user",
    "methods": {
      "ACTION_MSG_RECEIVER()": {
        "notice": "Address on the AdvancedStakeActionMsgRelayer on the Polygon/Mumbai"
      },
      "FX_ROOT()": {
        "notice": "Address of the `FxRoot` contract on the mainnet/Goerli network"
      },
      "REWARD_MASTER()": {
        "notice": "Address of the RewardMaster contract on the mainnet/Goerli"
      },
      "nonce()": {
        "notice": "Message nonce (i.e. sequential number of the latest message)"
      }
    },
    "version": 1
  },
  "storageLayout": {
    "storage": [
      {
        "astId": 9927,
        "contract": "contracts/staking/AdvancedStakeRewardAdviserAndMsgSender.sol:AdvancedStakeRewardAdviserAndMsgSender",
        "label": "nonce",
        "offset": 0,
        "slot": "0",
        "type": "t_uint256"
      }
    ],
    "types": {
      "t_uint256": {
        "encoding": "inplace",
        "label": "uint256",
        "numberOfBytes": "32"
      }
    }
  }
}